:020000040800F2
:100000009844002061020008FB16000865150008EE
:10001000F916000891030008791C00080000000090
:10002000000000000000000000000000A101000826
:100030009303000800000000FD0100080D170008F0
:100040007B0200087B0200087B0200087B0200089C
:100050007B0200087B0200087B0200087B0200088C
:100060007B0200087B0200087B0200087B0200087C
:100070007B0200087B0200087B0200087B0200086C
:100080007B0200087B0200087B0200087B0200085C
:100090007B0200087B0200087B0200087B0200084C
:1000A0007B020008DD1700087B0200087B020008C5
:1000B000E91700087B0200087B0200087B020008A9
:1000C0007B0200087B0200087B0200087B0200081C
:1000D0007B0200086D1C00087B0200087B02000800
:1000E0007B0200087B0200087B0200087B020008FC
:1000F0007B0200087B0200087B0200087B020008EC
:100100007B0200087B0200087B0200087B020008DB
:100110007B0200087B0200087B0200087B020008CB
:100120007B0200087B0200087B0200087B020008BB
:100130007B0200087B0200087B0200087B020008AB
:100140007B0200087B0200087B0200087B0200089B
:100150007B0200087B0200087B0200087B0200088B
:100160007B0200087B0200087B0200087B0200087B
:100170007B0200087B0200087B02000800000000F0
:100180007B0200087B020008DFF810D000F0EEF8D8
:1001900000480047B91C0008AFF3008098440020D5
:1001A0002C4B19680868B0E8F04F80F30988BFF35A
:1001B0006F8F4FF0000080F311887047000000003F
:1001C00008480068006880F308884FF0000080F35A
:1001D000148862B661B6BFF34F8FBFF36F8F00DF35
:1001E00000BF00BF08ED00E0DFF80C00016841F43B
:1001F00070010160704700BF88ED00E0EFF30980F7
:10020000BFF36F8F134B1A681EF0100F08BF20ED5D
:10021000108A20E9F04F106009B44FF0500080F3CD
:100220001188BFF34F8FBFF36F8F02F0E9F84FF0E3
:10023000000080F3118809BC19680868B0E8F04F25
:100240001EF0100F08BFB0EC108A80F30988BFF3CE
:100250006F8F704718000020EFF305807047000093
:100260000648804706480047FEE7FEE7FEE7FEE750
:10027000FEE7FEE7FEE7FEE7FEE7FEE7CD17000834
:10028000890100082DE9F05F0546002092469B4653
:1002900088460646814640241BE02846414647469C
:1002A000224600F053F853465A46C01A914110D3E3
:1002B00011461846224600F03AF82D1A67EB01085D
:1002C0004F4622460120002100F031F817EB0009CB
:1002D0004E41201EA4F10104DFDC484631462A4687
:1002E0004346BDE8F09F40EA01039B0703D009E0C5
:1002F00008C9121F08C0042AFAD203E011F8013B12
:1003000000F8013B521EF9D27047D2B201E000F86A
:10031000012B491EFBD270470022F6E710B51346A9
:100320000A4604461946FFF7F0FF204610BD202A72
:1003300004DB203A00FA02F1002070479140C2F13C
:10034000200320FA03F3194390407047202A04DB6E
:10035000203A21FA02F00021704721FA02F3D0403E
:10036000C2F120029140084319467047064C074DE0
:1003700006E0E06840F0010394E807009847103475
:10038000AC42F6D3FFF704FFF8270008182800084E
:10039000FEE7704772B6FEE72DE9F0410446876D2F
:1003A00000F066F9064694F835000025022806D0CC
:1003B0008020606584F834500120BDE8F081206819
:1003C000016821F0160101602068416921F0800177
:1003D0004161206C08B9A06C20B12068016821F04F
:1003E000080101602068016821F0010101600CE052
:1003F00000F03EF9801B052807D920206065032006
:1004000084F8350084F83450D7E720680068C007C6
:10041000EED194F85C103F208840B860012084F849
:10042000350084F834500020C7E790F835100229D1
:1004300003D08021416501207047052180F83510E7
:100440000068016821F00101016000207047000090
:1004500070B5044600F00CF90546601C02D0044853
:100460000078044400F004F9401BA042FAD370BDA8
:10047000080000202DE9F84FDFF8BCA1002201257B
:1004800003264FF00F090AF1040BAAF1040E00BF76
:100490000B6805FA02F42340A34270D10F7907F0EC
:1004A0000307012F01D0022F16D187684FEA4208B7
:1004B00006FA08FC27EA0C07D1F80CC00CFA08FC75
:1004C0004CEA070CC0F808C04768A7430C79C4F38E
:1004D000001494403C4344600C79E443A4070AD0E0
:1004E000C4684FEA420C06FA0CF7BC438F6807FA5F
:1004F0000CF72743C7600C7904F00304022C12D1D7
:10050000D40800EB840CDCF820405707FF0E09FAF2
:1005100007F824EA0804D1F8108008FA07F848EA36
:100520000408CCF8208004684FEA420C06FA0CF765
:10053000BC430F7907F0030707FA0CF7274307605E
:100540004C6814F4403F70D03C4C276847F4804717
:100550002760246822F0030704F480440094384C98
:1005600007EB040CDCF8084897074FEA177809FAFC
:1005700008F7BC43334FB84202D1002724E054E0CF
:10058000314FB84201D101271EE0304FB84201D1AE
:10059000022719E02E4FB84201D1032714E02D4F56
:1005A000B84201D104270FE02B4FB84201D10527F3
:1005B0000AE02A4FB84201D1062705E0284FB84289
:1005C00001D1072700E0082707FA08F72743CCF8EE
:1005D0000878DAF800405746D1F804C09C435FEA37
:1005E000CC2C00D51C433C60DBF800405F46D1F8C2
:1005F00004C09C435FEA8C2C00D51C433C60DEF8B1
:1006000000407746D1F804C09C435FEA8C3C00D59B
:100610001C433C60084F083F3C68D1F804C09C4331
:100620005FEACC3C00D51C433C60521C102AFFF40E
:100630002FAFBDE8F88F0000083C0140443802406D
:100640000030014000000240000402400008024067
:10065000000C02400010024000140240001802404A
:10066000001C02400AB1816170470904FBE70000E9
:100670000148806870470000080000200248816837
:100680000278114481607047080000200B4810B5C3
:10069000016841F400710160016841F4806101600A
:1006A000016841F480710160032000F09FF80F2081
:1006B00000F006F800F050F8002010BD003C0240A9
:1006C00030B50546204887B00024016841F001019B
:1006D0000160006806A900F00100009001A800F088
:1006E00031F90498B0B100F04DF9400017494FF0CE
:1006F0008042B0FBF1F11648491E026040F2E73239
:10070000C0E90324C0E90114846100F0B7FB0400D0
:1007100003D015E000F036F9E8E70D4800F0DCFB07
:1007200004000DD11C2000F033F8102D07D2002258
:1007300029461C2000F03AF80648056000E0012434
:1007400007B0204630BD00004038024040420F0054
:10075000600300200C0000200C4882B0016841F4C6
:1007600080410160006800F4804000900748001F4D
:10077000016841F0805101600068002200F0805063
:1007800000900F21901E02B000F010B844380240D3
:10079000002809DB00F01F02012191404009800080
:1007A00000F1E020C0F8001170470000F0B40E4BDB
:1007B0001B680C46C3F30223C3F10705042D00D9BF
:1007C0000425191D072901D2002300E0DB1E0126A4
:1007D00006FA05F1491E214099409E40761E1640BA
:1007E0003143F0BC01F049BA0CED00E0064900F0DD
:1007F000070208684FF6FF03184040EA0220034A48
:1008000010430860704700000CED00E00000FA059E
:100810002DE9F0470E46050065D0DFF81481D8F8C1
:100820000000F7B200F00700B04207D288F800706D
:10083000D8F8000000F00700B04254D128683D4CC1
:10084000810712D5400703D5206840F4E0502060AE
:100850002878000703D5206840F4604020602068B5
:10086000A96820F0F000084320602878C0072DD048
:10087000304968680839012812D0022813D00328AB
:1008800011D00968890700292DDA216821F00301B8
:1008900001432160FFF7ECFE814641F2883A0EE009
:1008A00009688903EFE709688901ECE7FFF7E0FED3
:1008B000A0EB0901514502D90320BDE8F08720686B
:1008C000696800F00C00B0EB810FEFD1D8F8001090
:1008D000404601F00701B14207D90770006800F0F7
:1008E0000700B04201D00120E7E72878400705D58E
:1008F0002068E96820F4E050084320602878000769
:1009000006D52068296920F4604040EAC1002060D3
:1009100000F058F82168084AC1F30311515CC8403F
:100920000649086006480068FFF7CAFE0020C4E7D1
:10093000003C024008380240C8270008140000208C
:100940000C0000200F2202600C4A136803F003031E
:100950004360136803F0F0038360136803F4E0530B
:10096000C36012684FF4E05303EAD2020261044804
:10097000006800F007000860704700000838024077
:10098000003C02400448054900680968044AC1F374
:100990008221515CC8407047140000200838024092
:1009A000D82700080448054900680968044AC1F3CB
:1009B0004231515CC84070471400002008380240A2
:1009C000D8270008154810B5006810F00C0214482C
:1009D00013D01449042A0FD0082A0ED10F4C241F1B
:1009E0002268236802F03F025B0207D52068C0F34B
:1009F0008810A0FB010106E0084610BD2168C1F384
:100A00008811A1FB00010023FFF73CFC2168C1F322
:100A10000141491C4900B0FBF1F010BD083802400B
:100A20000024F40040787D012DE9F84F04006ED0D9
:100A30002078DFF84C93C007A9F104054AD009F1EA
:100A400004000168C1F38101012908D00068C0F3E6
:100A5000810002280AD1D9F80000400206D5286892
:100A6000800337D560680028E1D033E06068B0F5D6
:100A7000803F10D0B0F5A02F286810D020F480302F
:100A80002860286820F4802028606068A8B1FFF7FB
:100A9000EFFD06460DE0286840F48030F4E740F4AE
:100AA00080202860F7E700BFFFF7E2FD801B642885
:100AB00073D828688003F7D50CE0FFF7D9FD064608
:100AC00005E000BFFFF7D4FD801B6428F0D828683C
:100AD0008003F7D42078DFF8AC8280074FF0000A5B
:100AE0003ED5A748001D016811F00C0F08D0006822
:100AF000C0F3810002280BD1D9F80000400207D4CE
:100B00002868800716D5E068012800D112E033E19B
:100B1000E068B8B10120C8F80000FFF7A9FD06465B
:100B200005E000BFFFF7A4FD801B0228C0D828689D
:100B30008007F7D52868216920F0F80040EAC10055
:100B400028600DE0C8F800A0FFF792FD064604E01B
:100B5000FFF78EFD801B02281FD828688007F7D476
:100B60002078000722D5864F87486169703771B1B8
:100B700001210160FFF77CFD064604E0FFF778FDE8
:100B8000801B022809D838688007F7D50EE0C0F826
:100B900000A0FFF76DFD064605E082E0FFF768FD67
:100BA000801B02287DD838688007F7D4207840075A
:100BB00068D5DFF8CCB100270BF13C0BDBF8000067
:100BC000C0000BD4DBF8001041F08051CBF80010CE
:100BD000DBF80000012700F0805000906B4E306879
:100BE000C00510D4306840F480703060FFF740FDDD
:100BF000009005E0FFF73CFD0099401A022850D80C
:100C00003068C005F6D55E4EA0686C3601280FD05E
:100C10000528306810D020F001003060306820F0E6
:100C200004003060A068B8B1FFF722FD00900FE02B
:100C3000306840F00100F4E740F004003060F7E76E
:100C4000FFF716FD0099411A41F28830814266D8BB
:100C500030688007F4D50EE0FFF70AFD009007E04A
:100C6000FFF706FD0099411A41F28830814256D8BB
:100C700030688007F4D42FB1DBF8001021F08051E8
:100C8000CBF80010A069C8B33D49091D0968C1F33C
:100C9000810102294AD00228504607D0C8F86000D6
:100CA00000E03CE0FFF7E4FC04463BE04746C8F8C0
:100CB0006000FFF7DDFC064605E000BFFFF7D8FC4B
:100CC000801B02282BD828688001F7D4D4E90701BB
:100CD0000843A16A2E4A490802EB0141626A41EACF
:100CE0008211084394F82C1040EA0161C9F8001001
:100CF00001203866FFF7BCFC044606E03EE000BF7A
:100D0000FFF7B6FC001B022809D828688001F7D538
:100D100034E000BFFFF7ACFC001B022802D903201F
:100D2000BDE8F88F28688001F4D427E00128F7D0C7
:100D3000D9F80000E26900F4800191421CD1226AD6
:100D400000F03F01914217D147F6C071626A01403D
:100D5000B1EB821F10D1A26A4FF0FF3300F4403193
:100D600003EB5202B1EB024F06D194F82C1000F0C5
:100D70007060B0EB016F01D00120D1E70020CFE718
:100D80000438024000004742800E47420070004095
:100D90000000FFFF7047704710B590F83C20012A13
:100DA00022D0012280F83C20CA688C6822F440726C
:100DB00022434C6822F4806222430C6822F40062D1
:100DC00022430C6922F4805222434C6922F40052DF
:100DD0002243C969002322F480420A4301684A641D
:100DE00080F83C30002010BD022010BD70B590F896
:100DF0003C20012A32D0012480F83C40022280F8B5
:100E00003D2003685A689D6822F070060A683243E4
:100E10005A60134B02689A4214D0B2F1804F11D03D
:100E2000104B9A420ED0104B9A420BD00F4B9A4265
:100E300008D00F4B9A4205D00E4B9A4202D00E4B6F
:100E40009A4204D1496825F080031943916080F8E3
:100E50003D40002180F83C10084670BD022070BD66
:100E6000000001400004004000080040000C004069
:100E700000040140004001400018004010B504008B
:100E800003D094F83D0010B107E0012010BD002010
:100E900084F83C00204600F01EF8022084F83D0053
:100EA000211D206800F0A6FC012084F8460084F88B
:100EB0003E0084F83F0084F8400084F8410084F844
:100EC000420084F8430084F8440084F8450084F824
:100ED0003D00002010BD704790F83D10012901D061
:100EE00001207047022180F83D100168CA6842F075
:100EF0000102CA6000681149884214D0B0F1804FE5
:100F000011D00F4988420ED00E4988420BD00E49AD
:100F1000884208D00D49884205D00D49884202D048
:100F20000C49884204D1816801F00701062903D0E9
:100F3000016841F00101016000207047000001409C
:100F40000004004000080040000C00400004014084
:100F50000040014000180040704770B5044600682A
:100F600001694FF00005C943890715D4C168C94319
:100F7000890711D4E91E016101202077206880696A
:100F80008007204602D0FFF7E7FF04E000F0EBF80F
:100F9000204600F035F9257720680169C9434907E3
:100FA00017D4C168C943490713D46FF00401016124
:100FB000022020772068806910F4407F204602D00C
:100FC000FFF7CAFF04E000F0CEF8204600F018F961
:100FD000257720680169C943090716D4C168C94348
:100FE000090712D46FF008010161042020772068FE
:100FF000C0698007204602D0FFF7AEFF04E000F092
:10100000B2F8204600F0FCF8257720680169C94352
:10101000C90617D4C168C943C90613D46FF01001BB
:101020000161082020772068C06910F4407F2046C5
:1010300002D0FFF791FF04E000F095F8204600F0A1
:10104000DFF8257720680169C943C90708D1C1685D
:10105000C943C90704D1891E0161204600F0D1F8B7
:1010600020680169C943090609D4C168C943090652
:1010700005D46FF0800101612046FFF78BFE2068E8
:101080000169C943490609D4C168C943490605D461
:101090006FF040010161204600F0BAF82068016954
:1010A000C94389060BD4C168C943890607D46FF0C8
:1010B000200101612046BDE87040FFF76CBE70BDA5
:1010C00010B586B0044614216846FFF725F90E498D
:1010D0002068884216D10D480021026842F01002B3
:1010E0000260006800F0100005904FF4007000905E
:1010F0000220CDE901010120CDE903106946044831
:10110000FFF7B8F906B010BD0000014030380240CA
:101110000010024070B5044690F83C0000250128FC
:101120000FD0012084F83C006AB1042A0FD0082AAD
:1011300011D00C2A13D00125002084F83C00284649
:1011400070BD022070BD206800F0B8FBF4E7206895
:1011500000F0E4FBF0E7206800F016FCECE7206804
:1011600000F046FCE8E7704710B5040003D094F89F
:101170003D0010B107E0012010BD002084F83C00C4
:10118000204600F01FF8022084F83D00211D206851
:1011900000F030FB012084F8460084F83E0084F81B
:1011A0003F0084F8400084F8410084F8420084F84D
:1011B000430084F8440084F8450084F83D00002092
:1011C00010BD000008B500680B49884212D10B48D9
:1011D000016841F0010101600068002200F0010097
:1011E000009005211920FFF7E1FABDE80840192019
:1011F000FFF7CEBA08BD00000000014044380240AD
:1012000070470068B0F1804F01D1FFF737BA7047DF
:101210007047704770470000F8B5016804460868D9
:10122000CA684B6910F00F0F4FF0000559D003F05A
:10123000010602F49077374365D0C10705D0D10588
:1012400003D5216C41F001012164410705D5D9077F
:1012500003D0216C41F002012164810705D5D90733
:1012600003D0216C41F004012164010707D502F08D
:101270002001314303D0216C41F008012164216C2D
:1012800000293AD0800604D5900602D5204600F009
:1012900006FC20684069216CC0F38010090700D467
:1012A00060B3204600F0D4FB20684069400621D599
:1012B0002068143050E8001F21F0400140E800127F
:1012C000002AF5D1A06BA8B16C490165A06BFFF7AE
:1012D000ACF8002811D0A06B016D01B0BDE8F04062
:1012E000084783060FD593060DD52046BDE8F84084
:1012F00000F0D5BB2046FFF78DFFF8BD2046FFF775
:1013000089FF2564F8BD266B2023012E79D1C606FE
:1013100077D5D60675D508684868009048694006B4
:1013200040D5A16B086840680004000CEAD0A28D8B
:101330008242E7D9E085C869B0F5807F2DD020686A
:101340000C3050E8001F21F4807140E80012002AA0
:10135000F5D12068143050E8001F21F0010140E869
:101360000012002AF5D12068143050E8001F21F047
:10137000400140E80012002AF5D184F83E30256390
:1013800020680C3050E8001F21F0100140E80012E6
:10139000002AF5D1A06BFEF7FFFFA08DE18D401A6A
:1013A00081B229E0A08DE18D401A81B2E08D002844
:1013B000A8D00029A6D020680C3050E8002F22F4D5
:1013C000907240E80026002EF5D12068143050E8D5
:1013D000002F22F0010240E80026002EF5D184F80B
:1013E0003E30256320680C3050E8002F22F01002B8
:1013F00040E80023002BF5D12046FFF70AFFF8BD97
:10140000FFE705062BD5150629D594F83D002128C0
:10141000F5D1A068B0F5805F01D12069B0B1206A34
:10142000411C2162216800784860E08C401E000465
:10143000000CE084E3D12068C16821F08001C16024
:101440002068C16841F04001C160D8E7206A008887
:10145000C0F308004860206A801C2062E5E740066F
:10146000CDD55006CBD5CA68204622F04002CA60CE
:1014700084F83D3000F075F8C1E70000411A00081B
:1014800070B5040004D094F83D00002510B106E0CA
:10149000012070BD84F83C50204600F023F8242041
:1014A00084F83D002068C16821F40051C1602046E5
:1014B00000F056FB2068016921F490410161206829
:1014C000416921F02A0141612068C16841F400515D
:1014D000C1602564202084F83D0084F83E0000208F
:1014E00070BD000010B586B0044614216846FEF7B2
:1014F00013FF18492068884229D117480021026843
:1015000042F010020260006800F0100005901248DE
:101510001438026842F001020260006800F0010025
:1015200005904FF4C06000900220CDE90101032036
:1015300003900720049069460848FEF79BFF0022AD
:1015400005212520FFF732F92520FFF721F906B004
:1015500010BD00000010014044380240000002406D
:1015600070477047FEE7000010B58EB01C220B4993
:101570006846FEF7B8FE0021684600F0C1FB084C43
:1015800006491C2220601C3107A8FEF7ACFE002192
:1015900007A800F0B5FB60600EB010BD90270008F2
:1015A0000000002030B587B014216846FEF7B4FE75
:1015B00019480024016841F080010160016801F0D0
:1015C00080010591016841F010010160016801F09E
:1015D00010010591016841F001010160016801F00D
:1015E00001010591016841F00801016000680B4D9F
:1015F00000F0080005900022F0212846FFF732F89D
:10160000F02000900120CDE90104694628460394AA
:10161000FEF730FF07B030BD30380240000C02400A
:1016200010B592B000240F941C2108A81094FEF766
:1016300073FE20216846FEF76FFE20481E490160B8
:101640005321C0E9011441F28731C0E9031480211C
:10165000C0E90541FFF788FD08B1FEF79BFE0F9436
:101660000FA916481094FFF7C1FB08B1FEF792FED0
:10167000089409940A940B940C940D94002208A9E0
:101680000E480E94FFF746FD08B1FEF783FE009466
:101690004FF40050CDE9044002940194039469464C
:1016A00006480794FFF778FB08B1FEF773FE03487E
:1016B000FFF706FD12B010BD00000140D40200206B
:1016C0000C4810B50A4901604FF4E1314160002136
:1016D00081600C22C160C0E904128161C161FFF721
:1016E000CFFE002803D0BDE81040FEF753BE10BD6A
:1016F000001001401C030020FEE7FEE7012000F07F
:10170000F3FAFBE7012000F0EFFAFBE710B55020F9
:1017100080F31188BFF34F8FBFF36F8F00F070FF1E
:1017200018B104494FF080500860002080F3118800
:1017300010BD000004ED00E030B593B030216846E4
:10174000FEF7EAFD14210CA8FEF7E6FD1D48002572
:10175000016841F080510160006800F080501190F4
:101760001948016841F4804101600068022400F4D6
:101770008040119001200390102004900094069462
:101780000820CDE90750A820CDE9090404200B90DA
:101790006846FFF749F908B172B6FEE70CA90F20B9
:1017A00081E831004FF4A0500F904FF4805010901A
:1017B00005210CA8FFF72CF8002801D072B6FEE72F
:1017C00013B030BD4038024000700040024801684C
:1017D00041F470010160704788ED00E00148FFF7B7
:1017E000BCBB0000D40200200148FFF7B6BB0000DC
:1017F00060030020F0B50268254C264D264E274F89
:10180000274B4FF0804CA04209D0604507D0A8423A
:1018100005D0B04203D0B84201D0984204D122F0A2
:10182000700E4A6842EA0E02A0421BD0604519D0F1
:10183000A84217D0B04215D0B84213D0984211D068
:10184000184DA8420ED0184DA8420BD0174DA842F3
:1018500008D0174DA84205D0164DA84202D0164D0B
:10186000A84203D122F44075CA682A434D6922F088
:1018700080022A4302608A68C2620A688262A042C9
:1018800001D0984201D10969016301214161F0BD94
:10189000000001400004004000080040000C00402F
:1018A0000004014000400140004401400048014064
:1018B00000180040001C004000200040F0B5026A03
:1018C00022F001020262036A42688469124E24F027
:1018D00073050C682C4323F002058B682B430D4DD8
:1018E000A84201D0B04205D123F00807CB683B43A2
:1018F00023F00403A84201D0B04205D14D6922F47F
:10190000407215438A692A43426084614968416391
:101910000362F0BD0000014000040140F0B5026A1E
:1019200022F010020262026A436884690D6824F49E
:10193000E64444EA05248D6822F0200242EA0512BA
:101940000F4D104EA84201D0B04206D1CF6822F010
:10195000800242EA071222F04002A84201D0B042BF
:1019600007D14D6923F4406343EA85038D6943EA57
:10197000850343608461496881630262F0BD0000B1
:101980000000014000040140F0B5026A22F48072B8
:101990000262026A4368C46922F4007224F073058B
:1019A0000C68124E2C438D6842EA05220E4DA84267
:1019B00001D0B04206D1CF6822F4006242EA072289
:1019C00022F48062A84201D0B04207D14D6923F4CD
:1019D000405343EA05138D6943EA05134360C4612C
:1019E0004968C1630262F0BD00000140000401408B
:1019F00030B5026A22F480520262046A4268C36906
:101A00000D6823F4E64343EA05238D6824F400546B
:101A100044EA0534084DA84202D0084DA84204D13A
:101A20004D6922F4804242EA85124260C3614968EE
:101A30000164046230BD0000000001400004014068
:101A400010B5806B0021C185C184FFF7E3FB10BD99
:101A500001680C3151E8002F22F4907241E8002314
:101A6000002BF5D10168143151E8002F22F001025A
:101A700041E80023002BF5D1016B012909D1016850
:101A80000C3151E8002F22F0100241E80023002B16
:101A9000F5D1202180F83E1000210163704708B580
:101AA00090F83E10222901D0022008BD82684FF430
:101AB00080539A4201D1016921B1816A9A421BD0B7
:101AC0004AB10AE00268816A5268C2F308020A80D9
:101AD000816A891C08E0026972B10268526802F0EA
:101AE0007F020A70816A491C8162C18D491E090406
:101AF000090CC18503D019E002685268F1E701685A
:101B0000CA6822F02002CA600168CA6822F48072A2
:101B1000CA6001684A6922F001024A61202180F806
:101B20003E10016B012903D0FFF71AFD002008BD0C
:101B30000021016301680C3151E8002F22F01002EE
:101B400041E80023002BF5D101680A68D20602D5CE
:101B50000A6849680091818DFFF75BFBE6E70000AA
:101B600070B5044600680169E26821F440511143F0
:101B700001612169A068E269084361691143084372
:101B80002168CA6849F20C639A430243CA6020681C
:101B90004169A26921F440711143416131492068D2
:101BA000884202D03049884202D1FEF7FBFE01E0B4
:101BB000FEF7E8FEE2690023192164253226B2F51A
:101BC000004F626828D0A0FB0101930F9200FEF73E
:101BD00059FB0146B0FBF5F06FF01802504301EBE2
:101BE000800006EB0010B0FBF5F000F0F002B1FB56
:101BF000F5F002EB0012B1FBF5F06FF0180358435B
:101C000001EB800006EB0010B0FBF5F000F00F00D8
:101C100021681044886070BDA0FB010192185B41EF
:101C2000FEF730FB0146B0FBF5F00201B1FBF5F029
:101C30006FF01803584301EB800006EBC000B0FBC7
:101C4000F5F000F0F80002EB4002B1FBF5F058436C
:101C500001EB800006EBC000B0FBF5F000F00700E0
:101C6000D6E7000000100140001401400148FFF7D2
:101C7000D3BA00001C030020FEE70907090E002864
:101C800004DB00F1E02080F80014704700F00F0042
:101C900000F1E02080F8141D704702E008C8121F10
:101CA00008C1002AFAD170477047002001E001C145
:101CB000121F002AFBD17047FEF7E8FCFFF73CFD3E
:101CC000FFF770FCFFF7ACFCFFF7FAFCFFF74CFCEA
:101CD00000F011F80A20FEF7BBFBFBE701460020ED
:101CE000842900D0C81C704710B500B9012000F04D
:101CF00023FB002010BD10B500F044FB002010BDF8
:101D00007FB50D4604464169B0F9080081B1A1696B
:101D100071B1FFF7E3FFD4E905128DE80700D4E9BC
:101D200000102B46226900F040FC039004B070BD07
:101D3000FFF7D4FF03A9CDE90001208A2B4682B228
:101D4000D4E9001000F004FC012801D00020EDE7E8
:101D50000398EBE72DE9F041184C0F460546E6687D
:101D60002068001D00F020FA38B9206890F82C1087
:101D700001208840216981432161681C07D137B166
:101D80002168BDE8F0410E48091D00F051BA2068F5
:101D90003544B5424560216805D2A06BBDE8F041ED
:101DA000091D00F02DBA606B091D00F029FAA06A28
:101DB000854200D2A562BDE8F08100001800002035
:101DC000840400202DE9F041054600F03DFA2E4C38
:101DD000A068401CA06020682C4F10B1606940B31F
:101DE0002DE02560A068012829D1002606EB860099
:101DF00007EB800000F0F6F9761C072EF6D3234897
:101E00008C3000F0EFF92148A03000F0EBF91F48CA
:101E1000B43000F0E7F91D48C83000F0E3F91B4882
:101E2000DC3000F0DFF919488C3060631430A063B7
:101E300005E02068E96AC06A884200D82560606AC7
:101E4000401C6062E96A01202269884010432061D9
:101E500001EB810007EB8000291D00F0E9F900F09B
:101E600013FA606900280CD02068E96AC06A8842C9
:101E700007D207494FF080500860BFF34F8FBFF380
:101E80006F8FBDE8F081000018000020A80300203B
:101E900004ED00E010B5044690F8510058B1012857
:101EA0000CD002280FD0502080F31188BFF34F8F41
:101EB000BFF36F8FFEE7206B00F0FAF92046BDE814
:101EC000104000F0F5B910BD10484FF470514207B2
:101ED00006D0C01D0D4920F00700411AC1F5705110
:101EE0000B4A00230144C2E900030839183A21F0E3
:101EF000070111604B600B600B1AC0E9001393607F
:101F00004FF000405360506170470000980400207B
:101F10006C000020144E154CA6F1C8074FF08058F5
:101F2000DFF84C9012E000BF00F08EF9F068C56851
:101F3000281D00F039F9A068401EA0606068401EAE
:101F4000606000F0A1F92846FFF7A4FF6068002850
:101F5000EAD138680128F9D9C9F80080BFF34F8F5A
:101F6000BFF36F8FF2E7000070040020180000201C
:101F700004ED00E02DE9F0479A46DDE90984814649
:101F80006FF00303206B03EB82021044089E20F0E5
:101F90000707780707D0502080F31188BFF34F8FD1
:101FA000BFF36F8FFEE7002561B1002023180A5CA4
:101FB00083F834200A5C12B1401C1028F6D384F850
:101FC000435001E084F83450072E00D30626E66221
:101FD000C4E91165201D00F010F904F1180000F0AB
:101FE0000CF92461C6F107006462A061E56484F81D
:101FF000505052464946384600F0C0F82060B8F1CB
:10200000000F01D0C8F80040BDE8F08730B5114995
:1020100000E011460A688242FBD34B685C18844298
:1020200003D1406818444860084643681C1894422D
:1020300009D1084C183C2468A24209D052681A44BD
:1020400042600A6812680260814200D0086030BDB8
:102050000460F9E76C0000200648416B096829B16B
:10206000416BC968C9684968816270474FF0FF31A8
:10207000FAE700001800002008484068401C4FF0B4
:10208000500080F3118804D0BFF34F8FBFF36F8FE0
:10209000FEE7BFF34F8FBFF36F8FFEE774000020A2
:1020A0002DE9F0410546002700F0A2F9324E3068D4
:1020B00008B9FFF709FF706905424ED1C5B308356D
:1020C00068070ED005F00700C0F108000544680756
:1020D00007D0502080F31188BFF34F8FBFF36F8F6D
:1020E000FEE72DB37068854237D823481830014683
:1020F0000C6801E020460C466168A94202D22168C2
:102100000029F7D131688C4227D007682168016027
:1021100060680837411B10290FD96019420708D0A1
:10212000502080F31188BFF34F8FBFF36F8FFEE70E
:1021300013E041606560FFF769FF61687068401AED
:102140007060B268904200D2B060706901430020B4
:10215000C4E90001F068401CF06000F0B7FA7807AD
:1021600007D0502080F31188BFF34F8FBFF36F8FDC
:10217000FEE73846BDE8F0815400002010B5031F8B
:102180004FF080741C601B1F21F001011960191FA2
:10219000044B0B6014390A60091F6FF002024438C7
:1021A0000A6010BD79200008D0E9013201699A6007
:1021B000D0E901235A604A68824201D182684A60AC
:1021C000002202610868401E08600868704700002D
:1021D000034B036003F154000860802010607047D7
:1021E0008000002000F108014FF0FF32C0E9011229
:1021F000C1600161002101607047002101617047E9
:1022000030B50B685A1C02D000F1080202E00269E6
:1022100004E02246546825689D42FAD953684B6011
:1022200099608A60516008610168491C016030BD95
:1022300042684A6093688B60936859609160086156
:102240000168491C01607047502080F31188BFF37A
:102250004F8FBFF36F8F0A494868401C48600128C0
:102260000CD10848006810F0FF0F07D0502080F311
:102270001188BFF34F8FBFF36F8FFEE770470000E9
:102280007400002004ED00E00849486828B1401EB1
:10229000486001D180F311887047502080F3118885
:1022A000BFF34F8FBFF36F8FFEE700007400002075
:1022B00070B500282AD0164DA0F10804606869693D
:1022C000084207D1502080F31188BFF34F8FBFF32E
:1022D0006F8FFEE722683AB1502080F31188BFF378
:1022E0004F8FBFF36F8FFEE78843606000F080F888
:1022F00060686968084468602046FFF787FE2869BF
:10230000401C2861BDE8704000F0E0B970BD0000DD
:10231000540000204FF0E020002101618161054957
:102320004FF47A720968B1FBF2F1491E416107214D
:10233000016170471400002010B5020014D00F484E
:10234000006B38B1502080F31188BFF34F8FBFF37B
:102350006F8FFEE700F04CF800211046FFF7FAFC03
:1023600000F0B4F9002807D105494FF0805008600B
:10237000BFF34F8FBFF36F8F10BD00001800002018
:1023800004ED00E010B586B00024039405AA04A96A
:1023900003A80494FFF71CFFDDE903010094CDE9D5
:1023A000011000230EA11048059A00F0FEF80F4915
:1023B0000028C86211D0502080F31188BFF34F8FDE
:1023C000BFF36F8F4FF0FF30886201204861CC600F
:1023D00006B0BDE8104000F041B806B010BD0000E6
:1023E00049444C4500000000151F0008180000205B
:1023F0000248016B491C016370470000180000206F
:102400001448016B11B10121C16170470021C16104
:102410000169B1FA81F1C1F11F0101EB81020E499D
:1024200051F822306BB101EB820101F108034A68D7
:1024300052684A609A4201D152684A60D16801608C
:102440007047502080F31188BFF34F8FBFF36F8F19
:10245000FEE7000018000020A80300201CB5374844
:102460000168374A914207D1502080F31188BFF3A9
:102470004F8FBFF36F8FFEE700683149491E8842D6
:1024800007D1502080F31188BFF34F8FBFF36F8FB8
:10249000FEE72C4908780190FF20087008788DF835
:1024A00000009DF800009DF8002000F0F000904230
:1024B00007D0502080F31188BFF34F8FBFF36F8F89
:1024C000FEE79DF80000204C00F05000207007202F
:1024D000A06005E09DF8002052008DF80020401E0D
:1024E0009DF800201206F5D4A060032807D05020E4
:1024F00080F31188BFF34F8FBFF36F8FFEE74FF468
:102500004070A060019808700C482030016841F4C8
:1025100070010160016841F070410160FFF7FAFE4F
:1025200000206060FDF760FE0848016841F040410E
:102530000160FDF745FE00201CBD000000ED00E03D
:1025400071C20F4100E400E07400002034EF00E0AD
:102550002DE9FF5F8346DDE90E87994616468A46D8
:102560009000FFF79DFD05001CD05420FFF798FD5B
:10257000040014D00020256384F85100CDE9024006
:10258000CDE900874B46324651465846FFF7F2FCEC
:102590002046FFF717FC012004B0BDE8F09F284655
:1025A000FFF786FE4FF0FF30F6E7F0B585B0DDE9C6
:1025B0000B640A9DA6B1DCB154270097266302265E
:1025C00084F85160002604AFCDE90246CDE90057FA
:1025D000FFF7D0FC2046FFF7F5FB049805B0F0BDEF
:1025E000502080F31188BFF34F8FBFF36F8FFEE74A
:1025F000502080F31188BFF34F8FBFF36F8FFEE73A
:102600002DE9F0412F4C0026206B28B1A069401C19
:10261000A0613046BDE8F081E5686D1CE56013D12E
:10262000606B006838B1502080F31188BFF34F8F82
:10263000BFF36F8FFEE7606BA16B6163A063206ADD
:10264000401C2062FFF708FDA06ADFF87C8085420D
:1026500009D3606B0068A0B1606BC068C768786818
:10266000854211D2A0622068C06A00EB800158F850
:102670002100012800D90126E0690028C9D00126DF
:10268000C7E74FF0FF30EDE7381DFFF78DFDB86A63
:1026900018B107F11800FFF787FDF96A01202269D8
:1026A00088401043206101EB810108EB8100391D56
:1026B000FFF7BEFDF86A2168C96A8842C9D30126BE
:1026C000C7E7000018000020A80300202DE9F0470C
:1026D0002C4D00242746286B38B1FFF7B5FD286B39
:1026E000401E2863286B40B146E0502080F31188DB
:1026F000BFF34F8FBFF36F8FFEE7A968224E012013
:10270000D1B3A6F1B40980463068E8B1F068C46876
:1027100004F11800FFF748FD201DFFF745FDE06AB2
:102720002A6908FA00F11143296100EB800109EBE5
:102730008100211DFFF77CFDE06A2968C96A884293
:10274000E2D3C5F81C80DFE70CB1FFF785FCAC696C
:1027500044B14646FFF754FF00B1EE61641EF9D163
:102760000020A861E86938B10849012738070860E6
:10277000BFF34F8FBFF36F8FFFF786FD3846BDE87D
:10278000F0870000180000205C04002004ED00E049
:10279000EC270008FD160008000000000000000003
:1027A000800000000000000000000000E02700089A
:1027B0000517000800000000000000008000000075
:1027C0000000000000000000000000000000000009
:1027D00001020304060708090000000001020304C7
:1027E0006D795461736B303200000000646566617E
:1027F000756C745461736B00182800080000002089
:10280000800000009A1C0008982800088000002022
:1028100018440000AA1C000800000000000000008E
:102820000100000010000000000000000024F4007F
:102830000000000000000000000000000000000098
:102840000000000000000000000000000000000088
:102850000000000000000000000000000000000078
:102860000000000000000000000000000000000068
:102870000000000000000000000000000000000058
:102880000000000000000000000000000000000048
:08289000AAAAAAAA0000000098
:040000050800018965
:00000001FF
