:020000040800F2
:100000004005002005010008C314000889130008FA
:10001000C1140008710100084D170008000000001D
:10002000000000000000000000000000C7140008ED
:100030008D01000800000000C5140008C914000864
:100040001F0100081F0100081F0100081F01000810
:100050001F0100081F0100081F0100081F01000800
:100060001F0100081F0100081F0100081F010008F0
:100070001F0100081F010008750100088101000828
:100080001F0100081F0100081F0100081F010008D0
:100090001F0100081F0100081F0100081F010008C0
:1000A0001F0100081F0100081F0100081F010008B0
:1000B0001F0100081F0100081F0100081F010008A0
:1000C0001F0100081F0100081F0100081F01000890
:1000D0001F010008411700081F0100081F01000848
:1000E0001F0100081F0100081F010008DFF810D0E1
:1000F00000F02CF800480047D9170008AFF3008043
:10010000400500200648804706480047FEE7FEE716
:10011000FEE7FEE7FEE7FEE7FEE7FEE7FEE7FEE7B7
:100120002B150008ED000008D2B201E000F8012B09
:10013000491EFBD270470022F6E710B513460A4667
:1001400004461946FFF7F0FF204610BD064C074D48
:1001500006E0E06840F0010394E807009847103497
:10016000AC42F6D3FFF7C6FF341800085418000855
:10017000FEE70000014800F07BB80000F800002016
:10018000014800F075B80000B4000020704772B656
:10019000FEE710B590F821100022022905D00421B5
:1001A000816380F82020012010BD01680B6823F0D6
:1001B0000E030B6001680B6823F001030B6090F8DD
:1001C0004030C46B012101FA03F3636080F8211011
:1001D00080F82020104610BD10B590F821100024A2
:1001E000022903D00421816301243DE001680A68EB
:1001F00022F00E020A6001680A6822F001020A6019
:100200001A4A0168914201D1012121E0174A1432B2
:10021000914201D110211BE0144A2832914201D1B0
:10022000891515E0114A3C32914201D189140FE041
:100230000E4A5032914202D14FF4803108E00B4A0D
:100240006432914202D14FF4801101E04FF080718D
:10025000064A083A5160012180F82110002180F8F7
:100260002010416B01B18847204610BD08000240B4
:100270002DE9F05FC16B0C6801680B68D0F840C0D5
:10028000042202FA0CF2494DDFF824A1494E4A4FEC
:10029000DFF828B1DFF828E122422CD05A072AD50E
:1002A0000A68920603D40A6822F004020A60016810
:1002B000A94201D1042219E0514501D1402215E0A3
:1002C000B14202D14FF4806210E0B94202D14FF442
:1002D00080420BE0594502D14FF4802206E071457F
:1002E00002D14FF4800201E04FF080622F490839BB
:1002F0004A60C16A3BE04FF0020808FA0CF818EABD
:10030000040F4FF000094FF0010235D05FEA837807
:1003100032D50B689B0605D40B6823F00A030B60EB
:1003200080F821200168A94201D1022219E051453B
:1003300001D1202215E0B14202D14FF4007210E049
:10034000B94202D14FF400520BE0594502D14FF4AB
:10035000003206E0714502D14FF4001201E04FF087
:100360000072124908394A6080F82090816A002999
:100370001AD0BDE8F05F0847082505FA0CF52542BC
:1003800012D01B0710D50B6823F00E030B6090F8FA
:100390004010C36B02FA01F15960826380F821209A
:1003A00080F82090016BE2E7BDE8F09F0800024072
:1003B0001C0002403000024044000240580002404D
:1003C0006C00024030B528B308C813491422194400
:1003D000B1FBF2F18900C1631049816302214177C9
:1003E0001A6843F6F0718A43D0E900142143D0E93A
:1003F00002452C4321430469214344692143846914
:1004000021431143196000214163012242770177A2
:10041000084630BD012030BDF8FFFDBF000002409E
:10042000064810B54FF0FF31C16000220261C16083
:10043000C26000F047FA002010BD0000001002402A
:1004400070B5044600F00CF90546601C02D0044863
:100450000078044400F004F9401BA042FAD370BDB8
:10046000080000202DE9F84FDFF8B891002409F1C9
:10047000040A0AF1040B23460F270BF1040EC9E00E
:100480000125A5402A40AA427DD1674ED1F804C07B
:10049000ACEB0608B44532D014DCBCF1030F3AD003
:1004A00009DCBCF1000F2AD0BCF1010F1CD0BCF15B
:1004B000020F31D11DE0BCF1110F17D0BCF1120FAA
:1004C0002AD119E0B8F5881F19D006DCB8F5803FAD
:1004D00015D0B8F5801F1FD111E0B8F5001F0ED060
:1004E000B8F5041F18D10AE0CB6815E0CB681B1DD6
:1004F00012E0CB6808330FE0CB680C330CE08B685C
:100500002BB1012B4FF0080303D0456104E0042315
:1005100002E0056100E00023FF2A01D8064601E061
:1005200000F104064FEA840501D9A5F12005D6F8AB
:10053000008007FA05FC28EA0C0803FA05F548EAEA
:100540000508C6F800804D68ED0062D5374DAE69EC
:1005500046F00106AE61AD6924F0030605F0010521
:100560000095334D06EB050CDCF80850A607360F56
:1005700007FA06F825EA0805DFF8B880404503D1F8
:100580004FF0000817E044E0DFF8AC80404502D1AE
:100590004FF001080FE0DFF8A480404502D14FF092
:1005A000020808E0DFF89880404502D14FF00308C8
:1005B00001E04FF0040808FA06F848EA0508CCF80C
:1005C00008804D68D9F80060ED034D4601D516430B
:1005D00000E096432E604D68DAF80060AD035546A2
:1005E00001D5164300E096432E604D68DBF80060AD
:1005F000ED025D4601D5164300E096432E604D683E
:10060000DEF80060AD02754601D5164300E0964362
:100610002E60641C0D682A46E5407FF431AFBDE8CA
:10062000F88F00000004014000001110001002408B
:100630000000014000080140000C01400010014092
:1006400000140140C26821EA02030A4043EA024161
:10065000016170470AB1016170470904FBE70000BE
:1006600001488068704700000800002070B5040051
:1006700025D094F83D00002520B984F83C50204650
:1006800000F0B8F8242084F83D002068016821F0CB
:10069000010101602068016841F4004101602068A7
:1006A000016821F40041016000F002FA4D4A6168DE
:1006B000914201D84C4900E04C49884201D20120C6
:1006C00070BD4B492368B0FBF1F15E6826F03F0630
:1006D0000E435E606368934206D94FF496735943A4
:1006E0004FF47A73B1FBF3F12368491C1E6A26F0BC
:1006F0003F06314319626168914210D84900401E9B
:10070000B0FBF1F2521CC2F30B02042A01D2042006
:1007100022E0B0FBF1F0401CC0F30B001CE0A2682B
:10072000F2B301EBC10303EB0116431EB3FBF6F377
:100730005B1C43F480431B0549D092B301EBC1021B
:1007400002EB0111401EB0FBF1F0401CC0F30B00A6
:1007500040F4804040F400402168CA694CF6FF73C1
:100760009A431043C861D4E9071001432068026826
:1007700022F0C00211430160D4E903010143206863
:10078000826848F2FF339A4311438160D4E905013E
:1007900008432168CA6822F0FF021043C86001E0E4
:1007A0000EE016E02068016841F001010160256457
:1007B000202084F83D00256384F83E50002070BD61
:1007C00001EB4106431EB3FBF6F35B1CB3E70120CC
:1007D000C2E701EB4101401EB0FBF1F0401CC0F349
:1007E0000B00B7E7A086010080841E0000093D00D1
:1007F00040420F0010B586B0002100910191029196
:10080000039100680F4988421AD10F4CA06940F04B
:100810000800A061A069694600F008000490C020AB
:10082000009012200190032003900848FFF71AFE61
:10083000E06940F40010E061E06900F40010049009
:1008400006B010BD0054004000100240000C0140F2
:1008500002488168027811448160704708000020D6
:10086000074810B5016841F010010160032000F055
:1008700077F80F2000F006F800F026F8002010BDF1
:100880000020024070B50D4D04464FF47A7128786F
:10089000B1FBF0F00A490968B1FBF0F000F0EEFAA4
:1008A00048B9102C07D200222146501E00F038F81B
:1008B00000206C6070BD012070BD000008000020A9
:1008C00014000020704700000C4808B5816941F011
:1008D00001018161816901F001010091C16941F06B
:1008E0008051C161C06900F08050009004484168A7
:1008F00021F0E06141F00071416008BD001002404C
:1009000000000140002809DB00F01F020121914096
:100910004009800000F1E020C0F80011704700009D
:10092000F0B40E4B1B680C46C3F30223C3F107055A
:10093000042D00D90425191D072901D2002300E048
:10094000DB1E012606FA05F1491E214099409E4012
:10095000761E16403143F0BC00F002BF0CED00E003
:10096000064900F0070208684FF6FF03184040EA06
:100970000220034A10430860704700000CED00E0BD
:100980000000FA052DE9F0470F46050061D0434EFF
:10099000306800F00700B84209D2306820F0070044
:1009A00038433060306800F00700B84251D1286801
:1009B0003B4C810712D5400703D5606840F4E060E6
:1009C00060602878000703D5606840F4605060607C
:1009D0006068A96820F0F000084360602878C007CC
:1009E00028D06868012810D02168022810D0890713
:1009F00000292EDA616821F0030101436160FFF7ED
:100A00002FFE804641F288390DE021688903EFE727
:100A10008901EDE7FFF724FEA0EB0801494502D963
:100A20000320BDE8F0876068696800F00C00B0EB57
:100A3000810FEFD1306800F00700B8420BD9306861
:100A400020F0070038433060306800F00700B842FB
:100A500001D00120E5E72878400705D56068E968FE
:100A600020F4E060084360602878000706D56068DD
:100A7000296920F4605040EAC100606000F038F855
:100A80006168084AC1F30311515CC8400649086017
:100A900006480068FFF7F6FE0020C2E7002002408B
:100AA000001002401C180008140000200C00002058
:100AB0000448054900684968044AC1F30221515CB1
:100AC000C840704714000020001002402C18000895
:100AD0000448054900684968044AC1F3C221515CD1
:100AE000C840704714000020001002402C18000875
:100AF00012A185B00FC98DE80F0014A0144A006838
:100B000004905168134801F00C03042B10D0082BFB
:100B10000ED1C1F38343C9031DF803000AD5516800
:100B200004AAC1F34041515C0A4A5043B0FBF1F0C2
:100B300005B0704708494843FAE70000020304057E
:100B4000060708090A0B0C0D0E0F10100102000019
:100B50000010024000127A0000093D002DE9F84F14
:100B6000040070D02078C04DC00749D06868C0F339
:100B70008100012807D06868C0F38100022809D1EC
:100B80006868C00306D52868800339D560680028E6
:100B9000E7D035E06068B0F5803F0BD010B1B0F51C
:100BA000A02F11D0286820F480302860286820F415
:100BB000802002E0286840F480302860606890B1AE
:100BC000FFF74EFD06460AE0286840F480202860C2
:100BD000F0E700BFFFF744FD801B642873D8286846
:100BE0008003F7D50CE0FFF73BFD064605E000BFAC
:100BF000FFF736FD801B6428F0D828688003F7D4FF
:100C000020789A4E80074FF001094FF0000839D53F
:100C1000686810F00C0F07D06868C0F381000228E4
:100C200009D16868C00306D42868800714D52069F4
:100C3000012808D110E02069B0B1C6F80090FFF794
:100C40000FFD074605E00AE1FFF70AFDC01B022879
:100C5000C4D828688007F7D52868616920F0F800B3
:100C600040EAC10028600DE0C6F80080FFF7F8FCFC
:100C7000074604E0FFF7F4FCC01B022823D82868CD
:100C80008007F7D4207800072CD57948A169D9B11D
:100C9000C0F80090FFF7E4FC074604E0FFF7E0FC33
:100CA000C01B02280FD8686A8007F7D571484FF437
:100CB000FA510068B0FBF1F0009000BF0098411EAF
:100CC0000091FAD20EE080E0C0F80080FFF7C8FC87
:100CD000074604E0FFF7C4FCC01B022875D8686A09
:100CE0008007F7D42078400760D5E8690027C00066
:100CF00008D4E86940F08050E861E869012700F015
:100D0000805000905C480168C90513D4016883468F
:100D100041F480710160FFF7A3FC824606E000BF4A
:100D2000FFF79EFCA0EB0A0064284ED8DBF8000019
:100D3000C005F5D5E06801280AD008B1052813D010
:100D4000286A20F001002862286A20F0040002E0EE
:100D5000286A40F001002862E06841F2883B98B1BF
:100D6000FFF77EFC82460BE0286A40F00400286210
:100D7000EEE700BFFFF774FCA0EB0A0159455AD813
:100D8000286A8007F6D50CE0FFF76AFC824605E08A
:100D9000FFF766FCA0EB0A0159454CD8286A80078A
:100DA000F6D41FB1E86920F08050E861E06988B3AB
:100DB0006968C1F38101022944D00228C6F8608025
:100DC00004D0FFF74DFC044638E034E0FFF748FC60
:100DD000074604E0FFF744FCC01B02282BD8286814
:100DE0008001F7D4206AB0F5803F05D16868A1681A
:100DF00020F4003008436860D4E9080108436968BA
:100E000021F4741108436860C6F86090FFF728FC6D
:100E1000044606E025E000BFFFF722FC001B022885
:100E200009D828688001F7D51BE000BFFFF718FC40
:100E3000001B022802D90320BDE8F88F2868800132
:100E4000F4D40EE00128F7D06868226A00F48031FB
:100E5000914204D1616A00F47010884201D00120EF
:100E6000EAE70020E8E700000010024000004242EC
:100E700080044242140000200070004010B5401E63
:100E8000B0F1807F01D3012010BD4FF0E0246061FC
:100E90000F21601700F064FC0020A0610720206192
:100EA000002010BD70477047F8B50268044610680E
:100EB000D168536910F00F0F4FF0000553D003F0C5
:100EC000010601F4907737435FD0C20705D0CA0509
:100ED00003D5226C42F001022264420705D5DA07ED
:100EE00003D0226C42F002022264820705D5DA07A1
:100EF00003D0226C42F004022264020707D501F0FD
:100F00002002324303D0226C42F008022264226C99
:100F1000002A34D0800604D5880602D5204600F089
:100F200025FB20684069216CC0F38010090700D4BC
:100F300030B3204600F002FB2068416949061BD50A
:100F4000416921F040014161A06BA8B1584941635A
:100F5000A06BFFF741F9002811D0A06B416B01B0E5
:100F6000BDE8F040084783060FD58B060DD5204617
:100F7000BDE8F84000F0FABA2046FFF794FFF8BD4C
:100F80002046FFF790FF2564F8BD266B2023012E35
:100F900052D1C60650D5CE064ED510685068009086
:100FA000506940062AD5A16B086840680004000C0F
:100FB000EAD0A68D8642E7D9E0858869202818D036
:100FC000D06820F48070D0602068416921F0010170
:100FD00041612068416921F04001416184F83E305F
:100FE00025632068C16821F01001C160A06BFFF784
:100FF000D0F8A08DE18D401A81B219E0A08DE18D6D
:10100000401A81B2E08D0028BED00029BCD0D06843
:1010100020F49070D0602068426922F001024261A1
:1010200084F83E3025632068C26822F01002C26056
:101030002046FFF737FFF8BD05062BD50D0629D54D
:1010400094F83D002128F6D1A068B0F5805F01D169
:101050002069B0B1206A411C216221680078486093
:10106000E08C401E0004000CE084E4D12068C168DC
:1010700021F08001C1602068C16841F04001C16079
:10108000F8BD206A0088C0F308005060206A801C08
:101090002062E5E74006F3D54806F1D5D168204641
:1010A00021F04001D16084F83D3000F06CF9F8BDCA
:1010B0002D15000870B5040004D094F83D000025FB
:1010C00010B106E0012070BD84F83C50204600F0CD
:1010D00023F8242084F83D002068C16821F40051E1
:1010E000C160204600F09EFA2068016921F4904119
:1010F00001612068416921F02A0141612068C168CD
:1011000041F40051C1602564202084F83D0084F83A
:101110003E00002070BD00002DE9F04186B00024A3
:101120000646009401940294039400682F49884273
:1011300058D12F48816941F480418161816901F46E
:1011400080410491816941F0040181618069294DE8
:1011500000F0040004904FF4007000900220019011
:101160000320039069462846FFF77CF92815CDE94E
:101170000004694628460294FFF774F91F4D1E4883
:101180004FF08008C5E90004C5E902482C614FF41E
:1011900000576C61C5E906472846FFF713F908B107
:1011A000FEF7F5FFB5636E62144D134844351438ED
:1011B00001C51020A5E81101104845F81049443038
:1011C0006C61C5E90647FFF7FDF808B1FEF7DFFFE0
:1011D00075630022114625206E62FFF7A1FB2520D2
:1011E000FFF790FB06B0BDE8F08100000038014039
:1011F000001002400008014058000240B4000020E6
:101200002DE9F84F044690F83E009A4616460D46E2
:10121000202853D1FDB1F6B194F83C0001284DD0FF
:10122000012084F83C0000272764222084F83E0037
:101230002763FFF715FAA6858146E685A0684FF477
:101240008058404501D1206940B12E465FF000052D
:1012500084F83C7027E00120BDE8F88F0026F7E70E
:101260004B46002220212046CDF800A000F036FA9F
:1012700008B10320F0E726B1A06840451BD038B183
:1012800008E020684068C0F3080025F8020B07E07A
:10129000206980B12068406800F07F0006F8010BEB
:1012A000E08D401EE085E08D0028D9D1202084F813
:1012B0003E000020D0E720684068EFE70220CBE73F
:1012C0000123082201490248FFF79ABF00000020CD
:1012D000700000202DE9F843044690F83D001F46B9
:1012E00016460D4620284CD1C5B1BEB194F83C003D
:1012F000012846D0012084F83C004FF00008C4F8D3
:101300004080212084F83D00FFF7AAF9A684814699
:10131000E684A068B0F5805F03D004E00120BDE85A
:10132000F883206928B12E465FF0000584F83C80E0
:101330000EE00026FAE78021204600F0CFF9A0B9A0
:10134000AEB116F8010B21684860E08C401EE084C5
:10135000E08C4B464FF0000200970028EBD14FF095
:101360004001204600F0BAF930B10320D7E735F844
:10137000020BC0F30800E6E7202084F83D000020BF
:10138000CDE70220CBE77047FEE700000D4808B527
:10139000416941F0010141614069002200F0010012
:1013A000009011460E20FFF7BBFA0E20FFF7AAFAB5
:1013B000002211460F20FFF7B3FABDE808400F20C6
:1013C000FFF7A0BA0010024070B586B000241C4898
:1013D0000094019402940394816941F010018161A9
:1013E000816901F010010491816941F0200181615E
:1013F000816901F020010491816941F0040181615A
:10140000816901F004010491816941F00801816161
:1014100080690C4E00F008004FF400550490002243
:1014200029463046FFF716F901200095CDE9010461
:101430000220039069463046FFF714F806B070BDED
:1014400000100240001001400D4810B50B4901602A
:101450000C49416000214FF480428160C0E90312D1
:1014600041618161C1610162FFF700F9002803D089
:10147000BDE81040FEF78BBE10BD000000540040D8
:101480001C000020A08601000C4810B50A4901602C
:101490004FF4E1314160002181600C22C160C0E95C
:1014A00004128161C161FFF705FE002803D0BDE889
:1014B0001040FEF76CBE10BD0038014070000020E7
:1014C000FEE7FEE770477047FFF7C2B930B58FB04F
:1014D00028216846FEF72FFE14210AA8FEF72BFEEE
:1014E00001210804CDE90010002402940225049192
:1014F000CDE907504FF4E01009906846FFF72EFB46
:1015000008B172B6FEE70F20CDE90A054FF48060FE
:10151000CDE90C4002210AA80E94FFF733FA002807
:1015200001D072B6FEE70FB030BD704710B5406A0B
:101530000021C185C184FFF7B6FC10BD0168CA68EF
:1015400022F49072CA6001684A6922F001024A617D
:10155000016B012904D10168CA6822F01002CA6037
:10156000202180F83E1000210163704708B590F8F3
:101570003E10222901D0022008BD82684FF480531A
:101580009A4201D1016921B1816A9A421BD04AB1C4
:101590000AE00268816A5268C2F308020A80816A1E
:1015A000891C08E0026972B10268526802F07F0289
:1015B0000A70816A491C8162C18D491E0904090CA7
:1015C000C18503D019E002685268F1E70168CA6872
:1015D00022F02002CA600168CA6822F48072CA60E0
:1015E00001684A6922F001024A61202180F83E1018
:1015F000016B012903D0FFF763FE002008BD002125
:1016000001630168CA6822F01002CA6001680A68B2
:10161000D20602D50A6849680091818DFFF742FC25
:10162000EBE7000070B5044600680169E26821F448
:101630004051114301612169A06808436169084371
:101640002168CA6841F20C639A430243CA60206869
:101650004169A26921F44071114341611E4920682A
:10166000884202D1FFF734FA01E0FFF721FA00EBDC
:10167000C00101EB0012606864218000B2FBF0F34E
:10168000B3FBF1F36FF018067343B2FBF0F5B2FB56
:10169000F0F605EB8305322303EB0515B5FBF1F5F9
:1016A000B6FBF1F605F0F00505EB0615B2FBF0F61A
:1016B000B2FBF0F0B0FBF1F06FF01802504306EB14
:1016C000800003EB0010B0FBF1F0216800F00F0088
:1016D0002844886070BD0000003801402DE9F041C9
:1016E000984617460E460446069D1DE0681C1BD012
:1016F0002DB1FEF7B5FFA0EB0800A84214D9206871
:10170000C16821F4D071C1602068416921F00101F4
:101710004161202084F83D0084F83E00002084F8D8
:101720003C000320BDE8F0812068006836EA000034
:1017300004D00020B842D9D00020F3E70120F9E717
:101740000148FFF7B1BB000070000020FEE7000079
:10175000014A024900F023B8C11700081800002010
:101760000907090E002804DB00F1E02080F80014CE
:10177000704700F00F0000F1E02080F8141D704762
:1017800002E008C8121F08C1002AFAD1704770474A
:10179000002001E001C1121F002AFBD170472DE992
:1017A000F04116460F460446002503E03946B0478F
:1017B000641C6D1C20780028F8D12846BDE8F08113
:1017C00013B54FF6FF73012269460248FFF782FD09
:1017D00000981CBD70000020FFF742F8FEF720FEC5
:1017E000FFF774FEFFF7F0FDFFF7D0FDFFF74CFEAB
:1017F000FFF72AFE064D4FF4005421462846FEF717
:1018000021FF04A0FFF7A4FF3220FEF719FEF4E742
:10181000001001403132330A0000000000000000D7
:101820000000000001020304060708090000000090
:101830000102030454180008000000201C000000EE
:1018400080170008701800081C0000202405000004
:1018500090170008000000000000000001000000D8
:1018600010000000000000000024F4000000000050
:04000005080000ED02
:00000001FF
