:020000040800F2
:10000000B80F002031020008151600087B10000808
:1000100011160008090800080B1B0008000000006A
:10002000000000000000000000000000D1170008E0
:100030009B0F000800000000A5160008E918000842
:100040004B0200084B0200084B0200084B0200085C
:100050004B0200084B0200084B0200084B0200084C
:100060004B0200084B0200084B0200084B0200083C
:100070004B0200084B0200084B0200084B0200082C
:100080004B0200084B0200084B0200084B0200081C
:100090000D0800084B0200084B0200084B02000844
:1000A0004B0200084B0200084B0200084B020008FC
:1000B0004B0200084B0200084B0200084B020008EC
:1000C0004B0200084B0200084B0200084B020008DC
:1000D0004B020008551900084B0200084B020008AB
:1000E0004B0200084B0200084B0200084B020008BC
:1000F0004B0200084B0200084B0200084B020008AC
:100100004B0200084B0200084B0200084B0200089B
:100110004B0200084B0200084B0200084B0200088B
:100120004B0200084B0200084B0200084B0200087B
:100130004B0200084B0200084B0200084B0200086B
:100140004B020008C90A00084B0200084B020008D5
:100150004B0200084B0200084B0200084B0200084B
:100160004B0200084B0200084B0200084B0200083B
:100170004B0200084B0200084B0200084B0200082B
:100180004B0200084B02000800F002F800F041F8B2
:100190000AA090E8000C82448344AAF10107DA45E2
:1001A00001D100F036F8AFF2090EBAE80F0013F0F3
:1001B000010F18BFFB1A43F0010318472C68000019
:1001C0004C680000103A24BF78C878C1FAD85207AA
:1001D00024BF30C830C144BF04680C6070470000C1
:1001E0000023002400250026103A28BF78C1FBD840
:1001F000520728BF30C148BF0B607047642900F028
:100200006980002070471FB505F015FD1FBD10B5B2
:1002100010BD00F0CBFA1146FFF7F5FF03F0F2FB3B
:1002200000F0E9FA03B4FFF7F2FF03BC02F05BF958
:100230000948804709480047FEE7FEE7FEE7FEE77A
:10024000FEE7FEE7FEE7FEE7FEE7FEE704480549B6
:10025000054A064B70470000ED18000889010008A8
:10026000B8090020B80F0020B80B0020B80B002000
:10027000704710B54C1084EA530404D54042C1F1D4
:10028000000138BF491E1B4204D55242C3F100038E
:1002900038BF5B1E00F02EF914F0804F04D04042AE
:1002A000C1F1000138BF491E14F0004F04D0524282
:1002B000C3F1000338BF5B1E10BD00000FB404493A
:1002C00010B503AA029800F0F1F910BC5DF814FB18
:1002D0001C0000202DE9F041064600241068752915
:1002E000314616A510D0AFF30080002802DA404254
:1002F00013A507E031688A0701D512A502E0490776
:1003000004D511A5012401E0AFF3008000210A22E9
:1003100006F1240709E0B0FBF2FCB0FBF2F302FBAC
:100320001C00303078541846491C0028F3D123466D
:100330002A463046BDE8F04100F05EB900000000FA
:100340002D0000002B000000200000002DE9F05FD0
:10035000894604464FF0000ADFF824B1FB44C0F898
:1003600020A02046E168884700287DD0252806D0B7
:10037000D4E901219047206A401C2062F1E7002562
:100380005F462046E16888472028064607DB312E75
:1003900005D2B81910F8200C08B10543F1E7A807F9
:1003A00001D525F00405C4F81CA00027C4F818A046
:1003B0002A2E09D0304602F08FF838B304EB8708B4
:1003C000303EC8F8186019E059F8041B204604EBC9
:1003D00087029161E1688847012F064618D1E069DC
:1003E000002820DA25F020051DE0D8F8180000EBE1
:1003F000800006EB40003038C8F818002046E1685D
:100400008847064602F068F80028EED1012F0AD08E
:100410002E2E08D12046E16888477F1C0646022F11
:1004200045F02005C4DBA069002803DA404245F00E
:100430000105A061E80701D025F01005A6B1A6F1DD
:100440004100192802D8203645F400654A46314655
:10045000204625604D46FFF7D1FE60B1012807D048
:10046000ED1D25F0070000E007E000F1080978E73E
:1004700005F1040975E730467AE7206ABDE8F09F88
:100480003265000040EA010310B59B070FD1042A32
:100490000DD310C808C9121F9C42F8D020BA19BA4F
:1004A000884201D9012010BD4FF0FF3010BD1AB1B4
:1004B000D30703D0521C07E0002010BD10F8013B09
:1004C00011F8014B1B1B07D110F8013B11F8014B30
:1004D0001B1B01D1921EF1D1184610BD02F0FF0383
:1004E00043EA032242EA024200F0F4B87047704740
:1004F0007047704753EA020C00F069802DE9F04B19
:100500004FF00006002B1FBFB3FA83F503FA05F482
:1005100024FA05F65E4012BF1643B2FA82F502FADB
:1005200005F4C5F120051EBF22FA05FC44EA0C04BF
:10053000203556EA044C4FEA144418BF641C4FF0AF
:1005400000084FF00009904271EB030C39D30029E9
:1005500019BFB1FA81F701FA07F6B0FA80F700FA8D
:1005600007F6C7F120071EBF20FA07FC46EA0C0673
:100570002037B6FBF4FCA7EB0507103F07F01F0B75
:10058000CBF120060CFA0BFB2CFA06F644BFB3465F
:100590000026202FA4BF5E464FF0000B5BEA060C3E
:1005A00008BF4FF0010B19EB0B09ABFB027C48EBCA
:1005B0000608C01B06FB02CC0BFB03CC71EB0C0145
:1005C000C1E70B46024641464846BDE8F08B13B5ED
:1005D0004FF000004FF00001AFF30080BDE81C4079
:1005E000704710B500F096F8006810BD10B50446CD
:1005F00000F090F8046010BD2DE9F0470D469946D3
:100600009246044600F124080168880604D5E06992
:1006100021F01001216000E00120A84201DD471B0C
:1006200000E00027A1697A1902EB0900081AA0610D
:100630002078C00602D42046AFF30080002608E0F0
:10064000D4E901211AF806009047206A401C761C64
:1006500020624E45F4DB2078C0060AD52046AFF371
:10066000008006E0D4E9012130209047206A401C38
:100670002062381EA7F10107F4DC07E0D4E901216C
:1006800018F805009047206A401C2062281EA5F13A
:100690000105F3DC2046AFF300802078000602D588
:1006A0000220BDE8F0870120FBE70000074B70B592
:1006B0000D467B4400F037F80446284600F046F823
:1006C00010B14FF0FF3070BD204670BD632C0000AC
:1006D0004FF000020429C0F0128010F0030C00F06B
:1006E0003B80CCF1040CBCF1020F18BF00F8012BC9
:1006F000A8BF20F8022BA1EB0C0100F02DB85FEA97
:10070000C17C24BF00F8012B00F8012B48BF00F882
:10071000012B7047004870475409002001694A1CAA
:1007200002610878704700B58FB0CDE90131002132
:10073000059105497944CDE9031011466846FFF754
:1007400005FE0FB000BD0000E5FFFFFF007B00F0DD
:10075000800070474FF0000200B51346944696465D
:10076000203922BFA0E80C50A0E80C50B1F12001C4
:10077000BFF4F7AF090728BFA0E80C5048BF0CC072
:100780005DF804EB890028BF40F8042B08BF7047D0
:1007900048BF20F8022B11F0804F18BF00F8012B42
:1007A0007047000000487047540900207546FFF765
:1007B000F9FFAE4605006946534620F0070085461E
:1007C00018B020B5FFF742FDBDE820404FF000060D
:1007D0004FF000074FF000084FF0000B21F0070129
:1007E000AC46ACE8C009ACE8C009ACE8C009ACE86C
:1007F000C0098D46704710B50446AFF3008020460F
:10080000BDE81040FFF70EBD00BFFEE710B5AB4AD4
:100810000021AB4800F0B6FAA8480068A0F2012019
:1008200030B101284AD002287DD0032845D1EFE01D
:10083000A4480088A349B1F91210401AB0F5805FAE
:1008400005DDA048C068401E9E49C8600DE09D4877
:1008500000889C49B1F91210401A10F5805F04DA43
:100860009848C068401C9749C8609648008800B204
:10087000944948829148007B9049C97A40EA012016
:10088000904908808D48817B407B41EA002000B27E
:100890008C4948808948017CC07B41EA002000B235
:1008A000884988808548407C08740846C068C0EB49
:1008B00040300988084483498860FDE08148B0F8E9
:1008C000BC10B0F9CE00081AB0F5805F07DD7D4896
:1008D000D0F8C800401E7B49C1F8C8000FE0794835
:1008E000B0F8BC10B0F9CE00081A10F5805F06DA37
:1008F0007448D0F8C800401C7249C1F8C80071485B
:10090000B0F8BC0001B26F48A0F8CE106B48007B75
:100910006A49C97A40EA01206A49A1F8BC006748DF
:10092000817B407B00E01FE041EA002001B2654886
:10093000A0F8BE106148017CC07B41EA002001B2F2
:100940006048A0F8C0105D48417C5E4880F8CC103B
:10095000D0F8C800C0EB40305A49B1F8BC1001448F
:100960005848C0F8C410A7E05648B0F87811B0F95C
:100970008A01081AB0F5805F07DD5248D0F884017B
:10098000401E5049C1F884010FE04E48B0F878117C
:10099000B0F98A01081A10F5805F06DA4948D0F8E4
:1009A0008401401C4749C1F884014648B0F87801E9
:1009B00001B24448A0F88A114048007B3F49C97AF7
:1009C00040EA01203F49A1F878013C48817B407B07
:1009D00041EA002001B23B48A0F87A113748017C77
:1009E000C07B41EA002001B23648A0F87C113348B0
:1009F000417C344880F88811D0F88401C0EB403045
:100A00003049B1F8781101442E48C0F8801153E004
:100A10002C48B0F83412B0F94602081AB0F5805FDD
:100A200007DD2848D0F84002401E2649C1F84002A0
:100A30000FE02448B0F83412B0F94602081A10F555
:100A4000805F06DA1F48D0F84002401C1D49C1F8FB
:100A500040021C48B0F8340201B21A48A0F846120D
:100A60001648007B1549C97A40EA01201549A1F8CA
:100A700034021248817B407B41EA002001B21148D8
:100A8000A0F836120D48017CC07B41EA002001B27B
:100A90000C48A0F838120948417C0A4880F84412F2
:100AA000D0F84002C0EB40300649B1F8341201449E
:100AB0000448C0F83C1200BF00BF10BD540600201F
:100AC000006400407400002010B5AB4A0121AB481F
:100AD00000F058F9A8480068A0F2012030B10128C0
:100AE0004AD002287DD0032845D1EFE0A4480088F1
:100AF000A349B1F91210401AB0F5805F05DDA04896
:100B0000C068401E9E49C8600DE09D4800889C4911
:100B1000B1F91210401A10F5805F04DA9848C068E5
:100B2000401C9749C8609648008800B294494882A2
:100B30009148007B9049C97A40EA01209049088099
:100B40008D48817B407B41EA002000B28C4948807F
:100B50008948017CC07B41EA002000B28849888036
:100B60008548407C08740846C068C0EB403009885E
:100B7000084483498860FDE08148B0F8BC10B0F9B2
:100B8000CE00081AB0F5805F07DD7D48D0F8C800B8
:100B9000401E7B49C1F8C8000FE07948B0F8BC108E
:100BA000B0F9CE00081A10F5805F06DA7448D0F864
:100BB000C800401C7249C1F8C8007148B0F8BC00B8
:100BC00001B26F48A0F8CE106B48007B6A49C97A21
:100BD00040EA01206A49A1F8BC006748817B407B5C
:100BE00000E01FE041EA002001B26548A0F8BE1015
:100BF0006148017CC07B41EA002001B26048A0F856
:100C0000C0105D48417C5E4880F8CC10D0F8C80028
:100C1000C0EB40305A49B1F8BC1001445848C0F804
:100C2000C410A7E05648B0F87811B0F98A01081A44
:100C3000B0F5805F07DD5248D0F88401401E50496E
:100C4000C1F884010FE04E48B0F87811B0F98A017C
:100C5000081A10F5805F06DA4948D0F88401401C74
:100C60004749C1F884014648B0F8780101B24448C8
:100C7000A0F88A114048007B3F49C97A40EA012028
:100C80003F49A1F878013C48817B407B41EA002044
:100C900001B23B48A0F87A113748017CC07B41EA99
:100CA000002001B23648A0F87C113348417C34481A
:100CB00080F88811D0F88401C0EB40303049B1F899
:100CC000781101442E48C0F8801153E02C48B0F848
:100CD0003412B0F94602081AB0F5805F07DD2848E3
:100CE000D0F84002401E2649C1F840020FE02448D7
:100CF000B0F83412B0F94602081A10F5805F06DA2F
:100D00001F48D0F84002401C1D49C1F840021C4851
:100D1000B0F8340201B21A48A0F846121648007B17
:100D20001549C97A40EA01201549A1F83402124850
:100D3000817B407B41EA002001B21148A0F83612C5
:100D40000D48017CC07B41EA002001B20C48A0F8AC
:100D500038120948417C0A4880F84412D0F8400211
:100D6000C0EB40300649B1F8341201440448C0F8E1
:100D70003C1200BF00BF10BD6806002000680040A4
:100D80006403002010B500F5D87303EB01131B6852
:100D900003F004031372137A53B900F5D87303EB0D
:100DA00001131B6840F2FF7404EA5353136009E017
:100DB00000F5D87303EB01131B686FF0604404EA7D
:100DC000D303536000F5D87303EB01131B6803F0E2
:100DD0000203537200F5D87303EB01135B6803F051
:100DE0000F03937200F5D87303EB01135B681B0AC2
:100DF000D37400F5D87303EB01139B68D37200F52D
:100E0000D87303EB01139B681C0A147300F5D873A5
:100E100003EB01139B681C0C547300F5D87303EBB0
:100E200001139B681B0E937300F5D87303EB01133A
:100E3000DB68D37300F5D87303EB0113DB681C0A7E
:100E4000147400F5D87303EB0113DB681C0C5474A5
:100E500000F5D87303EB0113DB681B0E937421B903
:100E6000C36843F02003C36003E0036943F0200339
:100E7000036110BD10B502460020936803F0806343
:100E8000B3F1806F00D110E0936803F00063B3F119
:100E9000006F01D1012008E0936803F08053B3F1A3
:100EA000805F01D1022000E00420042874D002F504
:100EB000C07303EB00131B6803F0010402F5C07359
:100EC00003EB00131C600B7A7BB94B7A0C8843EA66
:100ED000445302F5C07404EB00142468234302F564
:100EE000C07404EB0014236010E00B7A4C6843EAF2
:100EF000C4034C7A234302F5C07404EB0014246845
:100F0000234302F5C07404EB001423608B7A03F0D2
:100F10000F038B7202F5C07303EB00135B6823F0C1
:100F20000F0402F5C07303EB00135C6002F5C0739D
:100F300003EB00135B688C7A234302F5C07404EB67
:100F4000001463608B7B1C064B7B44EA03440B7BE1
:100F500044EA0323CC7A234302F5C07404EB001463
:100F6000A3608B7C1C064B7C44EA03440B7C44EA64
:100F70000323CC7B234302F5C07404EB0014E3602D
:100F800002F5C07303EB00131B6843F0010402F584
:100F9000C07303EB00131C6010BD7047F0B50A4628
:100FA00000210023002400BF3DE0012505FA01F3E4
:100FB000156805EA03049C4234D105684F000326F6
:100FC000BE40B543056015794E00B540066835430F
:100FD00005601579012D02D01579022D16D185688D
:100FE0004F000326BE40B543856055794E00B5409D
:100FF000866835438560456801268E40B543456067
:10100000456896798E40B6B235434560C5684F0055
:101010000326BE40B543C560D5794E00B540C668CD
:101020003543C560491C1029BFD3F0BDF0B500237E
:1010300000244D07ED0E02FA05F3CE1000F1200555
:1010400055F826504E07F70E0F26BE40B543CF1079
:1010500000F1200646F82750CE1000F1200555F883
:10106000265045EA0304CE1000F1200545F826403D
:10107000F0BD418370470183704700BFFEE7000069
:1010800010B500200F4908600F48006820F4402088
:101090000D4908600846006840F480200860002080
:1010A0000A49C1F8A402022001F0F4FA012005491E
:1010B0000860022001F0EEFA00200549C1F8A00204
:1010C00010BD0000A0024042000802400000414262
:1010D000000040421CB50121084600F0E5FA01215C
:1010E000042000F0E1FA4FF48070009001208DF8A8
:1010F000040000208DF8060003208DF80500012073
:101100008DF8070069460E48FFF748FF4FF400705E
:10111000009001208DF8040000208DF806000320C7
:101120008DF8050001208DF8070069460548FFF796
:1011300035FF0120044908600449C1F8A4021CBD20
:101140000000024000080240A0024042000041426C
:1011500010B500200F4908600F48006820F44020B7
:101160000D4908600846006840F4802008600120AE
:101170000A49C1F8A402022001F08CFA01200549B5
:101180000860022001F086FA00200549C1F8A0029B
:1011900010BD0000A0024042000802400000414291
:1011A0000000404270B5054600241548006820F450
:1011B000402013490860084600680860002615E0D2
:1011C000002010490860022001F064FA01200E4955
:1011D000C1F8A0026006040E0C48006808B1601C4B
:1011E000C4B2012001F056FA701CC6B2082EE7DB2B
:1011F00015B9FFF7ADFF01E0FFF742FF204670BDD4
:1012000000080240A0024042000040422402414245
:1012100070B504461448006820F440201249086064
:101220000846006840F48020086000200F490860EC
:10123000002516E0E0090E4908606006040E022051
:1012400001F028FA01200B49C1F8A002022001F0A8
:1012500021FA002005490860022001F01BFA681CF1
:10126000C5B2082DE6DB70BD00080240A002404276
:10127000A40241420000404210B50F48006820F42B
:1012800040200D4908600846006840F4802008604E
:1012900001200A4908600A49C1F8A002042001F0AF
:1012A000F9F9002005490860042001F0F3F9002055
:1012B0000349C1F8A00210BD00080240A402414247
:1012C0000000404210B50F48006820F440200D494E
:1012D00008600846006840F48020086000200A4941
:1012E00008600A49C1F8A402042001F0D3F90120E2
:1012F000054908600549C1F8A402042001F0CAF9B3
:1013000010BD000000080240A0024042000041421F
:1013100010B500241248006820F4402010490860ED
:1013200008460068086001200E49086001F0B2F923
:1013300001200D49C1F8A00201F0ACF907E0601CE2
:10134000C4B2FA2C03DDFFF7BDFF012010BD054834
:10135000803800680028F2D10449086000BFF5E732
:1013600000080240A402414200004042A002404264
:101370001CB50121082000F097F9AC200090012055
:101380008DF8040000208DF8060003208DF805007C
:1013900001208DF8070069460348FFF7FFFDEC21A7
:1013A0000248FFF768FE1CBD000C0240001402401A
:1013B00010B5FFF78FFE80216B2000F0D7F8642076
:1013C00001F04CF900216B2000F0D0F8032000F070
:1013D0008BF8002000F080F8322000F0AAF80021FD
:1013E000382000F0C3F800216A2000F0BFF8002187
:1013F000232000F0BBF88021372000F0B7F87520DB
:1014000000F013F80446682C0BD101216B2000F08A
:10141000ADF800216C2000F0A9F8322000F089F826
:1014200001E0012010BD0020FCE770B50446FFF785
:1014300023FFD020FFF7ECFEFFF76AFF2046FFF7FF
:10144000E7FEFFF765FFFFF717FFD120FFF7E0FE8C
:10145000FFF75EFF0020FFF7A5FE0546FFF732FF0E
:10146000284670BD2DE9F04106460F4614461D463C
:10147000FFF702FF002141EA4601C8B2FFF7C8FEAC
:10148000FFF746FF20B1FFF71DFF0120BDE8F08107
:101490003846FFF7BDFEFFF73BFFFFF7EDFE0121EA
:1014A00001EB4601C8B2FFF7B3FEFFF731FF0DE0D5
:1014B000012C04D10020FFF775FE287003E0012005
:1014C000FFF770FE2870601EC4B26D1C002CEFD1B7
:1014D000FFF7F8FE0020D9E710B50446E006010E3C
:1014E0001C2000F043F810BD10B50446E006010EC4
:1014F0001B2000F03BF810BD70B504460025BC2C45
:1015000001DB012510E0622C01DB02250CE02A2C16
:1015100001DB032508E0142C01DB042504E00A2C80
:1015200001DB052500E0062529461A2000F01EF8FB
:1015300070BD70B50446B4F57A7F01DD4FF47A745E
:10154000042C00DA04244FF47A7090FBF4F0401E6F
:10155000C5B22946192000F009F80546264604EBD5
:10156000D671C1F34F00FFF7C7FF70BD70B50546D8
:101570000C46FFF781FED020FFF74AFEFFF7C8FEBA
:1015800018B1FFF79FFE012070BD2846FFF740FE0F
:10159000FFF7BEFE2046FFF73BFEFFF7B9FE18B18E
:1015A000FFF790FE0120EFE7FFF78CFE0020EBE74E
:1015B0002DE9F04105460E4617469846FFF75CFEBA
:1015C000002141EA4501C8B2FFF722FEFFF7A0FE65
:1015D00020B1FFF777FE0120BDE8F0813046FFF72C
:1015E00017FEFFF795FE00240CE018F80400FFF743
:1015F0000FFEFFF78DFE18B1FFF764FE0120EBE749
:10160000601CC4B2BC42F0DBFFF75CFE0020E3E7E5
:1016100000BFFEE77047000070B5002100230F22D5
:10162000C4781CB3174C246804F4E064C4F5E06487
:10163000C4F30721C1F10404E3B20A4144789C4099
:10164000E1B28478144021430C07210E0E4C05783A
:101650006155047804F01F050124AC4005786D1134
:10166000AD0005F1E025C5F8004109E0047804F07B
:101670001F050124AC40054D0678761145F826403B
:1016800070BD00000CED00E000E400E080E100E04F
:1016900002490143024A1160704700000000FA0548
:1016A0000CED00E07047000029B1064A12680243C1
:1016B000044B1A6004E0034A12688243014B1A602B
:1016C000704700003038024029B1064A12680243D0
:1016D000044B1A6004E0034A12688243014B1A600B
:1016E0007047000044380240F0B500210022002479
:1016F000022500260223324F3F6807F00C0121B17A
:10170000042905D0082937D105E02E4F076036E0BF
:101710002D4F076033E02A4F3F1F3F68C7F38056C5
:10172000274F3F1F3F6807F03F036EB1264FB7FBBF
:10173000F3F7DFF88CC0ACF1040CDCF800C0CCF39C
:10174000881C07FB0CF40CE01E4FB7FBF3F7DFF827
:1017500070C0ACF1040CDCF800C0CCF3881C07FBB3
:101760000CF4174F3F1F3F68C7F301477F1C7D00F4
:10177000B4FBF5F7076002E0124F076000BF00BF3F
:101780000F4F3F6807F0F0010909104F7A5C0768B6
:10179000D74047600A4F3F6807F4E051890A0B4F72
:1017A0007A5C4768D7408760054F3F6807F460411F
:1017B000490B064F7A5C4768D740C760F0BD000010
:1017C000083802400024F40000127A002C000020A7
:1017D000704700000CB5002001900090344800686C
:1017E00040F480303249086000BF3148006800F49E
:1017F000003000900198401C0190009818B90198A1
:10180000B0F5A04FF1D12A48006800F4003010B1C3
:101810000120009001E0002000900098012846D1AE
:1018200023484030006840F0805021494031086032
:101830002048006840F440401E4908601C480830B9
:1018400000681B49083108600846006840F4004001
:1018500008600846006840F4A05008601648091F58
:101860000860081F006840F08070091F086000BF12
:101870000F48006800F000700028F9D040F20570B1
:101880000E4908600A480830006820F00300084943
:10189000083108600846006840F00200086000BF98
:1018A00003480830006800F00C000828F8D10CBD8F
:1018B000003802400070004008544007003C0240DD
:1018C000042808D14FF0E021096941F004014FF0EC
:1018D000E022116107E04FF0E021096921F00401E5
:1018E0004FF0E022116170477047000010B51548B5
:1018F000006840F47000134908601348006840F025
:1019000001001149086000200F49083108600E48A5
:1019100000680E4908400C4908600D48091D086020
:10192000081F006820F48020091F08600020064975
:101930000C310860FFF74EFF4FF00060014980391D
:10194000086010BD88ED00E000380240FFFFF6FEA1
:101950001030002410B511480068082802D100207A
:101960000E4908600E4800F0C7F80E490870084696
:1019700000780D49094A126821F8120007480068EA
:10198000401C064908602021054800F011F807486E
:101990000068401C0549086010BD000028000020B8
:1019A00000100140220000204407002024000020F5
:1019B00001F40072B2F5007F00D100BFCA4302807B
:1019C000704721B1828942F40052828104E0828909
:1019D0004DF6FF731A4082817047F0B5034600242C
:1019E00000260025002040F66A17B94200D100BF4A
:1019F0001846C1F3421401F01F06012707FA06F545
:101A0000012C01D10C3004E0022C01D1103000E097
:101A100014301AB107682F43076002E00768AF432C
:101A20000760F0BD2DE9FF4705460E460024A1469C
:101A300000BFA046B08900B100BF2C8A24F44054F6
:101A4000F08804432C82AC8941F20C608443B08856
:101A500031890843718908430443AC81AC8A24F47A
:101A60004074B0890443AC826846FFF73DFE2048CD
:101A7000854202D01F48854202D1DDF80C9001E07A
:101A8000DDF80890A88900F4004040B109EBC900D6
:101A900000EB091031684900B0FBF1F707E009EBF2
:101AA000C90000EB091031688900B0FBF1F7642030
:101AB000B7FBF0F004012009642101FB1078A8892C
:101AC00000F4004040B1322000EBC800B0FBF1F060
:101AD00000F00700044308E0322000EB0810642106
:101AE000B0FBF1F000F00F0004432C81BDE8FF874C
:101AF000001001400014014001468888C0F308002E
:101B00007047C1F308028280704700BFFEE703B44C
:101B100001984100009850EAC12018BF04204A0DE6
:101B200018BF40F0010040F2FF72B2EB515F08BFF6
:101B300040F00200012808BF052002B070470000F5
:101B400070B5C1482DED020B2DED0E8B82B0119DAD
:101B500025F000449FEDBEDB9FEDBFEB84423EDBF2
:101B6000A4F140511098A1F17F6108430FD0BC4807
:101B7000844202DC28D1109830B39DED100B02B0E6
:101B8000BDEC0E8B02B0BDE8704000F071BC9DED65
:101B9000100B53EC1D2B51EC100B03F01BFD9DEDB6
:101BA000100B41EC180B53EC1E2B51EC100B03F0F7
:101BB00011FD53EC182B03F0C5FA41EC100B02B0E9
:101BC000BDEC0E8B02B070BD0120FEF70FFD02B020
:101BD000BDEC0E8B02B0BDE8704000F05DBCA148CA
:101BE0009FEDA18B844256DA9DED100BB4F1795F25
:101BF0000ADA51EC100BFFF78AFF042808BF00F047
:101C00005BFC9DED100BDAE753EC102B51EC100B45
:101C100003F0E0FC41EC190B95480621B0EE490AAF
:101C2000F0EE690A784400F0A7FB53EC192B51EC55
:101C3000100B03F0CFFC41EC1A0B8E48B0EE490AB2
:101C4000F0EE690A0421784400F096FB53EC192B5E
:101C500051EC100B03F0BEFC53EC182B03F072FA9E
:101C600041EC100B51EC1A0B53EC102B03F01EFB44
:101C7000CDE900019DED000B53EC102B9DED100BF9
:101C800051EC100B03F0A6FC9DED101B53EC112B37
:101C900003F058FAD2E09DED100B51EC100B01F05F
:101CA0002FFB53EC182B03F093FD9FED730BCDE945
:101CB000000153EC102B9DED000B51EC100B03F0C9
:101CC00089FC41EC190B6E480621B0EE490AF0EE92
:101CD000690A784400F050FB53EC192B51EC100BBF
:101CE00003F078FC41EC1B0B6648B0EE490AF0EEBD
:101CF000690A0421784400F03FFB53EC192B51ECA6
:101D0000100B03F067FC53EC182B03F01BFA41ECAB
:101D10001C0B51EC190B03F049F941EC180B5A4814
:101D20009FED5BABA04222DC53EC1C2B51EC1B0B58
:101D300003F0BCFACDE900019DED000B51EC180B4E
:101D400053EC102B03F046FC53EC182B03F0FAF97C
:101D500053EC1A2B03F03EFC53EC1D2B03F010FE4A
:101D600053EC1E2B03F034FD41EC100B5FE08DEDC6
:101D7000008B002000909DED000B51EC180B53ECF4
:101D8000102B03F0DFF99DED000B41EC1E0B53EC23
:101D9000102B51EC100B03F01DFC53EC192B03F02E
:101DA00017FD53EC1E2B03F081FA41EC190B53EC99
:101DB0001C2B51EC1B0B03F079FA41EC1B0B53EC81
:101DC0001A2B51EC190B03F005FC53EC1D2B03F0FF
:101DD000FFFC41EC190B53EC1A2B51EC180B03F0E0
:101DE000F9FB53EC1B2B03F0F5FB53EC192B03F021
:101DF000C7FD9DED000B41EC180B53EC1A2B51EC79
:101E0000100B03F0E7FB9FED249B53EC192B03F021
:101E1000DFFC41EC100B51EC180B53EC102B03F0D2
:101E2000AFFD53EC192B03F0D3FC41EC100B002D4C
:101E30003FF7C5AE51EC100B03F046F941EC100B27
:101E4000BDE60000000000000000F03F00000000C0
:101E5000075C143326A6913C182D4454FB21F93F0E
:101E60000000F07F0000E03F000000000000F03FB5
:101E7000804C00008E4C0000000000000000E03F9D
:101E8000D24B0000E04B00003333EF3F0000000076
:101E90000000000000000040182D4454FB21E93FE1
:101EA00070B59B482DED020B2DED068B079D25F09F
:101EB0000044A04218DC9748844202DC0AD106980C
:101EC00040B19DED060BBDEC068B02B0BDE8704045
:101ED00000F0CEBA002DCCBF9FED8F0B9FED900B85
:101EE000BDEC068B02B070BD8F48A04215DD8F4857
:101EF000A042D8BF4FF0FF3458DD9DED060B51ECEA
:101F0000100BFFF704FE042808BF00F0D5FA9DED82
:101F1000060BBDEC068B02B070BD9DED060B51ECBF
:101F2000100B01F0EDF9CDE9060181489FED828BA0
:101F3000A0423CDD8248A0421FDD00249FED82AB21
:101F40009DED060B53EC1A2B51EC100B03F0FAF835
:101F50009DED060B41EC190B53EC1A2B51EC100BB9
:101F600003F038FB53EC182B03F00AFD53EC192B4C
:101F700003F09CF9CDE9060149E09DED060B012433
:101F800053EC182B51EC100B03F0DCF89DED060B15
:101F900041EC190B53EC182B51EC100B03F0F0FC37
:101FA00053EC192B03F082F9CDE906012FE06848C4
:101FB000A0421FDD02249FED689B9DED060B53ECB4
:101FC000192B51EC100B03F005FB53EC182B03F00D
:101FD000B9F89DED060B41EC180B53EC192B51ECA5
:101FE000100B03F0CDFC53EC182B03F05FF9CDE997
:101FF00006010CE09DED060B032453EC102B9FED26
:10200000580B51EC100B03F051F9CDE906019DED91
:10201000060B53EC102B51EC100B03F0DBFA41ECE8
:10202000180B53EC182B03F0D5FA41EC190B4E4862
:102030000621B0EE490AF0EE690A784400F09CF9F6
:1020400053EC182B51EC100B03F0C4FA41EC180BB5
:102050004648B0EE490AF0EE690A0521784400F0DE
:102060008BF953EC192B51EC100B03F0B3FA41EC44
:10207000100B51EC180B53EC102B002C0EDA03F064
:1020800061F89DED061B53EC112B03F0A3FA9DEDB7
:10209000061B53EC112B03F09BFB35E003F052F8C9
:1020A0009DED061B53EC112B03F094FA41EC100B41
:1020B0002F48784400EBC40090ED001B51EC100B4E
:1020C00053EC112B03F05CFC9DED061B53EC112B24
:1020D00003F056FC41EC100B2648784400EBC4009A
:1020E00090ED001B51EC100B53EC112B03F070FB27
:1020F00041EC100B002DA2BFBDEC068B02B070BDF1
:1021000051EC100B02F0E0FF41EC100B01E7000076
:10211000000010440000F07F182D4454FB21F93FCB
:10212000182D4454FB21F9BF0000DC3F0000203E85
:102130000000F33F00000000000000000000F03F3E
:102140000000E63F0000000000000000000000402A
:102150000080034000000000000000000000F83F85
:10216000000000000000F0BF22490000D848000035
:10217000624800001A48000070B56F4E2DED040B48
:102180002DED048B82B0DDF824C0DDE907235C422D
:102190002CF000411C4341EAD474069D22F000401B
:1021A000B44205D86C422C4340EAD474B4420BD9F3
:1021B0009DED081B9DED060B02B0BDEC048B04B039
:1021C000BDE8704000F05EB9ACF14054A4F17F640A
:1021D0001C430BD0022404EAAC7444EAD2740543D5
:1021E0009FED578B9FED582B07D015E09DED060B0B
:1021F00051EC100B00F0DAF942E0002C11BF012C79
:102200009DED060B02B0BDEC048B04BF04B070BDA5
:10221000022C38D0032C3BD00B439FED4D1B9FED80
:102220004E0B0AD0B14218D1B04209D121F0804101
:1022300020F08040099107900FE0002A15DA10E0A5
:10224000474B7B44002C08BF93ED000B0DD0012CB5
:1022500010D0022C17D0032C1AD0B0421DD1002A66
:1022600003DAB0EE410AF0EE610A02B0BDEC048B75
:1022700004B070BD93ED000B51EC100B02F024FF85
:1022800041EC100BF1E7B0EE480AF0EE680AECE71B
:10229000B0EE420AF0EE620AE7E7401A00159FED41
:1022A000329B3C28C8BF8DED000B17DCBCF1000F42
:1022B000BCBF10F13C0F8DED009B0FDB9DED080BBB
:1022C00053EC102B9DED060B51EC100B02F0EEFFC2
:1022D00001F016F800F06AF9CDE90001B4B1012C63
:1022E00010D0022C9FED220B53EC102B9DED000B18
:1022F00051EC100B19D003F043FB53EC182B03F0F7
:102300003FFBBDE7019880F0004001909DED000B80
:1023100053EC192B51EC100B03F020F904BF0220F1
:10232000FEF764F99DED000B9FE703F029FB53ECEA
:10233000182B03F04DFAA3E70000F07F0000000027
:10234000182D4454FB210940182D4454FB2109C089
:10235000182D4454FB21F9BF182D4454FB21F93F9B
:102360004A470000000000000000000000000000DC
:10237000075C143326A6A13C70B504462DED028BF4
:102380004D1E00EBC500B0EE408AF0EE608A90ED85
:10239000000B35F0060017D053EC182B51EC100B46
:1023A00003F018F941EC100B6D1E04EBC50090ED25
:1023B000001B51EC100B53EC112B02F0C3FE41EC4F
:1023C000100B35F00600E7D1022D36D0042D1CD0BD
:1023D000062D1CBFBDEC028B70BD53EC182B51ECCD
:1023E000100B03F0F7F894ED0A1B53EC112B02F0DD
:1023F000A9FE53EC182B03F0EDF894ED081B53ECF9
:10240000112B02F09FFE41EC100B53EC182B51ECFA
:10241000100B03F0DFF894ED061B53EC112B02F0C8
:1024200091FE53EC182B03F0D5F894ED040B53EC0C
:10243000102B02F087FE41EC100B53EC182B51ECE3
:10244000100B03F0C7F894ED021B53EC112B02F0B4
:1024500079FE53EC182B03F0BDF894ED001B53EC00
:10246000112B02F06FFEBDEC028B41EC100B70BD26
:1024700010B553EC102B51EC100B02F063FE41EC45
:10248000100B10BD10B553EC112B51EC100B02F0DA
:1024900059FE41EC100B10BD9FED050B10B553EC30
:1024A000102B51EC100B02F001FF41EC100B10BD92
:1024B00000000000000000009FED050B10B553EC7C
:1024C000102B51EC100B03F085F841EC100B10BDF4
:1024D000000000000000001030380A2801D201205E
:1024E00070470020704700BF70470000F0B52DED29
:1024F000028B83B006460F460025684600F01AFF9F
:10250000002447E056F8241057F82420881A0028A1
:1025100001DB014600E0414200EE101AB8EEC00AAD
:10252000DFED200A80EE208A684600EB840090ED03
:10253000000AB5EEC00AF1EE10FA18D0684600EBBA
:102540008400D0ED000A88EE200AF7EE000A70EE53
:10255000608AB0EEE80A1448D0ED090AB4EEE00A49
:10256000F1EE10FA15DD0120A040054311E00E4800
:1025700090ED070AB4EEC80AF1EE10FA06DC90ED11
:10258000080AB4EEC80AF1EE10FA02D20120A04007
:102590000543641C032CB5DB284603B0BDEC028B5D
:1025A000F0BD000000008047745C000810B541ECED
:1025B000100BFFF775FC51EC100B10BD2DE9F0412D
:1025C0000446E07800F0C006E07800F03F0560784F
:1025D00000F0010098B1EF102846E91705EB5171A2
:1025E000C910A5EBC101491C01F0FF080B480068A8
:1025F00020B10A48414602683846904700BF6078DB
:1026000000F0080030B10548406818B1B011034A25
:10261000516888470020BDE8F0810000440900208F
:1026200010B504466FF00400FFF74AF9E11704EB18
:102630005171C1F3C701074A11701046007800EBD1
:102640004001C1EBC0104FF6FF7101EAC000024922
:10265000088010BD180000201A00002070B5044644
:102660004FF4077094FBF0F0C6B24FF4077094FB80
:10267000F0F100FB114085B205E04FF4077000F067
:102680002FF8701EC6B2002EF7D115B1284600F003
:1026900027F870BD0146114A12784A434FF0E023F3
:1026A0005A6100229A611A46126942F001021A61C7
:1026B00000BF4FF0E022106900F001021AB100F4EF
:1026C0008032002AF5D04FF0E022126922F0010298
:1026D0004FF0E0231A6100229A6170471800002031
:1026E0000146114A12884A434FF0E0235A61002202
:1026F0009A611A46126942F001021A6100BF4FF056
:10270000E022106900F001021AB100F48032002AC0
:10271000F5D04FF0E022126922F001024FF0E023E1
:102720001A6100229A6170471A00002038B50446E9
:1027300064B120208DF8000028208DF801003020A1
:102740008DF8020038208DF8030004E0A322042154
:102750006846FDF7C3FE6A46042140F69E2002F05B
:102760004FFB01F039FF38BD3EB5044602208DF81D
:102770000000CA208DF80100E3208DF80200092036
:102780008DF803006A460421682002F039FBA3207B
:102790008DF8000004F0400048B1C0208DF8010021
:1027A000C8208DF80200C2208DF8030006E0A320A7
:1027B0008DF801008DF802008DF8030004F4C0705C
:1027C00048B1C4208DF80400CC208DF80500C62047
:1027D0008DF8060006E0A3208DF804008DF80500B2
:1027E0008DF80600A3208DF807008DF808008DF8FD
:1027F00009006A460A2140F6A72002F001FB04F016
:10280000030018B120208DF8000002E0D8208DF8D8
:1028100000006A46012140F6B62002F0F1FA04F009
:10282000200018B1012000F0ADF802E0002000F017
:10283000A9F804F4C07008B304F4807060B1B22049
:102840008DF800008B208DF80100B6208DF8020075
:102850009B208DF803000BE0B0208DF80000802055
:102860008DF80100B4208DF8020090208DF803004F
:102870006A46042140F6A22002F0C2FA04F00100E8
:1028800020B3F8208DF800006A4601214FF40B6058
:1028900002F0B6FAFA21072000F02CFC072000F025
:1028A000F3FB012000F013FC642000F003FD4FF463
:1028B000FA7000F012FDC821304800F0A3FB282078
:1028C00000F0BCFB0A2000F0CCFB08E0D8208DF81B
:1028D00000006A4601214FF40B6002F091FA04F007
:1028E000020018B1D9208DF8000002E0D8208DF840
:1028F00000006A46012140F23D7002F081FA04F0C6
:10290000040018B1012000F069F802E0002000F096
:1029100065F804F0100018B10120FFF707FF02E08E
:102920000020FFF703FF44F008001549488101F03B
:1029300053FE00201249887304F0400018B1084685
:10294000807B801D887304F4C07020B10C48807BAC
:10295000801D0B49887304F0140020B10848807B67
:1029600010300749887304F0030020B10448807BCD
:10297000001D0349887300203EBD000009E3CA0220
:10298000440900203EB504466CB10EA1D1E90020F7
:102990008968CDE9002002916A4609214FF49760C9
:1029A00002F02EFA3EBD0AA2D2E900109268CDE9EB
:1029B000010200916A4609214FF4976002F020FA63
:1029C000F0E70000B8AAB38DB4980D355D000000A3
:1029D000B8AAAAAAB088C3C5C700000038B5044683
:1029E00064B1C0208DF80000C2208DF80100C42021
:1029F0008DF80200C6208DF8030004E08B2204212C
:102A00006846FDF76BFD6A46042140F6982002F007
:102A1000F7F901F0E1FD38BD10B5C8234FF480622D
:102A2000024940F6F63001F06BFC10BD9C5C0008DA
:102A30002DE9F04F8DB00746884615469946DDE9E9
:102A4000166B0024002030806B49887B5A4605A90C
:102A500001F022FD18B1601E0DB0BDE8F08F664890
:102A6000807A00F01400002867D09DF8140000065A
:102A70009DF8151040EA01409DF8161040EA01202B
:102A80009DF81710084328609DF8180000069DF86F
:102A9000191040EA01409DF81A1040EA01209DF803
:102AA0001B10084368609DF81C0000069DF81D106F
:102AB00040EA01409DF81E1040EA01209DF81F10D9
:102AC0000843A8609DF8200000069DF8211040EA08
:102AD00001409DF8221040EA01209DF82310084390
:102AE000E86004F11000C4B228680014019068681E
:102AF00000140290A86800140390E8680014049081
:102B000001984043029901FB0100039901FB010078
:102B1000049901FB010ABAF1706F02DBBAF1885F18
:102B200005DD01F059FD00203080401E94E7B6F924
:102B3000000040F48070308000BF2F48807A00F0A1
:102B4000400020B305A9601C085C095D40EA012033
:102B500000B2A8F8000005A9E01C095C05AAA01CA9
:102B6000105C41EA002000B2A8F8020005A9601D2F
:102B7000095C201D105C41EA002000B2A8F80400A6
:102B8000A01DC4B2B6F9000040F0080030801A4819
:102B9000408900F4C07008B305A9601C085C095D99
:102BA00040EA012000B2388005A9E01C095C05AAB2
:102BB000A01C105C41EA002000B2788005A9601DCD
:102BC000095C201D105C41EA002000B2B880A01D05
:102BD000C4B2B6F9000040F0700030800648807A38
:102BE00000F0030018B105A90819FFF7E7FC4846F3
:102BF00000F0E6FF00202FE74409002070B588B000
:102C0000064601A801F0C8F9BDF804000021C90377
:102C100041EA5045C4034448007A00F0030056F8E6
:102C2000200005904048007A00F0040010B105989B
:102C3000404205903C48007AC0F3C10056F820009D
:102C400006903948007A00F0200010B10698404202
:102C500006903548007AC0F3811056F8200007909E
:102C60003148008900F4807010B107984042079005
:102C70000598C117A0FB042301FB043100FB0510DC
:102C8000810041EA927005900698C117A0FB0423C9
:102C900001FB043100FB0510810041EA92700690AF
:102CA0000798C117A0FB042301FB043100FB0510AA
:102CB000810041EA927007900598000E8DF8080097
:102CC0000598000C8DF809000598000A8DF80A0097
:102CD0000598C0B28DF80B000698000E8DF80C0018
:102CE0000698000C8DF80D000698000A8DF80E006D
:102CF0000698C0B28DF80F000798000E8DF81000EE
:102D00000798000C8DF811000798000A8DF8120042
:102D10000798C0B28DF8130002AA0C214FF4257059
:102D200002F06EF808B070BD4409002030B585B0DF
:102D3000044616A207CA02AB07C3C82C03DD4FF036
:102D4000FF3005B030BDC82090FBF4F0401E85B2C6
:102D5000280A8DF80000E8B28DF801006A460221C9
:102D600040F2162002F04CF810B14FF0FF30E8E7C7
:102D700002AA0C2140F6C12002F042F810B14FF037
:102D8000FF30DEE7044884810020DAE7FEF2ABC4BE
:102D9000AAF1DFDFBBAFDFDF440900201FB5044627
:102DA0004848007A00F0030054F82000019045489C
:102DB000007A00F0040010B10198404201904148AF
:102DC000007AC0F3C10054F8200002903D48007A18
:102DD00000F0200010B10298404202903948007A79
:102DE000C0F3811054F8200003903648008900F4A5
:102DF000807010B10398404203903349019880FBE2
:102E00000101800F40EA810001902F49029880FB68
:102E10000110820042EA917002902B49039880FBD6
:102E20000110820042EA917003900198000E8DF823
:102E300000000198000C8DF801000198000A8DF83F
:102E400002000198C0B28DF803006A4604214FF4D5
:102E5000747001F0D5FF18B14FF0FF3004B010BD11
:102E60000298000E8DF800000298000C8DF8010009
:102E70000298000A8DF802000298C0B28DF8030093
:102E80006A4604214FF4757001F0BAFF10B14FF09B
:102E9000FF30E3E70398000E8DF800000398000C64
:102EA0008DF801000398000A8DF802000398C0B263
:102EB0008DF803006A4604214FF4767001F0A0FFFC
:102EC000CCE700004409002009E3CA0210B586B02F
:102ED000044647A00068039046A00068029046A000
:102EE0000068019045A00068009004F0030003A969
:102EF000085C8DF8140003A8C4F3C101405C8DF890
:102F0000150003A8C4F38111405C8DF8160004F08D
:102F1000030002A9085C8DF8100002A8C4F3C101E7
:102F2000405C8DF8110002A8C4F38111405C8DF85B
:102F3000120005AA032140F2264001F061FF18B1FA
:102F40004FF0FF3006B010BD04AA032140F22A4022
:102F500001F056FF10B14FF0FF30F3E701980590F4
:102F60000098049004F0040058B19DF8140040F05B
:102F700001008DF814009DF8100040F001008DF85C
:102F8000100004F0200058B19DF8150040F0010039
:102F90008DF815009DF8110040F001008DF811002A
:102FA00004F4807058B19DF8160040F001008DF8CF
:102FB00016009DF8120040F001008DF8120005AADD
:102FC00003214FF4886001F01BFF10B14FF0FF3078
:102FD000B8E704AA032140F2314001F011FF10B11B
:102FE0004FF0FF30AEE7064804810020AAE700005A
:102FF0004CCD6C000CC92C00365676002646660077
:1030000044090020F8B505460E464FF47A7095FB4A
:10301000F0F000FB06F4200E8DF80000200C8DF877
:103020000100200A8DF80200E0B28DF803006A4624
:1030300004214FF4AE7001F0E3FEF8BD38B504464C
:10304000052094FBF0F084B220128DF80000E0B26D
:103050008DF801006A4602214FF4AD7001F0D0FEF8
:1030600038BD38B50446052094FBF0F084B2201238
:103070008DF80000E0B28DF801006A4602214FF49D
:10308000AC7001F0BDFE38BD38B50446002000909C
:1030900004F0010020B19DF8000040F030000090E5
:1030A00004F0020020B19DF8000040F00C000090F8
:1030B00004F0040020B19DF8000040F003000090EF
:1030C0006A4601214FF4A47001F09AFE38BD38B56C
:1030D0000446012C01DA012402E0042C00DD042462
:1030E000601EC0B200906A46012140F24F1001F00C
:1030F00087FE38BDF0B52DED028B83B006460F4636
:1031000006F0070010B1B7F5C86F05DD4FF0FF30CE
:1031100003B0BDEC028BF0BD00EE107AB8EE400AB1
:10312000DFED5B0A80EE208A01A800F00FFF9DF81A
:103130000400022806D0042817D0082828D0102818
:103140004CD138E09FED530A28EE000ABCEEC00ACD
:1031500010EE100A84B29FED500A28EE000ABCEE71
:10316000C00A10EE100A85B23BE09FED4C0A28EE33
:10317000000ABCEEC00A10EE100A84B29FED480AA5
:1031800028EE000ABCEEC00A10EE100A85B228E054
:103190009FED440A28EE000ABCEEC00A10EE100AA9
:1031A00084B29FED410A28EE000ABCEEC00A10EE80
:1031B000100A85B215E09FED3D0A28EE000ABCEE2C
:1031C000C00A10EE100A84B29FED390A28EE000AF8
:1031D000BCEEC00A10EE100A85B202E04FF0FF30DC
:1031E00096E700BF20128DF80800E0B28DF80900C4
:1031F00028128DF80A00E8B28DF80B0006F00100E5
:10320000A0B102AA02214FF4EA7001F0F9FD10B159
:103210004FF0FF307CE70DF10A0202214FF492706B
:1032200001F0EEFD10B14FF0FF3071E706F0020043
:10323000A0B102AA02214FF4EC7001F0E1FD10B13F
:103240004FF0FF3064E70DF10A0202214FF4947051
:1032500001F0D6FD10B14FF0FF3059E706F0040041
:10326000A0B102AA02214FF4EE7001F0C9FD10B125
:103270004FF0FF304CE70DF10A0202214FF4967037
:1032800001F0BEFD10B14FF0FF3041E700203FE7F5
:103290000000484300008046000040460000004611
:1032A0000000C0450000804500004045000000458A
:1032B0000000C04438B50446052094FBF0F085B208
:1032C00028128DF80000E8B28DF801006A4602214C
:1032D0004FF4EF7001F094FD38BD38B50446052079
:1032E00094FBF0F085B228128DF80000E8B28DF85A
:1032F00001006A4602214FF4ED7001F081FD38BDF6
:1033000082B0CDE9000121F0004001909DED000B5D
:1033100002B051EC100B704700BF054A128802F052
:103320004002002AF9D0C2B2014B9A8070470000D7
:10333000001001407CB505462E494968087801AB6C
:1033400004220D21FEF78EF808B107207CBD9DF800
:103350000700C0F301109DF8041001F0E00140EAFD
:10336000E1008DF800009DF80700C0F381009DF892
:10337000051001F0E00140EAE1008DF801009DF840
:10338000070000F003009DF8061001F0E00140EA9C
:10339000E1008DF80200002427E01DF8040030B998
:1033A0009FED150A05EB840080ED000A1BE09FED00
:1033B000130A05EB840080ED000A0BE005EB8400A6
:1033C00090ED000ADFED0E0A20EE200A05EB8400E6
:1033D00080ED000A1DF80400401EC0B20DF8040084
:1033E0000028EBD100BF601CC4B2032CD5DB002049
:1033F000ACE700003C000020000000007B14AE3E63
:103400001D5A843F2DE9F04F87B005460C46914682
:1034100001208DF8100000208DF81100FE4A12687E
:10342000917CFD4A5268107804AB0222FEF7C0F886
:1034300020B14FF0FF3007B0BDE8F08FC820FFF794
:103440000DF900208DF81000F34A1268D17BF24A82
:103450005268107804AB0122FEF7AAF810B14FF0C1
:10346000FF30E8E7EC4A12685179EB4A526810786D
:1034700004AB0122FEF79CF810B14FF0FF30DAE701
:10348000E54A1268917CE44A5268107804AB012244
:10349000FEF78EF810B14FF0FF30CCE7DE4A12682D
:1034A000D17DDD4A5268107804AB0122FEF780F826
:1034B00010B14FF0FF30BEE7D74A12681179D64AF3
:1034C0005268107804AB0122FEF772F810B14FF089
:1034D000FF30B0E70C208DF81000CF4A1268117948
:1034E000CD4A5268107804AB0122FEF761F810B1A2
:1034F0004FF0FF309FE70F20FFF7B0F8C648806A13
:10350000407A8DF81000C44A12689178C24A526815
:10351000107804AB0122FEF74BF810B14FF0FF30EA
:1035200089E7BD48806A007A8DF81000BA4A1268AF
:103530005178B94A5268107804AB0122FEF738F886
:1035400010B14FF0FF3076E7B9F1000F07D0B24865
:10355000806A807A40F0E0008DF8100004E0AE4808
:10356000806A807A8DF81000AB4A12689179AA4A75
:103570005268107804AB0122FEF71AF810B14FF030
:10358000FF3058E7B9F1000F07D0A348806AC07A2E
:1035900040F0E0008DF8100003E0A048C07A8DF8FC
:1035A00010009D4A1268D1799B4A5268107804AB8A
:1035B0000122FDF7FDFF10B14FF0FF303BE7B9F1FD
:1035C000000F02D0C820FFF749F840208DF8100006
:1035D000914A12681179904A5268107804AB01221E
:1035E000FDF7E6FF10B14FF0FF3024E778208DF8AB
:1035F0001000894A12685179874A5268107804ABE2
:103600000122FDF7D5FF10B14FF0FF3013E78349DA
:103610008889FFF723F800208DF810007E4A126891
:1036200051797D4A5268107804AB0122FDF7C0FF42
:1036300010B14FF0FF30FEE6774A1268917A764A71
:103640005268107804AB0222FDF70CFF10B14FF066
:10365000FF30F0E69DF811009DF8101040EA012BB4
:103660000C209BFBF0F0C6B20020A86068602860C8
:10367000A06060602060824665E0674A1268D17A87
:10368000654A5268107804AB0C22FDF7EBFE10B1CE
:103690004FF0FF30CFE69DF811009DF8101040EA82
:1036A000012000B2ADF808009DF813009DF812103B
:1036B00040EA012000B2ADF80A009DF815009DF81F
:1036C000141040EA012000B2ADF80C00BDF908105A
:1036D000206808442060BDF90A10606808446060F2
:1036E000BDF90C10A0680844A0609DF817009DF873
:1036F000161040EA012000B2ADF800009DF8190054
:103700009DF8181040EA012000B2ADF802009DF8C3
:103710001B009DF81A1040EA012000B2ADF8040029
:10372000BDF90010286808442860BDF902106868D7
:1037300008446860BDF90410A8680844A8600AF14C
:10374000010000F0FF0AB24597DB3448D0F800C012
:103750002868C117090441EA1041070462460023A2
:103760003846FCF786FD32460023CDE90201FCF71E
:1037700080FD28602948D0F800C06868C117090496
:1037800041EA10410704624600233846FCF771FD08
:1037900032460023CDE90201FCF76BFD68601F484B
:1037A000D0F800C0A868C117090441EA1041070415
:1037B000624600233846FCF75CFD32460023CDE923
:1037C0000201FCF756FDA8601448D0F804C0206838
:1037D000C117090441EA1041070462460023384634
:1037E000FCF747FD32460023CDE90201FCF741FD1D
:1037F00020600A48D0F804C06068C117090441EA93
:1038000010410704624600233846FCF732FD324679
:103810000023CDE9020103E03C000020745C0008B5
:10382000FCF727FD60601148D0F804C0A068C117FC
:10383000090441EA10410704624600233846FCF7B8
:1038400018FD32460023CDE90201FCF712FDA0600D
:10385000A068002804DDA068A0F58030A06003E027
:10386000A06800F58030A0600020E4E5745C0008EA
:10387000F0B52DED048B81B006460F4600253E497C
:10388000496808786B4603220D21FDF7EBFD20B156
:10389000072001B0BDEC048BF0BD9DF8000000F0E6
:1038A0001F008DF800009DF8010000F01F008DF84A
:1038B00001009DF8020000F01F008DF802000024B6
:1038C00055E056F8241057F82420881A002801DB08
:1038D000014600E0414200EE101AB8EEC00ADFEDEA
:1038E000270A80EE208A1DF8040068B3244890ED72
:1038F000000AB8EE400ADFED230A80EE801AF0EEEF
:10390000418A05E09FED200A28EE800AF0EE408A09
:103910001DF80400401EC0B20DF804000028F1D1CB
:1039200088EE280AF7EE000A30EE609AB0EEC90A77
:103930001348D0ED060AB4EEE00AF1EE10FA15DDF8
:103940000120A040054311E00D4890ED040AB4EEBB
:10395000C80AF1EE10FA06DC90ED050AB4EEC80ACA
:10396000F1EE10FA02D20120A0400543641C032CA2
:10397000A7DB28468DE700003C00002000008047C0
:10398000745C000800B04C4554E3853F10B5044614
:10399000204600F00FF80346E01C00F00BF843EA65
:1039A000C00083B2A01D00F005F843EA801083B286
:1039B000184610BD014691F90020002A01DD0020C3
:1039C0001EE091F90020002A01DA042018E091F9A4
:1039D0000120002A01DD012012E091F90120002AD6
:1039E00001DA05200CE091F90220002A01DD022015
:1039F00006E091F90220002A01DA062000E0072003
:103A0000704700004FF4A060FDF742FEA820FEF7CB
:103A100007FE4FF4E13001F001FBFDF7A9FCFDF7D3
:103A2000C7FC00BF00F044FA0028FBD158A0FCF707
:103A300045FCABE0594A5A495A4800F02DF959481B
:103A400090ED000ABDEEC00A10EE100A40B25649D1
:103A50004870524890ED000ABDEEC00A10EE100A00
:103A600040B288704E4890ED000ABDEEC00A10EEDC
:103A7000100A40B2C870084690F9010000EE100A22
:103A8000B8EEC00A4748D0ED000A30EEC00ADFEDBC
:103A9000470A20EE200ABDEEC00A10EE100A40B21E
:103AA0000871084690F9020000EE100AB8EEC00A4C
:103AB0003C48D0ED000A30EEC00ADFED3C0A20EEB3
:103AC000200ABDEEC00A10EE100A40B24871084646
:103AD00090F9030000EE100AB8EEC00A3148D0EDAC
:103AE000000A30EEC00ADFED310A20EE200ABDEEFA
:103AF000C00A10EE100A40B28871002409E00120CB
:103B0000FEF7ACFD2848005781B22948FDF7F9FFC0
:103B1000641C082CF3DB27480088122812D12648A1
:103B2000006838B904212548FDF7A3FA012022498D
:103B300008600FE004212148FDF79DFA00201E498E
:103B4000086007E01B480088112803D104211B48A6
:103B5000FDF791FA17484088132803D0154840888C
:103B6000142810D113484088132806D100231A4680
:103B70001946184600F026F805E000231A461946B3
:103B8000184600F01FF86420FEF768FD52E70000B9
:103B9000776F726B696E670D0A0000000C000020E1
:103BA0001000002008000020000000200000C84293
:103BB000001001404407002014000020000C0240C7
:103BC00070470000F0B585B004460D4616461F4606
:103BD00008208DF80A0000208DF808008DF80900F3
:103BE0004FF400700090200A8DF80B00E1B28DF8C0
:103BF0000C10290A8DF80D10E9B28DF80E10310A5B
:103C00008DF80F10F1B28DF81010390A8DF81110DF
:103C1000F9B28DF8121069460248FDF72BF905B08C
:103C2000F0BD00000064004070B50446002624F09A
:103C30000104184890F8240008B1002070BD154810
:103C4000807A10B94FF0FF30F8E71248057C807A8F
:103C50002040104908740846007CA04202D04FF072
:103C6000FF3600E0002614B90A48007D18B1012093
:103C700001F054F902E0002001F050F93CB100F0ED
:103C8000ABFC20B1034805744FF0FF30D6E7304657
:103C9000D4E700003C00002070B52DED0C8B8EB0F9
:103CA00004460D461646B7EE000AF0EE409A9FED28
:103CB0007C0AB0EE408A9FED7A0AF0EE408A9FEDD2
:103CC000780AB0EE409A07A808A90DAB03AACDE97F
:103CD000001009A90BA8FEF7ABFE20B101200EB021
:103CE000BDEC0C8B70BDBDF8200000F48070002886
:103CF0007ED09DED030AB8EEC00ADFED6A0A80EEC1
:103D0000201AF0EE419A9DED040AB8EEC00ADFEDEC
:103D1000650A80EE201AB0EE418A9DED050AB8EEE4
:103D2000C00ADFED600A80EE201AF0EE418A9DEDB8
:103D3000060AB8EEC00ADFED5B0A80EE201AB0EE8C
:103D4000419AB8EE000A28EE000A20EE090AF0EEC9
:103D5000000A69EEA00A00EEA80A10EE101A084642
:103D600001F0F8FE41EC1C0BB0EE4C0AF0EE6C0AD0
:103D7000FDF7E6FEB0EE40BAF0EE60BA9FED4A0BFA
:103D800053EC102B51EC1B0B01F024FC41EC1A0BF3
:103D900001F0A6F92060B8EE000A28EE000A20EE35
:103DA000080AF0EE000A68EEA00A00EEE80AF7EE54
:103DB000000A30EE200A10EE101A084601F0CAFE82
:103DC00041EC1C0BB0EE000A28EE800A20EE090A36
:103DD000F0EE000A69EEA00A00EE880A10EE101A52
:103DE000084601F0B7FE41EC1D0BB0EE4C1A00E0A6
:103DF00052E0F0EE6C1AB0EE4D0AF0EE6D0AFEF7EE
:103E0000BBF9B0EE40BAF0EE60BA9FED270B53EC71
:103E1000102B51EC1B0B01F0DDFB41EC1A0B01F0F8
:103E20005FF9286029EEA90A08EE080A08EEE80AF8
:103E300009EE490A10EE101A084601F08BFE41EC1B
:103E40001C0B28EE280A09EE890AF0EE000A20EE83
:103E5000200A10EE101A084601F07CFE41EC1D0B02
:103E6000B0EE4C1AF0EE6C1AB0EE4D0AF0EE6D0AA0
:103E7000FEF782F9B0EE40BAF0EE60BA9FED0A0BA1
:103E800053EC102B51EC1B0B01F0A4FB41EC1A0B73
:103E900001F026F9306001E0022020E700201EE753
:103EA000000000000000804E6666666666A64C4014
:103EB00070B50024FDF70EF900F02AF9002840D172
:103EC000782000F035FFC4B20CB1012070BD78201D
:103ED000FFF7AAFEC4B20CB10220F7E7642000F09D
:103EE000D9FEC4B20CB10320F0E7FEF795FDC4B2D1
:103EF0000CB10420EAE71448FFF748FD0546FEF739
:103F0000E5FFC4B20CB10520E0E740F27310FEF704
:103F10002BFCC4B20CB10620D8E76420FEF706FFE4
:103F2000C4B20CB10720D1E700F0AAFF04460CB1DF
:103F30000820CBE7012000F0A9FDC4B20CB1092094
:103F4000C4E70020C2E700006800002001461148D5
:103F5000407A30B1012807D0022808D003280CD1BC
:103F600008E0022008700BE00420087008E0082038
:103F7000087005E01020087002E04FF0FF30704735
:103F800000BF0448C07C18B108784006000E0870D5
:103F90000020F4E73C00002001461348407A30B18D
:103FA000012808D002280AD0032810D10BE04FF4D2
:103FB000804008800EE041F69C7008800AE04FF4D3
:103FC0008050088006E04FF40060088002E04FF067
:103FD000FF30704700BF0448C07C10B10888401013
:103FE00008800020F5E700003C0000200146024860
:103FF000007C0870002070473C00002001460F48FC
:10400000007A30B1012807D0022809D003280FD147
:104010000AE0FA2008800EE04FF4FA7008800AE007
:104020004FF47A70088006E04FF4FA60088002E0EE
:104030000020088000BF00BF002070473C00002027
:1040400001461248007A30B1012809D002280CD06C
:10405000032814D10EE09FED0E0A81ED000A11E055
:104060009FED0C0A81ED000A0CE09FED0B0A81ED3B
:10407000000A07E09FED090A81ED000A02E04FF017
:10408000FF30704700BF0020FBE700003C0000202D
:104090000000034300008342333303423333834140
:1040A00001461248C07A082817D2DFE800F017044A
:1040B000070A0D101318BC20088013E06220088046
:1040C00010E02A2008800DE0142008800AE00A2071
:1040D000088007E00520088004E000BF00BF002042
:1040E000088000BF00BF0020704700003C00002097
:1040F0000146064890F8240010B14FF0FF30704799
:104100000248C08908800020F9E700003C00002038
:104110001CB580208DF80000654A1268917C644AC5
:10412000526810786B460122FDF742FA10B14FF049
:10413000FF301CBD6420FEF791FA00208DF80000CE
:104140005B4A1268917C5A4A526810786B46012289
:10415000FDF72EFA10B14FF0FF30EAE7544A12682B
:10416000917D534A526810786B460622FDF77AF922
:1041700010B14FF0FF30DCE79DF80500C007400F9D
:104180009DF8031001F0010140EA41009DF8011083
:1041900001F0010140EA010494B1012C03D1012195
:1041A0004348C17431E0022C03D100214048C1745E
:1041B0002BE021463FA0FCF781F84FF0FF30B8E735
:1041C0003B4A1268D1783A4A526810786B4601220D
:1041D000FDF748F910B14FF0FF30AAE79DF8000055
:1041E00000F00F042CB93D48FCF768F84FF0FF30A1
:1041F0009FE7042C06D13AA0FCF760F801212C4877
:10420000C17402E000212A48C174FF21284881724C
:10421000FF2027490872FF2125484172C1724FF6DD
:10422000FF71C181FF21017481740121017380F844
:104230002210002180F823104175017516300160AD
:1042400041608160163880F8241080F82510C18400
:104250004FF4FA6000F062FC10B14FF0FF3068E7F5
:10426000022000F02BFB10B14FF0FF3061E72A2055
:1042700000F0CEFC10B14FF0FF305AE7322000F0D2
:1042800009FD10B14FF0FF3053E70020FFF7CCFCE1
:1042900010B14FF0FF304CE7002000F051FB10B19F
:1042A0004FF0FF3045E7002000F042FD002040E7DE
:1042B0003C000020556E737570706F7274656420D9
:1042C000736F6674776172652070726F6475637462
:1042D000207265762025642E0A0000009869000887
:1042E00048616C662073656E736974697669747968
:1042F000207061727420666F756E642E0A00000073
:104300002DE9F04385B005460E469046994629486A
:1043100090F8250020B14FF0FF3005B0BDE8F083E4
:1043200016B94FF0FF30F8E7002423E0281B1028CF
:1043300001DD102000E0281B87B2321939462046E3
:1043400000F05EFD10B14FF0FF30E6E701AA3946FC
:10435000204600F001F910B14FF0FF30DDE73019D1
:104360003A4601A9FCF78EF810B16FF00100D4E7CE
:10437000E01984B2AC42D9DB4FEA28208DF8000066
:1043800008F0FF008DF801000A4A1268917E094A80
:10439000526810786B460222FDF70AF910B14FF00F
:1043A000FF30BAE70121034880F82510A0F82690D5
:1043B0000020B2E73C00002038B50446282C02DD7E
:1043C0004FF0FF3038BDDCB9002000F0EBFB0020DF
:1043D0008DF8000007208DF801002E4A1268917CAC
:1043E0002C4A526810786B460222FDF7E1F810B1B2
:1043F0004FF0FF30E6E70021264801750020E1E795
:10440000012000F0CFFB20208DF80000012C06D108
:1044100000208DF80100052000F0FAFB17E0052CC4
:1044200006DC01208DF80100052000F0F1FB0EE014
:10443000142C06DC02208DF801000A2000F0E8FBB5
:1044400005E003208DF80100142000F0E1FB9DF849
:104450000100072101EB8010C0B28DF801000D4A68
:104460001268917C0B4A526810786B460222FDF765
:104470009FF810B14FF0FF30A4E708210548817282
:1044800000210173012101750020FFF7CDFB002001
:1044900098E700003C000020F8B504460F46164699
:1044A0002C4890F8240010B94FF0FF30F8BD29488F
:1044B000807A10B94FF0FF30F8E7264A1268917AF7
:1044C000244A526810786B460222FCF7CBFF10B1E9
:1044D0004FF0FF30EAE79DF801009DF8001040EA38
:1044E0000125A54203DA00203070401EDEE719489E
:1044F00040684088B5EB600F17DD164A1268517CA2
:10450000144A526810786B460122FCF7ABFF10B1D9
:104510004FF0FF30CAE79DF8000000F0100020B116
:1045200000F05AF86FF00100C0E7E2B2094B1B68D7
:10453000D97A084B5B6818783B46FCF793FF10B1BB
:104540004FF0FF30B2E795FBF4F0401E30700020D2
:10455000ACE700003C000020F8B504460D461646C6
:1045600016B94FF0FF30F8BD1A48807A10B94FF0F5
:10457000FF30F8E720128DF80000E0B28DF801005E
:104580009DF801002844134949684989884202DDA1
:104590004FF0FF30E7E70F4A1268117E0D4A52686C
:1045A00010786B460222FDF703F810B14FF0FF3090
:1045B000D9E7EAB2074B1B68597D064B5B68187850
:1045C0003346FCF74FFF10B14FF0FF30CBE7002030
:1045D000C9E700003C00002008B57048807A10B997
:1045E0004FF0FF3008BD002000906C4A1268D17B6C
:1045F0006A4A526810786B460122FCF7D9FF10B165
:104600004FF0FF30EEE7654A12685179634A52680D
:1046100010786B460122FCF7CBFF10B14FF0FF3052
:10462000E0E75E4A126811795C4A526810786B467E
:104630000122FCF7BDFF10B14FF0FF30D2E7574821
:1046400090F82400002853D00C200090534A1268A0
:104650001179524A526810786B460122FCF7A8FF84
:1046600010B14FF0FF30BDE73220FDF7F7FFC0205B
:1046700000904A48807A00F0010020B19DF80000C7
:1046800040F020000090454A12681179434A526870
:1046900010786B460122FCF78BFF10B14FF0FF3012
:1046A000A0E73E48407C10B10220009001E00020CD
:1046B00000903A4A1268D17B384A526810786B46AB
:1046C0000122FCF775FF10B14FF0FF308AE70020A0
:1046D0000090324A12685179304A526810786B461D
:1046E0000122FCF765FF002855D04FF0FF3079E735
:1046F00004200090294A12681179284A52681078DB
:104700006B460122FCF754FF10B14FF0FF3069E710
:104710002248807C20B92148807A00F0010010B93D
:104720004020009001E0602000901C4A126811793E
:104730001A4A526810786B460122FCF739FF10B113
:104740004FF0FF304EE73220FDF788FF1348407CE2
:1047500010B10120009001E0002000900F4A126883
:10476000D17B0E4A526810786B460122FCF720FF7D
:1047700010B14FF0FF3035E7084A12685179074A07
:1047800052681078054B10330122FCF711FF10B16D
:104790004FF0FF3026E7002024E700003C00002017
:1047A0002DE9F04F8DB083460F4602200C90424811
:1047B00090F8240020B1002000F068F9012600E004
:1047C000002603A8FFF71AFC05A8FFF7BFFB01A806
:1047D000FFF766FC02A8FFF78BFC374890F80AA0A9
:1047E00004A8FFF703FC002407E0002239465846DE
:1047F000FEF708FE00B902E0641C022CF5DB00BFE6
:10480000022C01D1002528E0002407E0012206A99E
:1048100009A8FEF7F7FD00B902E0641C022CF5DBE5
:1048200000BF022C01D1002517E006A93846FDF78C
:104830005DFE00F0FF0809A95846FFF719F800F0DF
:10484000FF090025B9F1000F01D145F00105B8F1CC
:10485000000F01D145F0020500BFFF201649087284
:10486000FF2115484172C1724FF6FF71C181FF21CE
:104870008172017401210173BDF80C0000F04EF942
:104880009DF8140000F01AF8BDF8040000F0C0F91B
:10489000BDF8080000F0FEF9504600F049FA9DF816
:1048A0001000FFF7C1F916B1012000F0EFF828461B
:1048B0000DB0BDE8F08F00003C00002038B5044684
:1048C0001E48807A10B94FF0FF3038BD022C06D058
:1048D000042C07D0082C08D0102C0CD108E00020A4
:1048E00000900BE00820009008E01020009005E008
:1048F0001820009002E04FF0FF30E6E700BF0F48BD
:10490000407A9DF80010B0EBE10F01D10020DCE708
:104910000A4A1268D179094A526810786B46012216
:10492000FCF746FE10B14FF0FF30CEE79DF80000D7
:10493000C110024841720020C7E700003C0000207F
:1049400038B504465048807CA04201D1002038BDD3
:10495000002C46D04C4A126811794B4A52681078A4
:104960006B460122FCF77EFD10B14FF0FF30EEE701
:104970009DF8000020F020000090434A1268117951
:10498000414A526810786B460122FCF711FE10B1C3
:104990004FF0FF30DBE70320FDF760FE02200090C0
:1049A000394890F8220020B19DF8000040F08000C6
:1049B0000090354890F8230020B19DF8000040F0A9
:1049C00030000090304A1268117D2F4A52681078EA
:1049D0006B460122FCF7ECFD002851D04FF0FF3070
:1049E000B5E7294A12681179274A526810786B4650
:1049F0000122FCF737FD10B14FF0FF30A7E7224846
:104A0000807A00F0010028B19DF8000040F02000FD
:104A1000009004E09DF8000020F0200000901A4A69
:104A200012681179184A526810786B460122FCF717
:104A3000BFFD10B14FF0FF3089E70320FDF70EFEF8
:104A4000114890F8220010B18020009001E0002071
:104A500000900D4890F8230020B19DF8000040F030
:104A600030000090084A1268117D074A5268107899
:104A70006B460122FCF79CFD10B14FF0FF3066E75A
:104A800001488474002062E73C00002038B50446E9
:104A9000214890F82400A04201D1002038BD24B361
:104AA0001D4890F8250010B94FF0FF30F6E70020C0
:104AB00000F034FA0020FFF743FF1749C88C00F0DC
:104AC000E9F8002000901449496808786B460122F3
:104AD0002321FCF76DFD01210F4880F824100120EF
:104AE00000F01CFAFFF778FD13E0002000F016FA42
:104AF0000948007C00900849496808786B46012203
:104B00002321FCF755FD0021034880F82410FFF70E
:104B100063FD0020C2E700003C00002038B50446D9
:104B20001F48807A10B94FF0FF3038BDFA2C09D0F9
:104B3000B4F5FA7F09D0B4F57A7F09D0B4F5FA6FED
:104B40000CD108E0002000900BE00820009008E065
:104B50001020009005E01820009002E04FF0FF3098
:104B6000E3E700BF0E48007A9DF80010B0EBE10FBC
:104B700001D10020D9E70A4A12689179084A52689F
:104B800010786B460122FCF713FD10B14FF0FF3097
:104B9000CBE79DF80000C010014908720020C4E76F
:104BA0003C00002038B50446184890F82300A04285
:104BB00001D1002038BD14B13020009001E0002068
:104BC00000901248807C20B19DF8000040F0020067
:104BD00000900E4890F8220020B19DF8000040F0AF
:104BE00080000090094A1268117D084A52681078C6
:104BF0006B460122FCF7DCFC10B14FF0FF30D9E727
:104C0000024880F823400020D4E700003C00002048
:104C100038B504461E48807A10B94FF0FF3038BDD1
:104C2000BC2C02DB0120009015E0622C02DB02208C
:104C3000009010E02A2C02DB032000900BE0142CE3
:104C400002DB0420009006E00A2C02DB0520009025
:104C500001E0062000900E48C07A9DF800108842BE
:104C600001D10020DBE70A4A12689178084A5268AD
:104C700010786B460122FCF79BFC10B14FF0FF301F
:104C8000CDE79DF800100248C1720020C7E7000080
:104C90003C00002038B504462448807A10B94FF013
:104CA000FF3038BD214890F8240010B14FF0FF309C
:104CB000F7E71E48007D50B134B1282C04DCE0B287
:104CC000FFF77AFB0020ECE70020FFF775FB042CD0
:104CD00001DA042404E0B4F57A7F01DD4FF47A743C
:104CE0004FF47A7090FBF4F0401EC0B200900F4A6F
:104CF000126851780D4A526810786B460122FCF711
:104D000057FC10B14FF0FF30CBE79DF80000401C7E
:104D10004FF47A7191FBF0F081B20448C1810146F1
:104D2000C9894810FFF774FF0020BAE73C00002053
:104D300038B5044604F0700010B10120009005E081
:104D400014B10020009001E0402000902B4A12682E
:104D5000917C2A4A526810786B460122FCF728FCA5
:104D600020B1002125488172481E38BD9DF8000001
:104D700020F04001214801730020009004F0400021
:104D800020B99DF8000040F00400009004F02000DD
:104D900020B99DF8000040F00200009004F01000DF
:104DA00020B99DF8000040F00100009004F00800D8
:104DB00020B99DF8000040F0380000900F4A1268BA
:104DC000D17C0E4A526810786B460122FCF7F0FB4A
:104DD00020B1002109488172481EC6E724B1082C81
:104DE00002D00020FFF7DEFE044884720021017526
:104DF0003220FDF733FC0020B7E700003C00002024
:104E0000F8B504460D46164616B94FF0FF30F8BD0A
:104E10001A48807A10B94FF0FF30F8E720128DF869
:104E20000000E0B28DF801009DF80100284413490C
:104E300049684989884202DD4FF0FF30E7E70F4AB1
:104E40001268117E0D4A526810786B460222FCF7F8
:104E5000AFFB10B14FF0FF30D9E7EAB2074B1B6848
:104E6000597D064B5B6818783346FCF7A1FB10B1FF
:104E70004FF0FF30CBE70020C9E700003C000020E6
:104E800010B588B002A905A8FFF78AFC0446032CD8
:104E900041D101A8FFF7D4F89DED050AB8EEC00A8C
:104EA000DDED010A20EE200ABDEEC00A8DED050AF7
:104EB0009DED060AB8EEC00ADDED010A20EE200ADB
:104EC000BDEEC00A8DED060A9DED070AB8EEC00AD8
:104ED000DDED010A20EE200ABDEEC00A8DED070AC5
:104EE00005A8FDF75BFF6846FFF756F8BDF8001010
:104EF000029848430290BDF800100398484303907D
:104F0000BDF8001004984843049002A8FDF776FE0F
:104F1000002008B010BD0120FBE7000038B50446B2
:104F2000214890F82400C0B114B10220009001E0A3
:104F3000002000901C4A1268D17B1B4A52681078EE
:104F40006B460122FCF734FB10B14FF0FF3038BD47
:104F50009DF800101448417423E01348807A10B97A
:104F60004FF0FF30F3E724B10F48407C08B1002038
:104F7000EDE714B10120009001E0002000900A4A02
:104F80001268D17B084A526810786B460122FCF700
:104F90000FFB10B14FF0FF30D9E79DF80010024829
:104FA00041740020D3E700003C00002000B52DED47
:104FB000048B83B041EC190B00F016FC41EC180B8C
:104FC00018EE100A18EE901A8DED008B002818BF0D
:104FD0000120084320F00040C0F17F6000F1E04074
:104FE000C00F14D019EE101A19EE900A8DED009B27
:104FF000002918BF0121084320F00040C0F17F6064
:1050000000F1E040C00F04BF0120FBF7EFFA51ECC4
:10501000180B03B0BDEC048B00BD000010B588B0C8
:10502000044601210846FCF73FFB01211020FCF754
:105030004BFB072209212248FBF7F8FF07220A2130
:105040001F48FBF7F3FF4FF4C060069002208DF875
:105050001C008DF81D0000208DF81E0001208DF829
:105060001F0006A91648FBF799FF02940020ADF82F
:105070000C00ADF80E00ADF81000ADF814000C20D7
:10508000ADF8120002A90F48FCF7CCFC01210D4835
:10509000FCF797FC012240F225510A48FCF79DFCE1
:1050A00025208DF8040003208DF805008DF80600FA
:1050B00001208DF8070001A8FCF7AEFA08B010BD7A
:1050C000000002400010014081F00041704780F074
:1050D0000040704721F00041704720F000407047C9
:1050E00021F00042A2F16052B2F5801F01F00043AE
:1050F00028BFD2F17F6C0BD95FEA001C43EAC202E1
:1051000042EB507018BF704728BF20F00100704775
:10511000B2F5801FBCBF184670474FEA410C1CF522
:10512000001F02D2084600F08BBD70B500F0FCFAFB
:1051300000000089FFF7F6BF4FF00040A0F58000A7
:105140007047000010B591EA030F48BF83F0004399
:1051500000F11E84841A71EB030C05D2121943EB83
:105160000C03001B61EB0C01DFF824E14FEA115442
:10517000A4EB135C1EEA430F18BF9EEA445F73D092
:1051800023EA0E03DCF1200E21EA045143F48013DC
:1051900032D322FA0CFE10EB0E0023FA0CFE41EB88
:1051A0000E01CCF1200E03FA0EFE10EB0E0051F1B1
:1051B0000001B1F5801FCCF1200E32D201EB045179
:1051C00012FA0EF2BDE8104058BF7047401C38BFBD
:1051D0005FEA420218BF7047002814BF20F00100A8
:1051E00041F100014FEA410313F5001F38BF70473A
:1051F000A1F1C04100F0E6BA012A43EB0302ACF191
:10520000200CDCF11F0E32BF4FF0000E23FA0CF31E
:1052100010EB030041EB0451B4EB115FD0D0A1EBD4
:10522000045101F5801149085FEA300001EB045197
:105230000ED350F1000038BF12FA0EFE08D1BDE8BF
:105240001040C9E7401C38BF5FEA4202CAD1C3E739
:10525000BDE810404FEA410313F5001F38BF704707
:10526000A1F1C04100F0AEBA9EEA445F08D011EA55
:105270005E0FBDE8104004BF01F000410020704700
:10528000BDE8104070B500F04FFA00BF64FBBE3EB1
:105290000000E0FF491058BFC1F140415B1058BF0A
:1052A000C3F140438B42EFF3008070472DE9C041CA
:1052B00030B4DFF8A0C23CEA111418BF3CEA131462
:1052C00000F0EC8081EA03051CEA111444EAD5746D
:1052D00018BF1CEA131500F0C780A4EB05044FF0BB
:1052E000004545EAC12145EAC32341EA505143EA5A
:1052F000525304F17F74994204F500344FEAC02000
:105300004FEAC22208BF904200F09C804FEA13652A
:105310000FF24016765D4FEA134506FB05F7C7F11D
:10532000807706FB07F74FEAD737A7FB036876427B
:10533000C8F58038A7FB06CE38BFA8F1010807FBE7
:1053400008E64FF0000EA6FB028CE6FB03CEDCF174
:10535000000CCEF1004E38BFAEF1010EA6FB0C588A
:105360004FF000074FF00005E6FB0E87A1FB08C6D3
:10537000A0FB07CE16EB0E0645F10005E1FB076525
:1053800015F1E04E7EBFA4F580345FEA46066D411C
:1053900016F1800745F100054FEA17274FEA066628
:1053A00047EA0567A6F1DE46B6F1805F4FEA1525AC
:1053B0001FD9384624F0010C05EBC471BCF1FE6F17
:1053C00001EB0C1102D8F0BCBDE8008124425CBFA7
:1053D00001F5801E9EEAC47F02D4F0BCBDE80081C6
:1053E000244238D4F0BCA1F1C041BDE8004100F036
:1053F000E9B94FEAD22242EA43524FEAD323A7FB4C
:1054000002864FEAD02040EA415007FB03661EEABD
:105410000E0F4FEAD12105FB026658BFA6EB0056DE
:10542000B6EB00564FEA520E4EEAC37E18EB0E0E54
:1054300056EB530EBDD518EB02085E417F1C55F1AB
:105440000005B6E74FF480154FF000074FF0000657
:105450004FF00008ADE7F0BC4FF0000001F1C04193
:1054600001F00041BDE8008111EA0C1F0CEA1315A0
:1054700000D00CE013EA0C1F00F025804FF0000074
:10548000F0BC81EA030101F00041BDE80081F0BCFD
:10549000BDE8004181EA030100F094B9F0BCBDE829
:1054A000004170B500F040F9097EFC3E00F007B8FD
:1054B00081EA03014FF0000001F00041704781EAEA
:1054C000030100F07FB9F0BCBDE800414FF00000DF
:1054D00021497047FFFDFBF9F7F5F4F2F0EEEDEB33
:1054E000E9E8E6E4E3E1E0DEDDDBDAD8D7D5D4D3E2
:1054F000D1D0CFCDCCCBCAC8C7C6C5C4C2C1C0BF2E
:10550000BEBDBCBBBAB9B8B7B6B5B4B3B2B1B0AF33
:10551000AEADACABAAA9A8A8A7A6A5A4A3A3A2A117
:10552000A09F9F9E9D9C9C9B9A99999897979695D2
:1055300095949393929191908F8F8E8E8D8C8C8B6E
:105540008B8A8989888887878685858484838382F6
:10555000828181800000FF070000F87F51EA030C80
:1055600017D41CF5801F58BFBCF5801F00F10680C2
:10557000994218BF704708BF9042704707D711F58E
:10558000801F58BF13F5801F19D499427047894274
:1055900070471CF5801F08D5BCF5801FF7D58B42DE
:1055A00018BF704708BF824270474FF4001C1CEBC5
:1055B000410F38BF1CEB430F01D28B42704770B5CF
:1055C00000F0B2F8922449004FF000514FF08053A0
:1055D000FFF760BEDFF848C170B51CEA111E1EBFA0
:1055E0001CEA13159EEA0C0F95EA0C0F00F06F8071
:1055F00081EA030423EA4C134EEAD47E21EA4C11DB
:1056000041F4801143F48013AE44A1FB024CA0FB93
:105610000365AEF17F7E361955EB0C05A1FB034CFB
:105620004CF10003A0FB021C16EB0C06654153F184
:105630000003094218BF46F0010613F4007F0BD1A6
:105640004FEA03314FEA0530340341EA155140EA8D
:1056500016506FF003020AE04FEAC3214FEAC5205B
:10566000F40241EA555140EA56506FF0020202EB53
:105670002E4201EB025585EACE710AD05FEA440C56
:1056800018BF24F0004450F1000041F1000120EA6D
:10569000D47040F2FE7C624500D270BDA84214BFB7
:1056A0004FF080444FF04044002E08BF0024BEF16C
:1056B000806FA8BFA1F1C041BDE8704080F2828038
:1056C0004FF0000001F1C04101F0004170479EEA37
:1056D0000C0F0CEA131518BF95EA0C0F06D04FF00B
:1056E000000081EA030E0EF0004170BD00F01CF8CE
:1056F0008900013E00F007B800F009B84FEA430CFA
:105700005FEA5C5C08D081EA030100F05BB84FEA15
:10571000410C5FEA5C5CF6D14FF000000149704734
:105720000000FF070000F87F0EF1020E2EF0030EBE
:105730005EF8046B364205D4012A43EB030515F5E8
:10574000001F12D8012841EB010C1CF5001F0CD8DA
:105750000ED14FEAD17C15F5001F0CEB4C0C0CF16F
:10576000020C08BF4CEBD37C04E04FF0080C01E0C6
:105770004FEAD37C0CEB4C0526FA05F606F007063B
:10578000B6F1040C06D20EEB860CBDE870404CF06E
:10579000010C6047DFE80CF0090B02024FF00041FA
:1057A0004FF00000A1F5002170BD194610460128F8
:1057B00051EB010418BFD4F5001484BF002001F0A0
:1057C000004170BD0808A0F500114FEA3101704793
:1057D00091EA030F10B581F000413FF5BBAC83F0B7
:1057E000004300F0D5B800002DE9F04101F5801C20
:1057F000BCF5001FC0F2A9804FEA115C21EA0C51F0
:105800000CF1FD0C41F480115FEA5C0C0CF5C07CDE
:1058100001D34000494130A4890241EA90518702F6
:105820008E0E0A0CA45D04FB04F602FB06F6C6F11C
:105830004046A4FB0662F60D46EA422606FB06F445
:10584000A4FB01235242C3F1404338BF5B1EA6FBB9
:1058500002420024E6FB0324D20B42EA4446A6FBA4
:105860000623A1FB02E2A3FB07E4E3FB61426442DF
:10587000C2F1404E38BFAEF1010EA6FB04234FF03B
:105880000002E6FB0E32A2FB03463400E2FB626438
:10589000A1FB06E6A4FB07E8E4FB61687642C8F1D9
:1058A000405838BFA8F10108A2FB06E4A3FB08E5B5
:1058B000E2FB6854A1FB05E6A7FB04E8E1FB648674
:1058C00018F1200556F10006A809A8F11B08B10936
:1058D00008F03F08B8F10A0F40EA86601CD901EBD6
:1058E0000C51BDE8F08100BFFCF5EEE8E2DDD8D355
:1058F000CFCBC7C3C0BDB9B6B4B1AEACA9A7A5A341
:10590000A19F9D9B9A9896959392908F8D8C8B8951
:105910008887868584838281A0FB006800FB01F272
:1059200008EB4208B8EB872807D5341858EB010478
:10593000D5D5401C51F10001D1E7341A78EB0104B0
:10594000CDD4401E71F10001C9E75FEA4C0C5FEA5B
:105950009C5C0DD105D34FF0000001F00041BDE883
:10596000F081BDE8F04170B5FFF7DEFE6DDBFFBEF4
:10597000BDE8F0414FF00000004970470000F87F9B
:1059800010B591EA030F48BF83F000433FF5E2AB47
:10599000841A71EB030C07D212198CF0004C43EB04
:1059A0000C03001B61EB0C01DFF8A4E14FEA11547A
:1059B000A4EB135C1EEA430F18BF9EEA445F00F09D
:1059C000B08023EA6E03524221EA0451C3EB6E0316
:1059D00038BF5B1EDCF1200E25D322FA0CFE10EB43
:1059E0000E0043FA0CFE41EB0E01CCF1200E03FA3F
:1059F0000EFE10EB0E0051F10001CCF1200E29D467
:105A000012FA0EF201EB0451BDE8104058BF704786
:105A1000401C1CBFB2F1004F704700280CBF491C4E
:105A200020F00100704712EB020E43EB030218BF97
:105A30004FF0010E4EEA4202ACF1200CDCF11E0EDA
:105A400054D943FA0CFE10EB0E0051F1FF31CCF1AA
:105A50001E0ED5D50EF1010E12FA0EFE404141EB9D
:105A6000010101EB445C5FEA5C5C10D910EBDE7075
:105A700001EB045138BFBEF1004FBDE8104018BF24
:105A8000704700280CBF491C20F00100704730D23D
:105A90004FEAD42C11F5001124F400641BD0B1FAA4
:105AA00081F20B3AA41AA41ED2F12003914030FADD
:105AB00003F31943904001EBCC71002C01EB04512E
:105AC000BDE81040A8BF704701F1C0414FF0000091
:105AD00001F000417047B0FA80F310FA03F100D1F1
