:020000040800F2
:1000000018610020890200080D240008EB1B00087D
:100010000924000879150008AD340008000000002C
:10002000000000000000000000000000F1010008D6
:10003000B91A00080000000035020008152E00085B
:10004000A3020008A3020008A3020008A3020008FC
:10005000A3020008A3020008A3020008A3020008EC
:10006000A3020008A3020008A3020008A3020008DC
:10007000A3020008A3020008A3020008A3020008CC
:10008000A3020008A3020008A3020008A3020008BC
:1000900095310008A3020008A3020008A30200088B
:1000A000A3020008A3020008A3020008A30200089C
:1000B000A3020008A3020008A3020008A30200088C
:1000C000A3020008A3020008A3020008A30200087C
:1000D000A3020008852E0008A3020008A30200085E
:1000E000A3020008A3020008A3020008A30200085C
:1000F000A3020008A3020008A3020008A30200084C
:10010000A3020008A3020008A3020008A30200083B
:10011000A3020008A3020008A3020008A30200082B
:10012000A3020008A3020008A3020008A30200081B
:1001300000F002F800F04DF80AA090E8000C8244AC
:100140008344AAF10107DA4501D100F042F8AFF289
:10015000090EBAE80F0013F0010F18BFFB1A43F0A5
:1001600001031847A87E0000C87E0000103A24BF93
:1001700078C878C1FAD8520724BF30C830C144BF0C
:1001800004680C607047000000230024002500264E
:10019000103A28BF78C1FBD8520728BF30C148BFEA
:1001A0000B607047662906F0B482642900F0F8807D
:1001B000732900F01584002070471FB500F07AFC09
:1001C00004000020002105F0E9FFE0601FBD10B52C
:1001D00010BD00F09BFD1146FFF7EFFF03F0FEF9A5
:1001E00000F0B9FD03B4FFF7F2FF03BC03F074F9AC
:1001F000224B19680868B0E8F00F80F30988BFF354
:100200006F8F4FF0000080F311884EF00D0E704795
:100210000000000006480068006880F3088862B6A5
:1002200061B6BFF34F8FBFF36F8F00DF00BF00BF1A
:1002300008ED00E0EFF30980BFF36F8F0F4B1A68F2
:1002400020E9F00F106008B54FF0500080F31188DE
:10025000BFF34F8FBFF36F8F05F0DAF84FF0000058
:1002600080F31188BDE8084019680868B0E8F00F0D
:1002700080F30988BFF36F8F704700BF68000020CC
:10028000EFF30580704700000948804709480047A0
:10029000FEE7FEE7FEE7FEE7FEE7FEE7FEE7FEE736
:1002A000FEE7FEE704480549054A064B7047000093
:1002B000252E000831010008185B0020186100207D
:1002C000185D0020185D0020704700000FB404493D
:1002D00010B503AA029800F087FB10BC5DF814FB70
:1002E000440000202DE9F0410E4604460020206223
:1002F0002046E168884730B3252805D0D4E901219C
:100300009047206A401CF2E7E168204600278847B2
:10031000050018D0A5F14100192802D820354FF466
:1003200000673246294620462760FFF73BFF40B171
:10033000012804D0F61D26F007060836D8E7361D3A
:10034000D6E72846DAE7206ABDE8F08170B50C46AA
:100350000546012A05D02878800600D5EA690023E1
:1003600002E0012305E05B1C934202D2E05C00281E
:10037000F9D1A869E618C01AA861286A1844286249
:100380002846AFF3008004E0D5E9012114F8010B01
:100390009047B442F8D32846AFF3008070BD000008
:1003A0002DE9F0410646002410687529314616A54E
:1003B00010D0AFF30080002802DA404213A507E016
:1003C00031688A0701D512A502E0490704D511A5B5
:1003D000012401E0AFF3008000210A2206F1240786
:1003E00009E0B0FBF2FCB0FBF2F302FB1C00303082
:1003F00078541846491C0028F3D123462A46304633
:10040000BDE8F04100F059B8000000002D000000E8
:100410002B00000020000000032A40F2308010F082
:10042000030C00F0158011F8013BBCF1020F62448F
:1004300098BF11F801CB00F8013B38BF11F8013B20
:10044000A2F1040298BF00F801CB38BF00F8013BCD
:1004500011F0030300F0DA82083AC0F0088051F886
:10046000043B083A51F804CBA0E80810F5E7121D48
:100470005CBF51F8043B40F8043BAFF30080D20767
:1004800024BF11F8013B11F801CB48BF11F8012B33
:1004900024BF00F8013B00F801CB48BF00F8012B56
:1004A000704702F0FF0343EA032242EA024200F0EF
:1004B000E1BA70477047704770472DE9F0470D4625
:1004C00099469246044600F124080168880604D53E
:1004D000E06921F01001216000E00120A84201DD67
:1004E000471B00E00027A1697A1902EB0900081AEE
:1004F000A0612078C00602D42046AFF30080002619
:1005000008E0D4E901211AF806009047206A401C4F
:10051000761C20624E45F4DB2078C0060AD52046C2
:10052000AFF3008006E0D4E9012130209047206A33
:10053000401C2062381EA7F10107F4DC07E0D4E973
:10054000012118F805009047206A401C2062281EEF
:10055000A5F10105F3DC2046AFF30080207800060A
:1005600002D50220BDE8F0870120FBE770472DE9A6
:10057000FF4F0C461E464FF0FF378BB0D2E900010B
:10058000DDF860800A908A46C1F30A5505B93D46F8
:10059000002108464FF00000BAF1000F00F44000BF
:1005A00005DA00EB80004FF4400101EA50004FEA09
:1005B0009059B9F1010F00DDB9460A9850EA4A0096
:1005C0000ED044F61050A5F2FF3545432F14B8F174
:1005D000000F1ED07542291E1EDDC9F100021CE06D
:1005E000B8F1010F4FF0000001D0302103E0F243D9
:1005F00005E02154401CB042FBDB304600220021C4
:1006000021540B99C1F80880C1E900200FB0BDE862
:10061000F08FBD1B6D1CDEE74A4600DA694206A872
:1006200000F0D2FA06AB93E8070003AB83E80700BB
:1006300050460A9900F0D8FB8DE80700A0F500505D
:100640001F3800900398002D0ADD42F21F014A4630
:100650000844002303A90390684600F041FE09E026
:10066000A0F500504A461F38002303A903906846AE
:1006700000F04BFE8DE807000004000C03D04FF0A3
:10068000FF30410800E01046B8F1000F03D000220F
:10069000009215461EE0751E05D400F00FFA3032A8
:1006A00062556D1EF9D5B3460122084302D00022DF
:1006B0007F1C04E02078302801D100227F1E002A10
:1006C000099784D01DE0112D07DA00F0F7F93032D8
:1006D00062556D1C50EA0102F5D1084302D0009822
:1006E000C8B10EE00021681E05E0235C625C635423
:1006F0002254401E491C8142F7DBAB46A81B401E1A
:100700000990002004F80B000B98099AC0F80880A3
:10071000C0E9002B7AE711264FF0000857E72DE9D2
:10072000F04F88460446D21D22F0070191B0D1E96E
:100730000001CDE90A0102F0BBFE02460B98C00F92
:1007400001D02D2007E02068810701D52B2002E091
:10075000202101EAC000032A099001D0072A05DB05
:1007600003464146204600F0EFF90BE12078800671
:1007700001D5E06900E00620B8F1650F814606D09A
:10078000B8F1660F18D0B8F1670F70D131E00020D2
:10079000B9F1110F009001DB112301E009F1010310
:1007A0000AAA01A90CA8FFF7E2FEDDE90C700026F9
:1007B00009F10105834647E001204B4600904FF0C8
:1007C00000470AAA01A90CA8FFF7D1FEDDE90DB088
:1007D0000C995D46002610B909F101000D18B9EB1E
:1007E000050003D4C0F1FF3609F10105A5EB0900AE
:1007F0002BE0B9F1010F01DA4FF001090020B9F146
:10080000110F0090484601DD112300E003460AAABB
:1008100001A90CA8FFF7ABFEDDE90C704D460026E0
:100820008346207800070AD4AB4500DA5D4601A86C
:10083000012D04DD411911F8011C302907D04F4565
:1008400002DA17F1040F04DA012082460FE06D1E70
:10085000EEE7002F02DCED1B3E4403E0781CA842CB
:1008600000DD7D1CB81B00F1010A4FF00047207825
:10087000000703D4AA4501DB4FF0FF3A0021B7F18E
:10088000004F0DF143088DF8431024D002202B2394
:10089000002F01DA7F422D230A21021EA0F1010060
:1008A00000DC5FB197FBF1FC97FBF1F201FB1C7CD4
:1008B00017460CF1300C08F801CDEEE7A8F1010065
:1008C00003702188090501D5452100E06521A0F1CB
:1008D000010800F8011C09980FA9A1EB0807FF1DEA
:1008E00000B10120411901EBEA70A1693844081AEE
:1008F000401EA0612078C00602D42046AFF30080DD
:10090000099828B1D4E901219047206A401C20624F
:100910002078C00622D52046AFF300801EE0002ECE
:1009200004DBB34502DD01A8805D00E03020D4E99E
:1009300001219047206A401C2062761CAAF1010028
:100940005FEA000A0AD100F0B5F8C0680168405CAF
:10095000D4E901219047206A401C2062281EA5F19D
:100960000105DCDC07E0D4E9012118F8010B904710
:10097000206A401C2062381EA7F10107F3DC2046E4
:10098000AFF30080032011B041E6000001694A1C6A
:1009900002610878704700B58FB0CDE901310021C0
:1009A000059105497944CDE9031011466846FFF7E2
:1009B00099FC0FB000BD0000E5FFFFFF10B54369D3
:1009C00013B1AFF3008001E0FFF7C0FC012010BDC0
:1009D000127800F124010A7000224A700122EDE72A
:1009E00011684FF0FF32E9E7074B70B50D467B44C5
:1009F000FFF7D1FF0446284600F058F910B14FF038
:100A0000FF3070BD204670BDCF2B000010B5203ADE
:100A1000C0F00B80B1E81850203AA0E81850B1E8B7
:100A20001850A0E81850BFF4F5AF5FEA027C24BF6D
:100A3000B1E81850A0E8185044BF18C918C0BDE864
:100A400010405FEA827C24BF51F8043B40F8043B2D
:100A500008BF7047D20728BF31F8023B48BF11F8E2
:100A6000012B28BF20F8023B48BF00F8012B70473C
:100A70004FF000020429C0F0128010F0030C00F0C7
:100A80001B81CCF1040CBCF1020F18BF00F8012B44
:100A9000A8BF20F8022BA1EB0C0100F00DB95FEA12
:100AA000C17C24BF00F8012B00F8012B48BF00F8DF
:100AB000012B704700487047D85A002030B5B0F17C
:100AC0000A024FEA900E71F100034EEA817EB0EB0C
:100AD0000E0061EB91014FEA101E4EEA017E10EB11
:100AE0000E0041EB11114FEA102E4EEA016E10EB91
:100AF0000E0041EB11214FEA104E4EEA014E10EB71
:100B00000E0041EB1141401841F100014FEAD000C5
:100B100040EA41704FEAD10110EB80054FEA8104B1
:100B200044EA907444EB01046D1944EB0404521B35
:100B3000A3414FF0000348BF0A3200D530BD401C2E
:100B400041F1000130BD00002DE9F0411F4604468F
:100B500003260168072A01F4006004DB08B116A52A
:100B600005E016A503E008B115A500E015A521F0E4
:100B700010002060A069C01EA0610FB1401EA061DE
:100B80002046AFF300804FB1D4E9012138469047A9
:100B9000206A401C2062C01C206206E0206AFAE73E
:100BA000D4E9012115F8010B9047761EF8D22046B2
:100BB000AFF30080BDE8F0814E414E006E616E00E3
:100BC000494E4600696E66002DE9F047814616469B
:100BD0008AB0354878440DC88DE80D003248784415
:100BE000801C03AC0DC884E80D0041F69B3008441E
:100BF000372190FBF1F290FBF1F5A5F1800501FBA7
:100C000012041B3C02D56442012000E00020DFF802
:100C100098A080460027FA44AAF1BE0A0EE0E00739
:100C20000AD03246684607EB470101230AEB8101EF
:100C300000F06BFB8DE8070064107F1C002CEED1E8
:100C4000194F7F44AE3F19E0E80715D007EB0410B9
:100C50000DF1180A90E80E008AE80E00C068F04214
:100C600001D1981908903246012306A903A800F083
:100C70004CFB03AB83E807006D10641C002DE3D12F
:100C80004FF0010332466946B8F1000F03A802D0C5
:100C900000F026FB01E000F038FBC9E90001C9F8CB
:100CA00008200AB0BDE8F0871C740000007B00F04B
:100CB000800070474FF0000200B5134694469646F8
:100CC000203922BFA0E80C50A0E80C50B1F120015F
:100CD000BFF4F7AF090728BFA0E80C5048BF0CC00D
:100CE0005DF804EB890028BF40F8042B08BF70476B
:100CF00048BF20F8022B11F0804F18BF00F8012BDD
:100D00007047000000487047B85A00207546FFF74A
:100D1000F9FFAE4605006946534620F007008546B8
:100D200018B020B5FFF7BEFABDE820404FF000062E
:100D30004FF000074FF000084FF0000B21F00701C3
:100D4000AC46ACE8C009ACE8C009ACE8C009ACE806
:100D5000C0098D46704710B50446AFF300802046A9
:100D6000BDE81040FFF73EBA4FF0013C50F8042BAD
:100D700051F8043B9A4221D1A2EB0C03934313EAAE
:100D8000CC1317D150F8042B51F8043B9A4215D1DB
:100D9000A2EB0C03934313EACC130BD150F8042BB2
:100DA00051F8043B9A4209D1A2EB0C03934313EA96
:100DB000CC13DBD04FF00000704700BFD01A01BA4F
:100DC000B1FA81F101F0180122FA01F0CB40C1F132
:100DD0002001DBB2C0B2C01A2CFA01F3D11A914340
:100DE00011EAC311E6D170475FEA400C08BF91F0E9
:100DF000000F4FEA8C234FEAC12243EA51514FEAD8
:100E00001C5018BF00F5F0404FEA300018BF41F009
:100E100000415FEA6C5C00F02980BCF1FF3F08BF35
:100E200040F080407047130C06BF12044FF0100CC6
:100E30004FF0000C130E04BF12020CF1080C130F3C
:100E400004BF12010CF1040C930F04BF92000CF1CB
:100E5000020CD30F04BF52000CF1010C11464FF0ED
:100E60000002A0F11F00A0EB0C00704711F0004F32
:100E700008BF704731F000413FF4D5AF0B0C06BFFF
:100E800009044FF0100C4FF0000C0B0E04BF0902C8
:100E90000CF1080C0B0F04BF09010CF1040C8B0FB3
:100EA00004BF89000CF1020CCB0F04BF49000CF108
:100EB000010CCCF12003A0EB0C0022FA03F302FAA0
:100EC0000CF241EA030100F10100704720F07F4C71
:100ED00080EA030023F07F47ACEB070303F57C5364
:100EE00000F0004003F1FF032DE980494FEA154B64
:100EF00009B44FEA144325EA0B4E24EA03480FF2E3
:100F0000042606EB132749083E785FEA320203FB0A
:100F10000667C7F5000707FB06F64FEA54374FEAA6
:100F2000D64606F1020607FB066CCCF1005C4FEAE0
:100F30001C472CEA074C07FB06F40CFB06F504EBF8
:100F400015464FEA961634BF00204FF000404FEA96
:100F5000D13706FB07FC4FEA1C4C0CFB0BF7D21BEE
:100F600003FB0CF761EB07010CFB0EF7B0EB07403E
:100F700072EB17420CFB08F734BFA2EB0742B2EB4F
:100F8000074261EB17414FEA0C444FEA910706FB19
:100F900007FC4FEA1C4C0CFB0BF7B0EBC74072EBA5
:100FA000573203FB0CF734BFA2EBC742B2EBC74288
:100FB00061EB57310CFB0EF7B0EBC70072EB5772C9
:100FC0000CFB08F734BFA2EBC702B2EBC70261EB20
:100FD0005771039F4FEA816141EA921104EBCC04FF
:100FE0004FEAD1374FEA826206FB07FC42EA9012D1
:100FF0004FEA80604FEA1C4C0CFB0BF7D21B03FB43
:101000000CF761EB07010CFB0EF7B0EB074072EB3E
:1010100017420CFB08F734BFA2EB0742B2EB0742C2
:1010200061EB17414FEA8C554FEA910704EB9C2482
:1010300006FB07FC4FEA1C4C0CFB0BF7B0EBC74060
:1010400072EB573203FB0CF734BFA2EBC742B2EB93
:10105000C74261EB57310CFB0EF7B0EBC70072EBE8
:1010600057720CFB08F734BFA2EBC702B2EBC70202
:1010700061EB577115EB4C254FEA816141EA921102
:101080004FEA82624FEAD13742EA901206FB07FC30
:1010900044F100044FEA80604FEA1C4C0CFB0BF754
:1010A000D21B03FB0CF761EB07010CFB0EF7B0EB57
:1010B000074072EB17420CFB08F734BFA2EB074264
:1010C000B2EB074261EB174115EB1C154FEA81317A
:1010D00041EA92414FEA823242EA90424FEA80303E
:1010E0004FEA0C7644F1000448EA03434EEA0B4809
:1010F0004FF0000EB2EB080C71EB030724BF624601
:1011000039464EEB0E0E4FF0000B0018524149418C
:101110004BEB0B0BB2EB080C71EB03077BF1000BF5
:1011200024BF624639464EEB0E0E4FF0000B0018FE
:10113000524149414BEB0B0BB2EB080C71EB03072F
:101140007BF1000B24BF624639464EEB0E0E51EA8E
:10115000020718BF46F0010616EB0E7655F10002A5
:1011600054F1000103D5BDE88901BDE80088BDE860
:101170008901BDE80048B619524141EB0101A3F1D4
:101180000103704780807F7E7D7C7B7A79787776DB
:1011900076757473727171706F6E6E6D6C6C6B6A54
:1011A0006A696868676666656464636362616160F2
:1011B000605F5F5E5E5D5D5C5C5B5B5A5A5959586F
:1011C00058575756565555555454535352525251D9
:1011D000515050504F4F4F4E4E4D4D4D4C4C4C4B2F
:1011E0004B4B4A4A4A494949484848474747474676
:1011F00046464545454444444443434343424242B2
:1012000042414141002B9C4630D477002BD01CB585
:101210004FEA370703B44FF010004FF01001BAF156
:10122000000F06D0BCF1000FDCBF40F0080040F01A
:1012300008014FF000000FBCBDE810400BF1010B9E
:10124000BBF1010F08BF5FEA170722BF12F10102CD
:1012500011F101014FF0004143F1000300F00040A3
:1012600043EA00007047F9D35708D0E746EA06463C
:1012700013F1400F4FEA16461FDD13F1200FDFBFB9
:1012800016430A46002120335B42BED0C3F120073B
:1012900046EA064602FA07F74FEA164646EA070606
:1012A000C3F1200722FA03F201FA07F721FA03F14A
:1012B0004FF0000342EA0702A7E746EA020646EAC1
:1012C00006464FEA164646EA0106BCBF46EA06460F
:1012D000360C4FF000034FF000024FF0000194E78E
:1012E0002DE9804C9A46934670B491E8380007C8BF
:1012F00031EA400C48BF34EA430C03D5FFF7E6FD62
:10130000FFF780FFF0BCBDE8008C2DE9804C9A46C9
:10131000934670B491E8380007C810F0804F08BFBA
:1013200013F0804F03D100F005F8FFF76BFFF0BC1E
:10133000BDE8008C20F07F4780EA030023F07F4C5B
:1013400007EB0C03A3F57C5300F00040A3F1FE0370
:1013500092F0000F00F0B38095F0000F00F077805E
:101360002DE901494FEA11404FEA144621EA0048AD
:1013700000FB06FC24EA064708FB06F607FB08F814
:1013800000FB07F718EB06484CEB164C4FEA124BE4
:1013900018EB07484FEA15464CEB174022EA0B4E74
:1013A0000BFB06FC25EA06470EFB06F607FB0EFEC6
:1013B0000BFB07F71EEB064E4CEB164C4FF00006EE
:1013C0001EEB074E4CEB174B18EB0B0840F10000DF
:1013D00018EB0E0B58EB000840F100008F1A4FF08D
:1013E00000013CBFC943661B14BFB5EB040C0021D0
:1013F0003CBFC943F61B4FEA17444EEA8E0E27EA5C
:1014000004454FEA1C4704FB07622CEA074C05FB26
:1014100007F70CFB05F604FB0CFC16EB074642EB4A
:10142000174216EB0C4642EB1C421BEB060658EB30
:101430000202414146EA9E0601D5BDE80189B6197E
:10144000524141EB0101A3F10103BDE801894FEADB
:1014500014454FEA114724EA054621EA074C05FBEB
:1014600007F406FB07F70CFB06F105FB0CFC11EB80
:10147000074144EB17444FEA124711EB0C4144EB90
:101480001C4422EA074C05FB07F206FB07F70CFB9E
:1014900006F605FB0CFC16EB074642EB174216EB73
:1014A0000C4642EB1C456A1854F1000148BF7047D6
:1014B000B619524141EB0101A3F10103704795F0C8
:1014C000000F37D04FEA11424FEA144721EA024693
:1014D00024EA074C02FB07F106FB07F70CFB06F4B6
:1014E00002FB0CFC14EB074441EB17414FEA154794
:1014F00014EB0C4441EB1C4125EA074C02FB07F5B9
:1015000006FB07F70CFB06F602FB0CFC16EB074686
:1015100045EB174516EB0C4645EB1C42121951F1F1
:10152000000148BF7047B619524141EB0101A3F1D8
:10153000010370474FEA14454FEA114724EA054674
:1015400021EA074C05FB07F106FB07F70CFB06F247
:101550004FF0000605FB0CFC12EB074241EB174174
:1015600012EB0C4251EB1C4148BF7047921841EB03
:101570000101A3F10103704700BFFEE72DE9F0412F
:101580008AB004460D4616461F46DDF8408001210C
:10159000042001F03DFB0121480601F029FB4FF436
:1015A0008050ADF8240003208DF8260018208DF817
:1015B000270009A92D4800F080FA4FF40060ADF82B
:1015C000240048208DF8270009A9284800F075FA62
:1015D00000208DF81E008DF81F008DF820000120DE
:1015E0008DF8210000208DF822008DF823008DF861
:1015F0001A808DF81B408DF81C608DF81D50ADF8D9
:10160000187006A91A4800F0C2F800208DF81200E0
:101610008DF8130001208DF814000020ADF80800AB
:10162000ADF80A00ADF80C00ADF80E00ADF81000F2
:1016300001208DF8150002A800F01CF801220221FB
:101640000B4800F09BF814208DF8040004208DF85E
:10165000050000208DF8060001208DF8070001A884
:1016600000F0D6FE00200AB0BDE8F081000801407D
:101670000064004010B50021837A012202FA03F1D0
:101680003D4A126842F001023B4B1A603A4A1C3252
:1016900012688A43384B1C331A60027BCAB9364A37
:1016A0000C3212688A43344B0C331A604288C38868
:1016B00042EA0343304A4032847A42F834300288A6
:1016C000838842EA03432C4A4032847A02EBC40204
:1016D0005360027B012A19D1274A0C3212680A434F
:1016E000254B0C331A604288038842EA0343224A9E
:1016F0004032847A42F83430C288838842EA034315
:101700001D4A4032847A02EBC4025360C27A3AB96D
:10171000194A121D12688A43174B1B1D1A6006E0F6
:10172000154A121D12680A43134B1B1D1A600289C9
:1017300032B9114A143212688A430F4B14331A60BB
:101740000289012A06D10C4A143212680A430A4B54
:1017500014331A60427B012A06D1074A1C321268F0
:101760000A43054B1C331A60034A126822F0010237
:10177000014B1A6010BD0000006600401AB14369B9
:101780000B43436102E043698B434361704730B5CB
:10179000024600200023146824F002041460146838
:1017A00044F00104146000E05B1C546804F0010480
:1017B0001CB94FF6FF74A342F6D1546804F001043B
:1017C0000CB900206CE08C79012C04D1146844F031
:1017D0008004146003E0146824F080041460CC7961
:1017E000012C04D1146844F04004146003E0146830
:1017F00024F0400414600C7A012C04D1146844F0E5
:101800002004146003E0146824F0200414604C7A6F
:10181000012C04D1146844F01004146003E014682F
:1018200024F0100414608C7A012C04D1146844F064
:101830000804146003E0146824F008041460CC7AEF
:10184000012C04D1146844F00404146003E014680B
:1018500024F0040414608C78A407CD7844EA05646D
:101860000D7944EA05444D7944EA05540D886D1E0E
:101870002C43D461146824F001041460002300E0B8
:101880005B1C546804F001041CB14FF6FF74A342C2
:10189000F6D1546804F001040CB1002000E00120EE
:1018A00030BD10B500F5D87303EB01131B6803F0CE
:1018B00004031372137A53B900F5D87303EB0113C1
:1018C0001B6840F2FF7404EA5353136009E000F50B
:1018D000D87303EB01131B686FF0604404EAD30371
:1018E000536000F5D87303EB01131B6803F0020388
:1018F000537200F5D87303EB01135B6803F00F0319
:10190000937200F5D87303EB01135B681B0AD37461
:1019100000F5D87303EB01139B68D37200F5D873FD
:1019200003EB01139B681C0A147300F5D87303EBD7
:1019300001139B681C0C547300F5D87303EB01135F
:101940009B681B0E937300F5D87303EB0113DB68E0
:10195000D37300F5D87303EB0113DB681C0A14740E
:1019600000F5D87303EB0113DB681C0C547400F50D
:10197000D87303EB0113DB681B0E937421B9C368A2
:1019800043F02003C36003E0036943F020030361D5
:1019900010BD10B502460020936803F08063B3F1D8
:1019A000806F00D110E0936803F00063B3F1006F23
:1019B00001D1012008E0936803F08053B3F1805F08
:1019C00001D1022000E00420042874D002F5C07385
:1019D00003EB00131B6803F0010402F5C07303EB73
:1019E00000131C600B7A7BB94B7A0C8843EA445392
:1019F00002F5C07404EB00142468234302F5C0749C
:101A000004EB0014236010E00B7A4C6843EAC40333
:101A10004C7A234302F5C07404EB0014246823437A
:101A200002F5C07404EB001423608B7A03F00F03FB
:101A30008B7202F5C07303EB00135B6823F00F0495
:101A400002F5C07303EB00135C6002F5C07303EB97
:101A500000135B688C7A234302F5C07404EB001416
:101A600063608B7B1C064B7B44EA03440B7B44EA9C
:101A70000323CC7A234302F5C07404EB0014A36063
:101A80008B7C1C064B7C44EA03440B7C44EA032316
:101A9000CC7B234302F5C07404EB0014E36002F531
:101AA000C07303EB00131B6843F0010402F5C0731D
:101AB00003EB00131C6010BD70472DE9F041024696
:101AC00000250026002000230024002791F803C0F1
:101AD0000CF00F0591F803C00CF0100CBCF1000FD6
:101AE00003D091F802C04CEA050591F800C0BCF1A2
:101AF000000F31D0146800202BE04FF0010C0CFADD
:101B000000F3B1F800C00CEA03069E4220D1830026
:101B10004FF00F0C0CFA03F7BC4305FA03FC4CEA38
:101B2000040491F803C0BCF1280F06D14FF0010C5A
:101B30000CFA00FCC2F814C00AE091F803C0BCF132
:101B4000480F05D14FF0010C0CFA00FCC2F810C090
:101B5000401C0828D1D31460B1F800C0BCF1FF0FBD
:101B600034DD546800202EE000F1080C4FF001082D
:101B700008FA0CF3B1F800C00CEA03069E4221D12A
:101B800083004FF00F0C0CFA03F7BC4305FA03FC7B
:101B90004CEA040491F803C0BCF1280F05D100F110
:101BA000080C08FA0CF8C2F8148091F803C0BCF1D4
:101BB000480F07D100F1080C4FF0010808FA0CF8A3
:101BC000C2F81080401C0828CED35460BDE8F081D4
:101BD0000246002093680B400BB1012000E000207A
:101BE000704701617047C160704700BFFEE70000A9
:101BF00008B50121442001F00BF81820ADF80000D1
:101C000048208DF8030069460648FFF756FF01207B
:101C1000ADF8000028208DF8030069460248FFF760
:101C20004CFF08BD001801400008014010B50446F3
:101C300014B10120234908702248007858B31021BC
:101C40002148FFF7C5FF50B108211F48FFF7C0FF2B
:101C500028B101211D48FFF7BBFF01281BD10A2035
:101C600001F06AFC00201749087010211648FFF7A0
:101C7000AFFF08B9012010BD08211348FFF7A8FFE6
:101C800008B90220F7E701211048FFF7A1FF01285A
:101C900015D10320EFE710210B48FFF799FF01282A
:101CA0000DD108210848FFF793FF012807D1012132
:101CB0000648FFF78DFF10B9012002490870002087
:101CC000D9E700006400002000180140000801402E
:101CD00060E30020FFF7AAFFF8490860F8480068B1
:101CE00001283DD108460068012804D002280DD003
:101CF000032834D124E0F348006818B90120F149E1
:101D0000086002E00020EF49086028E0EE4801F09A
:101D100040FEED48503001F03CFEEB48A03001F0B1
:101D200038FEE948F03001F034FEE848006818B9A0
:101D30000120E649086002E00020E44908600EE066
:101D4000E348006803F00AFAE248006818B9012085
:101D5000E049086002E00020DE49086000BF16E3A9
:101D6000D74800680228FAD10020DB490860D8482B
:101D7000006803F0C5FAD9480068012835D1D34876
:101D8000006888BBCF48006870BBCC480068012859
:101D900004D002280FD0032825D119E0CA49486889
:101DA0004FF07E5104F042FAC7494860CC480068C1
:101DB00003F0D4F917E0C44948684FF07E5104F0AD
:101DC00033FCC1494860C648006803F0C7F90AE01F
:101DD000C44BC54AC549BC4801F0E7FDC04800688E
:101DE00003F0BCF900BFD2E2FFE7BC48006802285C
:101DF00035D1B648006888BBB248006870BBAF48B0
:101E00000068012804D002280FD0032825D119E04A
:101E1000AD4988684FF07E5104F008FAAA498860FD
:101E2000AF48006803F09AF917E0A74988684FF0B7
:101E30007E5104F0F9FBA4498860A948006803F0CA
:101E40008DF90AE0A74BA84AA8499F4801F0ADFDCB
:101E5000A348006803F082F900BF98E2FFE79F48BB
:101E60000068032835D19948006888BB9548006808
:101E700070BB92480068012804D002280FD00328C4
:101E800025D119E09049C8684FF07E5104F0CEF991
:101E90008D49C8609248006803F060F917E08A49EC
:101EA000C8684FF07E5104F0BFFB8749C8608C487A
:101EB000006803F053F90AE08A4B8B4A8B49824849
:101EC00001F073FD8648006803F048F900BF5EE248
:101ED000FFE782480068012837D17C480068012864
:101EE00033D17848006878BB74480068012804D072
:101EF00002280FD0032826D119E07349486D4FF00E
:101F00007E5104F093F9704948657548006803F004
:101F100025F918E06C49486D4FF07E5104F084FBC0
:101F2000694948656E48006803F018F90BE0704B8A
:101F3000704A71496448503001F037FD68480068C4
:101F400003F00CF900BF22E2FFE7644800680228B2
:101F500037D15E480068012833D15A48006878BB01
:101F600056480068012804D002280FD0032826D143
:101F700019E05549886D4FF07E5104F057F95249E8
:101F800088655748006803F0E9F818E04E49886D05
:101F90004FF07E5104F048FB4B498865504800687B
:101FA00003F0DCF80BE0524B524A5349464850309C
:101FB00001F0FBFC4A48006803F0D0F800BFE6E1FE
:101FC000FFE746480068032837D1404800680128E9
:101FD00033D13C48006878BB38480068012804D0F9
:101FE00002280FD0032826D119E03749C86D4FF0D9
:101FF0007E5104F01BF93449C8653948006803F084
:10200000ADF818E03049C86D4FF07E5104F00CFB7C
:102010002D49C8653248006803F0A0F80BE0344B46
:10202000344A35492848503001F0BFFC2C4800683C
:1020300003F094F800BFAAE1FFE7284800680128F0
:102040005CD122480068B8BB1E480068012855D101
:102050001A480068012804D0022811D003282AD188
:102060001DE01949D1F8A4004FF07E5104F0DEF8CC
:102070001549C1F8A4001A48006803F06FF81AE087
:102080001149D1F8A4004FF07E5104F0CDFA0E4969
:10209000C1F8A4001248006803F060F80BE0144B8C
:1020A0001A4619460848A03001F07FFC0C48006829
:1020B00003F054F800BF6AE120E000004C0000206B
:1020C0005C00002050000020DC00002054000020B4
:1020D00020000020580000209401234260000020CE
:1020E00028000020CDCCCC3E0AD7233C0000404045
:1020F000CDCCCC3D0AD7A33C0000D040A648006818
:1021000002283BD1A5480068B8BBA5480068012853
:1021100034D1A4480068012804D0022811D0032833
:102120002AD11DE0A049D1F8A8004FF07E5104F05B
:102130007DF89D49C1F8A8009C48006803F00EF89E
:102140001AE09949D1F8A8004FF07E5104F06CFADA
:102150009549C1F8A8009548006802F0FFFF0BE020
:10216000934B1A4619469048A03001F01EFC8F4848
:10217000006802F0F3FF00BF09E1FFE7864800684E
:1021800003283BD185480068B8BB85480068012812
:1021900034D184480068012804D0022811D00328D3
:1021A0002AD11DE08049D1F8AC004FF07E5104F0F7
:1021B0003DF87D49C1F8AC007C48006802F0CEFFD4
:1021C0001AE07949D1F8AC004FF07E5104F02CFAB6
:1021D0007549C1F8AC007548006802F0BFFF0BE01C
:1021E000734B1A4619467048A03001F0DEFB6F4869
:1021F000006802F0B3FF00BFC9E0FFE7664800686F
:1022000001283ED16548006801283AD16448006839
:10221000012836D163480068012804D0022812D072
:1022200003282DD11FE06049D1F8F4004FF07E5112
:1022300003F0FCFF01465C48C0F8F4105B480068FE
:1022400002F08CFF1CE05849D1F8F4004FF07E51A9
:1022500004F0EAF901465448C0F8F4105348006805
:1022600002F07CFF0CE0534B4FF07E5252494E4837
:10227000F03001F09AFB4D48006802F06FFF00BF9C
:1022800085E04548006802283ED14448006801289E
:102290003AD143480068012836D1424800680128F5
:1022A00004D0022812D003282DD11FE03E49D1F8D6
:1022B000F8004FF07E5103F0B9FF01463A48C0F8EC
:1022C000F8103A48006802F049FF1CE03649D1F89E
:1022D000F8004FF07E5104F0A7F901463248C0F8EB
:1022E000F8103248006802F039FF0CE0314B4FF033
:1022F0007E5231492C48F03001F057FB2B480068E2
:1023000002F02CFF00BF42E02348006803283ED1C2
:102310002248006801283AD121480068012836D1B6
:1023200020480068012804D0022812D003282DD1AB
:102330001FE01D49D1F8FC004FF07E5103F076FFFD
:1023400001461948C0F8FC101848006802F006FF62
:102350001CE01549D1F8FC004FF07E5104F064F9FF
:1023600001461148C0F8FC101048006802F0F6FE63
:102370000CE0104B4FF07E520F490B48F03001F04B
:1023800014FB0A48006802F0E9FE00BF00BF01200C
:1023900002F06EFD9DE4000060000020540000206B
:1023A000500000204C000020DC000020280000200D
:1023B000CDCCCC3D000040400000304108B50121AB
:1023C000482000F025FC2020ADF8000010208DF8FA
:1023D000030003208DF8020069460948FFF76DFBF2
:1023E00020210748FFF7FDFB2020ADF800006946DB
:1023F0000448FFF762FB20210248FFF7F2FB08BD0B
:10240000000C01400018014000BFFEE770470000CB
:1024100070B5002100230F22C47804B3154C246842
:1024200004F4E064C4F5E064210AC1F10403CA4085
:10243000447804FA03F184781440214309010E4CD6
:102440000678A155047804F01F050124AC400578F6
:102450006D11AD0005F1E025C5F8004109E00478F3
:1024600004F01F050124AC40044D0678761145F8B0
:10247000264070BD0CED00E000E400E080E100E0EB
:1024800002490143024A1160704700000000FA054A
:102490000CED00E070B500240CE0002506E0002003
:1024A000074901EBC5010855681CC5B2802DF6DB54
:1024B000601CC4B2082CF0DB00F0ECF870BD00002A
:1024C0006C030020F0B5144600267F2801DC3F296C
:1024D00000DDF0BD0B46CF1701EB5777FF10C7F1BA
:1024E0000707FAB2CF1701EB5777FF10A1EBC70729
:1024F000FDB2C5F107070123BB40DEB24CB10A4B68
:1025000003EBC0039B5C3343074F07EBC007BB548F
:1025100008E0054B03EBC0039B5CB343024F07EBA2
:10252000C007BB5400BFD4E76C03002008B50121ED
:102530004FF4987000F06CFB4820ADF800001020BC
:102540008DF8030003208DF8020069464A48FFF722
:10255000B4FA48214848FFF744FBFF20ADF80000DB
:1025600069464648FFF7A9FAFF214448FFF739FBBF
:102570004FF46040ADF8000069464148FFF79DFA0E
:102580004FF460413E48FFF72CFB01203D490860B5
:102590003D49C1F88C0100203C490860642000F0EE
:1025A000CBFF01203A49C1F8BC010021AE2000F068
:1025B00097F90021D52000F093F90021502000F078
:1025C0008FF90021A82000F08BF900213F2000F0B6
:1025D00087F90021D32000F083F90021084600F09C
:1025E0007FF90021402000F07BF900218D2000F0D0
:1025F00077F90021142000F073F90021202000F069
:102600006FF90021022000F06BF90021A12000F0F9
:1026100067F90021C02000F063F90021DA2000F002
:102620005FF90021122000F05BF90021812000F009
:1026300057F90021EF2000F053F90021D92000F0D4
:102640004FF90021F12000F04BF90021DB2000F0D0
:1026500047F90021302000F043F90021A42000F0C8
:102660003FF90021A62000F03BF90021AF2000F047
:1026700037F9FFF70FFF08BD0014014000100140BB
:10268000002001409881224200802242BC01244265
:102690000000244270B500241CE004F1B001C8B26F
:1026A000002100F01DF90021084600F019F9002171
:1026B000102000F015F9002508E0084901EBC501DC
:1026C000085D012100F00CF9681CC5B2802DF4DB17
:1026D000601CC4B2082CE0DB70BD00006C0300205D
:1026E0002DE9F84F80460F4616461C46BA4620464E
:1026F000E31704EB5373DB1021464FEAE47C04EB51
:102700005C7C4FEAEC0CA4EBCC0CBCF1000F02D0CB
:102710004FF0010C01E04FF0000C6344224604EB43
:10272000D27C4FEA6C0C03FB0CF303F0FF0BA6F119
:102730002000C6B200254EE00C2C07D106EB460067
:10274000274901EB8000405D009013E0102C05D17B
:10275000244800EB0610405D00900BE0182C07D1D8
:1027600006EBC600204901EB8000405D009001E0CF
:10277000BDE8F88F4FF0000927E0009800F08000D6
:1027800028B1394640460A9AFFF79CFE09E00A98AC
:1027900008B9012000E00020024639464046FFF714
:1027A00091FE00984006000E0090781CC7B2A7EB7F
:1027B0000A00A04205D1574608F1010000F0FF08C9
:1027C00006E009F1010000F0FF09B9F1080FD4DBC0
:1027D00000BF681CC5B25D45AEDB00BFC8E70000A6
:1027E000166700088A6B00087A7100082DE9FF4F10
:1027F00081B0074691461E460E9D4FF0000A002408
:1028000039E0301B401EC1B20A2001F0B7F8B9FB15
:10281000F0F00A21B0FBF1F201FB1208BAF1000F4F
:1028200016D1701EA04213DDB8F1000F0ED10120A9
:10283000AB4605EBDB71491001FB04710090C8B297
:102840002B4620220299FFF74BFF12E04FF0010ABE
:102850000120AB4605EBDB71491001FB04710090D0
:10286000C8B208F13001CAB22B460299FFF738FF0F
:1028700000BF601CC4B2B442C3DB05B0BDE8F08F3A
:10288000F8B506460F4615461C4621E004EBD47108
:102890004910C1F18001B14202DA00263819C7B2ED
:1028A000C4F14000B84204DA002006460746FFF7AC
:1028B000F1FD012000902A78234639463046FFF783
:1028C0000FFF204604EBD07106EB6101CEB26D1C08
:1028D00028787E2802DC28782028D7DAF8BD000086
:1028E00070B504460D4621460948FFF77CF90948B2
:1028F000056000200849C1F89801084908600120D6
:10290000086004490C3108600349C1F88C0170BDAE
:10291000001001408C81224200802242B8012442F2
:102920002DE9F04704460E461546216C6164E16BC3
:102930002164A561E6613146284603F075FEE06337
:10294000E16CE06B03F034FE07D9E06C80F00047E7
:102950003846E16B03F02CFE02D80020A06401E0B1
:102960000120A0642068002854D1E16B606803F066
:1029700053FD6062A06C03F003FD8146A16803F083
:102980004BFD8046E16B03F047FD0746A16A03F06B
:102990004DFCA062616BA163216B6163D4E90F01FF
:1029A00003F042FE2063216BE06803F035FDE06236
:1029B0006169A06A03F0FCFD02D26069A0620BE0CD
:1029C000606980F000473846A16A03F0F1FD03D248
:1029D000606980F00040A062D4E9090103F026FCA0
:1029E0000746E16A03F022FC20622169206A03F0B5
:1029F000DFFD02D2206920625CE0206980F00047A0
:102A00003846216A03F0D4FD54D2206980F000409A
:102A100020624FE0206801284CD1D4E90F0103F077
:102A200003FE0746616803F0F7FC6062A06C03F0E8
:102A3000A7FC8046A16803F0EFFC0746E16B03F0BA
:102A4000EBFCA062616BA163216B61634FF080407E
:102A5000216C03F0E1FC8046E16B03F0DAFD0746F0
:102A6000616C03F0E3FB2063216BE06803F0D4FCAE
:102A7000E062D4E9090103F0D9FB8046E16A03F082
:102A8000D5FB0746216A03F0D1FB20622169206A49
:102A900003F08EFD02D2206920620BE0206980F0F5
:102AA00000473846216A03F083FD03D2206980F095
:102AB000004020620020BDE8F0872DE9F04106AC1F
:102AC000F0CC016042608360C46005614661C76408
:102AD0004FF00008C0F83880C0F83480C0F830806B
:102AE000C0F82080C0F82C80C0F82880C0F824806E
:102AF000C0F84480C0F84080C0F83C80BDE8F08158
:102B000069E03548006810B1012860D12EE03348F3
:102B10000068D0B90020324908603249886803F063
:102B20002FFC04462F48214682692F48FFF7F8FE04
:102B30002C49B1F9020003F023FC04462A4821463F
:102B4000026A5030FFF7ECFE0FE0012024490860D4
:102B50002449B1F9020003F013FC04462148214640
:102B6000426921485030FFF7DBFE30E01B48006827
:102B7000E0B900201A4908601C49086B03F000FC0A
:102B800004461A482146426D1748A030FFF7C8FE98
:102B90001649B1F92A0003F0F3FB04461248214616
:102BA000D0F8C020F030FFF7BBFE0FE001200C4949
:102BB00008600E49B1F92A0003F0E2FB04460B4815
:102BC0002146026D0848F030FFF7AAFE00BF00BFA3
:102BD000012002F04DF994E750000020540000203D
:102BE000940123423C030020DC000020E40200208A
:102BF00029B1064AD2690243044BDA6104E0034A70
:102C0000D2698243014BDA61704700000010024034
:102C100029B1064A92690243044B9A6104E0034ACF
:102C200092698243014B9A61704700000010024094
:102C300030B500210022002400232D4D6D6805F0E1
:102C40000C0121B1042905D0082923D105E0294D23
:102C5000056022E0274D05601FE0254D6D6805F4F5
:102C60007012234D6D6805F48034022505EB924205
:102C70001CB9214D554305600BE01D4D6D6805F4F1
:102C800000351DB11C4D5543056002E0194D5543FB
:102C9000056002E0174D056000BF00BF144D6D6870
:102CA00005F0F0010909154D6B5C0568DD404560D4
:102CB0000F4D6D6805F4E061090A104D6B5C4568C5
:102CC000DD4085600A4D6D6805F46051C90A0B4D01
:102CD0006B5C4568DD40C560054D6D6805F440419D
:102CE000890B074D6B5CC568B5FBF3F5056130BD1D
:102CF0000010024000127A0000093D002C00002064
:102D00003C00002010B500F001F810BD0CB500200B
:102D1000019000903348006840F4803031490860E9
:102D200000BF3048006800F4003000900198401C5B
:102D30000190009818B90198B0F5A06FF1D1294819
:102D4000006800F4003010B10120009001E0002084
:102D500000900098012843D12348006840F01000FB
:102D6000214908600846006820F003000860084612
:102D7000006840F0020008601A484068194948603D
:102D80000846406848600846406840F480604860F3
:102D90000846406820F47C1048600846406840F4CB
:102DA000E81048600846006840F08070086000BF86
:102DB0000C48006800F000700028F9D0094840680D
:102DC00020F00300074948600846406840F00200D0
:102DD000486000BF0348406800F00C000828F9D1A3
:102DE0000CBD00000010024000200240042808D161
:102DF0004FF0E021096941F004014FF0E022116138
:102E000007E04FF0E021096921F004014FF0E022D2
:102E10001161704710B502F019FF012801D002F0CE
:102E20009BFB10BD10B51348006840F0010011492C
:102E3000086008464068104908400E494860084646
:102E400000680E4908400B4908600846006820F4F5
:102E5000802008600846406820F4FE0048604FF477
:102E60001F008860FFF74EFF4FF0006004490860C4
:102E700010BD0000001002400000FFF8FFFFF6FE4A
:102E800008ED00E038B500BF5021EFF3118081F369
:102E90001188BFF34F8FBFF36F8F00BF044640F21E
:102EA00025514B4800F0B4F800283BD0484800F0CA
:102EB0006BF9484908704848008800F4004088BB16
:102EC0004548008800F4804070B1084600780A2820
:102ED00003D000204049088024E03F48008840F4A7
:102EE00000403D4908801DE03A4800780D2806D191
:102EF0003948008840F480403749088012E035485E
:102F0000007835490988C1F30D01344A50543248DC
:102F10000088401C3049088008460088C72801DD29
:102F2000002008802E48006808B9012000E0002039
:102F30002B4908602748007801280BD129490860EF
:102F40000C200123009008461E2102685020FFF744
:102F50004DFC38E01F48007802280BD12149086059
:102F60000C200123009008461E2102685020FFF724
:102F70003DFC28E017480078702809D101201A4943
:102F800008600C2319A228214620FFF779FC1AE0DB
:102F900010480078692809D10220134908600C23E1
:102FA00013A228214620FFF76BFC0CE009480078AB
:102FB000642808D103200C4908600C230DA22821A5
:102FC0004620FFF75DFC00BF84F3118800BF38BDC9
:102FD000003801404A000020480000201C02002068
:102FE000940123425C000020600000206B70000010
:102FF0006B6900006B64000021B1828942F40052C9
:10300000828104E082894DF6FF731A408281704705
:1030100070B50246002400230025002040F66A1601
:10302000B14200D100BFC1F3421501F01F030126D8
:1030300006FA03F3012D02D19689334006E0022DF2
:1030400002D1168A334001E0968A33400C120126E1
:1030500006FA04F41688344013B10CB1012000E0E4
:10306000002070BDF0B50346002400260025002096
:1030700040F66A17B94200D100BF1846C1F34214A6
:1030800001F01F06012707FA06F5012C01D10C30CB
:1030900004E0022C01D1103000E014301AB10768AE
:1030A0002F43076002E00768AF430760F0BD0000F0
:1030B0002DE9F04786B005460E460024A24600BF23
:1030C000A1460027B08900B100BF2F462C8A4CF6DC
:1030D000FF700440F08804432C82AC894EF6F31054
:1030E0000440B08831890843718908430443AC81A6
:1030F000AC8A4FF6FF400440B0890443AC8201A87B
:10310000FFF796FD1F48874202D1DDF810A001E0CD
:10311000DDF80CA0A88900F4004040B10AEBCA0019
:1031200000EB0A1031684900B0FBF1F807E00AEB48
:10313000CA0000EB0A1031688900B0FBF1F8642086
:10314000B8FBF0F004012009642101FB1089A88973
:1031500000F4004040B1322000EBC900B0FBF1F0B8
:1031600000F00700044308E0322000EB091064215E
:10317000B0FBF1F000F00F0004432C8106B0BDE875
:10318000F08700000038014001468888C0F308003D
:103190007047000010B5C14A0021C148FEF781FB0D
:1031A000BE480068A0F20120052849D2DFE800F0FF
:1031B00003498FD5FE00BB480088BA49B1F9121007
:1031C000401AB0F5805F05DDB648C068401EB549BD
:1031D000C8600DE0B3480088B249B1F91210401A36
:1031E00010F5805F04DAAF48C068401CAD49C86084
:1031F000AC48008800B2AB494882A848007BA74988
:10320000C97A40EA0120A7490880A448817B407B15
:1032100041EA002000B2A3494880A048017CC07B5D
:1032200041EA002000B29F4988809C48407C087495
:103230000846C068C0EB4030098808449949886056
:103240002AE19848818AB0F92600081AB0F5805F13
:1032500005DD9448006A401E924908620CE09148DE
:10326000818AB0F92600081A10F5805F04DA8D48CB
:10327000006A401C8B4908628A48808A01B28948EA
:10328000C1848648007B8549C97A40EA0120854986
:1032900088828248817B407B41EA002001B28148DC
:1032A000C1827E48017CC07B41EA002001B27D489A
:1032B00001837A48417C7B4880F82410006AC0EB87
:1032C00040307849898A01447648C161E4E0754814
:1032D000018DB0F93A00081AB0F5805F05DD71483C
:1032E000406B401E6F4948630CE06E48018DB0F999
:1032F0003A00081A10F5805F04DA6A48406B401CF7
:10330000684948636748008D01B266484187634851
:10331000007B6249C97A40EA0120624908855F481A
:10332000817B407B41EA002001B25E4841855B48D9
:10333000017CC07B41EA002001B25A488185574890
:10334000417C584880F83810406BC0EB40305549FC
:10335000098D0144534801639EE05248818FB0F9C2
:103360004E00081AB0F5805F05DD4E48806C401EA7
:103370004C4988640CE04B48818FB0F94E00081A24
:1033800010F5805F04DA4748806C401C454988642A
:103390004448808F01B24348A0F84E103F48007B5C
:1033A0003E49C97A40EA01203E4900E01FE0888793
:1033B0003A48817B407B41EA002001B23948C1870D
:1033C0003648017CC07B41EA002001B23548A0F8B4
:1033D00040103248417C334880F84C10806CC0EB80
:1033E00040303049898F01442E48416454E02E48D2
:1033F00000882D49B1F91210401AB0F5805F05DD43
:103400002948C068401E2849C8600DE02648008849
:103410002549B1F91210401A10F5805F04DA2248EC
:10342000C068401C2049C8601F48008800B21E497F
:1034300048821A49097B194AD27A41EA022002F0ED
:103440009FFF044602F07CFF1749088013498A7BDE
:10345000497B42EA012002F093FF044602F054FF48
:1034600000B2114948800D490A7CC97B42EA01201B
:1034700002F086FF044602F047FF00B20A49888046
:103480000648407C08740846C068C0EB4030098894
:1034900008440549886000BF00BF10BD58030020E4
:1034A00000640040E40200203C03002000BFFEE76F
:1034B000490050EAC12018BF04204A0D18BF40F04F
:1034C000010040F2FF72B2EB515F08BF40F0020012
:1034D000012808BF0520704700BF704710B50420C1
:1034E000FFF784FC104800681049B0FBF1F0104968
:1034F00008700D4800680D49B0FBF1F44FF47A7084
:10350000444301200B4908804FF0E020006940F05F
:1035100002004FF0E021086108464461006940F074
:103520000100086110BD00000000002040420F00B3
:10353000400000204200002070B5044602F086FBE7
:10354000012810D00B480088844206D3094800881F
:10355000B4FBF0F5284601F08BFC06480088B4FB6C
:10356000F0F100FB11444FF47A7104FB01F000F01C
:1035700003F870BD4200002070B5034600224FF0F2
:10358000E02675690D4E367803FB06F44FF0E02611
:10359000B16910E04FF0E026B06988420BD0884254
:1035A00002D20E1A324402E02E1A0E443244014670
:1035B000A24200D300E0EDE700BF70BD4000002054
:1035C00000BF054A128802F04002002AF9D0C2B2B8
:1035D000014B1B1D1A807047003801401FB54FF486
:1035E0004070FEF74DFFFFF779FFFEF79FFFFEF7F4
:1035F000FFFAFEF7E3FE4FF4E13001F01FF900207F
:103600000223082207210090FDF7B8FF2248234932
:10361000234A244BCDE90032CDE90210224B234A44
:1036200000212348FFF749FA1B48224A224BCDE9E3
:10363000012000930390214B214A00211C48503067
:10364000FFF73BFA1F4815491B4BCDE900301A46DE
:10365000CDE9021000211648A030FFF72EFA0E48DF
:103660000F4A124BCDE90120009303904FF07E5397
:10367000154A00210E48F030FFF71FFA13480121C8
:1036800000238022CDE9001011A1144802F0AEFA07
:1036900001F0E0FD00BFFEE7000048430000C84223
:1036A00000007A46CDCCCC3E0AD7233C00004040F7
:1036B000DC0000200060EA46CDCCCC3D0AD7A33C1C
:1036C0000000D04000007A44000030411400002087
:1036D00073746172745F7461736B0000BD4600089F
:1036E000F0B585B004460D4616461F4608208DF8F5
:1036F0000A0000208DF808008DF809004FF40070D2
:103700000090200A8DF80B00E1B28DF80C10290A08
:103710008DF80D10E9B28DF80E10310A8DF80F10EA
:10372000F1B28DF81010390A8DF81110F9B28DF838
:10373000121069460248FEF72CF905B0F0BD0000F2
:1037400000640040F0B585B004460D4616461F469D
:1037500008208DF80A0000208DF808008DF8090077
:1037600040F2FF100090200A8DF80B00E1B28DF8B6
:103770000C10290A8DF80D10E9B28DF80E10310ADF
:103780008DF80F10F1B28DF81010390A8DF8111064
:10379000F9B28DF8121069460248FEF7FAF805B042
:1037A000F0BD00000064004008B5DAE0FEF772FFEB
:1037B0006C48006801286AD16B48006810B1012884
:1037C00064D12FE06949086F02F09EFD0446674905
:1037D000086F02F099FD05466449086F02F094FDF8
:1037E00006466249086F02F08FFD074623462A46C7
:1037F0003146FFF7A7FF00205D4908600C200090CC
:103800005C480523002182684620FEF7EFFF0C206C
:1038100000905848B0F9022004230A214620FEF700
:10382000E5FF33E05149D1F8100102F06DFD044687
:103830004E49D1F8100102F067FD05464B49D1F819
:10384000100102F061FD06464849D1F8100102F06E
:103850005BFD074623462A463146FFF741FF01201C
:10386000434908600C200090434805230021026B67
:103870004620FEF7BBFF0C2000903F48B0F92A20FD
:1038800004230A214620FEF7B1FF00BF66E0364858
:10389000006878BB0020364908603449086F02F0A0
:1038A00033FD04463149086F02F02EFD05462F49CD
:1038B000086F02F029FD06462C49086F02F024FD2E
:1038C000074623462A463146FFF73CFF0C2000906E
:1038D00028480523002182684620FEF787FF0C2038
:1038E00000902448B0F9022004230A214620FEF764
:1038F0007DFF33E0FFE701201D4908601B49D1F837
:10390000100102F001FD04461849D1F8100102F03F
:10391000FBFC05461549D1F8100102F0F5FC0646FE
:103920001249D1F8100102F0EFFC074623462A465F
:103930003146FFF7D5FE0C2000900E4805230021EC
:1039400082684620FEF752FF0C2000900948B0F92B
:10395000022004230A214620FEF748FF012001F03F
:1039600087FA23E75C00002050000020DC000020E4
:10397000948121423C030020E402002010B502465D
:10398000012000E050430B1EA1F10104E1B2F9D186
:1039900010BD002242640264C2630021C1628162E0
:1039A00041620162C1618161704710B5C3604160CD
:1039B00082600024C4628462446210BD2DE9F0413B
:1039C00005460E461C4807681C480068001D01F0AB
:1039D00091F850B91948006890F82C1001208840DF
:1039E00017490968814316480160681C38B936B127
:1039F00012480168091D134801F0BAF81AE07C1951
:103A00000E4800684460BC4207D20C480168091D9A
:103A10000D48006801F092F80CE008480168091DA3
:103A20000A48006801F08AF809480068844201D217
:103A300007480460BDE8F0817C0000206800002099
:103A4000800000207C0A0020700000206C00002014
:103A50009800002010B5044601F096F8244800684C
:103A6000401C234908602348006840B9214804608D
:103A70000846006801280DD100F0EEF90AE01E4862
:103A8000006838B91B480068C06AE16A884201D8FA
:103A90001848046019480068401C18490860084626
:103AA0000068606494F82C1001208840144909686B
:103AB000084313490860E16A01EB8101114A02EBF6
:103AC0008100211D01F054F801F0A2F80A480068B5
:103AD00068B108480068C06AE16A884207D24FF0BE
:103AE000805009490860BFF34F8FBFF36F8F10BD3F
:103AF000780000206800002084000020940000204E
:103B000080000020AC07002004ED00E010B501F0BB
:103B10003BF810480068D0B90F4800F0FFFF0F488D
:103B200000F0FCFF0C480E4908600C480D49086085
:103B300000221021052001F029FD064908600846F1
:103B4000006820B108A10348006801F055F901F0B0
:103B50005FF810BDAC000020900A0020A40A0020ED
:103B6000A4000020A8000020546D72510000000045
:103B700070B523E001F044FC1348006808B9012047
:103B800000E00020054602F0EDF9BDB900F0FCFFB1
:103B90000D48C068C468201D00F0ACFF0B480068E9
:103BA000401E0A4908600A480068401E084908602B
:103BB00001F02EF8204600F060F800BF04480068CD
:103BC0000028D7D170BD0000680A002078000020CE
:103BD0007400002070B504460D46206C70B1216C55
:103BE000E0680844E0606168E068884201D32068CA
:103BF000E0602846226CE168FCF70EFC70BD2DE900
:103C0000F04104460F4615464FF00008A66B206CA5
:103C100040B9206860BB606802F0DEF88046002092
:103C2000606025E07DB93946226CA068FCF7F4FBA2
:103C3000216CA0680844A060D4E90110884217D321
:103C40002068A06014E03946226CE068FCF7E4FBD1
:103C5000216CE068401AE0602168E068884203D285
:103C6000216C6068401AE060022D01D106B1761E19
:103C7000701CA0634046BDE8F08110B50446206B7F
:103C800000F0FEFF204600F0FBFF10BD0146084A91
:103C9000126812680AB9012200E000220A600A686C
:103CA00022B9034A1268D268106800E00020704709
:103CB000A400002030B54FF4A043174800F00704DB
:103CC0002CB1C01D20F00700134C041B1B1B024627
:103CD000124C22600024114D6C60D018083820F07E
:103CE00007000F4C206000240D4D2D686C600C4DBA
:103CF0002D682C601146441A4C60094C24680C60F5
:103D0000084D4C682C60084D4C682C604FF0004406
:103D1000064D2C6030BD0000B80A0020C400002011
:103D2000CC000020D4000020D0000020D8000020CB
:103D300000BFFFF71DFF064800680128F9D94FF0C2
:103D4000805004490860BFF34F8FBFF36F8FF0E7D7
:103D5000AC07002004ED00E02DE9F04106460D46D9
:103D600017469846069C0DB9246000E02760E6637C
:103D700025640121204601F027FD84F850800020B1
:103D8000A064BDE8F08100002DE9F05F82460F4697
:103D900090469B460A9E0C9C4FEA8801A522206B08
:103DA000FCF77FFBA8F10100216B01EB800929F0F2
:103DB000070909F0070008B9012000E0002028B930
:103DC00040F22B321BA120A0FCF780FA002507E06F
:103DD000795D04F134004155785D00B902E06D1C55
:103DE000102DF5D300BF002143200155202E00D314
:103DF0001F26E662E66400202065201D00F09BFE81
:103E000004F1180000F097FE2461C6F12000A061C3
:103E100064620020606584F858005A46514648465E
:103E200000F03AFC20600B9808B10B980460BDE8E4
:103E3000F09F00002E2E5C4672656552544F535C15
:103E40007461736B732E63004572726F723A2573DF
:103E50002C25640D0A00000010B5002407E004EBD7
:103E600084010F4A02EB810000F058FE641C202CF4
:103E7000F5D30C4800F052FE0B4800F04FFE0B4803
:103E800000F04CFE0A4800F049FE0A4800F046FEE9
:103E900004480949086004480849086010BD00004A
:103EA000AC0700202C0A0020400A0020540A002001
:103EB000680A00207C0A00206C00002070000020AE
:103EC00010B50146164800E0006803688B42FBD33A
:103ED0000246436813448B4204D143684C68234430
:103EE000436001460A464B6813440468A34211D15B
:103EF0000C4C03682468A34208D04B6804686468CB
:103F000023444B6003681B680B6005E0054B1B688E
:103F10000B6001E003680B60884200D0016010BDB7
:103F2000C4000020CC0000202DE9F04104460D46DD
:103F300016461F464FF0000865602461B5420CD854
:103F4000F01BA169884202D34FF0010811E0211D46
:103F50000948006800F0F2FD0BE0BE4204D2BD4209
:103F600002D34FF0010804E0211D0448006800F06E
:103F7000E5FD4046BDE8F081A8000020A400002037
:103F800070B5054600F000FEA86B08B9012400E0FA
:103F9000002400F03DFE204670BD70B5054600F0DF
:103FA000F3FDA86BE96B884201D1012400E00024F5
:103FB00000F02EFE204670BD2DE9F3410D4600981D
:103FC000846C00272CB940F6CE121AA11EA0FCF773
:103FD0007DF9A06BE16B884201D2012000E0002056
:103FE00028B940F6CF1213A117A0FCF76FF9A06B08
:103FF000E16B88421BD294F945602A466946204607
:10400000FFF7FDFD0746701C60B9606A08B9012022
:1040100000E0002050B904F1240001F049FF28B16C
:10402000012703E0701C40B284F8450000BF384609
:10403000BDE8FC812E2E5C4672656552544F535C80
:1040400071756575652E63004572726F723A2573DE
:104050002C25640D0A000000F8B505460F461348EC
:104060000068C068C468201D00F044FDE0690128B4
:1040700018D1A06941192B463A462046FFF754FF54
:1040800080B1002003462A4601460090204602F0F7
:1040900033F806462EB94FF4027205A10AA0FCF7C8
:1040A00015F900BF2046616A8847F8BDA4000020CA
:1040B0002E2E5C4672656552544F535C74696D6573
:1040C00072732E63000000004572726F723A25739E
:1040D0002C25640D0A000000F0B587B070E003984D
:1040E00000280CDA04AE2EB940F2E7223AA140A033
:1040F000FCF7ECF8D6E90020B168904700BF0398C0
:1041000000285DDB059C606908B9012000E0002003
:1041100010B9201D00F0EEFC02A800F0C7F805461B
:1041200003980A284AD2DFE800F00905072C2E453B
:1041300006082D2F00BF00BF00BF00BF0498A26972
:10414000811803462A462046FFF7EEFEC0B12046FE
:10415000616A8847E069012812D100200090049824
:10416000A169421800231946204601F0C5FF074601
:104170002FB940F2213218A11DA0FCF7A7F800BF0B
:104180001DE000BF1BE000BF0498A061A06908B15A
:10419000012000E0002028B94FF44E720EA114A0B7
:1041A000FCF794F8A06941192B462A462046FFF7F0
:1041B000BBFE04E0204600F063FD00E000BF00BF4E
:1041C00000231A4603A90E48006801F019FA0028D6
:1041D00085D107B0F0BD00002E2E5C467265655299
:1041E000544F535C74696D6572732E630000000058
:1041F0004572726F723A25732C25640D0A00000017
:10420000AC000020F8B505460C4601F0F9F8684608
:1042100000F04CF80646009820BB44B9B54206D8D9
:1042200001F0A0FE31462846FFF716FF1CE03CB126
:104230000E480068006808B9012000E0002004462C
:10424000A91B22460A48006800F0ECFD01F08AFE36
:1042500050B94FF0805007490860BFF34F8FBFF34C
:104260006F8F01E001F07EFEF8BD0000A800002085
:10427000AC00002004ED00E00A490968096809B9AA
:10428000012100E0002121B14FF0FF31064A116009
:1042900006E004490968C968C868034A41681160B2
:1042A000704700006C0000209800002070B50446A4
:1042B00001F0DCFC054607480068854204D200F0A6
:1042C0000BF80120206001E000202060014805601B
:1042D000284670BDB40000202DE9F8432DE02148A8
:1042E0000068C06805681F480068C068C468201D71
:1042F00000F000FC2046616A8847E06901281CD173
:10430000A0694619AE4207D966602461211D15488F
:10431000006800F013FC10E0002003462A46014626
:104320000090204601F0E8FE07462FB940F2923295
:104330000DA113A0FBF7CAFF00BF0A480068006880
:1043400008B9012000E000200028C8D00548D0F8B6
:1043500000800F480068034908600D48C0F80080DD
:10436000BDE8F883A40000202E2E5C4672656552DD
:10437000544F535C74696D6572732E6300000000C6
:104380004572726F723A25732C25640D0A00000085
:10439000A80000200B480068401C08B9012000E07C
:1043A000002020B9F42208A112A0FBF78FFF00BF64
:1043B000502080F31188BFF34F8FBFF36F8F00BF82
:1043C00000BFFEE7B80000202E2E5C4672656552E5
:1043D000544F535C706F727461626C655C525644EA
:1043E000535C41524D5F434D335C706F72742E636A
:1043F000000000004572726F723A25732C25640D1F
:104400000A00000070B5054600262C462DB940F282
:1044100081620EA112A0FBF759FF1549606988421D
:1044200001D1012000E0002070B11249A06A884249
:1044300001D1012000E0002030B9A06A08B90120B4
:1044400000E0002000B10126304670BD2E2E5C46F3
:1044500072656552544F535C7461736B732E6300C5
:104460004572726F723A25732C25640D0A000000A4
:104470007C0A0020540A002008B500BF6846FFF7F8
:1044800005FC044620460099FFF7BCFEFFF724FE1A
:10449000F4E770B5044600F077FB94F945501AE054
:1044A000A06C38B100212046FFF786FD88B100F0EE
:1044B0009FFD0EE0606A08B9012000E0002038B9D5
:1044C00004F1240001F0F4FC18B100F091FD00E0CB
:1044D00003E0681E45B2002DE2DC00BFFF2084F837
:1044E000450000F095FB00F04FFB94F9445010E0BC
:1044F000206908B9012000E0002048B904F110004B
:1045000001F0D6FC08B100F073FD681E45B200E072
:1045100001E0002DECDC00BFFF2084F8440000F037
:1045200077FB70BD2DE9F04104464FF0000800F024
:1045300067FF3E48006808B9FFF7BCFB3C480068CD
:10454000204000285FD1A4B1083404F0070080B1F6
:1045500004F00700C0F10800044404F0070008B9A3
:10456000012000E0002020B9BF2232A13BA0FBF7D0
:10457000ADFE002C47D03D480068844243D83C4EF5
:104580003046056801E02E462D686868A04202D2D8
:1045900028680028F7D125480068854233D0306864
:1045A00000F10808286830606868001B102813D9DB
:1045B0002F1907F0070008B9012000E0002020B9FA
:1045C000EC221CA125A0FBF781FE6868001B786027
:1045D0006C603846FFF774FC244968680968081A5B
:1045E000224908600846006822490968884203D2C7
:1045F0001E4800681F4908600D496868096808433B
:1046000068600020286001F0ADFC08F0070008B9E0
:10461000012000E0002028B94FF4967205A10FA0F8
:10462000FBF754FE4046BDE8F0810000CC000020BE
:10463000D80000202E2E5C4672656552544F535CA4
:10464000706F727461626C655C4D656D4D616E6713
:104650005C686561705F342E630000004572726FA4
:10466000723A25732C25640D0A000000D00000204A
:10467000C4000020D40000200648006830B105497D
:10468000096801F15000096D491C0160014800688A
:104690007047000068000020001F4FF08073036027
:1046A000001F21F001030360001F034B0360143857
:1046B0000260203870470000954300081CB504468E
:1046C00000F062FA1C481C2100238022CDE9001072
:1046D0001AA11D4801F08AFA1C481D2100238022DE
:1046E000CDE900101AA11D4801F080FA1C481B21D9
:1046F00000238022CDE900101AA11D4801F076FAAE
:104700001C481E2100238022CDE900101AA11D485B
:1047100001F06CFA1C481E2100238022CDE9001014
:104720001AA11D4801F062FA1C48006800F0DAFB8B
:1047300000F06EFA1CBD0000180000206D6F746F51
:10474000725F7461736B0000A93700081C000020C1
:104750005049445F7461736B00000000012B000836
:10476000200000207461726765745F7461736B0070
:10477000A1470008240000204B45595F7461736B0A
:1047800000000000D11C0008280000207573617231
:10479000745F7461736B0000E1480008140000202E
:1047A00000201F4988611F48486100201E49486554
:1047B0001C48086532E01D48006810B1012825D169
:1047C00012E01B48006838B915498869154901F09D
:1047D0002DFD1349886106E011494869154901F02A
:1047E00025FD0F49486111E01148006838B90E49AC
:1047F000486D0C4901F01AFD0B49486506E00A496D
:10480000086D0C4901F012FD0749086500BF0A4810
:10481000006800F075FD012000F02AFBCBE70000E6
:104820003C03002000007A44E402002050000020F5
:10483000540000200000C8422000002010B586B0BF
:104840000446012144F20400FEF7E2F94FF400703F
:10485000ADF8140003208DF8160018208DF817000D
:1048600005A91D48FDF729F94FF48060ADF8140043
:1048700004208DF8170005A91748FDF71EF925201B
:104880008DF8000005208DF8010003208DF802004E
:1048900001208DF803006846FDF7BAFD0194002061
:1048A000ADF80800ADF80A00ADF80C00ADF8100046
:1048B0000C20ADF80E0001A90848FEF7F9FB012213
:1048C00040F225510548FEF7CDFB01210348FEF7D4
:1048D00093FB06B010BD0000000801400038014005
:1048E0001FB5ADE05748006810B101284FD14FE027
:1048F0000C2355A200210846FDF7C2FF0C2356A247
:104900000A210020FDF7BCFF0C2357A21E21002026
:10491000FDF7B6FF0C2358A228210020FDF7B0FFB9
:1049200058A0FBF7D3FC5C49C86801F053FC04466F
:104930000D465949886801F04DFC06460F46564918
:10494000486801F047FC804642460B4653A0CDE93B
:104950000067CDE90245FBF7B9FC4F49C86D01F08E
:1049600039FC04460D464C49886D01F033FC06467F
:104970000F464949486D01F02DFC804642460B46E2
:104980004EA0CDE90067CDE90245FBF79FFC4FE063
:104990000C232DA200210846FDF772FF0C232EA246
:1049A0000A210020FDF76CFF0C232FA21E210020FE
:1049B000FDF766FF49A0FBF789FC3749D1F8AC0049
:1049C00001F008FC04460D463349D1F8A80001F077
:1049D00001FC804689463049D1F8A40001F0FAFB79
:1049E000064632460B462DA0CDE90089CDE90245A9
:1049F000FBF76CFC2849D1F8FC0001F0EBFB044606
:104A00000D462549D1F8F80001F0E4FB06460F46B3
:104A10002149D1F8F40001F0DDFB804642460B4607
:104A200026A0CDE90067CDE90245FBF74FFC00BFAA
:104A300000BF2F48006800F063FC012000F018FA66
:104A400050E70000500000206D6F746F7220616E9F
:104A5000676C653B200000006D6F746F722073708F
:104A60006565643B200000006B65795F66756E6369
:104A700074696F6E3A2000007069645F7365743A00
:104A800020000000474D36303230206973207275A7
:104A90006E6E696E67200D00DC000020BDC7B6C8D1
:104AA000BBB7206B703D202566206B693D202566D5
:104AB000206B643D202566200D000000CBD9B6C8D0
:104AC000BBB7206B703D202566206B693D202566B5
:104AD000206B643D202566200D0000004D333530ED
:104AE000382069732072756E6E696E67200D000044
:104AF0002800002001460A69D1E901309860D1E917
:104B0000010358605068884201D1886850600020D5
:104B100008611068401E10601068704700F10801BD
:104B200041604FF0FF31816000F10801C160016117
:104B300000210160704700210161704710B50246F5
:104B40000B685C1C0CB9106907E002F1080000E07A
:104B50004068446824689C42FAD944684C604C68B8
:104B6000A160886041600A611468641C146010BD13
:104B700042684A6093688B609368596091600861ED
:104B800003685B1C0360704710B500BF502080F3C2
:104B90001188BFF34F8FBFF36F8F00BF0B480068C2
:104BA000401C0A4908600846006801280DD10848E1
:104BB0000068C0B208B9012000E0002028B94FF415
:104BC000BD7204A10EA0FBF781FB10BDB800002050
:104BD00004ED00E02E2E5C4672656552544F535C26
:104BE000706F727461626C655C525644535C4152E2
:104BF0004D5F434D335C706F72742E630000000094
:104C00004572726F723A25732C25640D0A000000FC
:104C100010B50B48006828B940F2811209A114A010
:104C2000FBF754FB06480068401E0549086008462B
:104C3000006820B9002080F3118800BF00BF10BDBC
:104C4000B80000202E2E5C4672656552544F535CAE
:104C5000706F727461626C655C525644535C415271
:104C60004D5F434D335C706F72742E630000000023
:104C70004572726F723A25732C25640D0A0000008C
:104C800070B506463546002E35D0083D2C461A49EB
:104C900060680968084008B1012000E0002028B9D8
:104CA0004FF4A07215A11FA0FBF710FB206808B9F4
:104CB000012000E0002028B940F241120FA119A004
:104CC000FBF704FB0C4960680968084098B120684C
:104CD00088B90949606809688843606000F090FB02
:104CE0001449606809680844124908602046FFF7C3
:104CF000E7F801F037F970BDD80000202E2E5C4691
:104D000072656552544F535C706F727461626C656A
:104D10005C4D656D4D616E675C686561705F342EDA
:104D2000630000004572726F723A25732C25640D82
:104D30000A000000D0000020064800684FF47A7195
:104D4000B0FBF1F0401E4FF0E02148610720086100
:104D5000704700000000002070B5FBF791FA05468F
:104D6000102D11D305F1E02090F8F04310480078A1
:104D7000844201DB012000E0002028B94FF42A72B0
:104D80000CA117A0FBF7A2FA1948006800F4E06034
:104D900018490968884201D8012000E0002028B99C
:104DA0004FF42E7203A10EA0FBF790FA70BD000025
:104DB000BC0000202E2E5C4672656552544F535C39
:104DC000706F727461626C655C525644535C415200
:104DD0004D5F434D335C706F72742E6300000000B2
:104DE0004572726F723A25732C25640D0A0000001B
:104DF0000CED00E0C0000020024600200BE0084B54
:104E000053F8303033B9064B43F8301003EBC0038E
:104E10005A6002E0401C0828F1D300BF7047000030
:104E20006C0700202DE9F04105460E4617462C463A
:104E3000FFF7AAFE94F94400401C10B9002084F842
:104E4000440094F94500401C10B9002084F8450046
:104E5000FFF7DEFEA06B28B93A46314604F1240084
:104E600000F0F6F82046FFF714FBBDE8F0810000E3
:104E700070B504460025ACB10F48006808B90120A0
:104E800000E0002028B940F2CF420CA110A0FBF7AF
:104E90001DFA00F0B5FA00212046FEF78FFD01F063
:104EA00061F805463DB94FF080500D490860BFF3E9
:104EB0004F8FBFF36F8F70BDA00000202E2E5C4679
:104EC00072656552544F535C7461736B732E63004B
:104ED0004572726F723A25732C25640D0A0000002A
:104EE00004ED00E070B50546FFF74EFE15B92D48FC
:104EF000006800E028460446201DFFF7FBFD78B956
:104F0000E06A00EB8000284951F8200040B994F88D
:104F10002C100120884025490968814323480160FD
:104F2000A06A18B104F11800FFF7E4FD20480068FA
:104F3000401C1F4908601B480068844209D1211D9C
:104F40001C48FFF715FE1C480068401C1A49086001
:104F500009E01A480068401E184908602046FEF71C
:104F60008CFEFFF789F9FFF753FE15480068C0B1C2
:104F70000C480068844214D11248006808B9012026
:104F800000E0002028B940F265420FA113A0FBF712
:104F90009DF94FF0805015490860BFF34F8FBFF364
:104FA0006F8F70BD68000020AC07002080000020DB
:104FB00094000020680A002074000020780000207F
:104FC00084000020A00000202E2E5C4672656552F1
:104FD000544F535C7461736B732E63004572726F30
:104FE000723A25732C25640D0A00000004ED00E0E0
:104FF00001200149086070478C00002070B504460C
:105000000D462CB940F6063207A10CA0FBF75EF95D
:105010000E48016818312046FFF790FD012128460F
:10502000FEF7CCFC70BD00002E2E5C46726565520A
:10503000544F535C7461736B732E63004572726FCF
:10504000723A25732C25640D0A00000068000020C8
:1050500070B505460E4614462DB940F6313209A109
:105060000DA0FBF733F91048016818312846FFF707
:105070007FFD0CB14FF0FF3621463046FEF79EFC17
:1050800070BD00002E2E5C4672656552544F535C15
:105090007461736B732E63004572726F723A25737D
:1050A0002C25640D0A0000006800002070B505463C
:1050B0002C46002D4BD02649E06A0968C96A88420F
:1050C00045D2A06900F0004028B921480068C06AB4
:1050D000C0F12000A061E16A01EB81011D4A02EBF1
:1050E00081016069884201D1012000E0002050B3B5
:1050F000201DFFF7FFFC78B9E06A00EB800015493E
:1051000051F8200040B994F82C1001208840124931
:1051100009688143104801600D480068C06AE06278
:1051200094F82C10012088400B49096808430A496B
:105130000860E16A01EB8101064A02EB8100211D52
:10514000FFF716FD03E002480068C06AE06270BD28
:1051500068000020AC0700208000002070B50546E4
:105160002C462DB940F2AB621AA11FA0FBF7AEF896
:1051700074B32148006884422AD0FFF705FD204619
:10518000FFF740F910B3201DFFF7B4FC94F82C1082
:105190000120884019490968084318490860E16AF4
:1051A00001EB8101164A02EB8100211DFFF7E0FCB3
:1051B0001149E06A0968C96A884207D34FF08050F4
:1051C00010490860BFF34F8FBFF36F8FFFF720FDCB
:1051D00070BD00002E2E5C4672656552544F535CC4
:1051E0007461736B732E63004572726F723A25732C
:1051F0002C25640D0A0000006800002080000020BB
:10520000AC07002004ED00E010B504462CB940F6D0
:10521000C13205A109A0FBF759F80C4800682060CD
:105220000B480068606010BD2E2E5C4672656552AA
:10523000544F535C7461736B732E63004572726FCD
:10524000723A25732C25640D0A000000900000209E
:105250007C0000201CB51A4800210B468222CDE9B3
:10526000001018A1194800F0C1FC0446012C02D11D
:1052700000F008FF0446012C15D100BF502080F338
:105280001188BFF34F8FBFF36F8F00BF4FF0FF3018
:105290000F49086001200F49086000200E4908608E
:1052A00000F00AF90BE0601C08B1012000E00020CA
:1052B00028B940F2847209A10DA0FBF707F81CBDC4
:1052C0009C00002049444C4500000000313D00088E
:1052D00098000020840000207C0000202E2E5C46D8
:1052E00072656552544F535C7461736B732E630027
:1052F0004572726F723A25732C25640D0A00000006
:1053000070B50546FFF740FC15B92C48006800E071
:1053100028460446201DFFF7EDFB78B9E06A00EB54
:105320008000274951F8200040B994F82C10012042
:10533000884024490968814322480160A06A18B165
:1053400004F11800FFF7D6FB211D1F48FFF710FCE2
:10535000FFF75EFC1D48006828B1FFF715FCFEF75B
:105360008BFFFFF755FC15480068844224D117488D
:105370000068A8B11648006808B9012000E00020C4
:1053800028B940F2576213A117A0FAF79FFF4FF018
:10539000805019490860BFF34F8FBFF36F8F0BE048
:1053A0000948006815490968884203D1002003496B
:1053B000086001E000F02CF870BD000068000020DB
:1053C000AC070020800000207C0A00208400002020
:1053D000A00000202E2E5C4672656552544F535C2F
:1053E0007461736B732E63004572726F723A25732A
:1053F0002C25640D0A00000004ED00E07800002078
:1054000002480068401C014908607047A000002065
:1054100010B51B48006818B101201A4908602DE03A
:1054200000201849086018480068B0FA80F0C0F100
:105430001F0404EB8400154951F8200008B1012035
:1054400000E0002028B940F6F62211A115A0FAF7D5
:105450003DFF04EB84010D4A02EB8100416849687D
:10546000416000F1080142688A4202D141684968FE
:1054700041604168C9680F4A116000BF10BD00005B
:10548000A00000208C00002080000020AC0700203D
:105490002E2E5C4672656552544F535C7461736B7B
:1054A000732E63004572726F723A25732C25640D5A
:1054B0000A000000680000201CB522480146097857
:1054C0000191FF21024611700146097800919DF873
:1054D000001001F050011C4A117007211B4A116095
:1054E00009E01A490968491E184A11609DF8001020
:1054F0004906090E00919DF8001001F080018029F5
:10550000EFD0124909680902104A11601146098852
:1055100001F4E06111600B4A019911700C480068B8
:1055200040F470000A4908600846006840F0704086
:105530000860FFF701FC002006490860FAF76AFEE0
:1055400000201CBD00E400E0BC000020C0000020E2
:1055500020ED00E0B800002010B500BF502080F31F
:105560001188BFF34F8FBFF36F8F00BF00F084FB34
:1055700018B14FF080500449086000BF002080F34C
:10558000118800BF10BD000004ED00E02DE9F843D4
:1055900005460E4690460DB1012000E0002028B9D6
:1055A0004FF4C4720DA112A0FAF790FE0EB90027B5
:1055B00001E005FB06F707F15400FEF7B3FF0446D0
:1055C00044B104F1540943464A4631462846009402
:1055D000FEF7C2FB2046BDE8F88300002E2E5C4695
:1055E00072656552544F535C71756575652E630025
:1055F0004572726F723A25732C25640D0A00000003
:105600002DE9FF4782B005460E461F464FF0000ABF
:105610002C462CB940F2DC4261A166A0FAF756FE96
:105620000EB9206C08B9012000E0002028B940F232
:10563000DD425BA15FA0FAF749FE00F007FB08B965
:10564000049808B9012000E0002028B94FF49C62BA
:1056500053A158A0FAF73AFE00BFFFF795FAD4F825
:105660003890B9F1000F3DD0D4F80C803146204677
:10567000FEF7B0FADFB9A9F10100A063206810B904
:10568000FEF7FAFF6060206908B9012000E0002001
:1056900010BB04F1100000F00BFCE8B14FF080509B
:1056A00048490860BFF34F8FBFF36F8F14E0C4F811
:1056B0000C80606A08B9012000E0002060B904F1A4
:1056C000240000F0F5FB38B14FF080503D490860F0
:1056D000BFF34F8FBFF36F8FFFF79AFA012006B029
:1056E000BDE8F087049818B9FFF792FA0020F6E7B2
:1056F000BAF1000F04D16846FFF786FD4FF0010AAA
:10570000FFF786FAFFF77CFEFFF73EFA94F94400B4
:10571000401C10B9002084F8440094F94500401C56
:1057200010B9002084F84500FFF772FA04A9684612
:1057300000F00CFA40BB2046FEF722FCF0B12068D6
:1057400030B9FFF721FA6068FFF7B0FCFFF760FAA5
:1057500004F124000499FFF751FC2046FEF799FE5E
:1057600000F000FC00287FF478AF4FF0805015491E
:105770000860BFF34F8FBFF36F8F6EE72046FEF7D1
:1057800088FE00F0EFFB68E72046FEF782FE00F09F
:10579000E9FB2046FEF7F4FB0028EED000209EE750
:1057A0002E2E5C4672656552544F535C717565755B
:1057B000652E63004572726F723A25732C25640D55
:1057C0000A00000004ED00E070B505460E462C46C8
:1057D0002CB940F21B121EA122A0FAF777FDFFF7A9
:1057E000D3F9D4E90F12206801FB020060600020A9
:1057F000A0632068A060E06B401E226C216800FB63
:105800000210E060FF2084F8440084F845009EB94F
:10581000206908B9012000E00020A8B904F11000B7
:1058200000F046FB80B14FF0805012490860BFF392
:105830004F8FBFF36F8F07E004F11000FFF76EF991
:1058400004F12400FFF76AF9FFF7E2F9012070BDC7
:105850002E2E5C4672656552544F535C71756575AA
:10586000652E63004572726F723A25732C25640DA4
:105870000A00000004ED00E02DE9FF4383B0064676
:1058800088461D464FF0000934462CB940F2D92213
:1058900060A165A0FAF71AFDB8F1000F01D1206CE4
:1058A00008B9012000E0002028B940F2DA2259A10D
:1058B0005DA0FAF70BFD022D02D1E06B012801D1AA
:1058C000012000E0002028B940F2DB2251A156A0BF
:1058D000FAF7FCFC00F0BAF908B9059808B90120FC
:1058E00000E0002028B940F2DE224AA14EA0FAF7DB
:1058F000EDFC00BFFFF748F9A06BE16B884201D3D4
:10590000022D38D12A4641462046FEF778F907464F
:10591000A06C68B129462046FEF74EFB28B34FF035
:10592000805045490860BFF34F8FBFF36F8F1CE075
:10593000606A08B9012000E0002068B904F1240081
:1059400000F0B6FA88B14FF080503B490860BFF3D1
:105950004F8FBFF36F8F08E03FB14FF08050364953
:105960000860BFF34F8FBFF36F8FFFF751F901202E
:1059700007B0BDE8F083059818B9FFF749F9002092
:10598000F6E7B9F1000F04D101A8FFF73DFC4FF095
:105990000109FFF73DF9FFF733FDFFF7F5F894F93B
:1059A0004400401C10B9002084F8440094F94500DC
:1059B000401C10B9002084F84500FFF729F905A91B
:1059C00001A800F0C3F8F0B92046FEF7E6FAA0B14E
:1059D00004F110000599FFF711FB2046FEF759FD71
:1059E00000F0C0FA002885D14FF0805012490860BD
:1059F000BFF34F8FBFF36F8F7CE72046FEF749FD63
:105A000000F0B0FA76E72046FEF743FD00F0AAFA70
:105A10000020ADE72E2E5C4672656552544F535CF4
:105A200071756575652E63004572726F723A2573E4
:105A30002C25640D0A00000004ED00E02DE9F05F64
:105A400080468A4615461E4644462CB940F29F328F
:105A500035A13AA0FAF73AFCBAF1000F01D1206C57
:105A600008B9012000E0002028B94FF468722EA187
:105A700032A0FAF72BFC022E02D1E06B012801D1F3
:105A8000012000E0002028B940F2A13226A12BA07D
:105A9000FAF71CFCFFF760F900BF5021EFF311800B
:105AA00081F31188BFF34F8FBFF36F8F00BF07469D
:105AB000A06BE16B884201D3022E2BD194F945B043
:105AC000324651462046FEF79AF80BF10100C8B95C
:105AD000A06C40B131462046FEF76EFAB8B1B5B1C0
