:020000040800F2
:1000000010B8012059020008D13C00080938000846
:10001000CD3C0008E90C00084F5300080000000028
:10002000000000000000000000000000A101000826
:100030005722000800000000F5010008ED47000805
:1000400073020008730200087302000873020008BC
:1000500073020008730200087302000873020008AC
:10006000730200087302000873020008730200089C
:10007000730200087302000873020008730200088C
:10008000730200087302000873020008730200087C
:10009000ED0C0008730200087302000873020008E8
:1000A000730200087302000873020008730200085C
:1000B0007302000865480008F94800087302000848
:1000C000730200087302000873020008730200083C
:1000D00073020008814D0008C94D00087302000832
:1000E000730200087302000873020008730200081C
:1000F000730200087302000873020008730200080C
:1001000073020008730200087302000873020008FB
:1001100073020008730200087302000873020008EB
:1001200073020008730200087302000873020008DB
:1001300073020008730200087302000873020008CB
:1001400073020008B9100008730200087302000867
:10015000730200087302000873020008D14E000801
:10016000730200087302000873020008730200089B
:10017000730200087302000873020008730200088B
:100180007302000873020008DFF810D000F09AFC38
:1001900000480047057E0008AFF3008010B801203A
:1001A0002A4B19680868B0E8F04F80F30988BFF35C
:1001B0006F8F4FF0000080F311887047000000003F
:1001C00006480068006880F3088862B661B6BFF32D
:1001D0004F8FBFF36F8F00DF00BF00BF08ED00E05F
:1001E000DFF80C00016841F470010160704700BF46
:1001F00088ED00E0EFF30980BFF36F8F134B1A68AF
:100200001EF0100F08BF20ED108A20E9F04F10609B
:1002100008B44FF0500080F31188BFF34F8FBFF345
:100220006F8F0AF0E5FE4FF0000080F3118808BCE4
:1002300019680868B0E8F04F1EF0100F08BFB0EC66
:10024000108A80F30988BFF36F8F70479C030020EA
:10025000EFF30580704700000648804706480047D6
:10026000FEE7FEE7FEE7FEE7FEE7FEE7FEE7FEE766
:10027000FEE7FEE7FD470008890100089FED1A1A16
:10028000F5EE000A40EE010ABDEEE00AF5EEC00A06
:1002900010EE100AF1EE10FA38BF401E00EE100A00
:1002A0001349F7EE001AB8EEC00A30EEC00ADFEDCF
:1002B0000F0A20EE200AFCEEC00A10EE900AC0F3EE
:1002C000080000EE900A01EB8000F8EE600A90ED65
:1002D000011A70EE600A90ED000A71EEE01A21EE4C
:1002E000800A00EE810A704783F9223E0000004434
:1002F0006CC50008DFED190AB5EEC00A60EE200AF1
:10030000BDEEE01A11EE100AF1EE10FA38BF401EF1
:1003100000EE100A1349F7EE001AB8EEC00A30EEEC
:10032000C00ADFED0F0A60EE200ABCEEE00A10EE14
:10033000100AC0F3080000EE100A01EB8000B8EECE
:10034000400A90ED011A70EEC00A90ED000A71EEBD
:10035000E01A21EE800A00EE810A704783F9223EFE
:10036000000000446CC50008018042804360704773
:100370002DE9F04F02884768B0F802804888D1F82C
:10038000049082B04FF0000A1646824207BF0988E7
:1003900088456FF0020002B018BFBDE8F08F4FEA49
:1003A000980B02EB42000190C8F34000CDF800002A
:1003B00009EB8A01BBF1000F33D0019801EB820CED
:1003C00001EB80043B46E64601EBC2054FEA0B0019
:1003D00093ED000A401E81ED000A93ED010A01EB46
:1003E00002118CED000A93ED020A0CEB021C85ED64
:1003F000000A93ED030A05EB021584ED000A04EBF5
:10040000021403F11003E3D10EEB820000EB820033
:1004100000EB8201ABF10100504307EB0B1701EB3E
:10042000001118F0030C21D03B1FA1EB82011CF03E
:10043000010F06D093ED010A01EB82011B1D81ED36
:10044000000A009880B100BF93ED010A01EB82041D
:1004500001EBC20184ED000A93ED020A401E81ED1A
:10046000000A03F10803EFD107EB8C070AF1010042
:100470001FFA80FA701E0604360C99D102B00020D3
:10048000BDE8F08F40EA01039B0703D009E008C9EB
:10049000121F08C0042AFAD203E011F8013B00F849
:1004A000013B521EF9D27047D2B201E000F8012B95
:1004B000491EFBD270470022F6E710B513460A46E4
:1004C00004461946FFF7F0FF204610BD2DE9FE4F08
:1004D000804681EA0300C00F0C46009021F00041E5
:1004E00023F00045B8EB0200A94105D24046214661
:1004F00090461C460B46024623F00040104347D06E
:10050000270DC7F30A00C3F30A510290401A019065
:1005100040286BDAC3F3130040F4801B0098924626
:1005200020B10023D2EB030A63EB0B0B0198594671
:10053000C0F14002504600F0F8F906460D4650461C
:100540005946019A00F000FA10EB080061410024BE
:1005500087EA115284EAE7731A4340D0009A62B3E3
:10056000019A012A4FEA075215DC001B61EB0201D8
:100570004FF0004202EA0752CDE90042001C41F56B
:10058000801132462B4600F037FA03B0BDE8F08FF9
:1005900040462146F9E7001B61EB0201001C41F5D2
:1005A000801300185B412018A2F5001747EB0301E8
:1005B00040EAD570B6196D4111E06D084FEA360674
:1005C00045EAC0754FEA0752001B61EB0201001CAF
:1005D00041F5801149084FEA300000195141324677
:1005E0002B4603B0BDE8F04F00F0F7B900980122A8
:1005F00040000023D0EB020263EBE0730098214639
:100600004FEAE074B8EB000061EB0401E9E783F026
:1006100000435BE781F0004158E72DE9FE4F81EA96
:10062000030404F0004421F0004100944FF0000B5B
:1006300023F0004350EA01045ED052EA03045BD089
:10064000C3F30A54C1F30A552C44A4F2F3340194C1
:10065000A0FB0254C1F3130141F48011C3F313034F
:1006600043F4801301FB024400FB034E840A970A03
:1006700044EA815447EA8357A4FB076802958D0A30
:1006800005FB07854FEA932C04FB0C542705029DBC
:100690004FEA065847EA1637B5EB08056EEB070C2C
:1006A000870E920E47EA811742EA8312A7FB0201E6
:1006B000B6EB0B0164EB00042B0D43EA0C335E1820
:1006C00044EB1C50DA465146E7FB0201C5F3130424
:1006D0004FEA0B3343EA14534FEA0432019C43EAD6
:1006E0000603A4F10C040294009CCDE900B400F0D0
:1006F00083F903B0BDE8F08F00200146F9E72DE94A
:10070000F04D81EA030404F0004B21F0004514464B
:100710004FF0000A23F0004150EA050220D054EACD
:1007200001021DD0C5F30A570246C5F31303C1F3F6
:100730001300C1F30A5640F4801543F48013A7EB6D
:100740000608101BD64608F2FD3873EB050002D3ED
:1007500008F1010801E092185B41B8F1000F03DADB
:1007600000200146BDE8F08D00204FF480110646C0
:1007700084460EE0171B73EB050705D3121B63EBD2
:10078000050306434CEA010C49084FEA3000921871
:100790005B4150EA0107EDD152EA030012D082EA30
:1007A000040083EA0501084305D0101BAB4106D2C3
:1007B0000122002306E000224FF0004302E06FF028
:1007C000010253101AEB06004CEB085110EB0A0023
:1007D00041EB0B01BDE8F04D00F0FFB800F0004226
:1007E00030F000400AD0C10D01F56071C0F3160071
:1007F00042EA0151C20840071143704700200146F8
:100800007047000030B5041E71F1000404DB4FF0A6
:100810000044404264EB0101141E73F1000405DB47
:100820001C464FF00043524263EB04038B4208BF67
:10083000824230BD30B5041E71F1000404DB4FF07C
:100840000044404264EB0101141E73F1000405DB17
:100850001C464FF00043524263EB0403994208BF29
:10086000904230BD01F0004330B421F0004150EA25
:10087000010206D00A0DA2F56072C1F31301002A2D
:1008800002DC30BC00207047440F44EAC104C100C0
:10089000E01830BC00EBC25000F068B830B50B4631
:1008A000014600202022012409E021FA02F59D42A0
:1008B00005D303FA02F5491B04FA02F52844151E74
:1008C000A2F10102F1DC30BD2DE9F05F0546002008
:1008D00092469B4688460646814640241BE02846B1
:1008E00041464746224600F0FFF853465A46C01A92
:1008F000914110D311461846224600F016F82D1AE1
:1009000067EB01084F4622460120002100F00DF858
:1009100017EB00094E41201EA4F10104DFDC48461C
:1009200031462A464346BDE8F09F202A04DB203AA0
:1009300000FA02F1002070479140C2F1200320FA32
:1009400003F3194390407047202A06DBCB17203A67
:1009500041FA02F043EAE07306E041FA02F3D040C4
:10096000C2F1200291400843194670470029A8BFF0
:100970007047401C490008BF20F00100704710B4C8
:10098000B0FA80FC00FA0CF050EA010404BF10BC7D
:10099000704749B1CCF1200421FA04F411FA0CF1AA
:1009A00018BF012121430843A3EB0C01CB1D4FEAE3
:1009B00000614FEA102042BF002010BC704700EBDE
:1009C000C35010440029A4BF10BC7047401C49000C
:1009D00008BF20F0010010BC704710B5141E73F161
:1009E000000408DA401C41F1000192185B411A43EF
:1009F00001D120F0010010BD2DE9F04D92469B463B
:100A000011B1B1FA81F202E0B0FA80F220329046E0
:100A1000FFF78BFF04460F4640EA0A0041EA0B014C
:100A200053465A46084313D0114653EA010019D0E1
:100A3000C8F14002504600F057F805460E465046B1
:100A400059464246FFF771FF084305D0012004E0F4
:100A500020463946BDE8F08D0020054346EAE076A1
:100A60002C4337430A986305E40AA0EB08000022F0
:100A7000FD0A44EA47540A3002D500200146E9E75E
:100A8000010510196941DDE9084500196941BDE812
:100A9000F04DA2E7C1F30A52C1F3130140F2FF3354
:100AA00041F480119A4202DA00200146704740F278
:100AB00033439A42A2F2334202DC524200F014B8AD
:100AC000FFF733BF064C074D06E0E06840F0010336
:100AD00094E8070098471034AC42F6D3FFF758FB70
:100AE00070CD000890CD0008202A04DB203A21FABE
:100AF00002F00021704721FA02F3D040C2F1200237
:100B0000914008431946704770B58C1810F8015B86
:100B100015F0070301D110F8013B2A1106D110F896
:100B2000012B03E010F8016B01F8016B5B1EF9D19A
:100B30002B0705D40023521E0DD401F8013BFAE720
:100B400010F8013BCB1A921C03E013F8015B01F88B
:100B5000015B521EF9D5A142D8D3002070BD21B14E
:100B6000826842F00102826003E0826822F00102A2
:100B7000826070470021084A1168084A1140D0E994
:100B800000231A4383681A43C3681A431143044A73
:100B9000C2F804137047000004230140E030FCFF5A
:100BA0000020014030B50246002000235068104C60
:100BB00020400D790C6844EA052420435060906879
:100BC0000C4C2040D1E903542C438D682C434D79C3
:100BD00044EA450420439060D06A20F470000C7D04
:100BE000641EE4B2234340EA0350D06230BD0000EB
:100BF000FFFEFFFCFDF7FFC000B58DB00121042012
:100C000003F01EFA0121080203F04AFA02200B90B9
:100C100003208DF8300000208DF833000BA9154813
:100C200002F056FD0121080203F04AFA00214FF4B8
:100C3000807003F045FA002007900A9009904FF465
:100C40008030089007A8FFF795FF002001908DF8ED
:100C500008008DF809000390059001208DF8180018
:100C600001A90548FFF79EFF01210348FFF777FF21
:100C70000DB000BD000802400020014008B54FF44F
:100C8000407003F063F8A82005F012FD4FF4FA60FD
:100C900005F030FD532144F61F6003F045FE4FF48C
:100CA000E13001F0ABFC4FF4612001F01DFD02F0DA
:100CB00085FF02F065FF08F085F800200323082275
:100CC0001946009000F066F9002003230822194617
:100CD000009000F01BFBFFF78FFF42F2CF0147F2BD
:100CE0002F5003F0DBFD08BD00BFFEE710B5022169
:100CF000064800F0D1FC38B1054A0021034800F055
:100D0000EEFD034800F006F810BD0000006400404E
:100D1000CC06002010B504462068B0F5017F14D041
:100D200007DCA0F2012068B101280CD002287DD197
:100D30000AE0A0F20520002879D0012878D0FB280D
:100D4000F5D100E100BF00BF00BF2078401E8949F7
:100D500008700846007800EB8000874931F82000D1
:100D60008449097801EB8101834A02EB8101B1F9E1
:100D70000810401AB0F5805F10DD7E48007800EB67
:100D80008000114601EB8000C068401E7949097857
:100D900001EB810102EB8101C86023E07548007816
:100DA00000EB8000744931F820007249097801EBAA
:100DB0008101714A02EB8101B1F90810401A10F566
:100DC000805F0FDA6B48007800EB8000114601EB82
:100DD0008000C068401C6749097801EB810102EB83
:100DE0008101C8606348007800EB8000624931F8F7
:100DF000200000B25F49097801EB81015E4A02EBF5
:100E000081010881207BE17A40EA01205949097873
:100E100001EB810122F82100A17B607B41EA0020E7
:100E200000B25449097801EB810102E09EE067E0DD
:100E300044E002EB81014880217CE07B41EA002014
:100E400000B24C49097801EB810102EB81018880F5
:100E5000607C4849097801EB810102EB81018871CE
:100E60004448007800EB8000114631F820104148DA
:100E7000007800EB800002EB8000C06801EB40309E
:100E80003C49097801EB810102EB81010861394A93
:100E9000127802EB8202384B03EB8201354A12785A
:100EA00002EB8202354B03EBC20001F01BFD31491E
:100EB0000978891DC8B201F04FFA58E0304800881F
:100EC00000B22F490881207BE17A40EA01202C49B9
:100ED0000880A17B607B41EA002000B2284948805D
:100EE000217CE07B41EA002000B225498880607CBB
:100EF0008871244801F03CFD032001F02DFA36E012
:100F00002148008800B220490881207BE17A40EA2C
:100F100001201D490880A17B607B41EA002000B2CE
:100F200019494880217CE07B41EA002000B2164943
:100F30008880607C88711249144801F019FD0420F2
:100F400001F00AFA13E0E17A207B41EA002010491F
:100F50000880617BA07B41EA00200D494880E17B4D
:100F6000207C41EA00200A49888000BF00BF00BF02
:100F700010BD00006300002000050020A005002037
:100F80009C04002068060020B004002040060020D9
:100F9000560000202DE9F0418AB004460D46164661
:100FA0001F46DDF840800121084603F049F8012181
:100FB000480603F055F80121480603F061F80021C6
:100FC0004FF0007003F05CF84FF4C050089002201E
:100FD0008DF8240000208DF8260003208DF82500D0
:100FE00001208DF8270008A9314802F071FB092281
:100FF0000B212F4802F0B4FB09220C212C4802F0EF
:10100000AFFB00208DF81A0001208DF81B00002096
:101010008DF81C0001208DF81D0000208DF81E00A9
:101020008DF81F008DF816808DF817408DF8186028
:101030008DF81950ADF8147005A91E4800F0C5FBD5
:1010400000208DF80E008DF80F0001208DF81000A3
:101050000020ADF80400ADF80600ADF80800ADF8CA
:101060000A00ADF80C0001208DF8110001A800F075
:101070008FFA012202210F4800F09EFB00224FF45C
:1010800000410C4800F098FB14208DF8000004206B
:101090008DF8010000208DF8020001208DF803007A
:1010A000684602F017FE00200AB0BDE8F08100009B
:1010B000000002400064004010B51021064800F016
:1010C000EBFA38B1054A0121034800F008FC034857
:1010D00000F006F810BD000000680040E0060020A7
:1010E00010B504462068A0F2012020B1012848D0A4
:1010F000022870D146E0804800887F49B1F9081085
:10110000401AB0F5805F05DD7B48C068401E7A4913
:10111000C8600DE0784800887749B1F90810401A96
:1011200010F5805F04DA7448C068401C7249C860DA
:101130007148008800B270490881207BE17A40EA5A
:1011400001206D490880A17B607B41EA002000B24C
:1011500069494880217CE07B41EA002000B2664971
:101160008880607C887108460188C06801EB403047
:1011700061490861614801F0B5FB052001F0ECF818
:10118000B7E000BF2078801E5D49087008460078EF
:1011900000EB80005B4931F820005949097801EBE8
:1011A0008101584A02EB8101B1F90810401AB0F5EB
:1011B000805F11DD5248007800EB8000114601EBA2
:1011C0008000C068401E4E49097801EB810102EBA6
:1011D0008101C86024E08BE04948007800EB800082
:1011E000484931F820004649097801EB8101454A18
:1011F00002EB8101B1F90810401A10F5805F0FDA97
:101200003F48007800EB8000114601EB8000C06889
:10121000401C3B49097801EB810102EB8101C86068
:101220003748007800EB8000364931F8200000B2E2
:101230003349097801EB8101324A02EB81010881CF
:10124000207BE17A40EA01202D49097801EB8101F8
:1012500022F82100A17B607B41EA002000B22849EE
:10126000097801EB810102EB81014880217CE07B60
:1012700041EA002000B22249097801EB810102EB2A
:1012800081018880607C1E49097801EB810102EBB5
:10129000810188711A48007800EB8000114631F80E
:1012A00020101748007800EB800002EB8000C06837
:1012B00001EB40301249097801EB810102EB810119
:1012C00008610F4A127802EB82020E4B03EB820197
:1012D0000B4A127802EB82020B4B03EBC20001F0C7
:1012E00001FB074909780A31C8B201F035F800E07E
:1012F00000BF00BF10BD0000C40400209006002005
:1013000062000020D8040020500500202DE9F041A3
:101310008AB004460D4616461F46DDF8408001217E
:10132000022002F08DFE0121880602F099FE0121C3
:10133000880602F0A5FE00214FF0806002F0A0FEBA
:101340006020089002208DF8240000208DF82600EF
:1013500003208DF8250001208DF8270008A93248C8
:1013600002F0B6F9092205212F4802F0F9F9092205
:1013700006212D4802F0F4F900208DF81A00012012
:101380008DF81B0000208DF81C0001208DF81D0039
:1013900000208DF81E008DF81F008DF816808DF846
:1013A00017408DF818608DF81950ADF8147005A924
:1013B0001E4800F00AFA0E208DF80E0000208DF86D
:1013C0000F0001208DF810000020ADF80400ADF8EA
:1013D0000600ADF80800ADF80A000120ADF80C00D9
:1013E0008DF8110001A800F0D3F8012210210F4858
:1013F00000F0E2F900224FF400410D4800F0DCF962
:1014000041208DF8000003208DF8010000208DF8A8
:10141000020001208DF80300684602F05BFC00200A
:101420000AB0BDE8F08100000004024000680040FE
:1014300000640040F0B585B004460D4616461F46D0
:101440004FF40070009000208DF808008DF809001E
:1014500008208DF80A00200A8DF80B00E1B28DF803
:101460000C10290A8DF80D10E9B28DF80E10310A12
:101470008DF80F10F1B28DF81010390A8DF8111097
:10148000F9B28DF812106946024800F0A0FA05B0D2
:10149000F0BD0000006400402DE9F04104460D4617
:1014A00016461F4640F2FF100C49086000200872E3
:1014B000487208208872200AC87208460473290AF4
:1014C00041738573310AC1730674390A4174877494
:1014D0000146034800F07BFABDE8F081B806002021
:1014E0000064004070B586B004460D4616461049AB
:1014F0000C804D800846868040F22220019000201A
:101500008DF80C008DF80D0008208DF80E000020DD
:1015100005E007490A5C0DF10F010A54401C06283A
:10152000F7D301A9034800F052FA06B070BD0000DD
:101530005C0000200064004070B586B004460D4693
:1015400016464FF40070019000208DF80C008DF8C5
:101550000D0008208DF80E00200A8DF80F008DF880
:101560001040290A8DF811108DF81250310A8DF8AB
:1015700013108DF8146000218DF815108DF81610D9
:1015800001A9024800F023FA06B070BD00680040CF
:1015900010B50021837A012202FA03F13D4A126854
:1015A00042F001023B4B1A603A4A1C3212688A43ED
:1015B000384B1C331A60027BCAB9364A0C321268A7
:1015C0008A43344B0C331A604288C38842EA03438F
:1015D000304A4032847A42F834300288838842EAC2
:1015E00003432C4A4032847A02EBC4025360027BEC
:1015F000012A19D1274A0C3212680A43254B0C33B1
:101600001A604288038842EA0343224A4032847ABD
:1016100042F83430C288838842EA03431D4A40328C
:10162000847A02EBC4025360C27A3AB9194A121D95
:1016300012688A43174B1B1D1A6006E0154A121DDB
:1016400012680A43134B1B1D1A60028932B9114AF2
:10165000143212688A430F4B14331A600289012A2C
:1016600006D10C4A143212680A430A4B14331A602A
:10167000427B012A06D1074A1C3212680A43054BF5
:101680001C331A60034A126822F00102014B1A60EF
:1016900010BD00000066004070B504460D460026EF
:1016A00060692840002871D0B5F5807F5CD010DCDF
:1016B000082D35D006DC012D20D0022D24D0042D9C
:1016C00072D127E0102D31D0202D35D0402D6BD197
:1016D00038E0B5F5004F60D009DCB5F5007F49D0A2
:1016E000B5F5806F4CD0B5F5006F5DD14FE0B5F525
:1016F000803F2DD0B5F5003F56D12FE0A0682D4991
:1017000000F04EFC064651E0E068032100F048FC82
:1017100006464BE0E068082100F042FC064645E042
:10172000E068102100F03CFC06463FE02069032100
:1017300000F036FC064639E02069082100F030FC54
:10174000064633E02069102100F02AFC06462DE011
:101750006068082100F024FC064627E0606810213C
:1017600000F01EFC064621E0A069012100F018FCF3
:1017700006461BE0A069022100F012FC064615E0B7
:10178000A069042100F00CFC06460FE00FE0A06900
:10179000702100F005FC064608E06068042100F0B6
:1017A000FFFB064602E0FFE7002600BF00E0002640
:1017B000304670BD010101001AB143690B4343611A
:1017C00002E043698B434361704730B50246002015
:1017D0000023146824F002041460146844F0010427
:1017E000146000E05B1C546804F001041CB94FF65F
:1017F000FF74A342F6D1546804F001040CB9002030
:101800006CE08C79012C04D1146844F080041460DD
:1018100003E0146824F080041460CC79012C04D116
:10182000146844F04004146003E0146824F0400499
:1018300014600C7A012C04D1146844F02004146064
:1018400003E0146824F0200414604C7A012C04D1C5
:10185000146844F01004146003E0146824F01004C9
:1018600014608C7A012C04D1146844F008041460CC
:1018700003E0146824F008041460CC7A012C04D12D
:10188000146844F00404146003E0146824F00404B1
:1018900014608C78A407CD7844EA05640D7944EA95
:1018A00005444D7944EA05540D886D1E2C43D461DE
:1018B000146824F001041460002300E05B1C5468E9
:1018C00004F001041CB14FF6FF74A342F6D1546832
:1018D00004F001040CB1002000E0012030BD10B57F
:1018E00000F5D87303EB01131B6803F004031372B4
:1018F000137A53B900F5D87303EB01131B6840F258
:10190000FF7404EA5353136009E000F5D87303EB46
:1019100001131B686FF0604404EAD303536000F5C1
:10192000D87303EB01131B6803F00203537200F535
:10193000D87303EB01135B6803F00F03937200F598
:10194000D87303EB01135B681B0AD37400F5D873DB
:1019500003EB01139B68D37200F5D87303EB0113FB
:101960009B681C0A147300F5D87303EB01139B6882
:101970001C0C547300F5D87303EB01139B681B0E0A
:10198000937300F5D87303EB0113DB68D37300F591
:10199000D87303EB0113DB681C0A147400F5D873C9
:1019A00003EB0113DB681C0C547400F5D87303EBD4
:1019B0000113DB681B0E937421B9C36843F0200345
:1019C000C36003E0036943F02003036110BD10B559
:1019D00002460020936803F08063B3F1806F00D16A
:1019E00010E0936803F00063B3F1006F01D10120B0
:1019F00008E0936803F08053B3F1805F01D10220C7
:101A000000E00420042874D002F5C07303EB001337
:101A10001B6803F0010402F5C07303EB00131C60A4
:101A20000B7A7BB94B7A0C8843EA445302F5C074B5
:101A300004EB00142468234302F5C07404EB001483
:101A4000236010E00B7A4C6843EAC4034C7A2343CA
:101A500002F5C07404EB00142468234302F5C0743B
:101A600004EB001423608B7A03F00F038B7202F5F2
:101A7000C07303EB00135B6823F00F0402F5C0731F
:101A800003EB00135C6002F5C07303EB00135B68AB
:101A90008C7A234302F5C07404EB001463608B7BE3
:101AA0001C064B7B44EA03440B7B44EA0323CC7AB9
:101AB000234302F5C07404EB0014A3608B7C1C0666
:101AC0004B7C44EA03440B7C44EA0323CC7B234352
:101AD00002F5C07404EB0014E36002F5C07303EB7D
:101AE00000131B6843F0010402F5C07303EB0013FD
:101AF0001C6010BD2DE9F04FDDE90DC8DDF83C900C
:101B0000DDE90B47DDE909564FF0000A07E011F85F
:101B10000AB0CAF1020E00F80EB00AF1010ABAF1D9
:101B2000030F04DA11F80AB0BBF1000FEFD190F8FF
:101B300003B02BF0380B0BF1380B80F803B090F8A2
:101B400003B062F3020B80F803B0B0F803B063F3A4
:101B5000891BA0F803B090F804B065F3850B80F8FA
:101B600004B0B0F807B067F3090BA0F807B0B0F8FD
:101B700008B06CF38C0BA0F808B0B0F809B068F3AB
:101B80004F1BA0F809B0B0F804B066F38E1BA0F8A4
:101B900004B0B0F805B064F3CF1BA0F805B04FF067
:101BA000000A09E099F800B000F10F0E0EF80AB033
:101BB00009F101090AF1010AA245F3D3BDE8F08F4A
:101BC0000FB430B591B04FF6FF700490302214A9D5
:101BD00005A8FEF757FC02ACA5208DF808003320BD
:101BE000ADF80900334800788DF80B00FF2204217E
:101BF000204601F0F7FD8DF80C0040F20130ADF801
:101C00000D004FF48870ADF800002B48008880B2BA
:101C1000ADF802002948008880B2ADF8040000BF8A
:101C2000BDF810200721204601F0C2FD04906C464B
:101C3000BDF810200621204601F0BAFD049005AC45
:101C4000BDF810202D21204601F0B2FD049002AC19
:101C5000002504E0207803F083F8641C6D1C072D38
:101C6000F8D36C46002504E0207803F079F8641C72
:101C70006D1C062DF8D305AC002504E0207803F098
:101C80006FF8641C6D1C2D2DF8D304AC002504E006
:101C9000207803F065F8641C6D1C022DF8D305480C
:101CA0000078401C03490870002011B030BC5DF87A
:101CB00014FB000060030020640300206803002080
:101CC00070B59FEDAD2AB0EE421A9FEDAB2AF0EE53
:101CD000421A9FEDA92AF0EE420A8169098902EEB3
:101CE000101AB8EE422AF0EE420A002113E000F585
:101CF0000C7202EB810292ED002A00F5107202EBE9
:101D00008102D2ED002A32EE622A9C4A02EB810265
:101D100082ED002A491C0429E9DB984D95ED002A43
:101D2000BDEEC22A12EE105A2CB2002C01DB254661
:101D300000E06542914E96ED012ABDEEC22A12EEF8
:101D4000106A33B2002B01DB1E4600E05E422E44D7
:101D50008A4D95ED022ABDEEC22A12EE105A2AB221
:101D6000002A01DB154600E055422E44834D95EDD7
:101D7000032ABDEEC22A12EE105A29B2002901DB55
:101D80000D4600E04D42354402EE105AB8EEC22A2C
:101D90007B4D85ED002A90ED2D2ABDEEC22A12EE74
:101DA000105A2CB2002C01DB264600E0664290ED72
:101DB0003F2ABDEEC22A12EE105A2BB2002B01DBD5
:101DC0001D4600E05D422E4490ED512ABDEEC22A30
:101DD00012EE105A2AB2002A01DB154600E05542E5
:101DE0002E4490ED632ABDEEC22A12EE105A29B29B
:101DF000002901DB0D4600E04D42354402EE105A49
:101E0000B8EEC22AF0EE421A416AC97CC1F3401111
:101E1000F1B35C490988491C09B25A4A118011463C
:101E2000B1F9001064293ADD002136E001EBC1036D
:101E300000F1940202EBC30292ED082ADFED522A70
:101E4000B4EEE22AF1EE10FA0AD89FED4F2A01EB28
:101E5000C10300F1940202EBC30282ED082A1AE0EA
:101E600001EBC10300F1940202EBC30292ED082AD8
:101E7000DFED462AB4EEE22AF1EE10FA0BDB9FED1D
:101E8000432A01EBC10300F1940202EBC30200E01C
:101E900005E082ED082A4A1CD1B20429C6DB416A5A
:101EA000C97CC1F34011E9BB0021364A11809FED86
:101EB000382AF4EEC20AF1EE10FA10D29FED342A5D
:101EC000C0EE822A22EEA22AB0EE421A9FED312AFB
:101ED00021EE022AF1EE002A22EE220A01E09FED15
:101EE0002E0AF4EEC01AF1EE10FA31DD2349D1EDDD
:101EF000002A234991ED003A82EE832A22EE002A3D
:101F000080ED2D2A1D49D1ED012A1D4991ED003AA0
:101F100082EE832A22EE002A80ED3F2A1749D1ED76
:101F2000022A00E026E0164991ED003A82EE832A6B
:101F300022EE002A80ED512A1049D1ED032A1049E2
:101F400091ED003A82EE832A22EE002A80ED632A88
:101F500000210DE001EBC10300F1940202EBC3028A
:101F600092ED082A0D4A02EB810282ED002A491CFB
:101F70000429EFDB70BD000000000000E0AD01208F
:101F8000100400202404002000803BC500803B4555
:101F90000000704200401C4600401C47F0AD01208C
:101FA0000246002002EA01030BB1012000E00020FC
:101FB000704700000246094B9A4201D2084801E0EE
:101FC0000648103801F000531BB1064B0B40C360AC
:101FD00002E0044B0B408360704700001064024035
:101FE000006002407D0F7D0F0246094B9A4201D2EC
:101FF000084801E00648103801F000531BB1064BB9
:102000000B40C36002E0044B0B408360704700004C
:1020100010640240006002407D0F7D0F21B1026814
:1020200042F00102026003E0026822F00102026055
:1020300070470000016821F001010160002101608A
:1020400041608160C1600161212141614A4988424A
:1020500004D13D21484A103A91608CE0464918313C
:10206000884205D14FF47461434A103A916082E08E
:1020700041493031884205D14FF474113E4A103A3B
:10208000916078E03C494831884205D14FF0746155
:10209000394A103A91606EE037496031884204D184
:1020A0003649354A103AD16065E033497831884283
:1020B00004D13349304A103AD1605CE02E49903166
:1020C000884204D12F492C4A103AD16053E02A4962
:1020D000A831884205D14FF03D51274A103AD160CE
:1020E00049E02949884204D13D21274A083A116034
:1020F00041E025491831884205D14FF47461224AE4
:10210000083A116037E020493031884205D14FF458
:1021100074111D4A083A11602DE01B49483188426C
:1021200005D14FF07461184A083A116023E016494E
:102130006031884204D11149134A121F11601AE01C
:1021400011497831884204D10D490F4A121F11609C
:1021500011E00D499031884204D10A490A4A121F00
:10216000116008E00849A831884204D14FF03D5180
:10217000054A121F11607047106002403D000020A8
:10218000400F002000003D201064024021B1026891
:1021900042F48022026003E0026822F4802202609E
:1021A000704722B1036843F40023036003E003682F
:1021B00023F400230360016170470146486880B240
:1021C0007047014600200A6802F400220AB101208B
:1021D00000E000207047000010B500220268134B99
:1021E0001A40CC680B6823434C6923438C69234312
:1021F000CC6923430C6A23434C6A23438C6A2343F0
:102200004C6B23438C6B23431A430260426922F0D8
:102210000702D1E90B3423431A4342610B6943603F
:102220004B6883608B68C36010BD00003F801CF06A
:10223000416070470021016041608160C1600161BF
:1022400041618161C161016241628162C162016378
:10225000416381637047704710B5002038490870AA
:1022600069E03848007800EBC000374901EB800096
:10227000C07CC0F3401028B14FF40061334801F036
:1022800092FA04E04FF40061304801F08EFA2D48D4
:102290000078401C00EBC0002B4901EB8000C07CA3
:1022A000C0F3401028B14FF48051284801F07BFA68
:1022B00004E04FF48051254801F077FA2148007876
:1022C000801C00EBC000204901EB8000C07CC0F303
:1022D000401020B104211E4801F065FA03E00421FA
:1022E0001B4801F062FA1B480068401C194908604D
:1022F00008460068B0F5807F0CDD4FF4806113481C
:1023000001F051FA0F480078C01C0E4908700020F7
:10231000104908600B4800780C2807D14FF4806101
:102320000A4801F042FA0020064908700448007883
:10233000401C0349087002480078032891DB10BD57
:10234000C9020020D0020020101000200008024026
:10235000000C0240CC02002010B5044604EBC4007F
:10236000454901EB8000006804EBC401424A02EBDE
:102370008101486009F000FB04EBC4013E4A02EB16
:102380008101086004EBC400114601EB8000C07CB1
:10239000C0F38010B0B104EBC40001EB8000C07C3E
:1023A00020F0400004EBC40102EB8101C87404EB8F
:1023B000C400114601EB8000006804EBC40102EB8D
:1023C0008101C86004EBC4002B4901EB80008069E7
:1023D00090B304EBC401284A02EB8101886980476D
:1023E00058B304EBC400244901EB8000C07C20F00A
:1023F0002000203004EBC4011F4A02EB8101C874A5
:1024000004EBC400114601EB8000C07C20F080008A
:10241000803004EBC40102EB8101C87404EBC400FA
:10242000114601EB8000006A28B304EBC40102EB03
:102430008101086A80471EE00FE0FFE704EBC4005B
:102440000D4901EB8000C07C20F0800004EBC4014A
:10245000094A02EB8101C8740DE004EBC40006498F
:1024600001EB8000C07C20F0800004EBC401024A34
:1024700002EB8101C87410BD1010002010B592B09D
:102480000446482258496846FDF7FCFF00209EE0BC
:1024900000EB40013DF8112000EBC001534B03EB72
:1024A0008101098A62F30B0100EBC00203EB820297
:1024B000118200EB40016A4602EB41014A8800EBC1
:1024C000C00103EB8101B1F8111062F30F1100EBB1
:1024D000C00203EB8202A2F8111000EB40016A4631
:1024E00002EB4101097900EBC00203EB8202D27CCE
:1024F00061F3440200EBC00103EB8101CA740021C7
:1025000000EBC00203EB8202916100EBC00203EB1F
:102510008202D16100EBC00203EB8202116200EB88
:10252000C0011A4602EB8101C97C21F00101491C5E
:1025300000EBC00203EB8202D17400EBC0011A462B
:1025400002EB8101C97C21F02001203100EBC002A7
:1025500003EB8202D17400EBC0011A4602EB810149
:10256000C97C21F04001403100EBC00203EB820244
:10257000D17400EBC0011A4602EB8101C97C21F045
:102580008001803100EBC00203EB8202D1749FED29
:10259000180A10EE101A00EBC00203EB8202516120
:1025A00000EBC0011A4602EB81010C6000EBC00198
:1025B00002EB81014C6000EBC00102EB81018C60F9
:1025C00000EBC00102EB8101CC60411CC8B20C28B9
:1025D000FFF65EAF074905480166002141660649DE
:1025E000816612B010BD000020BF0008101000204E
:1025F00000000000DD4300081598000810B588B001
:1026000004460121084601F01BFD0121102001F0C4
:1026100047FD07220921304801F0A2F807220A21CC
:102620002D4801F09DF84FF40070029002208DF8C3
:102630000C0000208DF80E0003208DF80D00012005
:102640008DF80F0002A9244801F042F84FF4806091
:10265000029002A9204801F03BF804940020ADF854
:102660001400ADF81600ADF818000C20ADF81A00F3
:102670000020ADF81C0004A9184802F0E9FD012172
:10268000164802F0FBFC012240F22551134802F0EB
:10269000BAFD002201212D2008F0FEFD104908603E
:1026A000002201212D2008F0F7FD0E4908600121CC
:1026B0000A4802F0E3FC25208DF8040009208DF87B
:1026C000050000208DF8060001208DF8070001A804
:1026D00001F000FB08B010BD0000024000100140F6
:1026E000740300207803002010B598B0044612A8A7
:1026F00002F021FE10A802F0BBFC0121202001F015
:10270000CFFC0121042001F09BFC0121202001F0DD
:10271000C7FC0121042001F093FC0121880501F090
:102720008FFC08220621684801F01AF808220721C8
:10273000654801F015F8C020169002208DF85C0065
:1027400000208DF85D008DF85E0001208DF85F009F
:1027500016A95D4800F0BCFF12940020ADF84C00B3
:10276000ADF84E00ADF85000ADF854000C20ADF8B7
:10277000520012A9554802F06BFD0121880501F0B5
:102780005FFC01224021514802F084FC012280219B
:102790004E4802F07FFC4E48FFF74CFC01A8FFF7C3
:1027A00049FD4FF0206001904848001D02904948C3
:1027B0000390002004901E200590002006904FF406
:1027C000806007900020089009900A904FF48030B4
:1027D0000B9000200C900D900E900F9001A93C489A
:1027E000FFF7FAFC3A489030FFF724FC01A8FFF706
:1027F00021FD4FF0206001903448001D02903648C2
:1028000003904020049001200590002006904FF492
:10281000806007900020089009904FF480700A9023
:1028200040020B9000200C900D900E900F9001A98B
:1028300027489030FFF7D0FC002226491E3124485B
:10284000FFF7AFFC01212248FFF7A0FC012240F274
:1028500024411E4802F0D7FC0020ADF84000ADF83E
:1028600042004FF40070ADF844000020ADF846007F
:1028700010A9164802F0ECFB47208DF80000082054
:102880008DF8010000208DF8020001208DF8030072
:10289000684601F01FFA00223421322008F0FCFCC7
:1028A0000E49086000223421322008F0F5FC0C4962
:1028B00008600121054802F0E1FB01210448FFF70F
:1028C000ADFB18B010BD000000080240001401402C
:1028D00028640240C7160020BD1600208003002097
:1028E0008403002030B500230A88B1F90840121B88
:1028F00002601E4C0268A24207DA4268521C426023
:10290000026802F5005282600EE041F6641402682B
:10291000A24207DD4268521E42600268A2F50052E0
:10292000826001E00268826050F8084F057E6A1CF0
:102930000276083800F10C0242F8254090F8202079
:10294000052A02D1002280F82020002206E000F1B2
:102950000C0454F822402344541CE2B2052AF6DB4E
:10296000052293FBF2F2426230BD00009CE6FFFFBD
:1029700030B500230A88B1F90840121B02600268D2
:1029800012F5805F07DA4268521C4260026802F565
:10299000005282600DE00268B2F5805F07DD426898
:1029A000521E42600268A2F50052826001E0026895
:1029B000826050F8084F057E6A1C0276083800F1E4
:1029C0000C0242F8254090F82020052A02D100226E
:1029D00080F82020002206E000F10C0454F8224088
:1029E0002344541CE2B2052AF6DB052293FBF2F2E3
:1029F000426230BD10B5044694F8F4010D2852D25D
:102A0000DFE800F007101951232C35515151513E88
:102A10004700002184F8981184F8A810204605F09A
:102A2000D3F844E0002184F8981184F8A8102046D7
:102A300004F032F93BE0002184F89811012184F878
:102A4000A810204604F0A2FC31E0012184F898117E
:102A500084F8A810204604F0EDFE28E0012184F857
:102A6000981184F8A810204604F08EFD1FE0012183
:102A700084F8981184F8A810204604F0E1F916E0D3
:102A8000002184F8981184F8A810204604F0D8F9A1
:102A90000DE0002184F89811012184F8A810204647
:102AA00005F00AF803E0204604F0F6F800BF00BF86
:102AB00010BD000010B5044604B910BDA048007850
:102AC00090B194ED2D0AF2EE040A30EE600A9D48B2
:102AD00080ED000A94ED2D0AF2EE040A30EE200A91
:102AE000994880ED000A11E094ED2C0AF2EE0E0AEE
:102AF00030EE600A934880ED000A94ED2C0AF2EE65
:102B00000E0A30EE200A904880ED000A2168B1F9E3
:102B10000C002D22514205F05DF82168B1F90E003C
:102B20002D22514205F056F8606890ED030AF7EE49
:102B3000000A20EE200A84ED690A6068B0F90000FE
:102B400000EE100AB8EEC00A84ED6A0AB4F89C21BF
:102B500011B2D4F80421128810B204F033F800EE58
:102B6000100AB8EEC00A7948D0ED000A20EE200A1B
:102B700084ED680A94ED680A754880ED000A606883
:102B800090ED040AB1EE400A84ED2D0A6068B0F9B8
:102B9000040000EE100AB8EEC00A84ED2E0AB4F864
:102BA000AC2011B26269128810B204F00BF800EE8A
:102BB000100AB8EEC00A6748D0ED000A20EE200ADD
:102BC00084ED2C0A94ED2D0AD4ED2D0AB3EE0E1AE5
:102BD00070EEC10AB4EEE00AF1EE10FA08D894EDF6
:102BE0002D0AF3EE0E0A30EE600A84ED2D0A14E091
:102BF00094ED2D0AD4ED2D0AB3EE0E1A70EE810A73
:102C0000B4EEE00AF1EE10FA07DB94ED2D0AF3EED4
:102C10000E0A30EE200A84ED2D0A94ED2D0A4E485E
:102C200080ED000AA068D0F80100C4F80002A06896
:102C3000D0F80500C4F804022068B0F90E0000EED8
:102C4000900AF8EEE00AB0EE600A9FED441ADFED5C
:102C5000440A03F0C9FE2068B0F9060000EE900AAD
:102C6000F8EEE00A9FED3F1A60EE810A9FED3E1AF2
:102C700040EE410A94ED7E0AB7EE001A01EE200AFA
:102C800084ED7E0A2068B0F90C0000EE900AF8EEA0
:102C9000E00AB0EE600A9FED311ADFED310A03F071
:102CA000A3FEDFED320A20EE200A2068B0F904000E
:102CB00000EE900AF8EEE00A9FED2D1A00EE810A70
:102CC000D4ED7F0A30EEC00A84ED7F0A94ED7E0ACF
:102CD000FBEE090AB4EEE00AF1EE10FA04D8BBEEFE
:102CE000090A84ED7E0A0CE094ED7E0AF3EE040AF4
:102CF000B4EEE00AF1EE10FA03DBB3EE040A84ED61
:102D00007E0A94ED7F0A0F48D0ED000AB4EEE00A87
:102D1000F1EE10FA04D890ED000A84ED7F0A0DE080
:102D200094ED7F0A0848D0ED000AB4EEE00AF1EE17
:102D300010FA03DB90ED000A84ED7F0A00BFBCE6C9
:102D40007800002040020020440200204C020020B5
:102D50006C0000204802002068000020000034427F
:102D6000000034C252499D394260653BBC74933BBC
:102D70003480B73910B5044603F0CCFE606003F030
:102D8000E5FE606103F0D2FEC4F8040103F0CAFE60
:102D9000A06103F0D7FE4FF484710851F3EE040AEA
:102DA0009FED420A04F5E27000F086FEF2EE0E0A94
:102DB0009FED3E0A04F1D40000F07EFEDFED3C0AF8
:102DC000B7EE000A3B4800F077FEDFED390AB7EEB8
:102DD000000A394800F070FE384B0222114638488C
:102DE000FDF7C2FA354B1033022211463448083041
:102DF000FDF7BAFA3149943931484C3804F092FF62
:102E0000DFED2A0AB7EE000A2E4800F055FEDFED8E
:102E1000270AB7EE000A2C4800F04EFE03F0F0FE41
:102E2000206003F07BFEA06003F040FEE06003F052
:102E3000BDFE2061002084F8F40141F2D151234805
:102E4000A0F89C111621A0F8AC109FED212ADFED0F
:102E5000201AB3EE001ADFED1F0A9FED1E0A04F1DF
:102E6000640000F0BBFBDFED1C0A9FED1C0A1C4A4E
:102E7000002104F11C0001F077F89FED152ADFED29
:102E8000191AB2EE0E1ADFED130A9FED120A04F5BD
:102E9000AA7000F0A3FBDFED100A9FED100A124AA2
:102EA000002104F5867001F05FF810BD0000484273
:102EB000000070422C0A00205C0A00201C01002047
:102EC000D80A00209C090020CC090020840700209B
:102ED0000000000000007A4400A08C46005EEA4634
:102EE000B4BE00080AD7233CA8BE000810B52DEDDB
:102EF000048B044614B9BDEC048B10BD94F8F501A5
:102F000040B194F8F40128B90021A4F8D010A4F835
:102F1000C011C4E194F8F501012845D094F8F401FA
:102F2000012841D19FEDE11ADFEDE00AE04890ED84
:102F3000000AB8EEC00A04F1640004F0BFFA9FED85
:102F4000DB1ADFEDDA0ADB4890ED000AB8EEC00AC2
:102F500004F11C0005F0C4F89FEDD41AD648D0ED5A
:102F6000000AD64890ED000AB8EEC00A04F5AA702F
:102F700004F0A4FA9FEDCD1ADFEDCC0AD04890ED15
:102F8000000AB8EEC00A04F5867005F0A9F894EDC1
:102F9000690A84ED7E0A94ED2D0A84ED7F0A9FED87
:102FA000C30A84ED310A7AE194F8F50102287CD055
:102FB00094F8F40102287ED1C24890ED000B51EC48
:102FC000100BFDF74FFC08EE100ABF4890ED000B08
:102FD00051EC100BFDF746FC08EE900ABB4890ED53
:102FE000000B51EC100BFDF73DFC09EE100AB0EEA2
:102FF000481AF0EE680AB0EE490A04F1640004F0E1
:103000005DFAB34890ED000B51EC100BFDF72AFC74
:1030100008EE100A9FEDA51ADFEDA40AB0EE480AEB
:1030200004F11C0005F05CF8AA4890ED000B51EC8F
:10303000100BFDF717FC08EE100AA74890ED000BE7
:1030400051EC100BFDF70EFC08EE900AA34890ED32
:10305000000B51EC100BFDF705FC09EE100AB0EE69
:10306000481AF0EE680AB0EE490A04F5AA7004F0B6
:1030700025FA9B4890ED000B51EC100BFDF7F2FB8D
:1030800008EE100A9FED891ADFED880AB0EE480AB3
:1030900004F5867005F024F894ED690A84ED7E0A43
:1030A00094ED2D0A84ED7F0A00E004E09FED7F0A95
:1030B00084ED310AF3E094F8F50104283CD094F84B
:1030C000F401042838D1874890ED001A8648D0EDE5
:1030D000000A864890ED000A04F1640004F0EEF95D
:1030E0009FED721ADFED710A814890ED000A04F13C
:1030F0001C0004F0F5FF7F4890ED001A7E48D0EDEB
:10310000000A7E4890ED000A04F5AA7004F0D6F992
:103110009FED661ADFED650A794890ED000A04F527
:10312000867004F0DDFF94ED690A84ED7E0A94ED6B
:103130002D0A84ED7F0AB2E094F8F501052840D00D
:1031400094F8F40105283CD19FED580A84ED310A2A
:103150006C4890ED001A6C48D0ED000A6B4890ED79
:10316000000A04F1640004F0A9F99FED501ADFEDA4
:103170004F0A674890ED000A04F11C0004F0B0FF0C
:10318000644890ED001A6448D0ED000A634890ED61
:10319000000A04F5AA7004F091F99FED441ADFEDDE
:1031A000430A5F4890ED000A04F5867004F098FF2A
:1031B00094ED690A84ED7E0A94ED2D0A84ED7F0A70
:1031C0006DE094F8F501062840D094F8F401062843
:1031D0003CD19FED360A84ED310A524890ED001A39
:1031E0005148D0ED000A514890ED000A04F1640006
:1031F00004F064F99FED2D1ADFED2C0A4C4890ED98
:10320000000A04F11C0004F06BFF4A4890ED001A1C
:103210004948D0ED000A494890ED000A04F5AA702B
:1032200004F04CF99FED211ADFED200A444890ED9F
:10323000000A04F5867004F053FF94ED690A84EDEA
:103240007E0A94ED2D0A84ED7F0A28E094F8F501BA
:103250000B2810D094F8F4010B280CD19FED130A21
:1032600084ED310A94ED680A84ED7E0A94ED2D0A0E
:1032700084ED7F0A13E094F8F5010C280FD094F840
:10328000F4010C280BD19FED090A84ED310A94ED6D
:10329000690A84ED7E0A94ED2D0A84ED7F0A94F884
:1032A000F40184F8F50100BF25E6000000000000ED
:1032B0003C010020400100204C010020440100207E
:1032C00048010020B0010020A8010020A00100203A
:1032D000B8010020D0010020C8010020C00100205A
:1032E000D8010020E8010020E4010020E0010020D6
:1032F000EC010020F8010020F4010020F001002082
:10330000FC0100200802002004020020000200202E
:103310000C020020180200201402002010020020DD
:103320001C0200202802002024020020200200208D
:103330002C0200203802002034020020300200203D
:103340003C0200200FB42DED040B10B52DED0C8BBD
:103350000446F0EE408AB0EE609AB0EE418A9FEDEE
:103360009D0AB0EE40AA34B99FED9B0ABDEC0C8BD0
:1033700010BC5DF824FBC4ED068A84ED059A94ED3B
:10338000080A84ED090A94ED070A84ED080A39EE6B
:10339000680AF0EE409AB0EE690A13A800F0ACFBA0
:1033A000F0EE409AC4ED079A94F84400C0B994ED49
:1033B000000AD4ED070A20EE200A84ED0D0A94EDF0
:1033C0000E0AD4ED010A94ED071A00EE810A84ED8D
:1033D0000E0A94ED020A20EE080A84ED0F0AB2E00C
:1033E00094F84400012840D194ED030A10EE101A1D
:1033F0000846FDF7F3F941EC1B0B94ED070A10EEBC
:10340000101A0846FDF7EAF941EC1D0BB0EE4D0A23
:10341000F0EE6D0A01F0C2FFB0EE40CAF0EE60CAF5
:1034200053EC1B2B51EC1C0BFDF704FA04D89FED59
:103430006A0A84ED0E0A09E094ED0E0AD4ED010A41
:1034400094ED071A00EE810A84ED0E0A94ED000A4D
:10345000D4ED070A20EE200A84ED0D0A94ED020A4D
:1034600020EE080A84ED0F0A6DE094F8440002286B
:1034700026D194ED000AD4ED070A20EE200A84ED4F
:103480000D0A94ED070AD4ED080A30EE200AB0EEDA
:10349000001AC0EE010A94ED0E0A94ED011A01EE35
:1034A000200A84ED0E0A94ED070AD4ED080A30EEE6
:1034B000600AD4ED020A20EE200A84ED0F0A42E0F1
:1034C00094F84400032826D194ED0A0AD4ED070AA3
:1034D00000EE8A0A84ED0A0A94ED000AD4ED070A88
:1034E00020EE200A84ED0D0A94ED010AD4ED0A0ABB
:1034F00020EE200A84ED0E0A94ED070AD4ED080AA6
:1035000030EE600AD4ED020A20EE200AC0EE0A0A6C
:10351000C4ED0F0A17E094ED000AD4ED070A20EE7F
:10352000200A84ED0D0A94ED0E0AD4ED010A94ED03
:10353000071A00EE810A84ED0E0A94ED020A20EECD
:10354000080A84ED0F0A94ED040A10EE101A0846DA
:10355000FDF744F941EC1B0B94ED070A10EE101A2D
:103560000846FDF73BF941EC1D0BB0EE4D0AF0EEBD
:103570006D0A01F013FFB0EE40CAF0EE60CA53ECE2
:103580001B2B51EC1C0BFDF73DF903D89FED120AE4
:1035900084ED070AD4ED0C0AB0EE600A04F138009D
:1035A00002F060FB94ED0D0AD4ED0E0A30EE200A15
:1035B000D4ED0F0A30EE200A84ED100AD4ED0B0A88
:1035C000B0EE600A04F1400002F04CFB94ED100AEA
:1035D000CCE60000A69B443B0000000000B9704709
:1035E00080ED001AC0ED011A80ED022AF7EE082ADC
:1035F000C0ED032ADFED0A2AC0ED042ADFED082A18
:10360000C0ED092AC0ED082AC0ED072ADFED042A23
:10361000C0ED062AC0ED0C0A80ED0B0A00BFDEE704
:1036200000000000322007F0E9FA2448FFF7A2FB6F
:10363000012007F0E3FA3FE02149204803F05AFD5A
:103640001F491E4803F04EFB1C48FFF733FA1B4886
:10365000FFF7D0F91948FFF749FC1848B0F8D00037
:10366000184908801548B0F8C001174908800320A0
:1036700006F0A6F918B1042006F0A2F9A0B90F4887
:1036800090F8F40130B900231A4619461846FDF7A0
:1036900003FF09E000231A460A48B0F900100A485F
:1036A000B0F90000FDF7F8FE012007F0A7FA0020AE
:1036B00007F0E6F805490860BEE70000840700202F
:1036C0004400002074000020760000207C000020D0
:1036D000F0B50A4600210023002400BF3DE001258B
:1036E00005FA01F3156805EA03049C4234D1056824
:1036F0004F000326BE40B543056015794E00B54026
:103700000668354305601579012D02D01579022D23
:1037100016D185684F000326BE40B54385605579B4
:103720004E00B540866835438560456801268E4069
:10373000B5434560456896798E40B6B235434560DD
:10374000C5684F000326BE40B543C560D5794E001D
:10375000B540C6683543C560491C1029BFD3F0BDCC
:10376000F0B5002300244D07ED0E02FA05F3CE104C
:1037700000F1200555F826504E07F70E0F26BE40E3
:10378000B543CF1000F1200646F82750CE1000F1C7
:10379000200555F8265045EA0304CE1000F1200517
:1037A00045F82640F0BD4183704701837047000013
:1037B00030B5034613B94FF6FF7030BD09E013F87A
:1037C000014B82EA0400C0B2054D35F8100080EAD2
:1037D0002222081EA1F10101F1D11046EDE70000FF
:1037E0006CC3000830B5034605E013F8010B80EA0E
:1037F00002040448025D081EA1F10101F5D1104642
:1038000030BD00006BC2000814E0012080F3138873
:1038100000BF00BFBFF34F8F0748006800F4E060AF
:1038200006490843001D04490860BFF34F8F00BFDD
:1038300000BFFEE7E9E700000CED00E00000FA053C
:1038400010B5044603F0B2F96060606800780328A0
:1038500005D11C49086040F203101B4908606068EC
:103860000078042805D1174908604FF48270164982
:10387000086060680078052805D11249086040F2A8
:1038800005101149086060680078672805D10D4966
:10389000086040F267100C4908606068007868288A
:1038A00005D1084908604FF4B470074908606068A2
:1038B0000078692805D10349086040F2691002497F
:1038C000086010BD640300206803002010B50446A2
:1038D00003F06CF9206003F09BF9606020680078C9
:1038E0000A2803DD00200349487202E00120014953
:1038F000487210BDDC0F00201FE0104890ED000A58
:103900000F4880ED000A0F4890ED000A0C4880ED4A
:10391000010A0D480068807A094988720A48FFF751
:10392000D5FF0749094800F063FE002006F0A8FF14
:1039300007490860052007F061F9DEE7680000200C
:10394000DC0F00206C000020E80F00200014014074
:10395000B402002070B504465CB12546B5F80100FC
:1039600000F10901284607F097FB10B1204604F04A
:1039700039F970BD08B596E000235A1E69464A48D9
:10398000006807F0C3FC4948007858B99DF800006A
:10399000A52807D10120454908709DF80000444939
:1039A00008706FE041480078012807D102203F49A4
:1039B00008709DF800003E49487063E03B4800787D
:1039C000022816D10320394908709DF800003849B3
:1039D000887008464078001D9DF8001040EA0120DC
:1039E000324948800846408864284BDD0020087032
:1039F00048E02E480078032807D104202B4908709E
:103A00009DF800002A49C8703CE028480078042846
:103A100014D10520254908709DF80000244908713B
:103A20000521234807F058FB18B100201F49888062
:103A300028E000201D498880087023E01B4800789A
:103A400005281AD119484088002816DD17484088F3
:103A5000401E164948809DF80020084680888988C5
:103A6000491C124B9980401D11490A541846408840
:103A700040B906201946087004E000200B49087080
:103A80004880888009480078062807D10848FFF751
:103A900061FF00200549087048808880002006F0FA
:103AA000EFFE0449086067E7780300203003002038
:103AB0002E140020380300209FED0E1A80ED001A0E
:103AC0009FED0C1A80ED051A80ED090AC0ED0A0A77
:103AD000B7EE001A80ED071A9FED061A80ED081A5E
:103AE000B7EE001A80ED0B1A90ED001A80ED011A66
:103AF0007047000000000000F0EE400A90ED070A59
:103B000090ED001A20EE010A80ED010A90ED090AFD
:103B100090ED071AD0ED051A01EE210A80ED030A97
:103B200090ED030A90ED0A1A30EE010A90ED031AA7
:103B3000C1EE001AC0ED061A90ED010A90ED061ACA
:103B4000D0ED011A70EEE11A01EE210A80ED020AB1
:103B500090ED060AB7EE001A31EE400A90ED031A16
:103B600020EE010A80ED040A90ED040A80ED050ABA
:103B700090ED020A80ED000A90ED020A7047000005
:103B80001CB50121084600F05BFA042000900120DA
:103B90008DF8040000208DF8060001208DF8070044
:103BA00003208DF8050069460348FFF791FD0421C5
:103BB0000148FFF7FAFD1CBD000002401CB50121C1
:103BC000042000F03DFA0121082000F039FA41F606
:103BD0000440009001208DF8040000208DF80600BC
:103BE00003208DF8050001208DF807006946104874
:103BF000FFF76EFD00208DF8060001208DF807000C
:103C000069460C48FFF764FD4FF480610848FFF7F0
:103C1000CAFD4FF400610648FFF7C5FD4FF480511F
:103C20000348FFF7C0FD04210248FFF7BCFD1CBD9F
:103C300000080240000C02402DE9F04F0C4609AD8F
:103C400095E8E010DDE90D89002106E014F801A0F7
:103C5000C1F1020B00F80BA0491C032904DA14F887
:103C600001A0BAF1000FF1D190F803A062F3020AAB
:103C700080F803A0B0F803A063F3891AA0F803A0AA
:103C800090F804A065F3850A80F804A0B0F807A0B6
:103C900066F3090AA0F807A0B0F808A067F38C0A39
:103CA000A0F808A0B0F809A06CF34F1AA0F809A07A
:103CB000B0F80CA068F38C0AA0F80CA0B0F80DA026
:103CC00069F34F1AA0F80DA0BDE8F08F00BFFEE722
:103CD0007047000070B5002100230F22C4781CB388
:103CE000174C246804F4E064C4F5E064C4F30721CD
:103CF000C1F10404E3B20A4144789C40E1B2847803
:103D0000144021430C07210E0E4C057861550478B0
:103D100004F01F050124AC4005786D11AD0005F1DC
:103D2000E025C5F8004109E0047804F01F050124EE
:103D3000AC40054D0678761145F8264070BD000070
:103D40000CED00E000E400E080E100E00249014306
:103D5000024A1160704700000000FA050CED00E017
:103D6000002003E00021034A1154401CB0F5007FFD
:103D7000F8DB704710AE0120B0EE401A10B99FED8D
:103D8000790A704790ED100A80ED110A90ED0F0A44
:103D900080ED100AC0ED060A80ED071A30EEC10A68
:103DA00080ED0F0A0178002975D190ED010AD0ED60
:103DB0000F1A20EE210A80ED090A90ED0A0AD0EDD3
:103DC000021A90ED0F2A01EE820A80ED0A0A90EDA8
:103DD0000D0A80ED0E0A90ED0C0A80ED0D0A90EDB3
:103DE0000F0AD0ED101A30EE610A80ED0C0A90ED4A
:103DF000030AD0ED0C1A20EE210A80ED0B0A90ED9B
:103E00000A0AD0ED051AB4EEE10AF1EE10FA04DD6B
:103E100090ED050A80ED0A0A10E090ED0A0AD0ED57
:103E2000051AF1EE611AB4EEE10AF1EE10FA05D2CC
:103E300090ED050AB1EE400A80ED0A0A90ED090AFC
:103E4000D0ED0A1A30EE210AD0ED0B1A30EE210A1D
:103E500080ED080A90ED080AD0ED041AB4EEE10AEC
:103E6000F1EE10FA04DD90ED040A80ED080A76E028
:103E700090ED080AD0ED041AF1EE611AB4EEE10AF1
:103E8000F1EE10FA6BD290ED040AB1EE400A80ED2B
:103E9000080A64E0FFE70178012960D190ED0F0A7C
:103EA000D0ED101A30EE610AD0ED011A20EE210A91
:103EB00080ED090A90ED020AD0ED0F1A20EE210ADA
:103EC00080ED0A0A90ED0D0A80ED0E0A90ED0C0AC5
:103ED00080ED0D0A90ED0F0AD0ED101AB0EE002A19
:103EE00002EE610AD0ED111A30EE210A80ED0C0AC3
:103EF00090ED030AD0ED0C1A20EE210A80ED0B0A9A
:103F000090ED090AD0ED0A1A30EE210AD0ED0B1A15
:103F100030EE210AD0ED081A30EE210A80ED080AB1
:103F200090ED080AD0ED041AB4EEE10AF1EE10FAB1
:103F300004DD90ED040A80ED080A10E090ED080A17
:103F4000D0ED041AF1EE611AB4EEE10AF1EE10FAC6
:103F500005D290ED040AB1EE400A80ED080A90ED1A
:103F6000080A0EE70000000000B102B970470170B6
:103F700092ED001A80ED011A92ED011A80ED021AFD
:103F800092ED021A80ED031A80ED040AC0ED050AD5
:103F90009FED0C1A80ED0E1A80ED0D1A80ED0C1AB3
:103FA0009FED081A80ED081A80ED0B1A80ED0A1AB1
:103FB00080ED091A80ED111A80ED101A80ED0F1AAC
:103FC00000BFD3E700000000B0EE402AF0EE411A37
:103FD0009FED1A0AB0EE401A32EE600AB0EE401AB7
:103FE000B5EEC01AF1EE10FA0EDDB4EEE11AF1EE04
:103FF00010FA04DD30EEA10AF0EE400A1BE030EECC
:10400000810AF0EE400A16E0B5EEC01AF1EE10FAA1
:1040100011D8B1EE610AB4EEC01AF1EE10FA06D270
:10402000B1EE610A30EE800AF0EE400A03E030EEB5
:10403000810AF0EE400AB0EE600A7047000000000E
:1040400029B1064A12680243044B1A6004E0034A8D
:1040500012688243014B1A607047000030380240FA
:1040600029B1064A12680243044B1A6004E0034A6D
:1040700012688243014B1A607047000040380240CA
:1040800029B1064A12680243044B1A6004E0034A4D
:1040900012688243014B1A607047000020380240CA
:1040A00029B1064A12680243044B1A6004E0034A2D
:1040B00012688243014B1A60704700004438024086
:1040C00029B1064A12680243044B1A6004E0034A0D
:1040D00012688243014B1A60704700002438024086
:1040E000F0B5002100220024022500260223324FD1
:1040F0003F6807F00C0121B1042905D0082937D108
:1041000005E02E4F076036E02D4F076033E02A4F61
:104110003F1F3F68C7F38056274F3F1F3F6807F098
:104120003F036EB1264FB7FBF3F7DFF88CC0ACF15D
:10413000040CDCF800C0CCF3881C07FB0CF40CE08A
:104140001E4FB7FBF3F7DFF870C0ACF1040CDCF8DE
:1041500000C0CCF3881C07FB0CF4174F3F1F3F68CF
:10416000C7F301477F1C7D00B4FBF5F7076002E051
:10417000124F076000BF00BF0F4F3F6807F0F0010C
:104180000909104F7A5C0768D74047600A4F3F68BB
:1041900007F4E051890A0B4F7A5C4768D740876083
:1041A000054F3F6807F46041490B064F7A5C47684A
:1041B000D740C760F0BD0000083802400024F4007A
:1041C00000127A008C03002070B590B004460E46B1
:1041D000154601210846FFF733FF01214804FFF788
:1041E0003FFF01214804FFF74BFF01214804FFF77F
:1041F00047FF01214805FFF723FF0722032142481B
:10420000FFF7AEFA08200E9002208DF83C00002047
:104210008DF83E0002208DF83D0000208DF83F0013
:104220000EA93948FFF754FA384800F03DFF3848E6
:104230000A900020ADF82C00ADF82E004FF48060FD
:10424000ADF830000420ADF832000020ADF83400A5
:104250000AA92E4800F0FCFF012240212B4800F063
:1042600019FF1021294800F0DBFE012240F2244111
:10427000264800F0C8FF0121244800F0FFFE262058
:104280008DF83C0007208DF83D0000208DF83E00A1
:1042900001208DF83F000FA8FFF71CFD1D48FDF71A
:1042A000C9FE4FF0006001901848001D0290039471
:1042B00000200490059506904FF480600790002040
:1042C000089009904FF480700A904FF440300B90A2
:1042D00000200C900D900E900F9001A90D48FDF755
:1042E0007BFF002231460B48FDF75BFF01210948A7
:1042F000FDF74CFF00210748FDF790FE012105481E
:10430000FDF78CFE10B070BD00000240004400407C
:10431000A08601008860024010B5044604B910BDB3
:10432000B4F9000010F5257F34D1B4F9020010F57E
:10433000257F2FD1B4F90400B0F5257F2AD1B4F937
:10434000060010F5257F25D100231A461946184688
:10435000FDF770F800231A4619461846FDF79CF839
:10436000002211461046FDF7E7F8012080F313887C
:1043700000BF00BFBFF34F8F1148006800F4E0603A
:1043800010490843001D0E490860BFF34F8F00BF5E
:1043900000BFFEE7A07A032802D10B4908700CE0A9
:1043A000A07A012803D102200749087005E0A07A0D
:1043B000022802D101200449087000BFAFE70000C5
:1043C0000CED00E00000FA05440000200146002941
:1043D00001DD08467047484200B2FBE710B52449AA
:1043E000B1F90000FFF7F2FFB0F52F7F00DD24E008
:1043F0001F49B1F90200FFF7E9FFB0F52F7F00DD9B
:104400001BE01B49B1F90400FFF7E0FFB0F52F7F77
:1044100000DD12E01649B1F90600FFF7D7FFB0F54D
:104420002F7F00DD09E01248807A00B905E01048CE
:10443000C07A00B901E0002010BD00200C490880BE
:1044400048808880C880088102208872022108483C
:10445000C17200200649888100210548C18101827E
:104460008174C1740020024988820120E4E70000C1
:104470003C04002010B504460021104800F0FEFD69
:1044800000210F48FDF7CAFD21460D48FDF7D0FE7B
:1044900010210A4800F0C4FD0A490948FDF78AFDC9
:1044A00009490748FDF7A0FD01210548FDF7B6FDC4
:1044B0000121024800F0E2FD10BD00000044004070
:1044C0008860024020000020208000200168491CF4
:1044D0000160D0E90012914201DD4168016090ED78
:1044E000000AB8EEC00AF7EE000A60EE200A90ED6E
:1044F000010AB8EEC00A80EE801A80ED021A90ED33
:10450000020A70470022026041607047002101608A
:1045100070474160704700B101B970470278437835
:1045200042EA0322C2F30A020A804278D210837858
:1045300042EA4312C2F30A024A8082789211C37897
:1045400042EA8302037942EA8322C2F30A028A80A2
:1045500002795210437942EAC312C2F30A02CA80B6
:104560004279C2F301128A72427912119308CB7216
:104570008279C37942EA032212B28A81027A437AAB
:1045800042EA032213B201F10C02CB81827AC37A90
:1045900042EA032213B201F10C020B82037B8B74FB
:1045A000437BCB74827BC37B42EA03228A82027CF8
:1045B000437C42EA032212B20A810A88A2F5806291
:1045C00012B20A804A88A2F5806212B24A808A88B2
:1045D000A2F5806212B28A80CA88A2F5806212B205
:1045E000CA800A89A2F5806212B20A8100BF94E7EC
:1045F0002DE9F04107460D464FF000082C46FF22FA
:104600000B21204602F0C0FA804685F80B805A2123
:10461000384600F0E5FA002605E02178384600F03B
:10462000DFFA641C761C0C2EF7DBBDE8F08100007D
:104630000CB50020019000903448006840F48030B0
:104640003249086000BF3148006800F40030009033
:104650000198401C0190009818B90198B0F5A04F3E
:10466000F1D12A48006800F4003010B10120009018
:1046700001E0002000900098012846D123484030F6
:10468000006840F0805021494031086020480068AF
:1046900040F440401E4908601C48083000681B492F
:1046A000083108600846006840F400400860084689
:1046B000006840F4A05008601648091F0860081FF1
:1046C000006840F08070091F086000BF0F48006854
:1046D00000F000700028F9D040F205700E49086023
:1046E0000A480830006820F00300084908310860D3
:1046F0000846006840F00200086000BF0348083028
:10470000006800F00C000828F8D10CBD0038024009
:104710000070004008544007003C024000B9704758
:10472000D0F86C110988D0F86C21B2F90820891AE8
:10473000B1F5805F05DDD0F8A811491EC0F8A811B9
:104740000FE0D0F86C110988D0F86C21B2F908207C
:10475000891A11F5805F04DAD0F8A811491CC0F855
:10476000A811D0F86C1191ED040AB8EEC00ADFED83
:10477000040A20EE200A80ED6D0A00BFCFE700009A
:104780000005A03A70B50446606AC07CC0F34010D2
:1047900048B9E069058BA06902890948017828B207
:1047A000FCF7A0FE0AE0606AC07CC0F3401028B1AC
:1047B0000022034801781420FCF794FE70BD00002D
:1047C00051000020042808D14FF0E021096941F090
:1047D00004014FF0E022116107E04FF0E021096988
:1047E00021F004014FF0E0221161704710B507F08D
:1047F000B3F8012801D006F035FD10BD10B51548FD
:10480000006840F47000134908601348006840F0E5
:1048100001001149086000200F49083108600E4866
:1048200000680E4908400C4908600D48091D0860E1
:10483000081F006820F48020091F08600020064936
:104840000C310860FFF7F4FE4FF000600149803939
:10485000086010BD88ED00E000380240FFFFF6FE62
:104860001030002410B501210A4800F0CAF80128D0
:104870000AD1094890ED000AF7EE000A30EE200A4E
:1048800080ED000AFFF76CFA0121024800F0AAF857
:1048900010BD000000040040140000207FB5054654
:1048A0000C4601210220FFF7DBFB0295ADF8044026
:1048B0000020ADF80600ADF80C0001A90D4800F08D
:1048C00005F9012211460B4800F0ACF80121094816
:1048D00000F08BF81D208DF8000001208DF80100FC
:1048E00003208DF8020001208DF803006846FFF7D1
:1048F000F1F97FBD0004004010B50121084800F027
:1049000080F8012807D10748006808B9012000E0B5
:104910000020044908600121014800F063F810BD3F
:1049200000080040A402414230B58BB004460D4659
:1049300001210820FFF794FB01210846FFF780FBC7
:10494000022200211F48FEF70BFF012009900220E0
:104950008DF8280003208DF8290000208DF82A000A
:1049600001208DF82B0009A91648FEF7B1FEA8B268
:10497000ADF818000020ADF81A000794ADF820003B
:1049800006A9114800F0A2F86020ADF8040001204B
:10499000ADF806000220ADF810000020039001A938
:1049A000094800F049F80821074800F083F8012180
:1049B000054800F00BF80121034800F016F80BB091
:1049C00030BD000000000240000C004021B1028810
:1049D00042F08002028004E002884FF67F731A40A2
:1049E00002807047CA430282704721B1028842F0B8
:1049F0000102028004E002884FF6FE731A40028032
:104A0000704730B50246002000230024158A05EACD
:104A10000103958905EA010413B10CB1012000E0FE
:104A2000002030BD1AB183890B43838102E0838962
:104A30008B4383817047000070B50024002200235F
:104A4000058C4FF6FE7635400584028C8388048BF6
:104A50004FF68F752C40B51E2C400D882C43751ECB
:104A60002A408D892A434D882A43104DA84202D0FE
:104A70000F4DA84213D14FF6F7752A40CD892A432E
:104A80004FF6FB752A408D882A434FF6FF652B4071
:104A90004FF6FF552B400D8A2B434D8A2B438380C5
:104AA00004838D684563028470BD000000000140EE
:104AB000000401400A460021018B4FF6F7731940AC
:104AC0001143018370474163704700000022028850
:104AD000184B98420ED0184B98420BD0B0F1804F33
:104AE00008D0164B984205D0154B984202D0154B72
:104AF000984204D14FF68F731A404B881A43124BD9
:104B0000984207D0114B984204D04FF6FF431A4009
:104B10000B891A4302804B68C3620B880385054BDF
:104B2000984202D0044B984201D18B7A038601232C
:104B300083827047000001400004014000040040EF
:104B400000080040000C004000100040001400402D
:104B50008EB039E000235A1E01A91C48006806F0F7
:104B6000D5FB0E220DF106011948FBF78BFC184806
:104B7000D0F80100174908611548D0F80500C86051
:104B8000084690ED050AD0ED030AB4EE600AF1EE96
:104B900010FA08D190ED060AD0ED040AB4EE600ACE
:104BA000F1EE10FA02D001200B490870094890ED8F
:104BB000030A80ED050A90ED040A80ED060A002044
:104BC00005F05EFE05490860C4E700008003002090
:104BD000C80F0020E80F0020B8020020B00200201B
:104BE00070B504460D462946204600F0A0FB00BFE4
:104BF0008021204600F0D0FA0028F9D070BD0000D6
:104C00000FB470B58AB04FF6FF7005900FA80090F2
:104C100003ADA5208DF80C000E98C0EB0010801D90
:104C200080B2ADF80D004B4800788DF80F00FF22E0
:104C300004212846FEF7D6FD8DF8100040F2013021
:104C4000ADF811000E98012806D0022809D00528D9
:104C50000CD0072814D10EE040F20110ADF804008A
:104C600014E04FF48170ADF804000FE040F203103F
:104C7000ADF804000AE04FF48270ADF8040005E0DE
:104C80004FF0FF300AB070BC5DF814FB00BF324833
:104C9000008880B2ADF806003048008880B2ADF8D8
:104CA000080003ADBDF8142007212846FEF780FD5B
:104CB000059001ADBDF8142006212846FEF778FDC9
:104CC000059003AD002404E0287800F049F86D1C3D
:104CD000641C072CF8D301AD002404E0287800F010
:104CE0003FF86D1C641C062CF8D300241CE00099CE
:104CF00001F11000009091E80D00C968CDE907238B
:104D00000991069006ADBDF814200F212846FEF744
:104D10004FFD0590002604E0287800F021F86D1C76
:104D2000761C0F2EF8D3641C0E988442DFDB05AD91
:104D3000002404E0287800F013F86D1C641C022C99
:104D4000F8D30020009003480078401C0149087007
:104D5000002097E760030020640300206803002020
:104D600010B504462146054800F0E1FA00BF802155
:104D7000024800F011FA0028F9D010BD00100140DF
:104D80001CB540F225510E4800F013FAB8B140F2BC
:104D900025510B4800F04DF90948008808488088E3
:104DA000074800F0BFFAC0B201900020FDF7D4FA26
:104DB00000236A4601A90348006806F0C5FC1CBD33
:104DC000001001407803002010B540F225513A4808
:104DD00000F0EFF918B1384800F0A4FA6BE040F2A7
:104DE0002441354800F0E5F9002864D0324800F04D
:104DF00099FA3248FDF7E5F950BB00212F48FDF73D
:104E00000DF92E48FDF7D9F9C0F124002C4908808E
:104E100024212A48FDF70CFA2848006840F40020B5
:104E200026498839C1F8880026492448FDF7C2F888
:104E300001212248FDF7F2F821480088122835D1D7
:104E400021492248FFF767FB1F48FFF765FA2DE06D
:104E500000211A48FDF7E2F81848FDF7AEF9C0F155
:104E600024001749088024211448FDF7E1F913486C
:104E7000006820F4002011498839C1F888001149E0
:104E80000E48FDF797F801210C48FDF7C7F80C48CC
:104E9000008812280AD10C490C482430FFF73BFB4C
:104EA0000948FFF739FA0220FDF756FA40F224418B
:104EB000014800F0BEF810BD004400408860024088
:104EC00054000020300000203C0400205204002048
:104ED00000B58FB040F224414C4800F06AF9002838
:104EE0007DD04A4800884948001D00884848FDF7A1
:104EF00068F9C0BB00214648FDF790F84448FDF72B
:104F00005CF9C0F11E00434908601E204049091D9C
:104F10000860081F006840F40020091F0860012194
:104F20003B48FDF77BF83B4800680E2859D11E220C
:104F300039490DF10A00FBF7A5FA9DF80A00A528EA
:104F400012D10D210DF10B0006F0C6F8002848D053
:104F5000002301AA02A93148006806F0F5FB0120F0
:104F6000FDF7FAF93DE001E00FB000BD002128484F
:104F7000FDF754F82648FDF720F9C0F11E00254939
:104F800008601E202249091D0860081F006820F4DF
:104F90000020091F086001211D48FDF73FF81D484A
:104FA00000680E281DD11E221B491E310DF10A007A
:104FB000FBF768FA9DF80A00A52811D10D210DF123
:104FC0000B0006F089F860B1002301AA02A913487A
:104FD000006806F0B9FB0120FDF7BEF901E006E02C
:104FE000C2E740F22441094800F023F80CE040F207
:104FF0002531064800F0DDF830B10821034800F003
:105000000FF8024800F08EF900BFADE70014014030
:105010002864024088030020C71600208003002077
:1050200001F40072B2F5007F00D100BFCA430280D4
:10503000704710B50022002340F66A14A14200D147
:1050400000BF0A1201249440A3B2DC43048010BDC7
:1050500010B502460020108A20F470600B884C883E
:1050600023438C882343CC8823431843108210BDEC
:105070000021018041808180C180704721B18289F7
:1050800042F40052828104E082894DF6FF731A4097
:10509000828170471AB1838A0B43838202E0838A3C
:1050A0008B4383827047000010B504463248844227
:1050B00008D101211020FFF703F800211020FEF78E
:1050C000FFFF57E02D48844209D101214804FEF733
:1050D000D7FF00214FF40030FEF7D2FF4AE0284806
:1050E000844209D101218804FEF7CAFF00214FF450
:1050F0008020FEF7C5FF3DE02248844209D101210E
:10510000C804FEF7BDFF00214FF40020FEF7B8FFF2
:1051100030E01D48844209D101210805FEF7B0FFA7
:1051200000214FF48010FEF7ABFF23E017488442C4
:1051300008D101212020FEF7C3FF00212020FEF727
:10514000BFFF17E01248844209D101218807FEF70A
:1051500097FF00214FF08040FEF792FF0AE00D48D4
:10516000844207D101214005FEF78AFF0021600536
:10517000FEF786FF10BD0000001001400044004013
:1051800000480040004C0040005000400014014026
:1051900000780040007C004002460020B1F5007F0E
:1051A00000D100BF13880B400BB1012000E00020AC
:1051B000704770B50246002400230025002040F609
:1051C0006A16B14200D100BFC1F3421501F01F03BE
:1051D000012606FA03F3012D02D19689334006E039
:1051E000022D02D1168A334001E0968A33400C1218
:1051F000012606FA04F41688344013B10CB10120DC
:1052000000E0002070BDF0B5034600240026002514
:10521000002040F66A17B94200D100BF1846C1F31A
:10522000421401F01F06012707FA06F5012C01D1EF
:105230000C3004E0022C01D1103000E014301AB11F
:1052400007682F43076002E00768AF430760F0BDBF
:105250002DE9FF4705460E460024A14600BFA046A3
:10526000B08900B100BF2C8A24F44054F088044374
:105270002C82AC8941F20C608443B08831890843A8
:10528000718908430443AC81AC8A24F44074B0892A
:105290000443AC826846FEF723FF2048854202D0D3
:1052A0001F48854202D1DDF80C9001E0DDF808903E
:1052B000A88900F4004040B109EBC90000EB0910D7
:1052C00031684900B0FBF1F707E009EBC90000EBDA
:1052D000091031688900B0FBF1F76420B7FBF0F0EA
:1052E00004012009642101FB1078A88900F4004022
:1052F00040B1322000EBC800B0FBF1F000F0070035
:10530000044308E0322000EB08106421B0FBF1F008
:1053100000F00F0004432C81BDE8FF87001001401E
:105320000014014001468888C0F308007047C1F3AB
:105330000802828070474FF416510160002181807D
:10534000C18001810C21418100218181704700BF12
:10535000FEE700000FB4054B10B503A9044A0298FC
:1053600000F0F8F810BC5DF814FB0000156A0008A6
:105370007C0300200FB4084B10B504A902AA0398BF
:1053800000F0E8F8044602A9002000F066FC204680
:1053900010BC5DF814FB00005B5C00082DED020BF7
:1053A000019820F0004001909DED000B02B0704785
:1053B00002E008C8121F08C1002AFAD170477047DE
:1053C000002001E001C1121F002AFBD1704700003C
:1053D0002DE9FF5F82B00021DDE90430020DDDF828
:1053E00040B0034318D044F61050A2F2FF324243BB
:1053F0001514119801281FD0A5EB0B00401C5FEA83
:10540000000A4FF000064E4FDFF83891B046504684
:1054100015D5CAF1000413E0119801244AA301280C
:1054200001D16FEA0B010298119AC0E90031C0E97D
:10543000024206B0BDE8F09FCBF10000DFE7044672
:105440000021404A491842EB0450CDE9001012E017
:10545000E00707D032463B4640464946FBF7DDF8B9
:105460008046894632463B4610461946FBF7D5F83A
:1054700006460F466410002CEAD1DDE90401DDE99F
:105480000023BAF1000F06DAFBF7C7F842464B4695
:10549000FBF7C3F805E0FBF732F942464B46FBF752
:1054A0002EF904460E460022284BFBF7C3F903D819
:1054B0004FF0FF30014607E00022254B20463146E1
:1054C000FBF704F8FBF7E6FA102409E0002C0ADBEE
:1054D0000A220023FBF7F8F9039B30321A55641EA9
:1054E00050EA0102F2D1641C039AC4F1110314447E
:1054F000119A012A03D0012208430DD10AE0084382
:1055000004D000204FF0110B119072E7A3EB0B05B4
:105510006D1E0DE05B4504DD4FF0000205F1010555
:1055200004E003DA4FF00002A5F10105002AECD0F7
:1055300002981199C0E90231C0E9004579E70000FD
:10554000000014400000F03F300000000000F04375
:105550000000E03F2DE9FF4F95B09A468846064689
:105560000025EEE1252877D100242746F94A0121BC
:10557000039400E0044316F8013F203B01FA03F0D6
:105580001042F7D130782A2811D06FF02F033078ED
:10559000A0F13002092A16D8039A44F0020402EB63
:1055A000820203EB42021044761C0390EFE758F8A6
:1055B000042B0392002A03DA504244F4005403906F
:1055C00044F00204761C30782E2816D116F8010F0C
:1055D00044F004042A280DD06FF02F023078A0F197
:1055E0003003092B09D807EB870302EB4303C718E5
:1055F000761CF3E758F8047B761C30786C280FD0C3
:1056000006DC4C2817D068280DD06A2814D104E095
:10561000742810D07A280FD10DE044F400140AE069
:1056200044F4801401E044F440147278824202D1C0
:1056300004F58014761C761C307866280BD013DCB9
:10564000582877D009DC002875D04528F6D04628A0
:10565000F4D047281AD193E118E0632835D06428A4
:1056600079D0652812D18BE1702873D008DC6728C7
:10567000F1D069286FD06E280DD06F2806D1ACE02C
:1056800073282CD0752874D0782853D05246179997
:1056900090476D1C54E1C4F30250022809D003283E
:1056A0000DD0D8F8001004280DD00D6008F10408C2
:1056B00046E1D8F80010EA17C1E90052F6E7D8F839
:1056C00000100D80F2E70D70F0E718F8041B8DF85C
:1056D000001000208DF80100EB46012003E058F88F
:1056E00004BB4FF0FF3061074FF0000102D40DE022
:1056F00009F101018946B9420FDA8145F8DB1BF84F
:1057000009100029F4D108E009F10101894681421C
:10571000FADB1BF809100029F6D103985346A0EBD9
:10572000090721463846179A00F080FA284400EB12
:10573000090507E044E008E10DE01BF8010B5246C3
:1057400017999047B9F10109F7D2534621463846D7
:10575000179AF2E039E00A21C4F302524FF0000B2D
:105760000091022A06D058F8040BC117032A09D069
:105770000AE023E008F1070020F00702F2E8020146
:10578000904605E000B2C117042A01D140B2C1170A
:10579000002906DA0A460021404261EB02012D226F
:1057A00002E0220504D52B228DF80420012203E01B
:1057B000E20701D02022F7E7914657E00A2100E0F6
:1057C00010214FF0000B00910BE010214FF0000B67
:1057D00044F004040827009103E008204FF0000B78
:1057E0000090C4F30252022A05D058F8040B00219D
:1057F000032A08D008E008F1070020F00702F2E8C9
:105800000201904603E080B2042A00D1C0B24FF0FA
:10581000000922072AD53278702A07D0DDF800C0A7
:105820008CF0100C5CEA0B0C05D00EE040228DF8D9
:105830000420012208E050EA010306D030238DF84D
:1058400004308DF8052002229146009B83F0080366
:1058500053EA0B030AD150EA010201D1620705D5D0
:1058600030228DF804204FF001097F1E3278582A2B
:1058700004D039A20C920CAA02920BE03BA2F9E7E9
:105880005B46009AFBF720F80C9B9B5C029A521E29
:105890000292137050EA0102F2D1029804A9081A88
:1058A00000F1200B600702D524F4803400E00127CA
:1058B0005F4502DDA7EB0B0000E0002000EB0B01D1
:1058C000009003984944401A0390E00306D45346DD
:1058D0002146179A039800F0A9F90544002706E02D
:1058E00001A85246C05D179990476D1C7F1C4F451B
:1058F000F6DBE0030CD553462146179A039800F0D7
:1059000095F9054404E030205246179990476D1CE4
:105910000099481E00900029F5DC08E002980299E1
:1059200052460078491C0291179990476D1CBBF1B3
:105930000001ABF1010BF1DC5BE100F065F905441E
:10594000761C307800287FF40DAE19B02846BDE8EB
:10595000F08F0000092801003031323334353637FA
:1059600038396162636465660000000030313233AB
:10597000343536373839414243444546000000004B
:10598000600700D4062708F1070020F00700F0E8C0
:105990000223804603F0004C5FEA0C0001D097A080
:1059A00009E0200501D596A005E0E00701D095A00B
:1059B00001E0AFF24C001390307823F000436528EB
:1059C0000CD006DC452809D046281DD047287FD1B9
:1059D0003BE0662818D067287AD136E00021112FE5
:1059E00001DB112000E0781CCDE9000104A90CA81E
:1059F000FFF7EEFCDDE90D010C9A4FF0000B07F10B
:105A00000109109200914EE04FF000400097CDE95F
:105A1000011004A90CA8FFF7DBFCDDE90D020C9BCB
:105A20000F994FF0000B91461093009211B9791C19
:105A300000EB0109B7EB090003D4C0F1FF3B07F10C
:105A40000109A9EB0700019042E0012F00DA0127CC
:105A50000021112F01DD112000E03846CDE90001C1
:105A600004A90CA8FFF7B4FCDDE90D010C9A009124
:105A70004FF0000BB946109221070FD4009A4A4507
:105A800003DA914601E0A9F10109B9F1010F05DD41
:105A9000109AA9F10101515C3029F4D0B84202DA20
:105AA00010F1040F03DA0121CDE9011010E0002804
:105AB00003DC8344A9EB000102E0411C494500DD01
:105AC0008946A0EB0B00401C01904FF00040029073
:105AD000200705D40198484502DB4FF0FF300190C4
