:020000040800F2
:100000001009002029020008931E0008B31C0008F4
:10001000911E00081F040008912300080000000042
:10002000000000000000000000000000971E000813
:100030000105000800000000951E0008991E000838
:10004000430200084302000843020008430200087C
:10005000430200084302000843020008430200086C
:10006000430200084302000843020008430200085C
:100070003904000843020008430200084302000854
:10008000430200084302000843020008430200083C
:10009000210400082D040008430200084302000860
:1000A000430200084302000843020008430200081C
:1000B000430200084302000843020008430200080C
:1000C00043020008430200084302000843020008FC
:1000D000430200084D23000843020008852300085E
:1000E00043020008430200084302000843020008DC
:1000F00043020008430200084302000843020008CC
:1001000043020008430200084302000843020008BB
:1001100043020008430200084302000843020008AB
:100120004302000843020008450400084302000897
:10013000430200084302000843020008430200088B
:10014000430200084302000843020008430200087B
:10015000430200084302000851040008430200085B
:10016000430200084302000843020008430200085B
:100170004302000843020008430200080000000098
:10018000430200084302000800F002F800F03CF8C7
:100190000AA090E8000C82448344AAF10107DA45E2
:1001A00001D100F031F8AFF2090EBAE80F0013F0F8
:1001B000010F18BFFB1A43F0010318476822000023
:1001C00088220000103A24BF78C878C1FAD85207B4
:1001D00024BF30C830C144BF04680C6070470000C1
:1001E0000023002400250026103A28BF78C1FBD840
:1001F000520728BF30C148BF0B6070471FB502F0DF
:10020000FBF81FBD10B510BD00F0CFF81146FFF789
:10021000F5FF02F0CFF800F0EDF803B4FFF7F2FFBE
:1002200003BC00F0F5F80000094880470948004782
:10023000FEE7FEE7FEE7FEE7FEE7FEE7FEE7FEE796
:10024000FEE7FEE704480549054A064B70470000F3
:10025000311F000889010008100300201009002048
:10026000100500201005002053EA020C00F0698000
:100270002DE9F04B4FF00006002B1FBFB3FA83F5BA
:1002800003FA05F424FA05F65E4012BF1643B2FAEB
:1002900082F502FA05F4C5F120051EBF22FA05FC1D
:1002A00044EA0C04203556EA044C4FEA144418BFC3
:1002B000641C4FF000084FF00009904271EB030CF2
:1002C00039D3002919BFB1FA81F701FA07F6B0FA5C
:1002D00080F700FA07F6C7F120071EBF20FA07FCD7
:1002E00046EA0C062037B6FBF4FCA7EB0507103FE7
:1002F00007F01F0BCBF120060CFA0BFB2CFA06F6CD
:1003000044BFB3460026202FA4BF5E464FF0000B2B
:100310005BEA060C08BF4FF0010B19EB0B09ABFBB6
:10032000027C48EB0608C01B06FB02CC0BFB03CC8F
:1003300071EB0C01C1E70B46024641464846BDE859
:10034000F08B13B54FF000004FF00001AFF30080C9
:10035000BDE81C4070474FF0000200B513469446BC
:100360009646203922BFA0E80C50A0E80C50B1F10D
:100370002001BFF4F7AF090728BFA0E80C5048BF21
:100380000CC05DF804EB890028BF40F8042B08BFBF
:10039000704748BF20F8022B11F0804F18BF00F8BB
:1003A000012B7047704770477047754600F02CF876
:1003B000AE4605006946534620F00700854618B052
:1003C00020B5FFF73FFFBDE820404FF000064FF09B
:1003D00000074FF000084FF0000B21F00701AC467A
:1003E000ACE8C009ACE8C009ACE8C009ACE8C00999
:1003F0008D46704710B50446AFF300802046BDE837
:100400001040FFF70ABF000000487047B00200200C
:1004100001491820ABBEFEE7260002007047FEE748
:10042000014800F071B800008C000020014800F085
:100430006BB800008C000020014800F09FBA00005B
:1004400050020020014800F099BA000090010020FD
:10045000014800F093BA0000F00100200168182361
:10046000CAB2103AB2FBF3F2054B6FF30901032A4B
:100470009B5CC36500D9091D816508467047000073
:100480000224000810B5014600208B698A6A4FF0EB
:10049000C07453B1B3F5005F15D072B1012A0CD00E
:1004A000022A0AD0032A09D104E01AB1012A06D08F
:1004B000022A03D1C96AC90100D5012010BDC96A49
:1004C000A142FAD010BD002AF7D0012AF2D0022AA8
:1004D000F3D0032AF3D010BD30B50468256825F4A5
:1004E00080252560046863608368402B036803D01F
:1004F00099600068C26030BD9A600068C16030BD1C
:10050000704772B6FEE770472DE9F05F0546006858
:1005100000244669D0F804908768D0F80CB0D0F871
:1005200010A0D0F81880F10748D0F90714D00121A5
:100530008160B80703D5284600F0BEF90CE07807C3
:1005400002D54FF4006407E0380702D54FF4805419
:1005500002E0284600F0AFF9F80516D529684FF4F7
:1005600080708860B80503D5284600F0A7F90CE034
:10057000780502D544F4005407E0380502D544F468
:10058000804402E0284600F098F9F80316D529685F
:100590004FF480308860B80303D5284600F090F906
:1005A0000CE0780302D544F4004407E0380302D598
:1005B00044F4803402E0284600F081F9300707D582
:1005C0005FEACB6004D52968102044F40074C86049
:1005D00070074FF0080707D55FEA0B7004D528684D
:1005E000C760284600F062F9B00706D52868C068E1
:1005F000800702D0284600F05AF9700607D55FEA56
:10060000CA6004D52968102044F480640861B006EB
:1006100007D55FEA0A7004D528680761284600F00C
:1006200047F9F00606D528680069800702D02846F9
:1006300000F03FF9B00308D55FEAC96005D5296825
:1006400010204860284600F035F9F00307D55FEA2E
:10065000097004D528684760284600F032F9300454
:1006600046D55FEA497040D5F00504D55FEAC87009
:1006700001D044F00104B00504D55FEA887001D5CB
:1006800044F00204700504D55FEA487001D544F0D7
:100690000404300529D518F0700F26D008F070003A
:1006A000402815D006DC102809D020280AD0302890
:1006B00016D10AE050280ED0602811D10EE044F087
:1006C00008040DE044F010040AE044F0200407E0C0
:1006D00044F0400404E044F0800401E044F48074F9
:1006E0002868816921F070018161296804204860CF
:1006F000002C05D0686A204368622846FFF703FF94
:10070000BDE8F09F70B5040003D094F8200010B14C
:1007100004E0012070BD204600F082F820680168E6
:1007200041F00101016000F0A1FB0546052604E04F
:1007300000F09CFB401B0A2811D820684068C007C5
:10074000F6D02068016821F00201016000F08EFB04
:1007500005460BE000F08AFB401B0A2806D9606AB8
:1007600040F40030606284F82060D2E7206840687E
:100770008007EFD4207E0128206801683DD021F059
:1007800080010160607E01282068016838D021F076
:1007900040010160A07E01282068016833D021F06B
:1007A00020010160E07E0128206801682ED041F020
:1007B00010010160207F01282068016829D021F004
:1007C00008010160607F01282068016824D021F0C1
:1007D00004010160D4E902010843D4E90412114381
:1007E00008436168491E08432168C86100206062AF
:1007F000012084F82000002070BD41F08001C0E796
:1008000041F04001C5E741F02001CAE721F01001A5
:10081000CFE741F00801D4E741F00401D9E7000037
:1008200010B586B0044614216846FFF794FD1C49B4
:100830002068884231D11B480021026842F00072D2
:100840000260006800F000700590164810380268D9
:1008500042F001020260006800F0010005904FF4D0
:10086000C05000900220CDE901010320039009202F
:10087000049069460C4800F0F3F900221146142058
:1008800000F070FC142000F05FFC002211461520DF
:1008900000F068FC152000F057FC06B010BD000009
:1008A000006400404038024000000240704770473A
:1008B0007047704770477047704770477047704780
:1008C000704770472DE9F0410446876D00F0CEFA7D
:1008D000064694F835000025022806D08020606581
:1008E00084F834500120BDE8F0812068016821F0CF
:1008F000160101602068416921F080014161206C8E
:1009000008B9A06C20B12068016821F008010160DD
:100910002068016821F0010101600CE000F0A6FAF6
:10092000801B052807D920206065032084F8350046
:1009300084F83450D7E720680068C007EED194F8F7
:100940005C103F208840B860012084F8350084F8AE
:1009500034500020C7E790F83510022903D08021D9
:10096000416501207047052180F835100068016855
:1009700021F0010101600020704700002DE9F843DB
:1009800004464FF00009CDF8009063484FF416512B
:10099000A56D0068B0FBF1F72E6894F85C10082094
:1009A00000FA01F131420FD021680A6852070BD5D5
:1009B0000A6822F004020A6094F85C108840A8607B
:1009C000606D40F00100606594F85C104FF0010824
:1009D00008FA01F0304208D021684969090604D5B7
:1009E000A860606D40F00200606594F85C1004201F
:1009F0008840304208D021680968890704D5A8607A
:100A0000606D40F00400606594F85C101020884030
:100A1000304218D021680968090714D5A8602068F9
:100A20000168490304D50068000308D5A16C07E0FC
:100A30000168C90503D4016821F008010160216C37
:100A400009B12046884794F85C1020208840304245
:100A500031D021680968C9062DD5A86094F8350001
:100A600005282068016806D0490347D500680003BF
:100A70001DD4616C1CE021F0160101602068416901
:100A800021F080014161206C08B9A06C20B1206880
:100A9000016821F00801016094F85C103F20884053
:100AA000A86084F8358084F83490216D1FE0E16BF4
:100AB00009B120468847606D00282BD0606DC007C3
:100AC00014D0052084F835002068016821F0010168
:100AD00001600098401C0090B84203D8206800686C
:100AE000C007F6D184F8358084F83490E16C002991
:100AF00010D001B02046BDE8F04308470168C905A1
:100B0000D5D4016821F01001016084F8358084F8A3
:100B10003490CCE7BDE8F883400000202DE9F04197
:100B2000044600F0A3F906465CB1022084F83500C3
:100B3000002584F834502068016821F0010101602B
:100B40000DE00120BDE8F08100F090F9801B052840
:100B500005D920206065032084F83500F2E720687D
:100B60000068C007F0D12268116820480140D4E92C
:100B700001031843D4E90336334318436369184328
:100B8000A3691843E3691843236A18430843616A59
:100B9000042903D1D4E90B131943084310602068DA
:100BA0004069666A20F0070130460E430127042899
:100BB0000CD1A06A0643E06A40B12046FFF762FC10
:100BC00020B14020606584F83570BAE7206846613E
:100BD0002046FFF743FC94F85C203F219140816060
:100BE000656584F835700020ACE700003F8010F0A8
:100BF0002DE9F0410446866D90F834000025012867
:100C00000DD0012084F8340094F835700020012FB5
:100C100007D084F8340002252846BDE8F081022080
:100C2000FBE7022784F8357060652046FFF754FC27
:100C300094F85C103F208840B0602068016841F063
:100C400016010160206C20B12068016841F00801A4
:100C500001602068016841F001010160DCE70000EB
:100C60002DE9F84FDFF8BCA10022012503264FF043
:100C70000F090AF1040BAAF1040E00BF0B6805FA74
:100C800002F42340A34270D10F7907F00307012F2C
:100C900001D0022F16D187684FEA420806FA08FCF5
:100CA00027EA0C07D1F80CC00CFA08FC4CEA070C38
:100CB000C0F808C04768A7430C79C4F300149440F7
:100CC0003C4344600C79E443A4070AD0C4684FEA6B
:100CD000420C06FA0CF7BC438F6807FA0CF727435F
:100CE000C7600C7904F00304022C12D1D40800EB85
:100CF000840CDCF820405707FF0E09FA07F824EAB5
:100D00000804D1F8108008FA07F848EA0408CCF87B
:100D1000208004684FEA420C06FA0CF7BC430F79B6
:100D200007F0030707FA0CF7274307604C6814F431
:100D3000403F70D03C4C276847F4804727602468C8
:100D400022F0030704F480440094384C07EB040CB1
:100D5000DCF8084897074FEA177809FA08F7BC4308
:100D6000334FB84202D1002724E054E0314FB8425B
:100D700001D101271EE0304FB84201D1022719E00E
:100D80002E4FB84201D1032714E02D4FB84201D1B4
:100D900004270FE02B4FB84201D105270AE02A4F64
:100DA000B84201D1062705E0284FB84201D10727F4
:100DB00000E0082707FA08F72743CCF80878DAF8A4
:100DC00000405746D1F804C09C435FEACC2C00D5C4
:100DD0001C433C60DBF800405F46D1F804C09C43F4
:100DE0005FEA8C2C00D51C433C60DEF8004077465F
:100DF000D1F804C09C435FEA8C3C00D51C433C60A6
:100E0000084F083F3C68D1F804C09C435FEACC3CE3
:100E100000D51C433C60521C102AFFF42FAFBDE8E4
:100E2000F88F0000083C0140443802400030014087
:100E3000000002400004024000080240000C024092
:100E4000001002400014024000180240001C024042
:100E5000426921EA02030A4043EA02418161704784
:100E60000AB1816170470904FBE70000014880680E
:100E7000704700003400002070B5040025D094F8BD
:100E80003D00002520B984F83C50204600F0B8F819
:100E9000242084F83D002068016821F001010160F0
:100EA0002068016841F4004101602068016821F474
:100EB0000041016000F022FA4D4A6168914201D878
:100EC0004C4900E04C49884201D2012070BD4B4999
:100ED0002368B0FBF1F15E6826F03F060E435E60CA
:100EE0006368934206D94FF4967359434FF47A736B
:100EF000B1FBF3F12368491C1E6A26F03F0631431B
:100F000019626168914210D84900401EB0FBF1F2AD
:100F1000521CC2F30B02042A01D2042022E0B0FBCF
:100F2000F1F0401CC0F30B001CE0A268F2B301EB2F
:100F3000C10303EB0116431EB3FBF6F35B1C43F442
:100F400080431B0549D092B301EBC10202EB0111B2
:100F5000401EB0FBF1F0401CC0F30B0040F4804099
:100F600040F400402168CA694CF6FF739A4310436D
:100F7000C861D4E9071001432068026822F0C0026A
:100F800011430160D4E9030101432068826848F2FB
:100F9000FF339A4311438160D4E905010843216876
:100FA000CA6822F0FF021043C86001E00EE016E0BC
:100FB0002068016841F0010101602564202084F867
:100FC0003D00256384F83E50002070BD01EB4106D2
:100FD000431EB3FBF6F35B1CB3E70120C2E701EB52
:100FE0004101401EB0FBF1F0401CC0F30B00B7E71D
:100FF000A086010080841E0000093D0040420F00D1
:10100000F0B587B0044614216846FFF7A4F91D49DE
:101010002068884233D11C480024016841F0040153
:101020000160016801F004010591016841F00101CE
:1010300001600068122500F0010005904FF4007077
:10104000CDE9000502AA0326042782E8D0006946FC
:101050000E48FFF705FEB801CDE9000502AA694672
:1010600082E8D0000A48FFF7FBFD0748103001680E
:1010700041F400010160006800F40000059007B031
:10108000F0BD0000005C0040303802400008024023
:101090000000024002488168027811448160704774
:1010A000340000200B4810B5016841F40071016064
:1010B000016841F480610160016841F48071016060
:1010C000032000F06FF80F2000F006F800F024F87D
:1010D000002010BD003C024070B50D4D04464FF499
:1010E0007A712878B1FBF0F00A490968B1FBF0F099
:1010F00000F00CFB48B9102C07D200222146501EEC
:1011000000F030F800206C6070BD012070BD000060
:1011100034000020400000200A4808B5016841F46E
:1011200080410160006800F4804000900548001F85
:10113000016841F080510160006800F0805000902B
:1011400008BD000044380240002809DB00F01F02FF
:10115000012191404009800000F1E020C0F8001119
:1011600070470000F0B40E4B1B680C46C3F302231B
:10117000C3F10705042D00D90425191D072901D243
:10118000002300E0DB1E012606FA05F1491E21407E
:1011900099409E40761E16403143F0BC01F0F9B8EC
:1011A0000CED00E0064900F0070208684FF6FF0367
:1011B000184040EA0220034A1043086070470000CC
:1011C0000CED00E00000FA052DE9F0470E460500A1
:1011D00065D0DFF81481D8F80000F7B200F00700FE
:1011E000B04207D288F80070D8F8000000F007007D
:1011F000B04254D128683D4C810712D5400703D531
:10120000206840F4E05020602878000703D520686B
:1012100040F4604020602068A96820F0F000084396
:1012200020602878C0072DD0304968680839012827
:1012300012D0022813D0032811D009688907002989
:101240002DDA216821F0030101432160FFF70EFE32
:10125000814641F2883A0EE009688903EFE70968A0
:101260008901ECE7FFF702FEA0EB0901514502D925
:101270000320BDE8F0872068696800F00C00B0EB3F
:10128000810FEFD1D8F80010404601F00701B142BC
:1012900007D90770006800F00700B04201D00120B4
:1012A000E7E72878400705D52068E96820F4E05092
:1012B000084320602878000706D52068296920F4B3
:1012C000604040EAC100206000F038F82168084A18
:1012D000C1F30311515CC840064908600648006824
:1012E000FFF7FAFE0020C4E7003C02400838024045
:1012F0000A24000840000020380000200448054966
:1013000000680968044AC1F38221515CC8407047F3
:1013100040000020083802401A240008044805490B
:1013200000680968044AC1F34231515CC840704703
:1013300040000020083802401A240008154810B563
:10134000006810F00C02144813D01449042A0FD07E
:10135000082A0ED10F4C241F2268236802F03F0296
:101360005B0207D52068C0F38810A0FB010106E0EE
:10137000084610BD2168C1F38811A1FB00010023BC
:10138000FEF772FF2168C1F30141491C4900B0FB1F
:10139000F1F010BD083802400024F40040787D01CF
:1013A0002DE9F84F04006ED02078DFF84C93C00789
:1013B000A9F104054AD009F104000168C1F38101D3
:1013C000012908D00068C0F3810002280AD1D9F8A9
:1013D0000000400206D52868800337D560680028E1
:1013E000E1D033E06068B0F5803F10D0B0F5A02FB9
:1013F000286810D020F480302860286820F48020ED
:1014000028606068A8B1FFF731FD06460DE0286846
:1014100040F48030F4E740F480202860F7E700BF14
:10142000FFF724FD801B642873D828688003F7D554
:101430000CE0FFF71BFD064605E000BFFFF716FDB9
:10144000801B6428F0D828688003F7D42078DFF860
:10145000AC8280074FF0000A3ED5A748001D016806
:1014600011F00C0F08D00068C0F3810002280BD1E6
:10147000D9F80000400207D42868800716D5E06834
:10148000012800D112E033E1E068B8B10120C8F8CA
:101490000000FFF7EBFC064605E000BFFFF7E6FCA7
:1014A000801B0228C0D828688007F7D528682169E2
:1014B00020F0F80040EAC10028600DE0C8F800A064
:1014C000FFF7D4FC064604E0FFF7D0FC801B02289F
:1014D0001FD828688007F7D42078000722D5864FC8
:1014E00087486169703771B101210160FFF7BEFC67
:1014F000064604E0FFF7BAFC801B022809D83868CA
:101500008007F7D50EE0C0F800A0FFF7AFFC064655
:1015100005E082E0FFF7AAFC801B02287DD838682E
:101520008007F7D42078400768D5DFF8CCB10027D2
:101530000BF13C0BDBF80000C0000BD4DBF8001013
:1015400041F08051CBF80010DBF80000012700F0DB
:10155000805000906B4E3068C00510D4306840F465
:1015600080703060FFF782FC009005E0FFF77EFCA2
:101570000099401A022850D83068C005F6D55E4E52
:10158000A0686C3601280FD00528306810D020F0F4
:1015900001003060306820F004003060A068B8B10D
:1015A000FFF764FC00900FE0306840F00100F4E7C2
:1015B00040F004003060F7E7FFF758FC0099411A4B
:1015C00041F28830814266D830688007F4D50EE059
:1015D000FFF74CFC009007E0FFF748FC0099411A28
:1015E00041F28830814256D830688007F4D42FB158
:1015F000DBF8001021F08051CBF80010A069C8B3CF
:101600003D49091D0968C1F3810102294AD0022818
:10161000504607D0C8F8600000E03CE0FFF726FC29
:1016200004463BE04746C8F86000FFF71FFC06464B
:1016300005E000BFFFF71AFC801B02282BD82868A2
:101640008001F7D4D4E907010843A16A2E4A49086A
:1016500002EB0141626A41EA8211084394F82C10BE
:1016600040EA0161C9F8001001203866FFF7FEFB6F
:10167000044606E03EE000BFFFF7F8FB001B02282F
:1016800009D828688001F7D534E000BFFFF7EEFBEA
:10169000001B022802D90320BDE8F88F28688001CA
:1016A000F4D427E00128F7D0D9F80000E26900F46B
:1016B000800191421CD1226A00F03F01914217D172
:1016C00047F6C071626A0140B1EB821F10D1A26A75
:1016D0004FF0FF3300F4403103EB5202B1EB024F05
:1016E00006D194F82C1000F07060B0EB016F01D0BF
:1016F0000120D1E70020CFE7043802400000474234
:10170000800E4742007000400000FFFF10B5401EF1
:10171000B0F1807F01D3012010BD4FF0E024606163
:101720000F21601700F035FE0020A0610720206126
:10173000002010BD70477047F8B50168044608687E
:10174000CA684B6910F00F0F4FF0000559D003F035
:10175000010602F49077374365D0C10705D0D10563
:1017600003D5216C41F001012164410705D5D9075A
:1017700003D0216C41F002012164810705D5D9070E
:1017800003D0216C41F004012164010707D502F068
:101790002001314303D0216C41F008012164216C08
:1017A00000293AD0800604D5900602D5204600F0E4
:1017B0009DFC20684069216CC0F38010090700D4AB
:1017C00060B3204600F05DFC20684069400621D5EA
:1017D0002068143050E8001F21F0400140E800125A
:1017E000002AF5D1A06BA8B16C490165A06BFFF789
:1017F000B2F8002811D0A06B016D01B0BDE8F04037
:10180000084783060FD593060DD52046BDE8F8405E
:1018100000F06CBC2046FFF78EFFF8BD2046FFF7B6
:101820008AFF2564F8BD266B2023012E79D1C606D8
:1018300077D5D60675D5086848680090486940068F
:1018400040D5A16B086840680004000CEAD0A28D66
:101850008242E7D9E085C869B0F5807F2DD0206845
:101860000C3050E8001F21F4807140E80012002A7B
:10187000F5D12068143050E8001F21F0010140E844
:101880000012002AF5D12068143050E8001F21F022
:10189000400140E80012002AF5D184F83E3025636B
:1018A00020680C3050E8001F21F0100140E80012C1
:1018B000002AF5D1A06BFFF705F8A08DE18D401A45
:1018C00081B229E0A08DE18D401A81B2E08D00281F
:1018D000A8D00029A6D020680C3050E8002F22F4B0
:1018E000907240E80026002EF5D12068143050E8B0
:1018F000002F22F0010240E80026002EF5D184F8E6
:101900003E30256320680C3050E8002F22F0100292
:1019100040E80023002BF5D12046FFF70BFFF8BD70
:10192000FFE705062BD5150629D594F83D0021289B
:10193000F5D1A068B0F5805F01D12069B0B1206A0F
:10194000411C2162216800784860E08C401E000440
:10195000000CE084E3D12068C16821F08001C160FF
:101960002068C16841F04001C160D8E7206A008862
:10197000C0F308004860206A801C2062E5E740064A
:10198000CDD55006CBD5CA68204622F04002CA60A9
:1019900084F83D3000F08BF9C1E70000411F0008DA
:1019A00070B5040004D094F83D00002510B106E0A5
:1019B000012070BD84F83C50204600F023F824201C
:1019C00084F83D002068C16821F40051C1602046C0
:1019D00000F0ECFB2068016921F49041016120686E
:1019E000416921F02A0141612068C16841F4005138
:1019F000C1602564202084F83D0084F83E0000206A
:101A000070BD00002DE9F04F87B0064614216846EE
:101A1000FEF7A1FC5A48594B3268022507210024E1
:101A200007154FF003084FF0006A4FF4003B9A424D
:101A300050D1534A1432136843F0100313601268F4
:101A400002F010020592026842F001020260006892
:101A5000029400F001000590CDE903814FF4C060CD
:101A6000CDE9000569464748FFF7FAF8474D464873
:101A7000D1462860C5E901A4C5E903476C61AC61A2
:101A8000C5E9074BD84628466C62FFF747F808B10E
:101A9000FEF737FDB563AE633C4D3B4860357830AB
:101AA000E5E80209402091C5384845F814496030FE
:101AB000AC61C5E907486C62FFF730F808B1FEF782
:101AC00020FD7563002211462520AE63FFF74AFB17
:101AD00025204EE02E4B9A424DD1294A10321368F0
:101AE00043F480231360126802F480220592026896
:101AF00042F002020260026802F0020205920268ED
:101B000042F0040202600068B94600970F4600F0F8
:101B10000400CDE90470CDF80C80CDE9015469468C
:101B20001C48FFF79DF84FF40060CDE90005CDE9B2
:101B30000248694604971848FFF792F8134D174872
:101B4000C0352860C5E901A4C5E903496C61AC61F1
:101B5000C5E9074B28466C62FEF7E0FF08B1FEF7C7
:101B6000D0FCB563002211462720AE63FFF7FAFAD6
:101B70002720FFF7E9FA07B0BDE8F08F0010014019
:101B800030380240000002404064024090010020D2
:101B90000048004000040240000802402860024063
:101BA00090F83E30202B0ED159B152B190F83C3014
:101BB000012B08D0012380F83C300023036300F0A0
:101BC0007BBB01207047022070470000322202498F
:101BD000024800F04DB8000000000020080100207D
:101BE0007047000070B5044690F83D00202836D1BB
:101BF00091B38AB394F83C00012830D0012084F8D6
:101C00003C002162A284E28400252564212084F81E
:101C10003D00636B1348D863636B13481864636BB0
:101C20001248D864606B134605652668606B321DE8
:101C3000FEF7DEFF21686FF04000086084F83C503A
:101C40002068143050E8001F41F0800140E8001285
:101C5000002AF5D1002070BDFFE70120FBE702203C
:101C6000F9E700003720000879200008511F00081C
:101C700090F83D30202B18D1A9B1A2B190F83C309A
:101C8000012B12D001628284C284002101642122CE
:101C900080F83D2080F83C100068C16841F0800168
:101CA000C1600020704701207047022070477047D4
:101CB0007047FEE70D4810B50B49016010214160E7
:101CC00000218160C16001614161017641768176C8
:101CD000C17601774177FEF715FD002803D0BDE8F6
:101CE0001040FEF70EBC10BD006400408C000020C8
:101CF000154808B5016841F480010160016801F4EC
:101D000080010091016841F4001101600068002227
:101D100000F40010009011460C20FFF723FA0C206D
:101D2000FFF712FA002211463A20FFF71BFA3A2079
:101D3000FFF70AFA002211464620FFF713FABDE822
:101D400008404620FFF700BA3038024030B587B06F
:101D500014216846FEF7FFFA1D480024016841F08F
:101D600080010160016801F080010591016841F086
:101D700002010160016801F002010591016841F072
:101D800004010160016801F004010591016841F05E
:101D900001010160016801F001010591016841F054
:101DA0000801016000680B4D00F00800059000225A
:101DB00080212846FFF754F8802000900120CDE9CB
:101DC0000104694628460394FEF74AFF07B030BD78
:101DD00030380240000C02400D4810B50B4901603C
:101DE0000C49416000214FF480428160C0E9031238
:101DF00041618161C1610162FFF73EF8002803D0B3
:101E0000BDE81040FEF77DBB10BD0000005C004047
:101E1000B4000020A08601000C4810B50A490160FA
:101E20004FF4E1314160002181600C22C160C0E9C2
:101E300004128161C161FFF7B3FD002803D0BDE842
:101E40001040FEF75EBB10BD0010014008010020ED
:101E50000D4810B50B4901600C49416000214FF459
:101E600080628160C0E903120422C0E90521C161DA
:101E7000FFF796FD002803D0BDE81040FEF741BBF8
:101E800010BD0000004800404C010020A086010069
:101E9000FEE7FEE770477047FFF7FCB830B593B038
:101EA00030216846FEF757FA14210CA8FEF753FAC2
:101EB0001D480025016841F080510160006800F074
:101EC000805011901948016841F480410160006818
:101ED000022400F48040119001200390102004900F
:101EE000009406940820CDE90750A820CDE9090404
:101EF00004200B906846FFF753FA08B172B6FEE76C
:101F00000CA90F2081E831004FF4A0500F904FF43E
:101F10008050109005210CA8FFF756F9002801D039
:101F200072B6FEE713B030BD40380240007000408A
:101F30000248016841F470010160704788ED00E0DB
:101F400010B5806B0021C185C184FFF7F4FB10BD83
:101F500070B5846B2068406994F83D10C0F3C010E0
:101F60000025212904D118B1E584204600F0B0F8FD
:101F70002068406994F83E10C0F38010222904D1F3
:101F800018B1E585204600F07CF8206C40F0100088
:101F900020642046FFF7CFFB70BD10B50146806B73
:101FA00009680968C9052FD40021C18501680C3171
:101FB00051E8002F22F4807241E80023002BF5D174
:101FC0000168143151E8002F22F0010241E800239A
:101FD000002BF5D10168143151E8002F22F04002A6
:101FE00041E80023002BF5D1202180F83E10016B41
:101FF000012909D101680C3151E8002F22F01002AB
:1020000041E80023002BF5D1016B012902D0FFF735
:10201000DDFD10BD818DFFF78DFB10BD10B5806B10
:10202000016B012902D0FFF7DBFD10BD818D49084E
:10203000FFF780FB10BD10B50146806B0968096889
:10204000C90516D40021C1840168143151E8002F5C
:1020500022F0800241E80023002BF5D101680C3109
:1020600051E8002F42F0400241E80023002BF5D157
:1020700010BDFFF71CFE10BD10B5806BFFF718FEFA
:1020800010BD01680C3151E8002F22F4907241E834
:102090000023002BF5D10168143151E8002F22F004
:1020A000010241E80023002BF5D1016B012909D180
:1020B00001680C3151E8002F22F0100241E80023A2
:1020C000002BF5D1202180F83E10002101637047DC
:1020D00001680C3151E8002F22F0C00241E80023D2
:1020E000002BF5D1202180F83D10704708B590F8FD
:1020F0003E10222901D0022008BD82684FF480538F
:102100009A4201D1016921B1816A9A421BD04AB138
:102110000AE00268816A5268C2F308020A80816A92
:10212000891C08E0026972B10268526802F07F02FD
:102130000A70816A491C8162C18D491E0904090C1B
:10214000C18503D019E002685268F1E70168CA68E6
:1021500022F02002CA600168CA6822F48072CA6054
:1021600001684A6922F001024A61202180F83E108C
:10217000016B012903D0FFF729FD002008BD0021D4
:10218000016301680C3151E8002F22F0100241E890
:102190000023002BF5D101680A68D20602D50A682F
:1021A00049680091818DFFF7C5FAE6E770B50446EE
:1021B00000680169E26821F440511143016121691D
:1021C000A068E26908436169114308432168CA684D
:1021D00049F20C639A430243CA6020684169A269CC
:1021E00021F440711143416131492068884202D095
:1021F0003049884202D1FFF791F801E0FFF77EF8FD
:10220000E2690023192164253226B2F5004F626885
:1022100028D0A0FB0101930F9200FEF725F801469C
:10222000B0FBF5F06FF01802504301EB800006EBB5
:102230000010B0FBF5F000F0F002B1FBF5F002EB9E
:102240000012B1FBF5F06FF01803584301EB80006A
:1022500006EB0010B0FBF5F000F00F002168104411
:10226000886070BDA0FB010192185B41FDF7FCFF87
:102270000146B0FBF5F00201B1FBF5F06FF0180379
:10228000584301EB800006EBC000B0FBF5F000F016
:10229000F80002EB4002B1FBF5F0584301EB80007F
:1022A00006EBC000B0FBF5F000F00700D6E7000039
:1022B000001001400014014038B58162828500257C
:1022C000134604460564222084F83E00A26B1C4895
:1022D000D063A26B1B481064A26B1B48D064A06B38
:1022E0000A4605652168A06B091DFEF781FC206880
:1022F00001684068009084F83C50206948B120682B
:102300000C3050E8001F41F4807140E80012002AB0
:10231000F5D12068143050E8001F41F0010140E879
:102320000012002AF5D12068143050E8001F41F057
:10233000400140E80012002AF5D1002038BD00001D
:102340009B1F00081D200008511F000810B51A220D
:1023500004A10B48FFF746FCBDE810400848FFF712
:10236000EBB90000656E74657220555341525431CB
:102370005F49525148616E646C65720D0A0000003D
:10238000080100200148FFF7D7B900004C010020E8
:10239000FEE70907090E002804DB00F1E02080F8C1
:1023A0000014704700F00F0000F1E02080F8141DC9
:1023B00070470000FEF776FEFFF770FDFFF7C6FCE2
:1023C000FFF796FCFFF728FDFFF706FDFFF772FC0D
:1023D000FFF73EFD054C80212046FEF739FD122215
:1023E00003490448FFF7DCFBF5E70000000C02405E
:1023F000440000204C0100204FF04070E1EE100A34
:1024000070470006101600061016000000000000BD
:102410000000010203040607080900000000010291
:1024200003040000442400080000002044000000D1
:10243000C40100088824000844000020CC080000E3
:10244000E001000861727261792066756C6C0D0A9A
:1024500020636C6561722061727261790D0A0000FF
:10246000000000000000000000000000000000006C
:10247000000000000000000001000000100000004B
:08248000000000000024F4003C
:040000050800018965
:00000001FF
