:020000040800F2
:1000000020050020A10100080B130008D1110008F1
:1000100009130008AD020008BD160008000000002A
:100020000000000000000000000000000F130008A6
:10003000AF020008000000000D13000811130008B3
:10004000BB010008BB010008BB010008BB010008A0
:10005000BB010008BB010008BB010008BB01000890
:10006000BB010008BB010008BB010008BB01000880
:10007000BB010008BB010008BB010008BB01000870
:10008000BB010008BB010008BB010008BB01000860
:10009000BB010008BB010008BB010008BB01000850
:1000A000BB010008BB010008BB010008BB01000840
:1000B000BB010008BB010008BB010008BB01000830
:1000C000BB010008BB010008BB010008BB01000820
:1000D000BB01000899160008A5160008B116000813
:1000E000BB010008BB010008BB010008BB01000800
:1000F000BB010008BB010008BB010008BB010008F0
:10010000BB010008BB010008BB010008BB010008DF
:10011000BB010008BB010008BB010008BB010008CF
:10012000BB010008BB010008BB010008BB010008BF
:10013000BB010008BB010008BB010008BB010008AF
:10014000BB010008BB010008BB010008BB0100089F
:10015000BB010008BB010008BB010008BB0100088F
:10016000BB010008BB010008BB010008BB0100087F
:10017000BB010008BB010008BB0100080000000033
:10018000BB010008BB010008DFF810D000F07CF8CC
:100190000048004715180008AFF300802005002034
:1001A0000648804706480047FEE7FEE7FEE7FEE711
:1001B000FEE7FEE7FEE7FEE7FEE7FEE7A91300081D
:1001C000890100082DE9F05F0546002092469B4614
:1001D00088460646814640241BE02846414647465D
:1001E000224600F041F853465A46C01A914110D3B6
:1001F00011461846224600F028F82D1A67EB010830
:100200004F4622460120002100F01FF817EB00099D
:100210004E41201EA4F10104DFDC484631462A4647
:100220004346BDE8F09FD2B201E000F8012B491E21
:10023000FBD270470022F6E710B513460A46044683
:100240001946FFF7F0FF204610BD202A04DB203AB4
:1002500000FA02F1002070479140C2F1200320FA19
:1002600003F3194390407047202A04DB203A21FA17
:1002700002F00021704721FA02F3D040C2F12002BF
:100280009140084319467047064C074D06E0E06868
:1002900040F0010394E8070098471034AC42F6D3CD
:1002A000FFF776FF8C180008AC180008FEE77047CF
:1002B00072B6FEE72DE9F0410446876D00F066F95D
:1002C000064694F835000025022806D08020606597
:1002D00084F834500120BDE8F0812068016821F0E5
:1002E000160101602068416921F080014161206CA4
:1002F00008B9A06C20B12068016821F008010160F4
:100300002068016821F0010101600CE000F03EF975
:10031000801B052807D920206065032084F835005C
:1003200084F83450D7E720680068C007EED194F80D
:100330005C103F208840B860012084F8350084F8C4
:1003400034500020C7E790F83510022903D08021EF
:10035000416501207047052180F83510006801686B
:1003600021F00101016000207047000070B50446D3
:1003700000F00CF90546601C02D0044800780444E3
:1003800000F004F9401BA042FAD370BD0000002029
:100390002DE9F84FDFF8BCA10022012503264FF01C
:1003A0000F090AF1040BAAF1040E00BF0B6805FA4D
:1003B00002F42340A34270D10F7907F00307012F05
:1003C00001D0022F16D187684FEA420806FA08FCCE
:1003D00027EA0C07D1F80CC00CFA08FC4CEA070C11
:1003E000C0F808C04768A7430C79C4F300149440D0
:1003F0003C4344600C79E443A4070AD0C4684FEA44
:10040000420C06FA0CF7BC438F6807FA0CF7274337
:10041000C7600C7904F00304022C12D1D40800EB5D
:10042000840CDCF820405707FF0E09FA07F824EA8D
:100430000804D1F8108008FA07F848EA0408CCF854
:10044000208004684FEA420C06FA0CF7BC430F798F
:1004500007F0030707FA0CF7274307604C6814F40A
:10046000403F70D03C4C276847F4804727602468A1
:1004700022F0030704F480440094384C07EB040C8A
:10048000DCF8084897074FEA177809FA08F7BC43E1
:10049000334FB84202D1002724E054E0314FB84234
:1004A00001D101271EE0304FB84201D1022719E0E7
:1004B0002E4FB84201D1032714E02D4FB84201D18D
:1004C00004270FE02B4FB84201D105270AE02A4F3D
:1004D000B84201D1062705E0284FB84201D10727CD
:1004E00000E0082707FA08F72743CCF80878DAF87D
:1004F00000405746D1F804C09C435FEACC2C00D59D
:100500001C433C60DBF800405F46D1F804C09C43CC
:100510005FEA8C2C00D51C433C60DEF80040774637
:10052000D1F804C09C435FEA8C3C00D51C433C607E
:10053000084F083F3C68D1F804C09C435FEACC3CBC
:1005400000D51C433C60521C102AFFF42FAFBDE8BD
:10055000F88F0000083C0140443802400030014060
:10056000000002400004024000080240000C02406B
:10057000001002400014024000180240001C02401B
:100580000AB1816170470904FBE7000001488068F7
:100590007047000000000020024881680278114482
:1005A00081607047000000200B4810B5016841F4DD
:1005B00000710160016841F480610160016841F4EB
:1005C00080710160032000F06FF80F2000F006F842
:1005D00000F024F8002010BD003C024070B50D4D25
:1005E00004464FF47A712878B1FBF0F00A490968A3
:1005F000B1FBF0F000F00CFB48B9102C07D2002240
:100600002146501E00F030F800206C6070BD0120C3
:1006100070BD0000000000200C0000200A4808B552
:10062000016841F480410160006800F4804000905E
:100630000548001F016841F080510160006800F02A
:100640008050009008BD000044380240002809DBBB
:1006500000F01F02012191404009800000F1E020DC
:10066000C0F8001170470000F0B40E4B1B680C4638
:10067000C3F30223C3F10705042D00D90425191D76
:10068000072901D2002300E0DB1E012606FA05F14E
:10069000491E214099409E40761E16403143F0BCD1
:1006A00001F01EB80CED00E0064900F007020868F2
:1006B0004FF6FF03184040EA0220034A1043086047
:1006C000704700000CED00E00000FA052DE9F0474E
:1006D0000E46050065D0DFF81481D8F80000F7B2A7
:1006E00000F00700B04207D288F80070D8F8000088
:1006F00000F00700B04254D128683D4C810712D564
:10070000400703D5206840F4E050206028780007B7
:1007100003D5206840F4604020602068A96820F07C
:10072000F000084320602878C0072DD03049686861
:100730000839012812D0022813D0032811D00968E3
:10074000890700292DDA216821F003010143216086
:10075000FFF71CFF814641F2883A0EE009688903E1
:10076000EFE709688901ECE7FFF710FFA0EB09014B
:10077000514502D90320BDE8F0872068696800F080
:100780000C00B0EB810FEFD1D8F80010404601F01B
:100790000701B14207D90770006800F00700B042B6
:1007A00001D00120E7E72878400705D52068E968EF
:1007B00020F4E050084320602878000706D5206820
:1007C000296920F4604040EAC100206000F038F858
:1007D0002168084AC1F30311515CC840064908600A
:1007E00006480068FFF7FAFE0020C4E7003C02401C
:1007F00008380240741800080C0000200400002093
:100800000448054900680968044AC1F38221515C23
:10081000C84070470C0000200838024084180008C7
:100820000448054900680968044AC1F34231515C33
:10083000C84070470C0000200838024084180008A7
:10084000154810B5006810F00C02144813D0144974
:10085000042A0FD0082A0ED10F4C241F22682368C7
:1008600002F03F025B0207D52068C0F38810A0FBAE
:10087000010106E0084610BD2168C1F38811A1FB03
:1008800000010023FFF79EFC2168C1F30141491CD0
:100890004900B0FBF1F010BD083802400024F4001C
:1008A00040787D012DE9F84F04006ED02078DFF804
:1008B0004C93C007A9F104054AD009F1040001686E
:1008C000C1F38101012908D00068C0F3810002282A
:1008D0000AD1D9F80000400206D52868800337D530
:1008E00060680028E1D033E06068B0F5803F10D048
:1008F000B0F5A02F286810D020F480302860286838
:1009000020F4802028606068A8B1FFF73FFE06460B
:100910000DE0286840F48030F4E740F4802028603F
:10092000F7E700BFFFF732FE801B642873D8286802
:100930008003F7D50CE0FFF729FE064605E000BF6F
:10094000FFF724FE801B6428F0D828688003F7D4C2
:100950002078DFF8AC8280074FF0000A3ED5A74828
:10096000001D016811F00C0F08D00068C0F3810071
:1009700002280BD1D9F80000400207D4286880076C
:1009800016D5E068012800D112E033E1E068B8B183
:100990000120C8F80000FFF7F9FD064605E000BF9A
:1009A000FFF7F4FD801B0228C0D828688007F7D520
:1009B0002868216920F0F80040EAC10028600DE0B5
:1009C000C8F800A0FFF7E2FD064604E0FFF7DEFDF1
:1009D000801B02281FD828688007F7D420780007DA
:1009E00022D5864F87486169703771B10121016056
:1009F000FFF7CCFD064604E0FFF7C8FD801B022888
:100A000009D838688007F7D50EE0C0F800A0FFF7D6
:100A1000BDFD064605E082E0FFF7B8FD801B022819
:100A20007DD838688007F7D42078400768D5DFF88C
:100A3000CCB100270BF13C0BDBF80000C0000BD45D
:100A4000DBF8001041F08051CBF80010DBF800001B
:100A5000012700F0805000906B4E3068C00510D424
:100A6000306840F480703060FFF790FD009005E042
:100A7000FFF78CFD0099401A022850D83068C00555
:100A8000F6D55E4EA0686C3601280FD00528306878
:100A900010D020F001003060306820F00400306099
:100AA000A068B8B1FFF772FD00900FE0306840F029
:100AB0000100F4E740F004003060F7E7FFF766FD5F
:100AC0000099411A41F28830814266D83068800727
:100AD000F4D50EE0FFF75AFD009007E0FFF756FD52
:100AE0000099411A41F28830814256D83068800717
:100AF000F4D42FB1DBF8001021F08051CBF80010B6
:100B0000A069C8B33D49091D0968C1F381010229E3
:100B10004AD00228504607D0C8F8600000E03CE008
:100B2000FFF734FD04463BE04746C8F86000FFF796
:100B30002DFD064605E000BFFFF728FD801B0228BB
:100B40002BD828688001F7D4D4E907010843A16AAB
:100B50002E4A490802EB0141626A41EA82110843C8
:100B600094F82C1040EA0161C9F8001001203866A1
:100B7000FFF70CFD044606E03EE000BFFFF706FD70
:100B8000001B022809D828688001F7D534E000BF8F
:100B9000FFF7FCFC001B022802D90320BDE8F88FF8
:100BA00028688001F4D427E00128F7D0D9F80000A4
:100BB000E26900F4800191421CD1226A00F03F01F9
:100BC000914217D147F6C071626A0140B1EB821FB2
:100BD00010D1A26A4FF0FF3300F4403103EB520210
:100BE000B1EB024F06D194F82C1000F07060B0EB1E
:100BF000016F01D00120D1E70020CFE70438024087
:100C000000004742800E4742007000400000FFFF96
:100C100010B5401EB0F1807F01D3012010BD4FF010
:100C2000E02460610F21601700F05AFD0020A061F0
:100C300007202061002010BD70477047F8B501689B
:100C400004460868CA684B6910F00F0F4FF00005A2
:100C500059D003F0010602F49077374365D0C107FD
:100C600005D0D10503D5216C41F001012164410774
:100C700005D5D90703D0216C41F002012164810719
:100C800005D5D90703D0216C41F004012164010787
:100C900007D502F02001314303D0216C41F0080157
:100CA0002164216C00293AD0800604D5900602D533
:100CB000204600F0B0FB20684069216CC0F3801032
:100CC000090700D460B3204600F07EFB206840692D
:100CD000400621D52068143050E8001F21F0400163
:100CE00040E80012002AF5D1A06BA8B16C4901655B
:100CF000A06BFFF728FB002811D0A06B016D01B09D
:100D0000BDE8F040084783060FD593060DD5204671
:100D1000BDE8F84000F07FBB2046FFF78EFFF8BD2E
:100D20002046FFF78AFF2564F8BD266B2023012E9D
:100D300079D1C60677D5D60675D50868486800907B
:100D40004869400640D5A16B086840680004000C63
:100D5000EAD0A28D8242E7D9E085C869B0F5807FEC
:100D60002DD020680C3050E8001F21F4807140E83D
:100D70000012002AF5D12068143050E8001F21F03D
:100D8000010140E80012002AF5D12068143050E833
:100D9000001F21F0400140E80012002AF5D184F83C
:100DA0003E30256320680C3050E8001F21F0100110
:100DB00040E80012002AF5D1A06BFFF77BFAA08D66
:100DC000E18D401A81B229E0A08DE18D401A81B2F7
:100DD000E08D0028A8D00029A6D020680C3050E86B
:100DE000002F22F4907240E80026002EF5D12068F2
:100DF000143050E8002F22F0010240E80026002EB7
:100E0000F5D184F83E30256320680C3050E8002F7F
:100E100022F0100240E80023002BF5D12046FFF716
:100E20000BFFF8BDFFE705062BD5150629D594F86D
:100E30003D002128F5D1A068B0F5805F01D120697F
:100E4000B0B1206A411C2162216800784860E08CC2
:100E5000401E0004000CE084E3D12068C16821F04A
:100E60008001C1602068C16841F04001C160D8E7DD
:100E7000206A0088C0F308004860206A801C206255
:100E8000E5E74006CDD55006CBD5CA68204622F00E
:100E90004002CA6084F83D3000F099F9C1E70000D3
:100EA000B913000870B5040004D094F83D00002583
:100EB00010B106E0012070BD84F83C50204600F0DF
:100EC00023F8242084F83D002068C16821F40051F3
:100ED000C160204600F000FB2068016921F49041C8
:100EE00001612068416921F02A0141612068C168DF
:100EF00041F40051C1602564202084F83D0084F84D
:100F00003E00002070BD0000F0B587B004461421FB
:100F10006846FFF78FF93D4B276800223C490224C1
:100F2000032507263B489F4221D1394B14331F68C4
:100F300047F010071F601B6803F0100305930B6850
:100F400043F001030B60096802AB01F00101059158
:100F50006902CDE9001483E864006946FFF718FAD6
:100F6000002211462520FFF77FFB252024E0284B97
:100F7000DFF8A4C01033674522D11F6847F400375B
:100F80001F601B6803F4003305930B6843F00103F3
:100F90000B60096802AF01F0010105910C21CDE958
:100FA000001487E864006946FFF7F2F90022114651
:100FB0002620FFF759FB2620FFF748FB07B0F0BDBE
:100FC00016488742FAD1186840F4802018601868E3
:100FD00000F480200590086840F00200086008686E
:100FE00002AF00F0020005904FF44060CDE900042C
:100FF00087E8640069460A48FFF7CAF900221146EB
:101000002720FFF731FB2720D6E700000010014022
:1010100030380240000002400044004000480040D8
:101020000004024090F83E30202B0ED159B152B14D
:1010300090F83C30012B08D0012380F83C3000238D
:10104000036300F0CFBA0120704702207047000010
:1010500070B500681649884215D114221549164802
:10106000FFF7E0FF15A000F02BFB19A000F028FB14
:10107000104D00241AA0295D00F022FB641C142CE2
:10108000F8DB18A00EE01849884207D1094914225C
:1010900014311648FFF7C6FF15A003E0194988422E
:1010A00004D119A0BDE8704000F00ABB70BD00007B
:1010B000001001401400002050000020496E73749D
:1010C000616E63655F5553415254310D0A00000053
:1010D00073656E645F646174615F75313A0D0A0017
:1010E000256300000D0A0000004400409400002029
:1010F000496E7374616E63655F5553415254320D8E
:101100000A00000000480040496E7374616E636518
:101110005F5553415254330D0A0000002DE9F84346
:10112000044690F83D001F4616460D4620284CD137
:10113000C5B1BEB194F83C00012846D0012084F826
:101140003C004FF00008C4F84080212084F83D00A6
:10115000FFF71CFAA6848146E684A068B0F5805F9C
:1011600003D004E00120BDE8F883206928B12E46B1
:101170005FF0000584F83C800EE00026FAE780214D
:10118000204600F04CFAA0B9AEB116F8010B216868
:101190004860E08C401EE084E08C4B464FF000023B
:1011A00000970028EBD14FF04001204600F037FABD
:1011B00030B10320D7E735F8020BC0F30800E6E7AB
:1011C000202084F83D000020CDE70220CBE77047C7
:1011D000FEE7000030B587B014216846FFF72AF813
:1011E0001648016841F080010160016801F080014A
:1011F0000591016841F001010160016801F0010100
:101200000591016841F00201016000680C4D00F099
:1012100002004FF460740590002221462846FFF733
:10122000AFF901210220CDE90210CDE90041694664
:101230002846FFF7ADF807B030BD00003038024057
:1012400000040240114810B50F4901604FF4E1312C
:101250004160002181600C22C160C0E904128161FB
:10126000C161FFF71FFE08B1FFF722F814220849F9
:101270000648FFF7D7FE05481422BDE8104005498F
:101280004430FFF7CFBE00000010014050000020A6
:1012900014000020280000200C4810B50A49016005
:1012A0004FF4E1314160002181600C22C160C0E94E
:1012B00004128161C161FFF7F5FD002803D0BDE88C
:1012C0001040FEF7F5BF10BD004400409400002020
:1012D0000C4810B50A4901604FF4E131416000212A
:1012E00081600C22C160C0E904128161C161FFF715
:1012F000D9FD002803D0BDE81040FEF7D9BF10BDCE
:1013000000480040D8000020FEE7FEE77047704725
:10131000FFF742B930B593B030216846FEF78AFF37
:1013200014210CA8FEF786FF1D480025016841F036
:1013300080510160006800F08050119019480168E8
:1013400041F4804101600068022400F48040119063
:101350000120039010200490009406940820CDE909
:101360000750A820CDE9090404200B906846FFF738
:1013700099FA08B172B6FEE70CA90F2081E8310096
:101380004FF4A0500F904FF48050109005210CA8FE
:10139000FFF79CF9002801D072B6FEE713B030BD0C
:1013A00040380240007000400248016841F470017A
:1013B0000160704788ED00E010B5806B0021C185A9
:1013C000C184FFF73AFC10BD01680C3151E8002FD1
:1013D00022F4907241E80023002BF5D1016814310A
:1013E00051E8002F22F0010241E80023002BF5D143
:1013F000016B012909D101680C3151E8002F22F05D
:10140000100241E80023002BF5D1202180F83E1086
:1014100000210163704708B590F83E10222901D0E1
:10142000022008BD82684FF480539A4201D10169BD
:1014300021B1816A9A421BD04AB10AE00268816AEE
:101440005268C2F308020A80816A891C08E00269B6
:1014500072B10268526802F07F020A70816A491C08
:101460008162C18D491E0904090CC18503D019E0B0
:1014700002685268F1E70168CA6822F02002CA6077
:101480000168CA6822F48072CA6001684A6922F061
:1014900001024A61202180F83E10016B012903D02E
:1014A000FFF7D6FD002008BD0021016301680C3163
:1014B00051E8002F22F0100241E80023002BF5D163
:1014C00001680A68D20602D50A6849680091818DD0
:1014D000FFF7B2FBE6E7000070B50446006801695B
:1014E000E26821F44051114301612169A068E26979
:1014F00008436169114308432168CA6849F20C63D3
:101500009A430243CA6020684169A26921F440718C
:101510001143416131492068884202D030498842F4
:1015200002D1FFF77DF901E0FFF76AF9E2690023D4
:10153000192164253226B2F5004F626828D0A0FB3D
:101540000101930F9200FEF73DFE0146B0FBF5F05E
:101550006FF01802504301EB800006EB0010B0FB67
:10156000F5F000F0F002B1FBF5F002EB0012B1FB78
:10157000F5F06FF01803584301EB800006EB001004
:10158000B0FBF5F000F00F0021681044886070BDDA
:10159000A0FB010192185B41FEF714FE0146B0FB6F
:1015A000F5F00201B1FBF5F06FF01803584301EBC1
:1015B000800006EBC000B0FBF5F000F0F80002EB95
:1015C0004002B1FBF5F0584301EB800006EBC00090
:1015D000B0FBF5F000F00700D6E700000010014076
:1015E0000014014081628285C285002101642222AB
:1015F00080F83E2080F83C10016921B10168CA687A
:1016000042F48072CA6001684A6942F001024A618C
:101610000068C16841F02001C160002070472DE9D9
:10162000F041984617460E460446069D27E0681C82
:1016300025D02DB1FEF7AAFFA0EB0800A8421ED9C5
:1016400020680C3050E8001F21F4D07140E80012EF
:10165000002AF5D12068143050E8001F21F0010164
:1016600040E80012002AF5D1202084F83D0084F8DB
:101670003E00002084F83C000320BDE8F081206893
:10168000006836EA000004D00020B842CFD0002025
:10169000F3E70120F9E700000148FFF7CFBA0000A7
:1016A000500000200148FFF7C9BA00009400002054
:1016B0000148FFF7C3BA0000D8000020FEE7000091
:1016C0000FB4054B10B503A9044A029800F027F89F
:1016D00010BC5DF814FB0000F51700081000002096
:1016E0000907090E002804DB00F1E02080F800144F
:1016F000704700F00F0000F1E02080F8141D7047E3
:1017000002E008C8121F08C1002AFAD170477047CA
:10171000002001E001C1121F002AFBD170472DE912
:10172000F84F9946924688460546002706E0252848
:101730000AD051464A4690476D1C7F1C28780028E5
:10174000F5D13846BDE8F88F002315F8011F18467B
:101750002E2915D115F8011F04232A290DD06FF069
:101760002F022978A1F13004092C09D800EB800060
:1017700002EB400008446D1CF3E758F8040B6D1CA5
:101780002A78002ADDD0632A07D0732A0FD01046AA
:1017900051464A4690477F1C2AE018F8042B8DF8E2
:1017A000002000218DF801106E46012103E058F859
:1017B000046B4FF0FF315A074FF0000401D409E0E9
:1017C000641C84420BDA8C42FADB325D002AF7D1CA
:1017D00005E0641C8C42FCDB305D0028F9D1274415
:1017E00004E016F8010B51464A469047641EF8D2B1
:1017F0006D1CA3E738B504468DF800004FF6FF7363
:10180000012269460248FFF789FC204638BD0000E6
:1018100050000020FEF7C8FEFFF77CFDFFF7DAFC62
:10182000FFF710FDFFF738FDFFF752FD0B4D4FF4AA
:1018300060744FF47A76002221462846FEF7A0FE17
:101840006423142206490748FFF768FC06A0FFF747
:1018500037FF3046FEF78AFDEDE700000004024046
:101860003C000020D8000020776F726B696E670D16
:101870000A00000000000000000000000102030454
:10188000060708090000000001020304AC18000864
:10189000000000201400000000170008C018000815
:1018A000140000200C0500001017000801000000C3
:1018B00010000000000000000024F4000000000000
:040000050800018965
:00000001FF
