:020000040800F2
:10000000480B0020CD010008C5050008E3040008E6
:10001000E7040008890200084312000800000000FD
:10002000000000000000000000000000E5090008DA
:100030008D020008000000006D090008F90A0008A0
:10004000E7010008E7010008E7010008E7010008F0
:10005000E7010008E7010008E7010008E7010008E0
:10006000E7010008E7010008E7010008E7010008D0
:10007000E7010008E7010008E7010008E7010008C0
:10008000E7010008E7010008E7010008E7010008B0
:10009000E7010008E7010008E7010008E7010008A0
:1000A000E7010008E7010008E7010008E701000890
:1000B000E7010008E7010008E7010008E701000880
:1000C000E7010008E7010008E7010008E701000870
:1000D000E70100085D110008E7010008E7010008DA
:1000E000E7010008E7010008E7010008E701000850
:1000F000E7010008E7010008E7010008E701000840
:10010000E7010008E7010008E7010008E70100082F
:10011000E7010008E7010008E7010008E70100081F
:10012000E7010008E7010008E7010008E70100080F
:1001300000F002F800F03AF80AA090E8000C8244BF
:100140008344AAF10107DA4501D100F02FF8AFF29C
:10015000090EBAE80F0013F0010F18BFFB1A43F0A5
:1001600001031847101C0000301C0000103A24BF87
:1001700078C878C1FAD8520724BF30C830C144BF0C
:1001800004680C607047000000230024002500264E
:10019000103A28BF78C1FBD8520728BF30C148BFEA
:1001A0000B6070471FB51FBD10B510BD00F033F8D0
:1001B0001146FFF7F7FF01F091F800F051F803B492
:1001C000FFF7F2FF03BC01F03EF80000094880474A
:1001D00009480047FEE7FEE7FEE7FEE7FEE7FEE729
:1001E000FEE7FEE7FEE7FEE704480549054A064B41
:1001F00070470000FD0A0008310100084805002092
:10020000480B00204807002048070020704770472F
:10021000704770477047754600F02CF8AE460500F1
:100220006946534620F00700854618B020B5FFF711
:10023000DBFFBDE820404FF000064FF000074FF015
:1002400000084FF0000B21F00701AC46ACE8C009F4
:10025000ACE8C009ACE8C009ACE8C0098D467047FD
:1002600010B50446AFF300802046BDE81040FFF70C
:10027000A6BF000000487047E8040020014908605C
:100280007047000000860D4200BFFEE77047000087
:1002900000B587B00121084600F06AFB0121042067
:1002A00000F076FB0320ADF8000004208DF8030079
:1002B00069461E4800F08AF804A800F045FF0020B7
:1002C000ADF810004FF6FF70ADF814000020ADF847
:1002D0001600ADF8120004A94FF0804000F0E2FED5
:1002E00000231A4603214FF0804000F081FD01A851
:1002F00000F0F6FD0A20ADF80C0001A9400700F05F
:1003000099FD0121880700F055FD01221146900753
:1003100000F0EFFD00214FF0804000F094FE01213D
:10032000880700F04AFD07B000BD0000000801404A
:1003300000B587B00121042000F01AFB012108203C
:1003400000F026FBC020ADF8000004208DF803006B
:1003500069461C4800F03AF804A800F0F5FE0020B9
:10036000ADF810004FF6FF70ADF814000020ADF8A6
:100370001600ADF8120004A9134800F093FE002304
:100380001A460321104800F033FD01A800F0A8FD33
:100390000A20ADF80C0001A90B4800F04BFD01212B
:1003A000094800F007FD01221146074800F0A1FDB1
:1003B0000021054800F047FE0121034800F0FDFC44
:1003C00007B000BD000C0140000800402DE9F041DD
:1003D000024600250026002000230024002791F873
:1003E00003C00CF00F0591F803C00CF0100CBCF129
:1003F000000F03D091F802C04CEA050591F800C047
:10040000BCF1000F31D0146800202BE04FF0010C3C
:100410000CFA00F3B1F800C00CEA03069E4220D1AA
:1004200083004FF00F0C0CFA03F7BC4305FA03FCF2
:100430004CEA040491F803C0BCF1280F06D14FF038
:10044000010C0CFA00FCC2F814C00AE091F803C0D9
:10045000BCF1480F05D14FF0010C0CFA00FCC2F8BA
:1004600010C0401C0828D1D31460B1F800C0BCF102
:10047000FF0F34DD546800202EE000F1080C4FF02F
:10048000010808FA0CF3B1F800C00CEA03069E421A
:1004900021D183004FF00F0C0CFA03F7BC4305FA8F
:1004A00003FC4CEA040491F803C0BCF1280F05D109
:1004B00000F1080C08FA0CF8C2F8148091F803C097
:1004C000BCF1480F07D100F1080C4FF0010808FA01
:1004D0000CF8C2F81080401C0828CED35460BDE848
:1004E000F08100BFFEE700BFFEE7000008B5012174
:1004F000082000F04DFA4FF47040ADF800001020D5
:100500008DF8030003208DF8020069460148FFF7CB
:100510005DFF08BD000C014030B589B005460C46B2
:10052000FFF7E4FF0121C80200F032FA01210420A4
:1005300000F02EFA4FF41060ADF8200018208DF86E
:10054000230003208DF8220008A91C48FFF73EFF76
:10055000ADF81850ADF814400020ADF81A00ADF811
:10056000160005A9164800F09DFD6020ADF80400B6
:100570000120ADF806000020ADF80A00ADF80C002F
:1005800001A90F4800F0BEFC01A90D4800F010FDC4
:1005900001210B4800F01DFC0821094800F0FEFC79
:1005A0000821074800F042FD0121054800F0F6FB54
:1005B0000121034800F001FC09B030BD00080140F2
:1005C000002C01407047000030B500240CE00025ED
:1005D00006E00020074901EBC5010855681CC5B2BB
:1005E000802DF6DB601CC4B2082CF0DB00F0F0F8C4
:1005F00030BD00002000002000B500218D2000F05B
:1006000083F90021142000F07FF90021AF2000F0D1
:100610007BF900BDF0B5144600267F2801DC3F2998
:1006200000DDF0BD0B46CF1701EB5777FF10C7F188
:100630000707FAB2CF1701EB5777FF10A1EBC707F7
:10064000FDB2C5F107070123BB40DEB24CB10A4B36
:1006500003EBC0039B5C3343074F07EBC007BB545E
:1006600008E0054B03EBC0039B5CB343024F07EB71
:10067000C007BB5400BFD4E72000002008B501210B
:10068000082000F085F93820ADF8000010208DF822
:10069000030002208DF8020069464948FFF796FEE4
:1006A0000121042000F074F94FF40040ADF800007F
:1006B00002208DF8020010208DF8030069464148A1
:1006C000FFF784FE012000F04BF9002000F070F9E4
:1006D0000020FFF7D3FD002000F042F900203A4946
:1006E0000860642000F0D4FD01203849C1F88C0175
:1006F0000021AE2000F008F90021D52000F004F917
:100700000021502000F000F90021A82000F0FCF8A2
:1007100000213F2000F0F8F80021D32000F0F4F889
:100720000021084600F0F0F80021402000F0ECF82D
:1007300000218D2000F0E8F80021142000F0E4F8FA
:100740000021202000F0E0F80021022000F0DCF879
:100750000021A12000F0D8F80021C02000F0D4F83A
:100760000021DA2000F0D0F80021122000F0CCF8AF
:100770000021812000F0C8F80021EF2000F0C4F82B
:100780000021D92000F0C0F80021F12000F0BCF8D1
:100790000021DB2000F0B8F80021302000F0B4F890
:1007A0000021A42000F0B0F80021A62000F0ACF851
:1007B0000021AF2000F0A8F8FFF706FF08BD0000F9
:1007C000000C0140000801408C8121420080214240
:1007D00030B500241CE004F1B001C8B2002100F0E3
:1007E00093F80021084600F08FF80021102000F057
:1007F0008BF8002508E0084901EBC501085D0121DF
:1008000000F082F8681CC5B2802DF4DB601CC4B215
:10081000082CE0DB30BD0000200000202DE9F04F67
:1008200080460C4615461E46A346A5F12000C5B2DB
:1008300000273EE00C2E07D105EB45001F4901EBD8
:10084000800010F8079004E01D4800EB051010F838
:1008500007904FF0000A26E009F0800028B12146F9
:100860004046099AFFF7D6FE09E0099808B9012029
:1008700000E00020024621464046FFF7CBFE4FEA4B
:1008800049604FEA1069601CC4B2A4EB0B00B0428F
:1008900005D15C4608F1010000F0FF0806E00AF10E
:1008A000010000F0FF0ABAF1080FD5DB00BF781C89
:1008B000C7B2B742BEDBBDE8F08F000010130008DE
:1008C0008417000878B505460E46144618E07A2DC0
:1008D00003DD002506F11000C6B23A2E04DD00202B
:1008E00005460646FFF770FE0120009022780C2393
:1008F00031462846FFF792FF05F10800C5B2641C97
:1009000020780028E3D178BD10B50A461AB101233A
:10091000114C236002E000230F4C2360002114E0FF
:1009200000230E4C236000F080031BB10123241F21
:10093000236003E00023094C241F23600123074C9C
:1009400023604306180E4B1CD9B20829E8DB0123AB
:10095000014C236010BD0000BC0121429481214262
:10096000014908627047000000000E427047000015
:1009700029B1064AD2690243044BDA6104E0034A12
:10098000D2698243014BDA617047000000100240D7
:1009900029B1064A92690243044B9A6104E0034A72
:1009A00092698243014B9A61704700000010024037
:1009B00000210B4A11700A4A203A82F820100128BF
:1009C00002D0042808D103E00121054A117004E097
:1009D0000521034A117000E000BF00BF704700000E
:1009E00020100240704710B500F002F810BD000062
:1009F0000CB50020019000903348006840F480302E
:100A00003149086000BF3048006800F400300090B1
:100A10000198401C0190009818B90198B0F5A06F9A
:100A2000F1D12948006800F4003010B10120009095
:100A300001E0002000900098012843D1234800687D
:100A400040F01000214908600846006820F00300CB
:100A500008600846006840F0020008601A484068D4
:100A6000194948600846406848600846406840F4B4
:100A7000806048600846406820F47C104860084662
:100A8000406840F4E81048600846006840F0807014
:100A9000086000BF0C48006800F000700028F9D022
:100AA0000948406820F0030007494860084640684C
:100AB00040F00200486000BF0348406800F00C00AE
:100AC0000828F9D10CBD00000010024000200240AF
:100AD000042808D14FF0E021096941F004014FF0EA
:100AE000E022116107E04FF0E021096921F00401E3
:100AF0004FF0E022116170477047000010B51348B5
:100B0000006840F00100114908600846406810493B
:100B100008400E494860084600680E4908400B49E5
:100B200008600846006820F4802008600846406895
:100B300020F4FE0048604FF41F008860FFF753FF69
:100B40004FF000600449086010BD00000010024032
:100B50000000FFF8FFFFF6FE08ED00E0F0B50C46E0
:100B6000154600220021068C4FF6FE773E40068493
:100B7000028B018C4FF60C7632407E1C06EA03167F
:100B80002E433243104EB0420ED0104EB0420BD026
:100B9000B0F1804F08D00E4EB04205D00D4EB0429D
:100BA00002D00D4EB04206D14FF6FD76314044F0F2
:100BB0000106314305E04FF6F576314044F0010679
:100BC000314302830184F0BD002C01400034014018
:100BD0000004004000080040000C0040F0B50C4646
:100BE0001546002200210026078C4FF6EF7C07EA0D
:100BF0000C070784028B018C4FF6FF7707EA041677
:100C000040F6FF473A404FF6FF7707EA03373A438B
:100C10004FF6FF7707EA05273A43114FB8420ED047
:100C2000104FB8420BD0B0F1804F08D00E4FB842F1
:100C300005D00E4FB84202D00D4FB84206D14FF644
:100C4000DF77394046F01007394305E04FF65F770C
:100C5000394044F01007394302830184F0BD00009D
:100C6000002C014000340140000400400008004016
:100C7000000C0040F0B50C4615460022002100266D
:100C8000078C4FF6FF6C07EA0C070784828B018CF8
:100C90004FF6FF7707EA04264FF60C773A404FF6F7
:100CA000FF7707EA03172F433A43114FB8420ED09C
:100CB000104FB8420BD0B0F1804F08D00E4FB84261
:100CC00005D00E4FB84202D00D4FB84206D14FF6B4
:100CD000FF57394046F48077394305E04FF2FF571C
:100CE000394044F48077394382830184F0BD0000A9
:100CF000002C014000340140000400400008004086
:100D0000000C0040F0B50C461546002200210026DC
:100D1000078C4EF6FF7C07EA0C070784828B018C58
:100D20004FF6FF7707EA043640F6FF473A404FF6A2
:100D3000FF7707EA05273A434FF6FF7707EA0337BD
:100D40003A43114FB8420ED0104FB8420BD0B0F119
:100D5000804F08D00E4FB84205D00E4FB84202D097
:100D60000D4FB84206D14DF6FF77394046F4805713
:100D7000394305E047F6FF57394044F4805739437B
:100D800082830184F0BD0000002C0140003401404A
:100D90000004004000080040000C004021B102881F
:100DA00042F08002028004E002884FF67F731A400E
:100DB00002807047CA430282704721B1028842F024
:100DC0000102028004E002884FF6FE731A4002809E
:100DD000704731B1B0F8442042F40042A0F84420FA
:100DE00005E0B0F84420C2F30E02A0F8442070479A
:100DF000F0B50C4615461E4600210022002301894D
:100E0000028B038C4FF6F877394021434FF6FC47AD
:100E10003A4040F201173A434FF6DD773B404FF638
:100E2000FF7707EA06172F433B43018102830384C0
:100E3000F0BD000070B505460C46244885420ED032
:100E4000234885420BD0B5F1804F08D02148854218
:100E500005D02148854202D02048854200D100E0DB
:100E600000BF208850B92389A28861882846FFF7EF
:100E700075FEE188284600F0E8F825E0208804287F
:100E80000AD12389A28861882846FFF7A7FEE18856
:100E9000284600F0E3F817E0208808280AD12389C3
:100EA000A28861882846FFF7E5FEE188284600F021
:100EB000E2F809E02389A28861882846FFF722FF2B
:100EC000E188284600F0E0F870BD0000002C0140E9
:100ED000003401400004004000080040000C0040C5
:100EE000002101804180012181800021C180018198
:100EF00070471AB183890B43838102E083898B4356
:100F00008381704770B5002400220023058C4FF6C2
:100F1000FE7635400584028C8388048B4FF68F75EE
:100F20002C40B51E2C400D882C43751E2A400D897F
:100F30002A434D882A43144DA8420BD0134DA84292
:100F400008D0134DA84205D0124DA84202D0124D30
:100F5000A84213D14FF6F7752A404D892A434FF620
:100F6000FB752A408D882A434FF6FF652B404FF6CC
:100F7000FF552B408D892B43CD892B4383800483E0
:100F8000CD888586028470BD002C0140003401406C
:100F90000040014000440140004801400A46002151
:100FA000018B4FF6F773194011430183704700001E
:100FB00070B5002200230024058C4EF6FF763540E4
:100FC0000584038C8488828B48F6FF752A404FF68F
:100FD000FF452A400D884FF6FF7606EA05252A438D
:100FE0004DF6FF752B400D8906EA05352B434D88DC
:100FF00006EA05352B430B4DA84202D00A4DA84204
:1010000008D14BF6FF752C408D894FF6FF7606EA26
:1010100085152C4384808283CD88A0F840500384BA
:1010200070BD0000002C0140003401400A46002140
:10103000818B4FF2FF7319404FF6FF7303EA0223CF
:1010400019438183704781847047028B4FF6F37395
:101050001A400283028B0A4302837047028B4FF2CD
:10106000FF331A400283028B4FF6FF7303EA01231A
:101070001A4302837047828B4FF6F3731A408283C0
:10108000828B0A4382837047828B4FF2FF331A4070
:101090008283828B4FF6FF7303EA01231A43828314
:1010A00070470000002202881D4B98420ED01D4B55
:1010B00098420BD0B0F1804F08D01B4B984205D01E
:1010C0001A4B984202D01A4B984204D14FF68F73B4
:1010D0001A404B881A43174B984207D0164B984238
:1010E00004D04FF6FF431A40CB881A4302808B8806
:1010F00083850B8803850A4B98420BD0094B984295
:1011000008D00E4B984205D00D4B984202D00D4BA3
:10111000984201D10B7A0386012383827047000035
:10112000002C014000340140000400400008004051
:10113000000C00400010004000140040004001403E
:1011400000440140004801404FF6FF7181800021BA
:101150000180C180418001727047000010B540F2EB
:1011600025511D4800F03EF810B31B4800F064F80C
:10117000C4B21A48008800F40040C8B91748008873
:1011800000F4804060B10A2C03D00020134908808D
:1011900020E01248008840F400401049088019E01F
:1011A0000D2C06D10D48008840F480400B49088082
:1011B00010E00A480088C0F30D0009490C540748A4
:1011C0000088401C0549088008460088C72801DDC2
:1011D0000020088010BD0000003801401C000020E5
:1011E0002004002070B502460024002300250020C2
:1011F00040F66A16B14200D100BFC1F3421501F0BA
:101200001F03012606FA03F3012D02D1968933400C
:1012100006E0022D02D1168A334001E0968A33405F
:101220000C12012606FA04F41688344013B10CB1EE
:10123000012000E0002070BD01468888C0F308004E
:10124000704700BFFEE700BF7047000010B56FF0A9
:101250000400FFF73DFC0A4800680A49B0FBF1F0C2
:10126000094908700846007800EB4001C1EBC01046
:101270004FF6FF7101EAC0000449088010BD00006C
:101280000000002000127A00140000201600002048
:101290000146114A12884A434FF0E0235A61002266
:1012A0009A611A46126942F001021A6100BF4FF0BA
:1012B000E022106900F001021AB100F48032002A25
:1012C000F5D04FF0E022126922F001024FF0E02346
:1012D0001A6100229A61704716000020FEF7D8FFBD
:1012E000FFF726F8FFF702F9002141F61F40FFF74C
:1012F00013F9FFF7ABFFFFF7C1F906E0FFF77CF941
:1013000002A200210846FFF7DDFAF7E7444D50003E
:1013100000000000000000000000000000000000CD
:101320003F4000000000000000003000400030009E
:101330004000000009000BC03D000BC03D0009004B
:1013400018C024407FE0224031800000180024C0F3
:101350001B000D803240018003801C4027401C8010
:101360000740004010006000000000000000000086
:101370000000000000001F802040402000004020AE
:1013800020401F8000000000090006001F800600AA
:1013900009000000040004003F8004000400000075
:1013A00000100060000000000000000004000400C5
:1013B00004000400040000000000004000000000E1
:1013C00000000000002001C00600380040000000BE
:1013D0001F802040204020401F800000000010405F
:1013E0003FC000400000000018C0214022402440BF
:1013F0001840000010802040244024401B80000042
:1014000002000D0011003FC0014000003C8024405C
:1014100024402440238000001F8024402440344086
:10142000038000003000200027C0380020000000AA
:101430001B802440244024401B8000001C0022C04C
:10144000224022401F8000000000000008400000F1
:101450000000000000000000046000000000000028
:10146000000004000A00110020804040090009002B
:101470000900090009000000000040402080110020
:101480000A00040018002000234024001800000077
:101490001F802040274029401F400000004007C017
:1014A00039000F0001C0004020403FC024402440CC
:1014B0001B8000001F802040204020403080000022
:1014C00020403FC0204020401F80000020403FC0FF
:1014D00024402E4030C0000020403FC024402E0059
:1014E000300000000F0010802040224033800200B6
:1014F00020403FC0040004003FC020402040204066
:101500003FC02040204000000060202020203FC03D
:101510002000200020403FC024400B0030C020406D
:1015200020403FC020400040004000C03FC03C0081
:1015300003C03C003FC0000020403FC00C402300DF
:101540003FC020001F802040204020401F8000001E
:1015500020403FC024402400180000001F8021408C
:10156000214020E01FA0000020403FC02440260072
:1015700019C0004018C0244024402240318000009F
:10158000300020403FC020403000000020003F805D
:10159000004000403F80200020003E0001C00700C6
:1015A00038002000380007C03C0007C038000000A9
:1015B000204039C0060039C02040000020003840DB
:1015C00007C0384020000000304021C0264038408D
:1015D00020C00000000000007FE04020402000000C
:1015E000000070000C00038000400000000040205C
:1015F00040207FE0000000000000200040002000AC
:10160000000000000010001000100010001000107A
:101610000000000040000000000000000000028008
:101620000540054003C0004020003FC00440044086
:1016300003800000000003800440044006400000D6
:1016400000000380044024403FC0004000000380AD
:101650000540054003400000000004401FC0244036
:1016600024402000000002E00550055006500420F0
:1016700020403FC00440040003C00040000004407C
:1016800027C000400000000000100010041027E0F8
:101690000000000020403FC00140070004C004409B
:1016A000204020403FC000400040000007C0040030
:1016B00007C0040003C00000044007C00440040049
:1016C00003C0004000000380044004400380000089
:1016D000041007F004500440038000000000038061
:1016E0000440045007F00010044007C0024004000A
:1016F00004000000000006400540054004C0000052
:10170000000004001F800440004000000400078027
:101710000040044007C000400400070004C00180EE
:1017200006000400060001C0070001C0060000001A
:10173000044006C0010006C0044000000410071069
:1017400004E00180060004000000044005C00640DB
:10175000044000000000000004007BE04020000086
:10176000000000000000FFF000000000000040202A
:101770007BE00400000000004000800040002000EA
:1017800020004000000000000000000000000000F9
:10179000000000000000000000001FCC000C000052
:1017A0000000000000000800300060000800300069
:1017B00060000000022003FC1E20022003FC1E200B
:1017C0000220000000000E1811043FFF10840C7866
:1017D000000000000F0010840F3800C00778188444
:1017E0000078000000780F8410C411240E9800E4E3
:1017F000008400080800680070000000000000007D
:101800000000000000000000000007E0181820049D
:1018100040020000000040022004181807E0000009
:10182000000000000240024001800FF001800240F1
:10183000024000000080008000800FF800800080DF
:10184000008000000001000D000E000000000000FC
:101850000000000000000080008000800080008008
:10186000008000800000000C000C00000000000060
:101870000000000000000006001800600180060063
:1018800018002000000007F00808100410040808E1
:1018900007F000000000080408041FFC0004000416
:1018A0000000000000000E0C1014102410441184DD
:1018B0000E0C000000000C18100411041104128812
:1018C0000C700000000000E00320042408241FFC2A
:1018D0000024000000001F981084110411041088D7
:1018E00010700000000007F0088811041104188827
:1018F0000070000000001C00100010FC13001C0011
:101900001000000000000E381144108410841144AF
:101910000E38000000000700088C104410440888AE
:1019200007F00000000000000000030C030C0000A2
:10193000000000000000000000010106000000009F
:101940000000000000000080014002200410080890
:1019500010040000022002200220022002200220A7
:1019600002200000000010040808041002200140BA
:101970000080000000000E001200100C106C10809F
:101980000F00000003E00C1813E4142417C4082807
:1019900007D000000004003C03C41C40074000E4E2
:1019A000001C000410041FFC1104110411040E8813
:1019B0000070000003E00C1810041004100410085C
:1019C0001C10000010041FFC100410041004080870
:1019D00007F0000010041FFC1104110417C41004C8
:1019E0000818000010041FFC1104110017C010009B
:1019F0000800000003E00C181004100410441C78C8
:101A00000040000010041FFC10840080008010843F
:101A10001FFC10040000100410041FFC100410042C
:101A20000000000000030001100110011FFE100063
:101A30001000000010041FFC110403801464181C23
:101A40001004000010041FFC100400040004000433
:101A5000000C000010041FFC1F0000FC1F001FFCF6
:101A60001004000010041FFC0C04030000E0101818
:101A70001FFC100007F008081004100410040808E8
:101A800007F0000010041FFC1084108010801080EC
:101A90000F00000007F0081810241024101C080A7A
:101AA00007F2000010041FFC1104110011C01130D6
:101AB0000E0C000400000E1C11041084108410444D
:101AC0001C3800001800100010041FFC1004100047
:101AD0001800000010001FF8100400040004100497
:101AE0001FF8100010001E0011E0001C0070138091
:101AF0001C0010001FC0103C00E01F0000E0103C64
:101B00001FC000001004180C163401C001C01634A8
:101B1000180C100410001C00130400FC13041C001B
:101B2000100000000804101C1064108413041C042E
:101B3000101800000000000000007FFE400240027C
:101B400040020000000030000C0003800060001C18
:101B50000003000000004002400240027FFE00003F
:101B60000000000000000000200040004000400095
:101B7000200000000001000100010001000100013F
:101B800000010001000040004000200000000000B3
:101B900000000000000000980124014401440144B9
:101BA00000FC000410001FFC0088010401040088F0
:101BB00000700000000000700088010401040104AE
:101BC0000088000000000070008801040104110872
:101BD0001FFC0004000000F80144014401440144DA
:101BE00000C800000000010401040FFC11041104EE
:101BF00011001800000000D601290129012901C99E
:101C00000106000010041FFC008401000100010413
:101C100000FC000400000104190419FC0004000485
:101C2000000000000000000300010101190119FE7D
:101C30000000000010041FFC0024004001B4010C4F
:101C4000010400000000100410041FFC0004000444
:101C500000000000010401FC0104010001FC01047A
:101C6000010000FC010401FC0084010001000104EA
:101C700000FC0004000000F8010401040104010458
:101C800000F80000010101FF008501040104008843
:101C900000700000000000700088010401040105CC
:101CA00001FF00010104010401FC008401040100A2
:101CB00001800000000000CC012401240124012443
:101CC0000198000000000100010007F80104010470
:101CD00000000000010001F80004000400040108F5
:101CE00001FC0004010001800170000C0010016083
:101CF0000180010001F0010C003001C00030010C36
:101D000001F0010000000104018C00740170018CDD
:101D100001040000010101810171000E0018016041
:101D20000180010000000184010C013401440184A0
:101D3000010C0000000000000000000001003EFC5B
:101D4000400240020000000000000000FFFF000011
:101D5000000000000000400240023EFC01000000C4
:101D60000000000000006000800080004000400093
:101D700020002000941D000800000020200000002A
:101D80006C010008B41D000820000020280B000092
:101D90008801000800A24A040000000000000000C2
:101DA000010203040607080900000000000000000B
:041DB000000000002F
:0400000508000131BD
:00000001FF
