:020000040800F2
:10000000705E0120590200083D5500086145000856
:10001000E5540008A5210008DB6F0008000000007F
:10002000000000000000000000000000A101000826
:100030002332000800000000F501000809670008ED
:1000400073020008730200087302000873020008BC
:1000500073020008730200087302000873020008AC
:10006000730200087302000873020008730200089C
:10007000730200087302000873020008730200088C
:10008000730200087302000873020008730200087C
:10009000B922000873020008730200087302000806
:1000A000730200087302000873020008730200085C
:1000B000730200087302000873020008730200084C
:1000C000730200087302000873020008730200083C
:1000D00073020008256B00086D6B000873020008AE
:1000E000730200087302000873020008730200081C
:1000F000730200087302000873020008730200080C
:1001000073020008730200087302000873020008FB
:1001100073020008730200087302000873020008EB
:1001200073020008730200087302000873020008DB
:1001300073020008730200087302000873020008CB
:1001400073020008512400087302000873020008BB
:10015000730200087302000873020008796C00083B
:10016000730200087302000873020008730200089B
:10017000730200087302000873020008730200088B
:100180007302000873020008DFF810D001F076F95E
:1001900000480047B3C50008AFF30080705E01203F
:1001A0002A4B19680868B0E8F04F80F30988BFF35C
:1001B0006F8F4FF0000080F311887047000000003F
:1001C00006480068006880F3088862B661B6BFF32D
:1001D0004F8FBFF36F8F00DF00BF00BF08ED00E05F
:1001E000DFF80C00016841F470010160704700BF46
:1001F00088ED00E0EFF30980BFF36F8F134B1A68AF
:100200001EF0100F08BF20ED108A20E9F04F10609B
:1002100008B44FF0500080F31188BFF34F8FBFF345
:100220006F8F0EF07DFD4FF0000080F3118808BC49
:1002300019680868B0E8F04F1EF0100F08BFB0EC66
:10024000108A80F30988BFF36F8F70475400002035
:10025000EFF30580704700000648804706480047D6
:10026000FEE7FEE7FEE7FEE7FEE7FEE7FEE7FEE766
:10027000FEE7FEE71D670008890100089FED1A1AD6
:10028000F5EE000A40EE010ABDEEE00AF5EEC00A06
:1002900010EE100AF1EE10FA38BF401E00EE100A00
:1002A0001349F7EE001AB8EEC00A30EEC00ADFEDCF
:1002B0000F0A20EE200AFCEEC00A10EE900AC0F3EE
:1002C000080000EE900A01EB8000F8EE600A90ED65
:1002D000011A70EE600A90ED000A71EEE01A21EE4C
:1002E000800A00EE810A704783F9223E0000004434
:1002F00040020108DFED190AB5EEC00A60EE200ADF
:10030000BDEEE01A11EE100AF1EE10FA38BF401EF1
:1003100000EE100A1349F7EE001AB8EEC00A30EEEC
:10032000C00ADFED0F0A60EE200ABCEEE00A10EE14
:10033000100AC0F3080000EE100A01EB8000B8EECE
:10034000400A90ED011A70EEC00A90ED000A71EEBD
:10035000E01A21EE800A00EE810A704783F9223EFE
:10036000000000444002010870B405880E8844680B
:10037000D1F804C05368B54208D140884988884202
:1003800001BF11888D425188884203D070BC6FF044
:100390000200704705FB00F1880827D094ED001A91
:1003A000DCED000A94ED010ADCED011A31EE201AB1
:1003B000D4ED020A70EE211A9CED020A83ED001AB8
:1003C000C3ED011A94ED031ADCED031A30EE800A36
:1003D000401E71EE210A83ED020A04F11004C3ED00
:1003E000030A03F110030CF1100CD7D111F0030034
:1003F00030D0B0F1004F30D200282BDD211F1B1F61
:10040000ACF1040210F0010F0AD091ED010AD2ED17
:10041000010A091D121D30EE200A83ED010A1B1D81
:10042000400817D091ED010AD2ED010A401E30EECE
:10043000200A83ED010A91ED020AD2ED020A01F1D0
:10044000080102F1080230EE200A83ED020A03F1EE
:100450000803E7D170BC00207047B4EC010A401ECD
:10046000FCEC010A30EE200AA3EC010AF5D1F1E719
:1004700001804280436070472DE9F34F84B00498B7
:1004800040680090486801900498B0F800E0458802
:10049000DFEDFE0A00200290B0EE600AAE4506D104
:1004A00008884988884204BF7146864504D06FF0A9
:1004B000020006B0BDE8F08F01985FEA010C18BF9A
:1004C000B7EE001A3DD000BFBEEB0C0117D0B1F162
:1004D000004F80F01F82002911DD021F11F0010F73
:1004E0001CBFC2ED010A121D4B1006D0C2ED010A5D
:1004F000C2ED020A08325B1EF8D100EB8100BCF1AC
:100500000102A0EC011A19D0B2F1004F80F008826C
:10051000002A13DD031F12F0010F1CBFC3ED010AF7
:100520001B1D511008D000BFC3ED010AC3ED020A24
:10053000491E03F10803F7D100EB8200BCF1010C66
:10054000C2D14FF000080395002D14BFB0EE602A11
:10055000002000F0BF8100BF009908FB05F001EB0F
:10056000800B0199DBED002A01EB80000346F0EEE1
:10057000421AC64552D9AEEB0802ABEB850112F028
:10058000010F17D001EB850191ED000AB5EEC00A0D
:10059000F1EE10FA07DDB4EEE10AF1EE10FA09DD32
:1005A000F0EE401A06E0B1EE400AF4EEC01AF1EEA9
:1005B00010FAF5D3521031D001EB850C9CED000AF6
:1005C000B5EEC00AF1EE10FA05DDB4EEE10AF1EE87
:1005D00010FA09DD06E0B1EE400AF4EEC01AF1EEC1
:1005E00010FA01D2F0EE401A01EBC50191ED000ABC
:1005F000B5EEC00AF1EE10FA05DDB4EEE10AF1EE57
:1006000010FA09DD06E0B1EE400AF4EEC01AF1EE90
:1006100010FA01D2F0EE401A521ECDD1F5EEC01AFA
:10062000F1EE10FA00F07381F5EEC02A0126F1EE2A
:1006300010FA0099D4BFB1EE620AB0EE620AB4EECD
:10064000610AF1EE10FA1CBFAEEB0802B2F1010C28
:1006500047D005FB08F201EB820292ED001A00BFC1
:10066000B0EE410A05FB06F4B5EEC00A00EB8404C7
:10067000F1EE10FACCBFF0EE400AF1EE400AF4EED3
:10068000610AF1EE10FA28D1B5EB080C11D0BCF1DB
:10069000004F7DD2BCF1000F0BDD00BF92ED000AD0
:1006A000D1ED000ABCF1010CE2EC010AA1EC010A57
:1006B000F4D129000ED0B1F1004F6AD2002909DD32
:1006C00094ED000AD0ED000A491EE4EC010AA0EC0A
:1006D000010AF5D1012002900BE0761CBCF1010C5F
:1006E000BED10298012804D0F5EEC02AF1EE10FA2E
:1006F0007ED09BED000AB5EB08009A4659460646A7
:1007000022D0B0F1004F74D200281DDD091F10F077
:10071000010F06D0F0EE400A80EEA01A81ED011A1A
:10072000091D401010D000BFD1ED010A401E80EE1F
:10073000801A81ED011A91ED021AC1EE000AC1ED95
:10074000020A01F10801EFD1280026D0B0F1004FD4
:100750007ED2002821DDAAF1040110F0010F06D09D
:10076000D1ED010A80EE801A81ED011A091D4010B9
:1007700013D000BFD1ED010A401E80EE801A81ED3A
:10078000011AD1ED020A80EE801A81ED021A01E011
:10079000CBE0D6E001F10801ECD1DDE900124FF029
:1007A00000095FEA0E0773D0C14504BF01EB860163
:1007B00002EB850274D091ED000ADC46504633000E
:1007C00035D01C46B6F1004F7ED2002C2FDD0B1F1A
:1007D000ABF1040C16F0010F0FD0F0EE400ADCED87
:1007E000011AB0EE601A00EEE11A83ED011A01E081
:1007F0008DE0B1E01B1D0CF1040C741015D000BF8E
:10080000D3ED010A9CED011A40EE410AC3ED010A45
:10081000D3ED020A9CED021A0CF1080C40EE410ADD
:10082000C3ED020A0833641EEAD101EB86012B00F6
:1008300036D0B3F1004F72D2002B31DDA2F1040C9F
:10084000AAF1040013F0010F0CD0DCED010A00E066
:100850008BE090ED011A001D40EE410ACCED010A3B
:100860000CF1040C5C1019D0DCED010A90ED011ABA
:1008700040EE410ACCED010ADCED020A90ED021ACD
:10088000083040EE410ACCED020A03E0000000000F
:100890000DE005E0641E0CF1080CE5D102EB8302CB
:1008A00001EB88017F1E09F101097FF47DAF0098FB
:1008B00008F10108001D00900398401E03907FF48A
:1008C0004BAE0299012900E058E004BF06B0BDE834
:1008D000F08F00BFB5EEC00AF1EE10FA7FF4E9AD7B
:1008E00004990EFB05F3002B4A684FF000010BD969
:1008F00002EB810C9CED000AB5EEC00AF1EE10FA95
:1009000002D1491C8B42F3D88B427FF4D2AD6FF0F9
:100910000400CEE5E0EC010A491EFBD1EFE538E02A
:10092000E0EC010A521EFBD108E692ED000AD1ED7F
:10093000000ABCF1010CE2EC010AA1EC010AF4D1BD
:10094000B7E694ED000AD0ED000A491EE4EC010A76
:10095000A0EC010AF5D1BDE6D1ED000A401E80EE03
:10096000801AA1EC011AF7D1EEE6D3ED000A401E81
:1009700080EE801AA3EC011AF7D10EE7BCEC011A45
:10098000D1ED000A5B1E40EE410AE1EC010AF5D10F
:100990004DE7B0EC011AD2ED000A5B1E40EE410AB1
:1009A000E2EC010AF5D17BE72DE9F04F82B0466811
:1009B00053680193058847884B8800200090088879
:1009C000874201BFB2F800C06545528893421EBFFE
:1009D0006FF0020002B0BDE8F08F9FED412A4FEAB0
:1009E000970EC7F3400B00BFDDE9000202EB800A5F
:1009F0004A6898464FF00009B0EE420AB4465FEAF2
:100A00000E0025D092ED001ADCED001A02EB8302F5
:100A1000DCED010A01EE810A92ED001A02EB83027D
:100A2000401ED2ED001A02EB830200EE810A9CED1B
:100A3000021ADCED030A00040CF1100C000C01EEAC
:100A4000210A92ED001A02EB830200EE810AD9D14D
:100A500017F0030026D0ACF10404A2EB830210F0DF
:100A6000010F08D002EB8302D4ED010A92ED001AC7
:100A7000241D00EE810A5FEA0B0013D002EB830C09
:100A8000D4ED010A9CED001A02EBC302401E00EEF9
:100A9000810AD4ED020A92ED001A04F1080400EE76
:100AA000810AEBD109F10100AAEC010A1FFA80F9D1
:100AB000486800EB8902A8F101001FFA80F8B8F13C
:100AC000000F99D1009806EB8706184480B2009079
:100AD000681E05042D0C87D102B00020BDE8F08F00
:100AE0000000000070B405880E884468D1F804C086
:100AF0005368B54208D140884988884201BF1188AF
:100B00008D425188884203D070BC6FF0020070475C
:100B100005FB00F1880827D094ED001ADCED000AEF
:100B200094ED010ADCED011A31EE601AD4ED020AEF
:100B300070EE611A9CED020A83ED001AC3ED011AF2
:100B400094ED031ADCED031A30EEC00A401E71EE7C
:100B5000610A83ED020A04F11004C3ED030A03F1F4
:100B600010030CF1100CD7D111F0030030D0B0F10C
:100B7000004F30D200282BDD211F1B1FACF10402D7
:100B800010F0010F0AD091ED010AD2ED010A091D02
:100B9000121D30EE600A83ED010A1B1D400817D0BC
:100BA00091ED010AD2ED010A401E30EE600A83ED9C
:100BB000010A91ED020AD2ED020A01F1080102F1E7
:100BC000080230EE600A83ED020A03F10803E7D160
:100BD00070BC00207047B4EC010A401EFCEC010A16
:100BE00030EE600AA3EC010AF5D1F1E72DE9F04FF0
:100BF00002884768B0F802804888D1F8049082B033
:100C00004FF0000A1646824207BF098888456FF0F8
:100C1000020002B018BFBDE8F08F4FEA980B02EB5C
:100C200042000190C8F34000CDF8000009EB8A01B2
:100C3000BBF1000F33D0019801EB820C01EB800473
:100C40003B46E64601EBC2054FEA0B0093ED000A76
:100C5000401E81ED000A93ED010A01EB02118CEDBB
:100C6000000A93ED020A0CEB021C85ED000A93EDDD
:100C7000030A05EB021584ED000A04EB021403F1EC
:100C80001003E3D10EEB820000EB820000EB820147
:100C9000ABF10100504307EB0B1701EB001118F00B
:100CA000030C21D03B1FA1EB82011CF0010F06D0E9
:100CB00093ED010A01EB82011B1D81ED000A0098F2
:100CC00080B100BF93ED010A01EB820401EBC20188
:100CD00084ED000A93ED020A401E81ED000A03F143
:100CE0000803EFD107EB8C070AF101001FFA80FA25
:100CF000701E0604360C99D102B00020BDE8F08FBA
:100D000040EA01039B0703D009E008C9121F08C08D
:100D1000042AFAD203E011F8013B00F8013B521E0D
:100D2000F9D27047D2B201E000F8012B491EFBD284
:100D300070470022F6E710B513460A4604461946E6
:100D4000FFF7F0FF204610BD2DE9FE4F804681EAF7
:100D50000300C00F0C46009021F0004123F0004535
:100D6000B8EB0200A94105D24046214690461C46F8
:100D70000B46024623F00040104347D0270DC7F32F
:100D80000A00C3F30A510290401A019040286BDA1E
:100D9000C3F3130040F4801B0098924620B1002357
:100DA000D2EB030A63EB0B0B01985946C0F14002EA
:100DB000504600F034FA06460D4650465946019A10
:100DC00000F04CFA10EB08006141002487EA115250
:100DD00084EAE7731A4340D0009A62B3019A012A69
:100DE0004FEA075215DC001B61EB02014FF0004295
:100DF00002EA0752CDE90042001C41F5801132465B
:100E00002B4600F083FA03B0BDE8F08F4046214640
:100E1000F9E7001B61EB0201001C41F5801300188B
:100E20005B412018A2F5001747EB030140EAD5709B
:100E3000B6196D4111E06D084FEA360645EAC075F6
:100E40004FEA0752001B61EB0201001C41F58011C3
:100E500049084FEA30000019514132462B4603B091
:100E6000BDE8F04F00F043BA009801224000002393
:100E7000D0EB020263EBE073009821464FEAE07486
:100E8000B8EB000061EB0401E9E783F000435BE7A6
:100E900081F0004158E72DE9FE4F81EA030404F098
:100EA000004421F0004100944FF0000B23F0004378
:100EB00050EA01045ED052EA03045BD0C3F30A5443
:100EC000C1F30A552C44A4F2F3340194A0FB02545C
:100ED000C1F3130141F48011C3F3130343F48013EE
:100EE00001FB024400FB034E840A970A44EA815442
:100EF00047EA8357A4FB076802958D0A05FB07851F
:100F00004FEA932C04FB0C542705029D4FEA065828
:100F100047EA1637B5EB08056EEB070C870E920E05
:100F200047EA811742EA8312A7FB0201B6EB0B01E5
:100F300064EB00042B0D43EA0C335E1844EB1C50A9
:100F4000DA465146E7FB0201C5F313044FEA0B33BF
:100F500043EA14534FEA0432019C43EA0603A4F126
:100F60000C040294009CCDE900B400F0CFF903B06A
:100F7000BDE8F08F00200146F9E72DE9F04D81EA48
:100F8000030404F0004B21F0004514464FF0000A22
:100F900023F0004150EA050220D054EA01021DD09E
:100FA000C5F30A570246C5F31303C1F31300C1F397
:100FB0000A5640F4801543F48013A7EB0608101B73
:100FC000D64608F2FD3873EB050002D308F101089C
:100FD00001E092185B41B8F1000F03DA00200146EE
:100FE000BDE8F08D00204FF48011064684460EE0E7
:100FF000171B73EB050705D3121B63EB05030643B1
:101000004CEA010C49084FEA300092185B4150EA63
:101010000107EDD152EA030012D082EA040083EA0C
:101020000501084305D0101BAB4106D20122002365
:1010300006E000224FF0004302E06FF0010253107F
:101040001AEB06004CEB085110EB0A0041EB0B01C8
:10105000BDE8F04D00F04BB90EB5C10F80EAE0706D
:101060000844CA07002140F233438DE80E000A46C7
:101070000B4600F04BF903B000BD0EB540F2334112
:1010800002910021CDE900110A460B4600F03EF91D
:1010900003B000BD70B5C1F30A5201F00045002451
:1010A000C1F3130140F2FF3341F480119A4201DA97
:1010B000002070BD40F233439A42A2F2334203DC77
:1010C000524200F0BBF800E090402C43F1D0404287
:1010D00070BD00F0004230F000400AD0C10D01F5B3
:1010E0006071C0F3160042EA0151C2084007114383
:1010F000704700200146704730B5041E71F10004AE
:1011000004DB4FF00044404264EB0101141E73F114
:10111000000405DB1C464FF00043524263EB04031E
:101120008B4208BF824230BD30B5041E71F100040D
:1011300004DB4FF00044404264EB0101141E73F1E4
:10114000000405DB1C464FF00043524263EB0403EE
:10115000994208BF904230BD01F0004330B421F005
:10116000004150EA010206D00A0DA2F56072C1F3F7
:101170001301002A02DC30BC00207047440F44EA0F
:10118000C104C100E01830BC00EBC25000F078B8D8
:1011900030B50B46014600202022012409E021FA47
:1011A00002F59D4205D303FA02F5491B04FA02F544
:1011B0002844151EA2F10102F1DC30BD2DE9F05FDB
:1011C0000546002092469B468846064681464024B6
:1011D0001BE0284641464746224600F02FF853467A
:1011E0005A46C01A914110D311461846224600F0C3
:1011F00016F82D1A67EB01084F4622460120002100
:1012000000F00DF817EB00094E41201EA4F1010477
:10121000DFDC484631462A464346BDE8F09F202A97
:1012200004DB203A00FA02F1002070479140C2F13D
:10123000200320FA03F3194390407047202A04DB6F
:10124000203A21FA02F00021704721FA02F3D0403F
:10125000C2F120029140084319467047202A06DB5C
:10126000CB17203A41FA02F043EAE07306E041FA74
:1012700002F3D040C2F12002914008431946704762
:101280000029A8BF7047401C490008BF20F001009A
:10129000704710B4B0FA80FC00FA0CF050EA010478
:1012A00004BF10BC704749B1CCF1200421FA04F40A
:1012B00011FA0CF118BF012121430843A3EB0C01E3
:1012C000CB1D4FEA00614FEA102042BF002010BC46
:1012D000704700EBC35010440029A4BF10BC7047F6
:1012E000401C490008BF20F0010010BC704710B539
:1012F000141E73F1000408DA401C41F10001921839
:101300005B411A4301D120F0010010BD2DE9F04DE1
:1013100092469B4611B1B1FA81F202E0B0FA80F236
:1013200020329046FFF77BFF04460F4640EA0A0052
:1013300041EA0B0153465A46084313D0114653EA7B
:10134000010019D0C8F140025046FFF777FF05466B
:101350000E46504659464246FFF761FF084305D006
:10136000012004E020463946BDE8F08D0020054309
:1013700046EAE0762C4337430A986305E40AA0EB7B
:1013800008000022FD0A44EA47540A3002D5002032
:101390000146E9E7010510196941DDE90845001931
:1013A0006941BDE8F04DA2E72DE9F04D00231A4652
:1013B0001B1A8A4103DB00200146BDE8F08DC1F312
:1013C0000A52C1F3130141F480154FF0000BD1070D
:1013D00002D100186D41521E0027044640F2FF1151
:1013E000384601EB620A3E468046024600204FF432
:1013F0008011FFF723FFC2197141BB1846EB0100B2
:10140000B4EB030C75EB000C04D3E41A65EB000598
:1014100017460E46241908F101006D418046342814
:10142000E3DDF91946EB0600091BA84103D24FF092
:10143000FF32134601E0002213461BEB070046EB88
:101440000A51BDE8F04DFFF752BFC1F30A52C1F394
:10145000130140F2FF3341F480119A4202DA002076
:101460000146704740F233439A42A2F2334202DC13
:101470005242FFF7E3BEFFF7D2BE0000064C074D15
:1014800006E0E06840F0010394E807009847103454
:10149000AC42F6D3FEF77CFE580C0108780C01082C
:1014A00070B58C1810F8015B15F0070301D110F826
:1014B000013B2A1106D110F8012B03E010F8016B53
:1014C00001F8016B5B1EF9D12B0705D40023521ED6
:1014D0000DD401F8013BFAE710F8013BCB1A921C3E
:1014E00003E013F8015B01F8015B521EF9D5A1423C
:1014F000D8D3002070BD000030B52DED068BC9B0EB
:101500009FED7A8A7A4D0024B0EE489AF0EE488A30
:10151000DFED789AB0EE00AADFED77AA2A1DA91CAC
:10152000734803F029FCB5F9000048AA00EE100A40
:1015300047A9B8EEC00A20EE290A20EE0A0A20EEDA
:101540002A0A8DED460AB5F9020000EE100AB8EE3F
:10155000C00A20EE290A20EE0A0A20EE2A0A8DEDA2
:10156000470AB5F9040000EE100A46A8B8EEC00A12
:1015700020EE290A20EE0A0A20EE2A0A8DED480AFA
:1015800007F0F4FB9DED460A032039EE009A9DED2D
:10159000470A78EE808A9DED480A38EE008A0BF003
:1015A00053F8641CE4B2642CB8D3DFED541A89EE0E
:1015B000210A88EEA11A8DED460A20EE000AC8EE37
:1015C000210A8DED471A01EE010ACDED480A00EE21
:1015D000A00A0BF045F89DED461AC1EE000A10EE88
:1015E000900AFFF776FD41EC100B05F035FD9FEDFD
:1015F00044AB51EC100B53EC1A2BFFF74CFC9DED58
:10160000480A41EC180BB1EE400A10EE100AFFF741
:1016100060FD9DED470A41EC190BB1EE400A10EE5A
:10162000100AFFF756FD41EC100BB0EE491AF0EE30
:10163000691A06F02DF853EC1A2B51EC100BFFF73A
:101640002AFC9FED311B53EC112BFFF71EFC41ECE4
:10165000100B9FED2F2BB0EE481AF0EE681A34A84D
:1016600000F0F8FB482234A922A8FFF749FB4022EA
:1016700024A96846FFF744FBDDE9222334A803F0E0
:1016800003FF482234A910A8FFF73AFB382214A917
:101690006846FFF735FB10AC94E80F0003F0FCFC44
:1016A000B0EE41AAF0EE61AAB0EE429AF0EE629A74
:1016B000B0EE438AF0EE638A51EC100BFFF74CFD5D
:1016C000154C206051EC1A0BFFF746FD606051ECA1
:1016D000190BFFF741FDA06051EC180BFFF73CFD23
:1016E000E06049B0BDEC068B30BD0000000000009A
:1016F00060530120000000380AE81C410000C84285
:1017000000000000DCA54C400000000000806640A6
:101710000000000000000000180500203EB5224C2B
:10172000221DA11C204603F027FBB4F900006A46E5
:1017300000EE100A01A9F8EEC00A9FED1C0A20EE87
:10174000801AF0EE000A61EE201A9FED191A61EE80
:10175000811ACDED021AB4F9020001EE900AF8EEFA
:10176000E11A61EE801A61EEA01A61EE811ACDEDE8
:10177000011AB4F9040001EE900A02A8F8EEE11A89
:1017800021EE800A20EE200A20EE010A8DED000AEB
:1017900007F0ECFA9DED001ADDED010A9DED020A5D
:1017A00000F0F4FA3EBD0000605301200000003854
:1017B0000AE81C4130B52DED108B89B0FE4CFF4876
:1017C000D4ED001A21EEA10A8DED020A94ED011A62
:1017D000D4ED020A94ED030A61EE81DA21EEA0DA7B
:1017E00061EE801A20EEA0CA60EE80BACDED011A3B
:1017F00061EE011A61EE00CA20EE00BACDED031AC7
:1018000061EE201ACDED001AD0ED040ACDED080AE4
:10181000D0ED050ACDED070A90ED061A8DED061AFA
:10182000D0ED00EA90ED01AAD0ED02AA90ED07EA12
:10183000D0ED089A90ED099A02F030FE84ED100B7D
:1018400094ED0E0B53EC102B94ED100B51EC100B90
:10185000FFF71BFBFFF780FC00EE900A9FEDD81A04
:1018600080EE810A10EE100AFFF733FC94ED100BA6
:1018700041EC180B84ED0E0B2EEEAE0A0AEE0A0AAE
:101880000AEEAA0A0AF00EFD6EEE800A6AEE80FAEF
:10189000CDED050A6AEE000A2EEE0E0ACDED040A21
:1018A00009EEA90A09EE090A0AF0FCFC2EEE00EA8C
:1018B00069EE80EA29EE00FADDED080A9FEDC10A23
:1018C0009DED061A60EE801ADDED070A21EE001A82
:1018D00060EE800A9FEDBC0ABC4821EE80AA20EE93
:1018E000809A61EE009AB0EECA0A10EE101A9FEDCF
:1018F000B80A814201DAB0EE40AAF0EEC90A10EE51
:10190000901A814201DAB0EE409AF0EEE90A10EE48
:10191000901A814201DAF0EE409AF6EE002AF0EEDB
:1019200000AA32EECC0A6EEE2A0A6EEEAA1A30EE49
:101930004B0A8DED070A20EE802A9DED000A9DEDF1
:10194000011A70EE413A2FEE2A1A3CEE8D0ACDEDC7
:10195000063A01EEA32A9DED013A7CEECD3A01EE66
:10196000002A9DED000A30EE030A9DED033ACDED0D
:10197000013A72EEC32A20EE800A60EEA30A32EE2C
:10198000CB3A72EECC3A01EE830A3BEEED3ACDED66
:10199000083A01EE030A3BEEAD3A41EE830A41EE0E
:1019A000230ACDED000A62EE020A40EE000A10EEB4
:1019B000900AFFF78EFB41EC100B06F031F851EC6A
:1019C000100BFFF7C9FB9DED021ADDED032A00EEB7
:1019D000100ADDED000A31EE621ADDED013A20EE6B
:1019E000AA3A3DEEAB4A31EE4C1A63EEAA1A24EE47
:1019F0002A2A71EE0B2A20EE2A1A9DED070A21EE03
:101A0000000A03EE230ADDED063A61EE230A7DEEBD
:101A10002C3A43EE040A21EE231ADDED083A03EED8
:101A2000231A9DED043A23EE223A6EEE813A0FEE30
:101A3000C23A4FEE603A6EEE200A4EEEC00A33EE26
:101A400023BA2FEEA13ADDED053A03EEE23A6FEE4E
:101A5000002A2AEE0A0A23EE822A4EEE412A09EED5
:101A6000090A9DED041A01EE612A73EE22BA09EE0D
:101A7000A90A32EE20CA10EE100AFFF72AFB41EC49
:101A8000100B05F0CDFF51EC100BFFF765FB514932
:101A9000884210DA04F11C000BEE2AAA90EC030A2B
:101AA0000BEEAA9A4CEE2A9A3AEE00AA39EE209A48
:101AB00079EE819A05E03AEE0BAA39EE2B9A79EE8F
:101AC0008C9AD4ED01DA94ED02DAD4ED03BA2DEE5E
:101AD000CA0A0DEE490A0BEEE90A10EE100AFFF7EA
:101AE000F8FA53EC182BFFF7D6F994ED00BA41EC55
:101AF0001C0B1BEE100AFFF7ECFA53EC1C2BFFF744
:101B000023F9FFF729FB2BEE0A0A0EEE100A0DEE61
:101B1000290A0BEEC90A10EE100AFFF7DAFA53ECA5
:101B2000182BFFF7B8F941EC1C0B1DEE900AFFF7DC
:101B3000D0FA53EC1C2BFFF707F9FFF70DFB2BEE48
:101B4000090A0EEE900A0DEEE90A0BEE8A0A10EE73
:101B5000100AFFF7BEFA53EC182BFFF79CF941EC83
:101B60001C0B1DEE100AFFF7B4FA53EC1C2BFFF709
:101B7000EBF8FFF7F1FA2BEE290A0CEE100A0DEE46
:101B8000890A0DEE4A0A10EE100AFFF7A2FA53EC8A
:101B9000182BFFF780F941EC180B1BEE900AFFF7AA
:101BA00098FA53EC182BFFF7CFF8FFF7D5FA08EEA9
:101BB000100A2EEE0E0A0FE01805002038530120FF
:101BC0000000FA44F8C1F93C35FA8E3CA69B443B30
:101BD000000000009CC4A03E0EEEAE0A0CEE0C0A03
:101BE00008EE080A0AF05EFB6EEE00BA6EEE80CADE
:101BF0006CEE008AC4ED00BA28EE008AC4ED01CA7A
:101C0000C4ED028A84ED038A94ED0B0AB8EE00AAB3
:101C100084ED0A0A28EE8A0A68EE2A0AB7EE00BAAC
:101C200020EE280A00EEC80A30EE0B0A10EE100A69
:101C3000FFF74FFA2CEEAA0A6BEEAA0A41EC190B39
:101C400020EE280A00EE880A10EE100AFFF741FA8B
:101C500041EC100BB0EE491AF0EE691A05F018FDD0
:101C60009FED438B51EC100B53EC182BFFF713F93E
:101C7000FFF772FAE06294ED010AD4ED030A94EDE5
:101C8000021A20EE0A0A20EE200AD4ED000A60EEC5
:101C9000AA0A00EE810A10EE100AFFF71AFA41ECC8
:101CA000100B05F0D9F953EC182B51EC100BFFF782
:101CB000F2F8FFF751FA304DA86094ED019A29EE41
:101CC0000A0A60EE090A94ED020A60EE2A9A49EEC9
:101CD000C00A30EE8B0A10EE100AFFF7FAF994ED05
:101CE000030AD4ED000A41EC180B29EE800A60EEDD
:101CF000AA0A00EE890A10EE100AFFF7EAF941EC91
:101D0000100BB0EE481AF0EE681A05F0C1FC9FED1A
:101D10001B1B51EC100B53EC112BFFF7BCF8FFF71A
:101D20001BFAE860D4ED0B0A94ED0A0A154930EE6F
:101D3000C00A10EE100A884202DB206B401E06E04B
:101D400010EE100A10498842206B01D3401C20631A
:101D50004FF4B471484300EE100AB8EEC00A30EEFA
:101D6000200A85ED040A09B0BDEC108B30BD0000DF
:101D700000000000DCA54CC0B053012000000000B2
:101D8000DCA54C400000A5430000A5C3014880EC41
:101D9000030A70473853012070B52A4D00242DEDF9
:101DA000068BB0EE00AA9FED268ADFED279ADFEDC5
:101DB00027AAB0EE489AF0EE488A2A1DA91C2148AD
:101DC00002F0DAFFB5F9000000EE100AB5F90200E2
:101DD000B8EEC00A20EE290A20EE0A0A00EE2A9A7E
:101DE00000EE100AB5F90400B8EEC00A20EE290A88
:101DF00020EE0A0A40EE2A8A00EE100A0320B8EE0E
:101E0000C00A20EE290A20EE0A0A00EE2A8A0AF009
:101E10001BFC641CE4B2C82CCFD30A489FED0C0A0B
:101E20002830C9EE000AC0ED000AC8EE800AC0EDF5
:101E3000010AC8EE000AC0ED020ABDEC068B70BDB7
:101E40000000000060530120000000380AE81C4137
:101E50000000C84210B504462DED0C8B92B0B0EED8
:101E6000409AF0EE609AB0EE41AAF0EE61AA9FEDC2
:101E7000CB8B51EC120B53EC182BFFF70CF841EC09
:101E80001B0B53EC182B51EC1A0BFFF704F841EC29
:101E90001A0B53EC182B51EC190BFEF7FCFF41EC1D
:101EA000190BB0EE4B0AF0EE6B0A05F0F1FCB0EE48
:101EB000408AF0EE608AB0EE4A0AF0EE6A0A05F057
:101EC000E7FC53EC182B51EC100BFEF7E4FFB0EEDF
:101ED0004B0AF0EE6B0ACDE9000105F03DFDB0EED6
:101EE000408AF0EE608AB0EE490AF0EE690A05F029
:101EF000CFFC53EC182B51EC100BFEF7CCFF41EC50
:101F00001D0BB0EE4B0AF0EE6B0A05F0C1FCB0EE13
:101F100040CAF0EE60CAB0EE4A0AF0EE6A0A05F076
:101F20001BFDB0EE408AF0EE608AB0EE490AF0EE9A
:101F3000690A05F011FD53EC182B51EC100BFEF75C
:101F4000AAFF53EC1C2BFEF7A6FF53EC1D2BFEF74C
:101F50009CFFB0EE4B0AF0EE6B0ACDE9020105F0F2
:101F6000FBFCB0EE408AF0EE608AB0EE490AF0EE7B
:101F7000690A05F0F1FC53EC182B51EC100BFEF73D
:101F80008AFF41EC1D0BB0EE4B0AF0EE6B0A05F038
:101F90007FFCB0EE40CAF0EE60CAB0EE4A0AF0EE46
:101FA0006A0A05F0D9FCB0EE408AF0EE608AB0EE25
:101FB000490AF0EE690A05F06BFC53EC182B51EC62
:101FC000100BFEF768FF53EC1C2BFEF764FF53EC7D
:101FD0001D2BFEF7B9FEB0EE4B0AF0EE6B0ACDE911
:101FE000040105F0B9FCB0EE408AF0EE608AB0EE74
:101FF0004A0AF0EE6A0A05F04BFC53EC182B51EC40
:10200000100BFEF748FFB0EE4B0AF0EE6B0ACDE97D
:10201000060105F03DFCB0EE408AF0EE608AB0EEBD
:10202000490AF0EE690A05F033FC53EC182B51EC29
:10203000100BFEF730FF41EC1D0BB0EE4B0AF0EE3B
:102040006B0A05F089FCB0EE40CAF0EE60CAB0EE53
:102050004A0AF0EE6A0A05F07FFCB0EE408AF0EE24
:10206000608AB0EE490AF0EE690A05F075FC53EC9F
:10207000182B51EC100BFEF70EFF53EC1C2BFEF748
:102080000AFF53EC1D2BFEF75FFEB0EE4B0AF0EE9D
:102090006B0ACDE9080105F0FBFBB0EE408AF0EEDB
:1020A000608AB0EE490AF0EE690A05F055FC53EC7F
:1020B000182B51EC100BFEF7EEFE41EC180BB0EEB6
:1020C0004B0AF0EE6B0A05F047FCB0EE40CAF0EEAA
:1020D00060CAB0EE4A0AF0EE6A0A05F03DFCB0EEC6
:1020E00040BAF0EE60BAB0EE490AF0EE690A05F0C7
:1020F000CFFB53EC1B2B51EC100BFEF7CCFE53EC3B
:102100001C2BFEF7C8FE53EC182BFEF7BEFEB0EEFC
:102110004A0AF0EE6A0ACDE90A0105F01DFC51EC0D
:10212000100B81F00041B0EE4A0AF0EE6A0ACDE9E8
:102130000C0105F0ADFBB0EE408AF0EE608AB0EE27
:10214000490AF0EE690A05F007FC53EC182B51EC34
:10215000100BFEF7A0FEB0EE4A0AF0EE6A0ACDE9D7
:102160000E0105F095FBB0EE408AF0EE608AB0EE0D
:10217000490AF0EE690A05F08BFB53EC182B51EC81
:10218000100BFEF788FECDE9100148226946204673
:10219000FEF7B6FD12B0BDEC0C8B10BD000000A028
:1021A00046DF913FFEE700002DE9F04F8BB08A46F5
:1021B000814601211E4690460846DDF850B003F0E6
:1021C00015FB01214C06204603F01CFB0121204693
:1021D00003F024FB0021204603F020FB4FF4C05005
:1021E000079002208DF8200000248DF82240032063
:1021F0008DF821002E4F01258DF8235007A9384670
:1022000002F09EF809220B21384602F0D5F8092287
:102210000C21384602F0D0F88DF802B08DF803900A
:102220008DF806408DF80840ADF800608DF8075035
:102230008DF809501F4E8DF80A408DF804808DF8F6
:102240000B408DF805A06946304600F04FFB8DF835
:1022500016408DF817408DF81850ADF80C40ADF8C9
:102260001040ADF80E40ADF81240ADF814408DF8B6
:10227000195003A800F0CCFA01220221304600F0E8
:102280002DFB0022E903304600F028FB14208DF8D6
:10229000240004208DF825008DF826408DF8275065
:1022A00009A803F04DF90BB00020BDE8F08F000045
:1022B000000002400064004010B5054A00210548B6
:1022C00000F088FBBDE81040014800F005B80000B0
:1022D00068430120006400402DE9F04101684FF49B
:1022E00080535D420A46B1F5017F08D01BDCA1F5A1
:1022F0000071013903D0012901D0022924D1521ED5
:10230000514CD1B2514F217001EB810207EB820198
:1023100037F82260B1F912C0A6EB0C069E4215DD1B
:10232000CB685B1E16E0A1F5007105395DD001296F
:1023300030D0FB2908D1444930F80B2F091D0A8001
:1023400042884A8080888880BDE8F081AE4202DA07
:10235000CB685B1CCB6037F822304B8230F80B3FE8
:102360005BBA27F8223045886DBA4D8085886DBAF2
:102370008D8080790874C868C0EB4030184488604C
:102380003248F03000EBC20001F07EF92078801D69
:10239000C0B254E02D4964390A88B1F91240141BC7
:1023A0000A469C42D26801DD521E02E0AC4201DACC
:1023B000521CCA600A884A8230F80B2F52BA0A802F
:1023C00043885BBA4B8083885BBA8B8080790874C2
:1023D000C868C0EB4030104488601C49643901F57E
:1023E0002F7001F08BF9032029E0184950390A8831
:1023F000B1F91240141B0A469C42D26801DD521EFC
:1024000002E0AC4201DA521CCA600A884A8230F803
:102410000B2F52BA0A8043885BBA4B8083885BBA21
:102420008B8080790874C868C0EB403010448860A5
:102430000649643901F5257001F060F90420BDE812
:10244000F04100F053BF000050030020AC400120D9
:1024500010B5054A0121054800F0BCFABDE810405E
:10246000014800F005B800007C43012000680040EE
:102470002DE9F04101684FF48053A1F201225D4241
:10248000524C082A79D2DFE802F0042D2D9F6464B3
:1024900064644F490A88B1F91240141B0A469C42F1
:1024A000D26801DD521E02E0AC4201DA521CCA6061
:1024B0000A884A8230F80B2F52BA0A8043885BBAE6
:1024C0004B8083885BBA8B8080790874C868C0EBC6
:1024D0004030104488603E4901F52F7001F0D4F877
:1024E00005206DE0891EC9B2394E617001EB810291
:1024F000143606EB820136F82270B1F912C0A7EB50
:102500000C079F4202DDCB685B1E03E0AF4202DA9C
:10251000CB685B1CCB6036F822304B8230F80B3F27
:102520005BBA26F8223045886DBA4D8085886DBA31
:102530008D8080790874C868C0EB4030184488608A
:102540002348DC3000EBC20001F09EF860780A30CE
:1025500035E0491FC9B21E4EA17001EB81028C36D5
:1025600006EB820136F82270B1F912C0A7EB0C0716
:102570009F4203DDCB685B1E04E025E0AF4202DA38
:10258000CB685B1CCB6036F822304B8230F80B3FB7
:102590005BBA26F8223045886DBA4D8085886DBAC1
:1025A0008D8080790874C868C0EB4030184488601A
:1025B000084800EBC20001F0A1F8A078801DC0B26D
:1025C000BDE8F04100F092BEBDE8F081500300206C
:1025D000704001203C4201202DE9F04F894683469E
:1025E0008BB09A4690460121022003F0FFF80121AA
:1025F0008C06204603F006F90121204603F00EF96F
:102600000021204603F00AF96020079002208DF88F
:10261000200000248DF822400326304F8DF82160E1
:1026200001258DF8235007A9384601F089FE0922BB
:102630000521384601F0C0FE09220621384601F086
:10264000BBFE14988DF806408DF808408DF8020006
:102650008DF807508DF80950214F8DF80A408DF8FC
:1026600003B08DF804808DF80B408DF80590ADF81F
:1026700000A06946384600F039F90E208DF81600A2
:102680008DF817408DF81850ADF80C40ADF810409B
:10269000ADF80E40ADF81240ADF814508DF8195059
:1026A00003A800F0B5F801221021384600F016F911
:1026B0000022E9030B4800F011F941208DF82400B5
:1026C0008DF825608DF826408DF8275009A802F076
:1026D00037FF0BB00020BDE8F08F0000000402407F
:1026E000006800400064004010B586B04FF40074EC
:1026F000009400248DF808408DF8094008248DF8D6
:102700000A40040A8DF80C00080A8DF80D008DF8B7
:102710000E10100A8DF80F008DF81020180A8DF891
:1027200011008DF80B408DF812306946024800F018
:1027300098F906B010BD00000064004030B40D4CA4
:1027400040F2FF1525600025257265720825A572E7
:10275000050AE5722073080A6073A173100AE0731A
:102760002274180A6074A374214630BC024800F039
:1027700078B90000544301200064004010B50E4BAE
:1027800086B0188059809A8040F222200090002064
:102790008DF808008DF8090008208DF80A00002047
:1027A00069461A5C0C18401CE2720628F9D30348EB
:1027B00000F057F906B010BD5A0300200064004035
:1027C00010B586B04FF40073009300238DF80830E5
:1027D0008DF8093008248DF80A40040A8DF80C00A1
:1027E000080A8DF80D008DF80E10100A8DF81020D3
:1027F0008DF80F008DF811308DF80B408DF81230E8
:102800006946024800F02DF906B010BD006800408E
:10281000F0B5827A2F4D012191402A6842F00102E1
:102820002A602C4E1C3632688A433260294A047B67
:10283000294B0C32A4B914688C4314604488C788AF
:1028400044EA0744877A03EBC707C7F84046048881
:10285000878844EA0744877A03EBC707C7F84446EA
:10286000047B012C12D114680C431460847A026832
:1028700003EBC4044FEA3242C4F84026847A42682B
:1028800003EBC4034FEA3242C3F84426114AC37A29
:10289000121D002B136806D00B4313600D4A0389E9
:1028A000143213B104E08B43F7E713688B431360D2
:1028B0000389012B02D113680B431360407B01286D
:1028C00002D1306808433060286820F00100286099
:1028D000F0BD00000066004000600040002A426930
:1028E00001D00A4300E08A434261704710B5036893
:1028F000002223F002030360036843F00103036036
:102900004FF6FF7300E0521C4468E40701D19A427D
:10291000F9D14268D2073ED08A79012A02683CD0B8
:1029200022F080020260CA79012A026838D022F0BF
:10293000400202600A7A012A026834D022F02002A2
:1029400002604A7A012A026830D022F01002026046
:102950008A7A012A02682CD022F008020260CA7A20
:10296000012A026828D022F0040202608A78CC781A
:10297000920742EA04620C7942EA04424C790988DF
:1029800042EA0452491E0A43C261016821F0010172
:102990000160002114E0002010BD42F08002C1E778
:1029A00042F04002C5E742F02002C9E742F01002BF
:1029B000CDE742F00802D1E742F00402D5E7491C16
:1029C0004268D20701D09942F9D14068C007E2D1EC
:1029D000012010BD10B500EB0113D3F8B04114F085
:1029E00004041472D3F8B04133D0E4085460D3F82F
:1029F000B04104F002045472D3F8B44104F00F045F
:102A00009472D3F8B441240AD474D3F8B841D47280
:102A1000D3F8B841240A1473D3F8B841240C547382
:102A2000D3F8B841240E9473D3F8BC41D473D3F8CF
:102A3000BC41240A1474D3F8BC41240C5474D3F858
:102A4000BC311B0E937439B1016941F02001016161
:102A500010BD640D1460CAE7C16841F02001C16077
:102A600010BD30B50246002093685B0108D4906821
:102A7000000101D5012003E09068C00044D5022088
:102A800002EB0012D2F8803103F00103C2F880316A
:102A90000B7AC3B3D2F880414D681C434B7A43EAAA
:102AA000C5031C43C2F880418B7A03F00F038B727D
:102AB000D2F8843123F00F03C2F88431D2F8843184
:102AC0008C7A2343C2F88431CB7A8C7B0D7B43EA2A
:102AD00004634C7B240444EA05242343C2F8883170
:102AE000CB7B8C7C43EA04634C7C097C240444EA61
:102AF00001210B43C2F88C31D2F8801141F0010161
:102B0000C2F8801130BD01E00420FBE7D2F880312B
:102B10004C7A23430C8843EA4453C2F88031C3E71C
:102B20002DE9F04F0024DDE90EA5DDE90B7BDDE9A1
:102B300009CEDDF8349006E0C4F10208641C00F808
:102B40000860032C02DA0E5D002EF5D1C17841F049
:102B5000380162F30201C170B0F8031063F3891108
:102B6000A0F8031001796CF385010171B0F807201A
:102B70006BF30902A0F80720028969F38C02028135
:102B8000B0F809206AF34F12A0F8092082886EF38A
:102B90008E128280B0F8051067F3CF11A0F80510EF
:102BA000002104E0431815F8012BDA73491CB942DF
:102BB000F8D3BDE8F08F00000FB44FF6FF7070B58A
:102BC00092B03022ADF8380016A96846FEF798F8A2
:102BD000A5208DF83000304E3320ADF8310030782C
:102BE0000CAC8DF83300FF220421204601F048FC94
:102BF0008DF8340040F20130ADF835004FF48870A4
:102C0000ADF83C00B088ADF83E003089ADF840002A
:102C1000BDF838200721204601F01CFCADF8380033
:102C20000FAB02460621184601F014FCADF838003F
:102C300002462D21684601F00DFCADF838000CADC0
:102C40000024287803F058FF641C6D1C072CF8D36F
:102C50000FAD0024287803F04FFF641C6D1C062C78
:102C6000F8D36D460024287803F046FF641C6D1CE1
:102C70002D2CF8D30EAD0024287803F03DFF641C02
:102C80006D1C022CF8D33078401C307012B000203C
:102C900070BC5DF814FB0000680500202DE9F043CE
:102CA000D0F8C815DFF85092098909F1100800EE34
:102CB000101A0021B8EE401A01EBC10202EB01121A
:102CC00000EB820209EB810392ED2D0AD2ED2E0A70
:102CD00002F5876230EE600A83ED000A92EC020A88
:102CE00008EB8102491C042930EE600A82ED000ADB
:102CF000E2DB90ED2F0ABDEEC00A10EE101A0AB208
:102D000000F58061002A91ED5B0ABDEEC00A10EE6D
:102D1000103A91ED420A0FFA83FCBDEEC00A10EEA4
:102D2000103A91ED290A1FB2BDEEC00A10EE103A1A
:102D300091ED100A1EB2BDEEC00A10EE103A90EDF1
:102D40007A0A1DB2BDEEC00A10EE103A90ED610A8B
:102D50001CB2BDEEC00A10EE103A90ED480A1BB24C
:102D6000BDEEC00A10EE100A00B200DA524200288E
:102D700000DA40421044002B00DA5B421844002C79
:102D800000DA64422044002D00DA6D422844002E0F
:102D900000DA76423044002F00DA7F423844BCF13A
:102DA000000F01DACCF1000C604400EE100AD8EDFF
:102DB000032AD8ED021AF8EEC03A99ED000A98ED10
:102DC000013A98ED002ABDEEC00ACC4610EE100A7A
:102DD000BDEEE20A00B210EE102ABDEEE10A0028B4
:102DE00014B210EE102ABDEEC30A13B210EE102A70
:102DF000BDEEC20A12B210EE105A9CED030A2FB2B9
:102E0000BDEEC00A10EE105A9CED020A2EB2BDEEC5
:102E1000C00A10EE105A99ED010A2DB2BDEEC00A9B
:102E200010EE10CA0FFA8CFC00DA4042BCF1000F21
:102E300001DACCF1000C6044002D00DA6D42284428
:102E4000002E00DA76423044002F00DA7F42384408
:102E5000002A00DA52421044002B00DA5B42184488
:102E6000002C00DA6442204400EE100A2348244A71
:102E7000F8EEC00AC0ED0A0A11EE100A90420EDA0E
:102E80009FED204A81EE040A9FED1F1A20EE000AF2
:102E900020EE010AB1EE001A20EE010A01E09FEDDA
:102EA0001B0AF4EEC03AF1EE10FA17DD82EE201A9A
:102EB00021EE001A81ED101A83EE201A21EE001A7D
:102EC00081ED291A81EEA01A21EE001A81ED421A35
:102ED00082EEA01A21EE000A81ED5B0A064A00206C
:102EE000103A02EB800391ED100A401C83ED000ABA
:102EF0000428F6DBBDE8F0832840012024030020ED
:102F0000000070420000704200401C4600401C4718
:102F10002DE9F04104462DED028B122004EBC00197
:102F2000401E91ED480B002881ED4A0B91ED000BFE
:102F300081ED020BF2DC94ED000B9FED241B84ED80
:102F4000020B53EC112B51EC100BFDF7A4FF214E9B
:102F50000125A6F19808C4E94A0104EBC50706EB70
:102F6000C50097ED4A1B90ED000B53EC112B51EC73
:102F7000100BFDF790FF41EC180B08EBC50097ED27
:102F8000021B90ED000B53EC112B51EC100BFDF7D5
:102F900082FF94ED4A1B53EC112BFDF7D5FE53EC49
:102FA000182BFDF772FF6D1C132DC4E94A01D4DB09
:102FB00094ED4A0B84ED920B51EC100BFEF7CCF81C
:102FC000BDEC028B00EE100ABDE8F081BEDC0F1CE8
:102FD000508C063EA8FB0008074A904201D20748E1
:102FE00001E005481038064A8B0001EA020101D5CC
:102FF000C160704781607047106402400060024009
:103000007D0F7D0F074A904201D2074801E0054835
:103010001038064A8B0001EA020101D5C1607047F1
:103020008160704710640240006002407D0F7D0F98
:103030000029016802D041F0010101E021F0010105
:10304000016070472DE9F043016821F00101016042
:103050000021016041608160C16001612121416105
:103060003C493C4A3D251039904202D18D60BDE873
:10307000F083384A4FF474661832904201D18E6062
:10308000F5E7344A4FF474173032904201D18F6023
:10309000EDE7304A4FF0746C4832904202D1C1F8EB
:1030A00008C0E4E72B4B2C4A6033984201D1CA6038
:1030B000DDE7284C294B7834A04201D1CB60D6E71C
:1030C000DFF89080264C08F19008404501D1CC6093
:1030D000CDE7DFF880804FF03D5908F1A808404562
:1030E00002D1C1F80C90C2E71E49DFF87880083998
:1030F000404501D10D60BAE71A4D1835A84201D1FB
:103100000E60B4E7174D3035A84201D10F60AEE72D
:10311000144D4835A84202D1C1F800C0A7E7114DAF
:1031200010496035091FA84201D10A609FE70D4A86
:103130007832904201D10B6099E70A4A903290426E
:1031400001D10C6093E7074AA83290428FD1C1F8B1
:1031500000908CE7106002403D000020400F0020EE
:1031600000003D20106402400029016802D041F4B3
:10317000802101E021F4802101607047002A02686B
:1031800002D042F4002201E022F400220260016138
:103190007047406880B27047014600200968090303
:1031A00000D501207047000030B50368124ACC6892
:1031B00013400A682243D1E905452C432243CC69D8
:1031C00022430C6A22434C6A22438C6A22434C6B92
:1031D00022438C6B22431A430260426922F00703A8
:1031E000D1E90B2422431A4342610A6942604A68CA
:1031F00082608968C16030BD3F801CF041607047CB
:103200000021016041608160C160016141618161B3
:10321000C161016241628162C16201634163816394
:10322000704770472DE9F05F2C4C00262C4DDFF8DD
:10323000B4A066704FF480584FF400694FF4806B6F
:103240004FF48077A078414600EBC00005EB80008A
:10325000C07C8006504602D501F0BEF801E001F0C6
:10326000BDF8A078494600EBC00005EB800090F85F
:1032700037008006504602D501F0AEF801E001F0BB
:10328000ADF8A078594600EBC00005EB800090F83F
:103290005B008006504602D501F09EF801E001F087
:1032A0009DF8A068401CA060B84207DD04210E48CC
:1032B00001F092F8A078C01CA070A660A0780C283D
:1032C00004D10421084801F089F8A6706078401CF8
:1032D000C0B260700328B5D3BDE8F09F6003002042
:1032E0009043012000080240000C024000EBC001A6
:1032F00010B5114800EB8104206860600CF026F9DD
:103300002060E17C4A0603D521F04001E174E060D1
:10331000A06958B1804748B1E07C40F0A000E0745B
:10332000206A002806D0BDE810400047E07C20F06D
:103330008000E07410BD000090430120F0B593B010
:10334000044648221D496846FDF7DAFC0022DFF8F2
:1033500070C017466E4602EB420002EBC2010CEB56
:10336000810136F810500B8A06EB400065F30B0321
:103370000B824588B1F81130521C65F30F13A1F888
:1033800011300379C87C8F6163F34400CF610F6211
:1033900040F0E100C8744F610C604C608C60D2B2A8
:1033A000CC600C2AD7D30748CCF86000CCF8647006
:1033B0000548CCF8680013B0F0BD000088FA00089A
:1033C00090430120D95A000815D80008F0B50746E7
:1033D000012187B0084602F009FA0121102002F00D
:1033E00029FA2F4E07220921304600F0E5FF072277
:1033F0000A21304600F0E0FF7015009002208DF8A1
:10340000040000248DF8064003208DF805000125F6
:103410008DF807506946304600F092FFA8020090F0
:103420006946304600F08CFF0297ADF810400C2042
:103430001C4FADF80C40ADF81200ADF80E40ADF8E1
:10344000144002A9384603F05FFD0121384603F01D
:10345000B4FC012240F22551384603F03DFD002224
:1034600001212D200BF06EFD0F4E00220121306056
:103470002D200BF067FD70600121384603F09DFCA4
:1034800025208DF8180009208DF819008DF81A40B4
:103490008DF81B5006A802F053F807B0F0BD0000ED
:1034A00000000240001001402C0000202DE9F04FE8
:1034B00099B080460FA803F085FD13A803F077FCB0
:1034C0000121202002F0B6F90121042002F08EF93A
:1034D0000121202002F0AEF90121042002F086F93A
:1034E00001218E05304602F081F9624F0822062143
:1034F000384600F061FF08220721384600F05CFFE3
:10350000C020159002208DF8580000248DF85940F5
:103510008DF85A4001258DF85B5015A9384600F00A
:103520000FFFADF844400C20DFF84CB1ADF840403F
:10353000ADF84600CDF83C80ADF84240ADF84840CB
:103540000FA9584603F0E0FC0121304602F04EF985
:1035500001224021584603F03AFC012280215846BE
:1035600003F035FCDFF814914846FFF76BFD684621
:10357000FFF746FE4248CDE9020404A91E204FF49D
:10358000806881E81101079428040894CDE9094076
:103590004FF020660BF104070B940C940D946946D0
:1035A00048460E94CDE90067FFF7FEFDDFF8CCA09A
:1035B0000AF1900A5046FFF745FD6846FFF720FEE6
:1035C0002F4800960A38CDE901704020CDE9045417
:1035D00003908000CDE90840CDE906844002CDE9A2
:1035E0000A040C940D94694650460E94FFF7DCFDD6
:1035F000234900221E314846FFF7C0FD01214846FD
:10360000FFF7B2FD012240F22441584603F064FC6A
:103610006802ADF85000ADF84C40ADF84E40ADF842
:10362000524013A9584603F0B4FB47208DF85C00C4
:1036300008208DF85D008DF85E408DF85F5017A86A
:1036400001F07EFF0022342132200BF07BFC0D4C78
:1036500000223421606032200BF074FCA060012154
:10366000584603F0AAFB01214846FFF7E1FC19B0D8
:10367000BDE8F08F000802400014014028640240B9
:10368000100600203800002010B50B88B1F9121088
:103690000022591A41F664130160D94204DA4368E2
:1036A00001F500515B1C07E041F66413994206DD09
:1036B0004368A1F500515B1EC0E9013100E0816063
:1036C0000B4690F8201000EB8104491C80F8201074
:1036D000E36090F82010052902D1002180F8201025
:1036E000002100EB8103491CDB68C9B21A4405299B
:1036F000F7D3052192FBF1F1416210BD10B50B88A3
:10370000B1F912100022591A016011F5805F04DA34
:10371000436801F500515B1C06E0B1F5805F06DDF2
:103720004368A1F500515B1EC0E9013100E08160F2
:103730000B4690F8201000EB8104491C80F8201003
:10374000E36090F82010052902D1002180F82010B4
:10375000002100EB8103491CDB68C9B21A4405292A
:10376000F7D3052192FBF1F1416210BD01490860D8
:10377000704700000C3C024070B50646002529B198
:10378000012927D0022928D04FF4407500F07EF897
:1037900009281ED1124C206820F440702060206857
:1037A00028432060206820F0F8002060206846F060
:1037B000020108432060206840F48030206000F05F
:1037C00065F8216821F002012160216821F0F801EB
:1037D000216070BD4FF48075D8E74FF40075D5E7D0
:1037E000103C02400D4909200A68D20301D501208E
:1037F00070470A68D20601D5062070470A68D205CC
:1038000001D5022070470A6812F0EF0F01D007209F
:10381000704709688907FBD5082070470C3C0240B7
:103820000248016841F0004101607047103C0240CD
:1038300070B50D46064600F029F8092811D1094C4B
:10384000206820F44070206020682060206840F0EC
:1038500001002060357000F019F8216821F00101A5
:10386000216070BD103C024005480068002805DA60
:10387000034804490C3801600349016070470000A7
:10388000103C024023016745AB89EFCD08B5092004
:103890008DF80000FFF7A6FF8DF800009DF80000EE
:1038A0000128F7D09DF8000008BD10B5FFF7DCFF38
:1038B000F120FFF75BFF01215820FFF75DFFBDE816
:1038C0001040FFF7ADBF0000044A0021535C435491
:1038D000491CC9B23029F9D30020704700000E08F6
:1038E00070B506460A4DFFF7E0FFFFF7BDFF002465
:1038F000E120FFF73BFF315D2819FFF799FF641CBA
:10390000E4B2302CF4D3FFF78BFF002070BD000031
:1039100000000E0890F864120C2917D2DFE801F0BD
:1039200006160C160E101616161612140021A0F804
:103930000811A0F83012704708F0D6B808F0AABAFB
:1039400008F076B908F052B808F012BC07F004BFCE
:1039500070B504002DED028B7DD09148904DF2EEB4
:103960000E0AC078803510B194ED3B0A01E094ED69
:103970003A0A2D22564230EE601A30EE200A3146C5
:1039800085ED001A85ED010A2068B0F90C0008F0F9
:1039900087FC20682D223146B0F90E0008F080FC2B
:1039A000606890ED030AB1EE400A84ED850AB0F933
:1039B0000000404200EE100AB8EEC00A84ED860A0C
:1039C000D4F83C01B4F90C12B0F9000007F070FE15
:1039D00000EE100AD5ED030AB8EEC00A20EE200A68
:1039E00084ED840A85ED050A606890ED040AB1EE65
:1039F000400A84ED3B0AB0F9040000EE100AB8EE6C
:103A0000C00A84ED3C0A94ED3A0A85ED060A606925
:103A1000B4F9E410B0F9000007F04AFE00EE100A15
:103A2000D5ED020A5F48B8EEC00A20EE200A84ED08
:103A30003A0AD0F8D805012801D003281FD1D5EDC6
:103A4000060A594970EEC00A10EE900A884203DB5C
:103A5000286A401C07E09FE010EE900A5349884214
:103A6000286A01D3401E28624FF4B471484300EE27
:103A7000900AF8EEE00A30EE200A85ED070A94ED90
:103A80003B0AB3EE0E1A70EE410AB4EEE00AF1EE14
:103A900010FA06D970EE010AB4EEE00AF1EE10FA5F
:103AA00001DBC4ED3B0A94ED3B0A85ED040AA068F6
:103AB00050F8011FC4F870124068C4F874022068FE
:103AC000B0F90E0000EE100A3948B8EEC00A00F056
:103AD000ADFF9FED388ADFED388AB0EE481AF0EE80
:103AE000680A07F009FD2068DFED341A9FED342ADB
:103AF000B0F9061020EE210A01EE901AF8EEE11A54
:103B000001EEC20AD4ED9A1A30EE210A84ED9A0A27
:103B1000B0F90C0000EE100A2548B8EEC00A3038A3
:103B200000F084FFB0EE481AF0EE680A07F0E4FCFB
:103B30002068DFED240A9FED241AB0F9040020EE7E
:103B4000200A00EE900A2149F8EEE00A00EE810A10
:103B5000D4ED9B0A30EEC00A84ED9B0AD4F86802CB
:103B6000884202D3FBEE0C0A04E01949884203DBC9
:103B7000F3EE040AC4ED9A0AD5ED000AB4EEE00AA9
:103B8000F1EE10FA06D9D5ED010AB4EEE00AF1EE35
:103B900010FA01DBC4ED9B0ABDEC028B70BD000086
:103BA000F0000020AC39012000003443000034C391
:103BB000F838012000003442000034C2A69B443B88
:103BC00052499D39BC74933B3480B7390000E0C141
:103BD0000000A04110B504462DED048B07F018FD40
:103BE000606007F031FD606107F01EFDC4F83C0124
:103BF00007F016FDA06107F023FDF3EE040A9FED28
:103C0000628AC4F8400104F50D70B0EE480A00F075
:103C1000F5FEF2EE0E0AB0EE480A04F5867000F0EA
:103C2000EDFEDFED5A8AB7EE000A5948F0EE680A59
:103C300000F0E4FE5648F0EE680AB7EE000A3030B5
:103C400000F0DCFE52480222524B1146AC30FCF729
:103C50000FFC504B4E48022220331146BC30FCF77B
:103C600007FC4C494A489439603008F031FC484818
:103C7000F0EE480AB7EE000A603800F0BFFE444894
:103C8000F0EE480AB7EE000A303800F0B7FE07F051
:103C900025FD206007F0C0FCA06007F079FCE06023
:103CA00007F0FAFC2061002084F864029FED3B8A53
:103CB000394841F2D151DFED3B8AA0F80C1240F6B1
:103CC0006E51A0F8E410F0EE484AB0EE484AF0EE2B
:103CD000483AB6EE003ADFED322AB0EE482AF0EE6E
:103CE000481AB3EE001AF0EE680AB0EE680A04F162
:103CF000800000F0E9FA9FED2C9ADFED2C9AB0EEEF
:103D0000483AF0EE482AB0EE482AF0EE481AB0EEF3
:103D1000481AF0EE490AB0EE690A254A002104F17A
:103D20001C0001F001FDF0EE484AB0EE484AF0EE0A
:103D3000483AB0EE483AF0EE482AB0EE482ADFEDB5
:103D40001D1AB2EE0E1AF0EE680AB0EE680A04F51B
:103D5000D47000F0B9FAB0EE483AF0EE482AB0EE6E
:103D6000482AF0EE481AB0EE481AF0EE490AB0EED2
:103D7000690ABDEC048B04F5A2700D4ABDE8104041
:103D80000C3A002101F0D0BC000048420000704213
:103D9000C838012074020020E03501200000000036
:103DA0006F12833A00007A4400A08C46005EEA4617
:103DB00004FA00080AD7233C2DE9F04704002DED52
:103DC000048B7CD094F865029FEDEA8AEA4D04F1F9
:103DD000800604F11C0804F5D47904F5A27720B11B
:103DE00094F86412F9B1012805D094F864120129FD
:103DF0001FD0022804D0C9B202297BD0042804D0E5
:103E0000C9B2042977D0052804D0C9B2052973D0D6
:103E10000A2804D0C9B20A296FD00B2802D0C8B230
:103E20000B286BD09BE10020A4F80801A4F8300215
:103E300095E195ED050AF0EE483AB0EE483AF0EE1D
:103E4000482AB0EE482AF0EE481AB0EE481AF0EED2
:103E5000480AB8EEC00A304607F096FE95ED060A0D
:103E6000F0EE483AB0EE483AF0EE482AB0EE482A72
:103E7000F0EE481AB0EE481AF0EE480AB8EEC00A62
:103E8000404608F019FC95ED070AF0EE483AB0EE0E
:103E9000483AF0EE482AB0EE482AF0EE481AB0EE62
:103EA000481AD5ED090AB8EEC00A484607F06CFE7C
:103EB000F0EE483AB0EE483AF0EE482A00E052E11F
:103EC00095ED080AB0EE482AF0EE481AB0EE481A0E
:103ED000F0EE480AB8EEC00A384608F0EDFB94ED63
:103EE000850A84ED9A0A94ED3B0A84ED9B0A84EDE1
:103EF0003F8A34E103E095E0DAE026E137E19E4DC8
:103F0000803595ED100B51EC100BFDF725F995ED73
:103F10000E0B08EE900A51EC100BFDF71DF995ED14
:103F20000C0B09EE100A51EC100BFDF715F9F0EE31
:103F3000489A00EE100AF0EE693AB0EE693AF0EEF7
:103F4000692AB0EE692AF0EE691AB0EE681AF0EE4E
:103F5000490A304607F018FE95ED120B51EC100B94
:103F6000FDF7FAF800EE100AF0EE693AB0EE693AA1
:103F7000F0EE692AB0EE692AF0EE691AB0EE691A1D
:103F8000F0EE690A404608F097FB95ED180B51ECEE
:103F9000100BFDF7E1F895ED160B08EE100A51EC49
:103FA000100BFDF7D9F895ED140B08EE900A51ECC3
:103FB000100BFDF7D1F800EE100AF0EE003AB0EE6B
:103FC000693AF0EE692AB0EE692AF0EE691AB0EEAD
:103FD000481AF0EE680A484607F0D6FD95ED1A0B30
:103FE00051EC100BFDF7B8F800EE100AF0EE693A4C
:103FF000B0EE693AF0EE692AB0EE692AF0EE691A7D
:10400000B0EE691AF0EE690A384608F055FB94EDF7
:10401000850A84ED9A0A94ED3B0A84ED9B0AC4ED6F
:104020003F9A9CE005F14001F0EE483A91EC030A1A
:10403000B0EE483AF0EE482AB0EE482AF0EE481AC0
:10404000304607F0A1FDF0EE483AB0EE483AF0EE07
:10405000482AB0EE482AF0EE481AB0EE481AF0EEC0
:10406000480A95ED130A404608F026FB05F1500179
:10407000F0EE483A91EC030AB0EE483AF0EE482AE6
:10408000B0EE482AF0EE481A484607F07DFDF0EE03
:10409000483AB0EE483AF0EE482AB0EE482AF0EE40
:1040A000481AB0EE481AF0EE480A95ED170A46E0B5
:1040B00084ED3F8A05F16001F0EE483A91EC030A85
:1040C000B0EE483AF0EE482AB0EE482AF0EE481A30
:1040D000304607F059FDF0EE483AB0EE483AF0EEBF
:1040E000482AB0EE482AF0EE481AB0EE481AF0EE30
:1040F000480A95ED1B0A404608F0DEFA05F170010A
:10410000F0EE483A91EC030AB0EE483AF0EE482A55
:10411000B0EE482AF0EE481A484607F035FD95ED16
:104120001F0AF0EE483AB0EE483AF0EE482AB0EEF8
:10413000482AF0EE481AB0EE481AF0EE480A38461F
:1041400008F0BAFA94ED850A03E084ED3F8A94ED15
:10415000840A84ED9A0A94ED3B0A84ED9B0A94F854
:10416000640284F86502BDEC048BBDE8F08784ED41
:104170003F8AE7E700000000F00000200FB42DEDBB
:10418000040BF0EE401A70B504002DED028BB0EE7A
:10419000418A9FED4C0A7DD0C4ED041AC4ED030A98
:1041A00070EEE10AC4ED0E0AD4ED151A94ED162A4C
:1041B000F4EE421AF1EE10FA1AD071EE821AB6EE4F
:1041C000001A21EE811AB4EEE01AF1EE10FA02D2D2
:1041D00070EEE10A0AE0BEEE001A21EE811AB4EE9A
:1041E000E01AF1EE10FA03DD71EEA00AC4ED0E0A3A
:1041F000B0EEE01AD4ED120AB4EEE01AF1EE10FAC5
:1042000002D394ED0E0A03E084ED0F0A84ED0E0A4A
:1042100094ED141AF0EEC00AF4EEC10AF1EE10FAB1
:1042200001DD002508E0D4ED090A94ED011A01250D
:1042300041EE000AC4ED090A0BA800F0F7FB84ED7B
:104240000E0AD4ED000AB7EE001A04F1240020EEA5
:10425000800A84ED080A94ED020A60EE080A94EDE3
:10426000130A31EE401A60EE810A94ED0B1A60EEEB
:10427000810A94ED171A40EE010AC4ED0A0A94ED82
:10428000070A04F089FCD4ED080A94ED091A00EE3F
:10429000105A00E011E0B8EEC00A04F1440040EE0C
:1042A000010A94ED0A0A30EE800A84ED110A94EDB9
:1042B000060A04F071FC94ED110ABDEC028B70BC8F
:1042C0005DF824FB00000000002834D090ED125A65
:1042D000194AB0EEC55A15EE101A9FED185A9142C0
:1042E00001DC80ED125A80ED055A80ED045AC0EDD4
:1042F000070A80ED060A80ED0D5A80ED0C5A80ED1C
:104300000B5A80ED115A80ED0A5A80ED095A80ED62
:10431000085A80ED105A80ED0F5A80ED0E5AC0ED0C
:10432000122AC0ED144A80ED133AC0ED153A80ED23
:10433000164A80EC031A7047ACC52737000000000E
:10434000F0B5002201274FF0030C0B6807FA02F5C5
:104350002B40AB422CD1066853000CFA03F4A64361
:1043600006600E79D0F800E09E4046EA0E06066030
:104370000E79012E01D0022E12D18668A6438660E6
:104380004E79D0F808E09E4046EA0E068660466800
:10439000AE43466045688E799640B6B23543456077
:1043A000C568A543C560CC799C40C3681C43C46004
:1043B000521C102AC9D3F0BD4B07DB0E9A40C90826
:1043C00010B500EB8100016A0F249C40A1430162FB
:1043D000016A1143016210BD418370470183704738
:1043E0001B4A10B5911E881E00F0EFFC18480C38CF
:1043F000B0F9081000EE101A00F11401B1F908200C
:10440000F8EEC00A00EE102AB0F90A20B0F90C004C
:10441000B8EEC00A30EEC00A00EE902AB1F90A20C8
:10442000B8EEE01A00EE902AF8EEE00A71EE600AAB
:1044300001EE100AB1F90C00BDE81040F8EEC11A07
:1044400001EE100AB8EEC11A31EEC11A00F050B8F0
:104450006C53012010B558B1084C491E0BD310F80D
:10446000013B5340DBB234F8133083EA1222F4E705
:104470004FF6FF7010BD104610BD000040FD000853
:1044800010B5054C03E010F8013B5340E25C491EB7
:10449000F9D2104610BD000040FC000810B52DED0B
:1044A000028B08F0FDF8FCF7E8FD41EC180B4FF02B
:1044B000E020416982694069891A4FF47A72514358
:1044C000B1FBF0F0FCF7D9FD9FED071B53EC112B6E
:1044D000FCF7E1FC53EC182BFCF736FCBDEC028B2F
:1044E00041EC100B10BD0000FCA9F1D24D62503F11
:1044F00010B510EE100A2DED028BF0EE418AB0EEF1
:10450000608AFCF7E6FD124CC4E9000118EE100ABF
:10451000FCF7DFFDC4E9940118EE900AFCF7D9FD21
:10452000224602F5946203C22046FEF7F1FC094CD4
:10453000094884ED040AFEF7EBFC84ED050A074800
:10454000FEF7E6FC84ED060ABDEC028B10BD000010
:10455000D04B012038530120204E01207050012003
:10456000FEE7000010B5044607F096F86060037897
:104570001549164A032B03D10B6040F20313136055
:104580000378042B03D10B604FF48273136003781C
:10459000052B03D10B6040F2051313600378672BE2
:1045A00003D10B6040F2671313600378682B03D1CB
:1045B0000B604FF4B47313600078692803D108606E
:1045C00040F26910106010BD6C05002070050020DD
:1045D0002DE9F0471A4E1B4C002506F10C0906F197
:1045E0000A0806F108074A464146384600F0EDFB46
:1045F000B6F90800216908442061B6F90A0061692A
:1046000008446061B6F90C00A1690844A061032068
:1046100008F01AF86D1CEDB2C82DE4D32169C8204A
:1046200091FBF0F2064914310A81626992FBF0F2C3
:104630004A81A26992FBF0F08881BDE8F087000012
:1046400060530120180500201B4D1D4E05F1140775
:104650002DED028BA5F178049FED188AFDF75EF829
:10466000FFF7BEFE04F034FC384600F0EFFBFDF728
:10467000A1F894ED040A20EE080ABDEEC00A10EE7F
:10468000100A288094ED050A20EE080ABDEEC00A43
:1046900010EE100A688094ED060A20EE080ABDEEBE
:1046A000C00A10EE100AA88001200AF087F9002045
:1046B0000AF004F87063D1E7B0530120F8C1F93C67
:1046C0001805002038B5A82006F076FE4FF440709B
:1046D00000F068FF002403230822194620460094B6
:1046E000FDF762FD03230822194600200094FDF720
:1046F00073FF08F0E3FC532144F61F6002F03CF81E
:104700004FF4E130FEF762FE4FF46120FEF7CEFE7B
:1047100000F0BAF900F0B7F900F022FB0028FBD155
:10472000FFF756FF04F078FAFCF7E6FEBDE83840E4
:1047300000F046BC224FDFF88090DFF880A0214EC9
:10474000A7F10C0899ED000A444688ED000A9AED9D
:10475000000A88ED010A3868807A88F80A0006F0B5
:104760009BFF386006F0C2FF7860386800780A283E
:1047700001D9002000E001206072114CFF220C3CA6
:104780000B21204606F07AFFE0725A21304602F0F3
:1047900011F900252178304602F00CF9641C6D1CDB
:1047A0000C2DF7DB002009F089FF07498860052000
:1047B0000AF004F9C6E7000080010020840100200F
:1047C000CC470120001401409C03002010B50400D8
:1047D0000BD0B0F8011009310AF0E0FA002804D03B
:1047E0002046BDE8104007F073BD10BD384E08B537
:1047F000354F364D4FF0FF390024A6F10408002351
:104800004A46694638680AF0D9FB307850B1012829
:1048100010D0022814D0032820D0042824D0052842
:1048200032D047E09DF80000A52843D10121317026
:10483000287042E0022030709DF8000068703CE073
:10484000032030709DF80000A8706978091D41EAC6
:1048500000207080642830D934702EE0042030703D
:104860009DF80000E87028E0052030709DF80000F9
:104870002871052115480AF0AFFAB4800028EBD062
:104880003078062813D018E0708898B1401E0104D3
:10489000090C71800D4AB08802F105029DF80030C4
:1048A000835400F10100B08007D106203070074822
:1048B000FFF78CFF34707480B480002009F0FEFE96
:1048C000C8F800009BE7000030000020DC53012006
:1048D000780500202DE9F0413D4E4FF001044FF0E6
:1048E00000053068007DC1073A4801D0047003E03C
:1048F0000570394801F06CF9306838494FF0020210
:10490000808AC30601D40A7007E0354B42F6E0679F
:104910001B88BB4201D90C7000E00A708107314846
:1049200001D5047004E005702B48483001F050F9BF
:104930003068007D41072C4801D5047004E0057003
:104940002548243001F044F93068007D01072748EC
:1049500001D5047004E005701F486C3001F038F98F
:1049600030682349234A808A830501D40C7008E00B
:104970000B78012B05D10D701178491C01F0010154
:10498000117081061C4801D4047008E001780129E7
:1049900005D105705078401C00F0010050704FF4B4
:1049A000167421460C4801F016F90B4821462430B4
:1049B00001F011F908484FF4FA642146483001F03B
:1049C0000AF92146BDE8F04103486C3001F003B913
:1049D000AC3901201F000020883F01202300002067
:1049E000540300202100002020000020220000208D
:1049F00019000020A4020020240000209FED0A1AC4
:104A000080ED001A80ED051A80ED090AC0ED0A0A52
:104A1000B7EE000A80ED070A80ED081A80ED0B0A58
:104A200080ED011A7047000000000000D0ED071A69
:104A3000D0ED000A21EEA01A80ED011AD0ED090A8E
:104A400090ED052A41EE820AC0ED030AD0ED0A1A64
:104A500030EEA12AC0EE821A30EE412AB0EE410AB1
:104A6000B7EE001AC0ED061A31EE611A01EE820AA5
:104A700061EE200A80ED020AC0ED040AC0ED050ACD
:104A800080ED000A7047704770472DE9F04F002411
:104A9000DDE90C76DDE90A9ADDF824C0DDF838B0EE
:104AA00006E0C4F10208641C00F80850032C02DA86
:104AB0000D5D002DF5D110F8031F62F302010170A6
:104AC000018863F38911018041786CF3850141709D
:104AD000828869F309028280B0F805206AF38C02AB
:104AE000A0F80520C18867F34F11C180B0F8091004
:104AF00066F38C01A0F8091042896BF34F124281D2
:104B0000BDE8F08F10B57521012000F0C7F904460B
:104B10000A2007F099FD702C01D0012010BD8022E1
:104B20006B21012000F020FA0A2007F08DFD002201
:104B30006B21012000F018FA0A2007F085FD0722FA
:104B40006821012000F010FA0A2007F07DFD032201
:104B50006B21012000F008FA0A2007F075FD002201
:104B60006C21012000F000FA0A2007F06DFD002200
:104B70001A21012000F0F8F90A2007F065FD002253
:104B80001921012000F0F0F90A2007F05DFD002254
:104B90001A21012000F0E8F90A2007F055FD102243
:104BA0001B21012000F0E0F90A2007F04DFD002252
:104BB0001C21012000F0D8F90A2007F045FD012250
:104BC0003821104600F0D0F90A2007F03DFD0122FF
:104BD0003721104600F0C8F90A2007F035FD0D22F4
:104BE0002721012000F0C0F90A2007F02DFD0D2239
:104BF0006721012000F0B8F90A2007F025FD0D22F9
:104C00002721012000F0B0F90A2007F01DFD012244
:104C10006B21104600F0A8F90A2007F015FD0022CC
:104C20006C21012000F0A0F90A2007F00DFD002002
:104C300010BD10B57521022000F030F904460A209D
:104C400007F002FD702C01D0012010BD80226B21E5
:104C5000022000F089F90A2007F0F6FC00226B21FF
:104C6000022000F081F90A2007F0EEFC07226821FB
:104C7000022000F079F90A2007F0E6FC03226B21FC
:104C8000022000F071F90A2007F0DEFC00226C21FE
:104C9000022000F069F90A2007F0D6FC00221A2150
:104CA000022000F061F90A2007F0CEFC0022192151
:104CB000022000F059F90A2007F0C6FC00221A2150
:104CC000022000F051F90A2007F0BEFC10221B213F
:104CD000022000F049F90A2007F0B6FC00221C214E
:104CE000022000F041F90A2007F0AEFC0122382131
:104CF000022000F039F90A2007F0A6FC0122372132
:104D0000022000F031F90A2007F09EFC0D22272135
:104D1000022000F029F90A2007F096FC0D226721F5
:104D2000022000F021F90A2007F08EFC0D22272135
:104D3000022000F019F90A2007F086FC01226B21FD
:104D4000022000F011F90A2007F07EFC00226C21FD
:104D5000022000F009F90A2007F076FC002010BDBF
:104D600010B500F04DF9FFF7CDFE18B9FFF761FF60
:104D7000002800D0012010BD2DE9FC4791460F46C8
:104D800080466B4606223B21012000F0B5F890B921
:104D9000BDF800006B4640BA06B2BDF8020006221C
:104DA00040BA05B2BDF804003B2140BA04B202206B
:104DB00000F0A2F810B10120BDE8FC87A8F800605F
:104DC0003D80A9F800400020F6E72DE9FC47914618
:104DD000884606466B4606224321012000F08CF8E7
:104DE00090B9BDF800006B4640BA07B2BDF80200AA
:104DF000062240BA05B2BDF80400432140BA04B20D
:104E0000022000F079F810B10120BDE8FC87BDF860
:104E10000210BDF8000049BA40BA09B200B2BDF8AC
:104E20000420394401EBD171281A491000EBD070ED
:104E300052BA3180401012B2A8F80000A01800EB5E
:104E4000D0704010A9F800000020DEE738B5044615
:104E50006B4602224121012000F04EF8BDF800000F
:104E600040BA00B2FCF7F8F89FED081B53EC112B89
:104E7000FCF783F89FED071B53EC112BFBF764FF46
:104E8000FCF76AF92060002038BD000052B81E858A
:104E9000EBDD74400000000000002A402DE9F041E5
:104EA000134D144E0F460446012802D0022C03D0A5
:104EB00006E01021284601E010213046FFF78CFA69
:104EC00047F0800000F042FFFF2000F03FFF074660
:104ED000012C02D0022C03D006E01021284601E06C
:104EE00010213046FFF77AFA3846BDE8F08100001D
:104EF00000080240000002402DE9F047DFF8608022
:104F0000DFF860901D4614460F460646012802D081
:104F1000022E03D006E01021404601E01021484651
:104F2000FFF75AFA47F0800000F010FF06E0FF207C
:104F300000F00CFF641E05F8010BE4B2002CF6D162
:104F4000012E02D0022E03D006E01021404601E0DF
:104F500010214846FFF742FA0020BDE8F087000024
:104F600000080240000002402DE9F041124D134EAE
:104F7000174688460446012802D0022C03D006E0DA
:104F80001021284601E010213046FFF725FA40465F
:104F900000F0DCFE384600F0D9FE012C02D0022CD5
:104FA00003D006E01021284601E010213046FFF72B
:104FB00015FA0020BDE8F081000802400000024020
:104FC0001CB50121022000F011FC01208DF8040025
:104FD00000218DF8061002218DF8051000908DF843
:104FE000070069460248FFF7ABF900F003F81CBD63
:104FF0000004024001210148FFF7EEB9000402401D
:105000002DE9FC410121072000F0F0FB012188037C
:1050100000F010FC01248DF804400025DFF86C80BE
:1050200010278DF80650032600978DF80560694615
:105030004046FFF785F900978DF80440144F8DF82E
:1050400006508DF8056069463846FFF779F98DF806
:1050500004408DF8074000940E4C8DF806508DF8F2
:10506000056069462046FFF76BF901212046FFF7EE
:10507000B3F900F00DFE10214046FFF7AFF9102103
:105080003846FFF7ABF9BDE8FC810000000802409C
:1050900000000240000402400FB430B52DED108B2B
:1050A00085B09DED28AB51EC1A0B81F000419DEDD0
:1050B0001A0B0D468DED020B9DED208B45EC100B70
:1050C00004469DED1EFB9DED24EB9DED1CDB9DED4F
:1050D00022CB9DED26BB9DED189B53EC182B51EC7C
:1050E000100BFCF709F853EC1A2B51EC180B7DD27E
:1050F000FCF71AF860D245EC104B53EC192B51EC2D
:10510000100BFBF7F9FF60D353EC192B9FEDD40B79
:1051100051EC100BFBF7B9FE53EC182BFBF714FE08
:1051200053EC1A2BFBF7B1FE41EC100B02F078FCAC
:105130009FEDCD1B51EC100B53EC112BFBF7ABFE8D
:1051400041EC110B53EC1E2B8DED001B51EC1D0B94
:10515000FBF79BFE9DED001B53EC112BFBF70DFFA6
:105160009DED020B41EC180B53EC102B51EC1F0B77
:10517000FBF7EAFD81F000419DED001B53EC112B84
:10518000FBF7FBFE41EC190B9FEDB90B9DED001BEE
:1051900053EC102B51EC110BFBF77DFE41EC1A0B7D
:1051A00053EC1C2B51EC1B0B4CE19DED001B53EC05
:1051B000112BFBF7E2FEB1E051EC180B81F000413E
:1051C00053EC192BFBF798FF4ED29FEDA50B51EC3A
:1051D000190B53EC102BFBF7B7FD53EC182BFBF717
:1051E000B3FD53EC1A2BFBF7AFFD00E0CFE041EC31
:1051F000100B02F015FC9FED9C1B51EC100B53ECB7
:10520000112BFBF748FE41EC110B8DED001B9FEDC0
:105210009A0B53EC102BFBF73EFE41EC180B53ECB2
:105220001B2B51EC1C0BFBF730FE9DED001B53ECD0
:10523000112BFBF7A2FE41EC190B53EC1D2B51EC8B
:105240001E0BFBF722FE9DED001B53EC112BFBF711
:1052500094FE9DED020B41EC1A0B53EC1F2B51EC0D
:10526000100BFBF712FEA0E753EC192B9FED7C0B04
:1052700051EC100BFBF709FE53EC182BFBF705FE66
:1052800053EC1A2BFBF760FD41EC100B02F0C8FB4E
:105290009FED751B51EC100B53EC112BFBF7FBFD35
:1052A00041EC110B51EC1F0B8DED001B9DED020B22
:1052B00053EC102BFBF7E9FD9DED001B53EC112B7C
:1052C000FBF75BFE41EC180B53EC1E2B51EC1D0B56
:1052D000FBF73AFD81F000419DED001B53EC112BD3
:1052E000FBF74BFE41EC190B53EC1C2B51EC1B0B49
:1052F000FBF72AFD81F000419DED001B53EC112BC3
:10530000FBF73BFE41EC1A0B9FED590B9DED001B8B
:1053100053EC102B51EC110BFBF7BDFD41EC1B0BBB
:105320009FED570B51EC180B53EC102BFBF7E4FEE1
:1053300017D251EC180B81F0004141EC180B51ECE5
:10534000190B81F0004141EC190B51EC1A0B81F063
:10535000004141EC1A0B51EC1B0B81F0004141EC78
:105360001B0B05B0B0EE480AF0EE680AB0EE491A21
:10537000F0EE691AB0EE4A2AF0EE6A2AB0EE4B3A25
:10538000F0EE6B3ABDEC108B30BC5DF814FBFBF714
:10539000CBFE5CD253EC182B51EC190BFBF7C4FE7F
:1053A000BFF4B2AE51EC190B9FED2D0B53EC102B4B
:1053B000FBF7CAFC53EC182BFBF767FD53EC1A2BD9
:1053C000FBF763FD41EC100B02F02AFB9FED261B5F
:1053D00051EC100B53EC112BFBF75DFD41EC110B65
:1053E00053EC1C2B8DED001B51EC1B0BFBF74DFD03
:1053F0009DED001B53EC112BFBF7BFFD9FED1C0B2C
:105400009DED001B41EC180B53EC102B51EC110BD4
:10541000FBF741FD9DED020B41EC190B53EC102BFA
:1054200051EC1F0BFBF790FC81F000419DED001B40
:1054300053EC112BFBF7A1FD41EC1A0B53EC1E2B87
:1054400051EC1D0BFBF780FC81F00041ADE653EC05
:105450001A2B51EC190BFBF767FEA3D304E70000EE
:10546000000000000000F03F0000000000000040CD
:10547000000000000000D0BF000000000000D03F8E
:1054800000000000000000000FB4482200B593B0F7
:1054900069469DED160B8DED000B9DED1C0B8DED02
:1054A000020B9DED220B8DED040B9DED180B8DED88
:1054B000060B9DED1E0B8DED080B9DED240B8DED68
:1054C0000A0B9DED1A0B8DED0C0B9DED200B8DED58
:1054D0000E0B9DED260B8DED100BFBF711FC13B0A1
:1054E0005DF814FBFEE7000010B586B000248DF8CF
:1054F00008408DF8094008248DF80A4040F2FF1456
:105500000094040A8DF80C00080A8DF80D008DF83F
:105510000E10100A8DF80F008DF81020180A8DF863
:1055200011008DF80B408DF8123069460248FDF7E6
:1055300098FA06B010BD00000068004070470000F7
:1055400030B50F23C27801780125FAB1144A1268E8
:1055500001F1E02102F4E062C2F5E062C2F3072249
:10556000C2F10404D3404278A24084781C40144322
:10557000220181F80024007800F01F018D404009CD
:10558000800000F1E020C0F8005130BD01F01F00A4
:1055900085404809800000F1E020C0F8805130BD0E
:1055A0000CED00E002490843024908607047000022
:1055B0000000FA050CED00E0F0EE402A9FED590ADC
:1055C00000287DD030EEE21A80ED0F1AD0ED151ACA
:1055D00090ED162AF4EE421AF1EE10FA1AD071EE9E
:1055E000821AB6EE002A21EE822AB4EEC12AF1EE2A
:1055F00010FA02D231EE611A0AE0BEEE002A21EE64
:10560000822AB4EEC12AF1EE10FA03DD31EE811ADE
:1056100080ED0F1AC0ED060AC0ED072AD0ED120A80
:10562000B0EEC11AB4EEE01AF1EE10FA02D390ED2A
:105630000F0A03E080ED100A80ED0F0A90ED141AB6
:10564000F0EEC00AF4EEC10AF1EE10FA01DD00211D
:1056500000E00121D0ED010AF7EE003A60EE802A69
:10566000C0ED092AD0ED0A0A90ED021A41EE000AB7
:10567000C0ED0A0A90ED0D1A80ED0E1A90ED0C1A8D
:1056800080ED0D1A90ED102A30EE421A80ED0C1AC2
:10569000D0ED131A90ED033A73EEE13A23EE233A7C
:1056A00023EE011A90ED173A01EE831A80ED0B1AE2
:1056B000D0ED051AF4EEE10AF1EE10FA0BDC00E091
:1056C0002FE0F1EE611AF4EEE10AF1EE10FA02D3E6
:1056D000D0ED0A1A01E0C0ED0A1A00EE901AF8EEB9
:1056E000E00A40EEA12A72EE810AC0ED080AD0ED70
:1056F000041AF4EEE10AF1EE10FA06DCF1EE611A9A
:10570000F4EEE10AF1EE10FA01D2C0ED081A80EDD4
:10571000112A80ED100A80ED171A90ED080A80ED2D
:10572000180A704700000000002832D0002A30D04C
:105730000170D2ED003AC0ED013AD2ED013AC0ED70
:10574000023AD2ED023AC0ED033A80ED040A9FED31
:10575000110AC0ED050A80ED0E0A80ED0D0A80EDFC
:105760000C0A80ED080A80ED0B0A80ED0A0A80ED34
:10577000090A80ED110A80ED100A80ED0F0A80ED14
:10578000121A80ED143AC0ED131A80ED152AC0EDFF
:10579000162A704700000000F0EE401A31EEE00AD1
:1057A00071EEE01AB5EEC00A70EEA11AF1EE10FA31
:1057B00007DDB4EEC10AF1EE10FA11DD70EE810AD8
:1057C00010E0B5EEC00AF1EE10FA0BD8B1EE412AA6
:1057D000B4EEC20AF1EE10FA02D270EEC10A01E094
:1057E000F0EE610AB0EE600A70470000044A00293A
:1057F000116801D0014300E081431160704700004F
:1058000030380240044A0029116801D0014300E009
:10581000814311607047000040380240044A00296B
:10582000116801D0014300E081431160704700001E
:1058300020380240044A0029116801D0014300E0E9
:10584000814311607047000044380240044A002937
:10585000116801D0014300E08143116070470000EE
:105860002438024070B5204B1968204C11F00C010F
:1058700004D06610042903D0082903D004601BE07B
:10588000066019E0184A121F1168C1F380551168AB
:1058900001F03F0115B1B6FBF1F101E0B4FBF1F10C
:1058A00014681268C4F388146143C2F30142521CA5
:1058B0005200B1FBF2F1016019680F2202EA1111E6
:1058C0000B4A545C0168E14041601C68072505EA09
:1058D0009424145D21FA04F484601B6805EA5333B0
:1058E000D25CD140C16070BD083802400024F40091
:1058F000440000202DE9F0438946804601218FB005
:1059000016460846FFF772FF01214C042046FFF7B8
:1059100079FF01212046FFF781FF01212046FFF793
:105920007DFF01214805FFF761FF3F4D072203215D
:105930002846FEF741FD02218DF8141000248DF851
:10594000164008208DF8151004908DF8174004A912
:105950002846FEF7F5FC354F384601F041FA344849
:1059600000902D15ADF808500420ADF80440ADF8B6
:105970000A00ADF80640ADF80C406946384601F023
:10598000C3FA01224021384601F021FA102138469D
:1059900001F0F6F9012240F22441384601F09CFA68
:1059A0000121384601F009FA26208DF80000072071
:1059B0008DF801008DF8024001208DF80300684643
:1059C000FFF7BEFD1B4F3846FDF73CFB6804009017
:1059D000CDE903461548CDE90545001D0794CDE9FD
:1059E00001088015CDE908404FF44030CDE90A04A4
:1059F0000C940D94694638460E94FDF7D5FB0022B1
:105A000049463846FDF7BAFB01213846FDF7ACFBA5
:105A100000213846FDF70CFB01213846FDF708FB55
:105A20000FB0BDE8F08300000000024000440040D9
:105A3000A08601008860024010B500283AD0B0F975
:105A400000101E4A012491422BD1B0F9021091425C
:105A500027D1B0F90410B1F5257F22D1B0F9061095
:105A600091421ED100231A4619461846FCF73CFE07
:105A700000231A4619461846FCF760FE002211461C
:105A80001046FCF79DFE84F31388BFF34F8F0C483C
:105A900001680C4A01F4E06111430160BFF34F8FCC
:105AA000FEE7807A0849032806D0012803D002289F
:105AB00000D10C7010BD0220087010BD6CFDFFFFFE
:105AC0000CED00E00400FA0514000020002801DCC1
:105AD000404200B27047000070B5194CB4F90000A4
